{"abi":[{"inputs":[{"internalType":"string[]","name":"terms","type":"string[]"},{"internalType":"uint256","name":"amount","type":"uint256"},{"internalType":"address","name":"customer","type":"address"},{"internalType":"string","name":"descriptionSet","type":"string"},{"components":[{"internalType":"uint256","name":"year","type":"uint256"},{"internalType":"uint256","name":"month","type":"uint256"},{"internalType":"uint256","name":"day","type":"uint256"}],"internalType":"struct SharedStruct.DateTime","name":"startDateNew","type":"tuple"},{"components":[{"internalType":"uint256","name":"year","type":"uint256"},{"internalType":"uint256","name":"month","type":"uint256"},{"internalType":"uint256","name":"day","type":"uint256"}],"internalType":"struct SharedStruct.DateTime","name":"endDateNew","type":"tuple"},{"internalType":"string","name":"newCustomerName","type":"string"},{"internalType":"string","name":"newSupplierName","type":"string"},{"internalType":"string","name":"typeOfTransaction","type":"string"},{"internalType":"string","name":"newTimeStamp","type":"string"}],"name":"createTransaction","outputs":[],"stateMutability":"nonpayable","type":"function"},{"inputs":[{"internalType":"uint256","name":"","type":"uint256"}],"name":"deployedTransactions","outputs":[{"internalType":"contract RecurrentTransaction","name":"","type":"address"}],"stateMutability":"view","type":"function"},{"inputs":[],"name":"getDeployedTransactions","outputs":[{"internalType":"contract RecurrentTransaction[]","name":"","type":"address[]"}],"stateMutability":"view","type":"function"}],"devdoc":{"kind":"dev","methods":{},"version":1},"evm":{"assembly":"    /* \"Transaction.sol\":308:1357  contract TransactionFactory {... */\n  mstore(0x40, 0x80)\n  callvalue\n  dup1\n  iszero\n  tag_1\n  jumpi\n  0x00\n  dup1\n  revert\ntag_1:\n  pop\n  dataSize(sub_0)\n  dup1\n  dataOffset(sub_0)\n  0x00\n  codecopy\n  0x00\n  return\nstop\n\nsub_0: assembly {\n        /* \"Transaction.sol\":308:1357  contract TransactionFactory {... */\n      mstore(0x40, 0x80)\n      callvalue\n      dup1\n      iszero\n      tag_1\n      jumpi\n      0x00\n      dup1\n      revert\n    tag_1:\n      pop\n      jumpi(tag_2, lt(calldatasize, 0x04))\n      shr(0xe0, calldataload(0x00))\n      dup1\n      0x4102a008\n      eq\n      tag_3\n      jumpi\n      dup1\n      0xe17036f4\n      eq\n      tag_4\n      jumpi\n      dup1\n      0xf4d79e6c\n      eq\n      tag_5\n      jumpi\n    tag_2:\n      0x00\n      dup1\n      revert\n        /* \"Transaction.sol\":404:1215  function createTransaction(... */\n    tag_3:\n      tag_6\n      0x04\n      dup1\n      calldatasize\n      sub\n      dup2\n      add\n      swap1\n      tag_7\n      swap2\n      swap1\n      tag_8\n      jump\t// in\n    tag_7:\n      tag_9\n      jump\t// in\n    tag_6:\n      stop\n        /* \"Transaction.sol\":343:393  RecurrentTransaction[] public deployedTransactions */\n    tag_4:\n      tag_10\n      0x04\n      dup1\n      calldatasize\n      sub\n      dup2\n      add\n      swap1\n      tag_11\n      swap2\n      swap1\n      tag_12\n      jump\t// in\n    tag_11:\n      tag_13\n      jump\t// in\n    tag_10:\n      mload(0x40)\n      tag_14\n      swap2\n      swap1\n      tag_15\n      jump\t// in\n    tag_14:\n      mload(0x40)\n      dup1\n      swap2\n      sub\n      swap1\n      return\n        /* \"Transaction.sol\":1225:1355  function getDeployedTransactions() public view returns (RecurrentTransaction[] memory){... */\n    tag_5:\n      tag_16\n      tag_17\n      jump\t// in\n    tag_16:\n      mload(0x40)\n      tag_18\n      swap2\n      swap1\n      tag_19\n      jump\t// in\n    tag_18:\n      mload(0x40)\n      dup1\n      swap2\n      sub\n      swap1\n      return\n        /* \"Transaction.sol\":404:1215  function createTransaction(... */\n    tag_9:\n        /* \"Transaction.sol\":792:827  RecurrentTransaction newTransaction */\n      0x00\n        /* \"Transaction.sol\":868:873  terms */\n      dup11\n        /* \"Transaction.sol\":887:893  amount */\n      dup11\n        /* \"Transaction.sol\":907:915  customer */\n      dup11\n        /* \"Transaction.sol\":929:943  descriptionSet */\n      dup11\n        /* \"Transaction.sol\":957:967  msg.sender */\n      caller\n        /* \"Transaction.sol\":981:993  startDateNew */\n      dup12\n        /* \"Transaction.sol\":1007:1017  endDateNew */\n      dup12\n        /* \"Transaction.sol\":1031:1046  newSupplierName */\n      dup11\n        /* \"Transaction.sol\":1060:1075  newCustomerName */\n      dup13\n        /* \"Transaction.sol\":1089:1106  typeOfTransaction */\n      dup12\n        /* \"Transaction.sol\":1121:1133  newTimeStamp */\n      dup12\n        /* \"Transaction.sol\":830:1152  new RecurrentTransaction(... */\n      mload(0x40)\n      tag_21\n      swap1\n      tag_22\n      jump\t// in\n    tag_21:\n      tag_23\n      swap12\n      swap11\n      swap10\n      swap9\n      swap8\n      swap7\n      swap6\n      swap5\n      swap4\n      swap3\n      swap2\n      swap1\n      tag_24\n      jump\t// in\n    tag_23:\n      mload(0x40)\n      dup1\n      swap2\n      sub\n      swap1\n      0x00\n      create\n      dup1\n      iszero\n      dup1\n      iszero\n      tag_25\n      jumpi\n      returndatasize\n      0x00\n      dup1\n      returndatacopy\n      revert(0x00, returndatasize)\n    tag_25:\n      pop\n        /* \"Transaction.sol\":792:1152  RecurrentTransaction newTransaction = new RecurrentTransaction(... */\n      swap1\n      pop\n        /* \"Transaction.sol\":1167:1187  deployedTransactions */\n      0x00\n        /* \"Transaction.sol\":1193:1207  newTransaction */\n      dup2\n        /* \"Transaction.sol\":1167:1208  deployedTransactions.push(newTransaction) */\n      swap1\n      dup1\n      0x01\n      dup2\n      sload\n      add\n      dup1\n      dup3\n      sstore\n      dup1\n      swap2\n      pop\n      pop\n      0x01\n      swap1\n      sub\n      swap1\n      0x00\n      mstore\n      keccak256(0x00, 0x20)\n      add\n      0x00\n      swap1\n      swap2\n      swap1\n      swap2\n      swap1\n      swap2\n      0x0100\n      exp\n      dup2\n      sload\n      dup2\n      0xffffffffffffffffffffffffffffffffffffffff\n      mul\n      not\n      and\n      swap1\n      dup4\n      0xffffffffffffffffffffffffffffffffffffffff\n      and\n      mul\n      or\n      swap1\n      sstore\n      pop\n        /* \"Transaction.sol\":781:1215  {... */\n      pop\n        /* \"Transaction.sol\":404:1215  function createTransaction(... */\n      pop\n      pop\n      pop\n      pop\n      pop\n      pop\n      pop\n      pop\n      pop\n      pop\n      jump\t// out\n        /* \"Transaction.sol\":343:393  RecurrentTransaction[] public deployedTransactions */\n    tag_13:\n      0x00\n      dup2\n      dup2\n      sload\n      dup2\n      lt\n      tag_27\n      jumpi\n      0x00\n      dup1\n      revert\n    tag_27:\n      swap1\n      0x00\n      mstore\n      keccak256(0x00, 0x20)\n      add\n      0x00\n      swap2\n      pop\n      sload\n      swap1\n      0x0100\n      exp\n      swap1\n      div\n      0xffffffffffffffffffffffffffffffffffffffff\n      and\n      dup2\n      jump\t// out\n        /* \"Transaction.sol\":1225:1355  function getDeployedTransactions() public view returns (RecurrentTransaction[] memory){... */\n    tag_17:\n        /* \"Transaction.sol\":1281:1310  RecurrentTransaction[] memory */\n      0x60\n        /* \"Transaction.sol\":1328:1348  deployedTransactions */\n      0x00\n        /* \"Transaction.sol\":1321:1348  return deployedTransactions */\n      dup1\n      sload\n      dup1\n      0x20\n      mul\n      0x20\n      add\n      mload(0x40)\n      swap1\n      dup2\n      add\n      0x40\n      mstore\n      dup1\n      swap3\n      swap2\n      swap1\n      dup2\n      dup2\n      mstore\n      0x20\n      add\n      dup3\n      dup1\n      sload\n      dup1\n      iszero\n      tag_30\n      jumpi\n      0x20\n      mul\n      dup3\n      add\n      swap2\n      swap1\n      0x00\n      mstore\n      keccak256(0x00, 0x20)\n      swap1\n    tag_31:\n      dup2\n      0x00\n      swap1\n      sload\n      swap1\n      0x0100\n      exp\n      swap1\n      div\n      0xffffffffffffffffffffffffffffffffffffffff\n      and\n      0xffffffffffffffffffffffffffffffffffffffff\n      and\n      dup2\n      mstore\n      0x20\n      add\n      swap1\n      0x01\n      add\n      swap1\n      dup1\n      dup4\n      gt\n      tag_31\n      jumpi\n    tag_30:\n      pop\n      pop\n      pop\n      pop\n      pop\n      swap1\n      pop\n        /* \"Transaction.sol\":1225:1355  function getDeployedTransactions() public view returns (RecurrentTransaction[] memory){... */\n      swap1\n      jump\t// out\n    tag_22:\n      dataSize(sub_0)\n      dup1\n      dataOffset(sub_0)\n      dup4\n      codecopy\n      add\n      swap1\n      jump\t// out\n        /* \"#utility.yul\":7:82   */\n    tag_32:\n        /* \"#utility.yul\":40:46   */\n      0x00\n        /* \"#utility.yul\":73:75   */\n      0x40\n        /* \"#utility.yul\":67:76   */\n      mload\n        /* \"#utility.yul\":57:76   */\n      swap1\n      pop\n        /* \"#utility.yul\":7:82   */\n      swap1\n      jump\t// out\n        /* \"#utility.yul\":88:205   */\n    tag_33:\n        /* \"#utility.yul\":197:198   */\n      0x00\n        /* \"#utility.yul\":194:195   */\n      dup1\n        /* \"#utility.yul\":187:199   */\n      revert\n        /* \"#utility.yul\":211:328   */\n    tag_34:\n        /* \"#utility.yul\":320:321   */\n      0x00\n        /* \"#utility.yul\":317:318   */\n      dup1\n        /* \"#utility.yul\":310:322   */\n      revert\n        /* \"#utility.yul\":334:451   */\n    tag_35:\n        /* \"#utility.yul\":443:444   */\n      0x00\n        /* \"#utility.yul\":440:441   */\n      dup1\n        /* \"#utility.yul\":433:445   */\n      revert\n        /* \"#utility.yul\":457:559   */\n    tag_36:\n        /* \"#utility.yul\":498:504   */\n      0x00\n        /* \"#utility.yul\":549:551   */\n      0x1f\n        /* \"#utility.yul\":545:552   */\n      not\n        /* \"#utility.yul\":540:542   */\n      0x1f\n        /* \"#utility.yul\":533:538   */\n      dup4\n        /* \"#utility.yul\":529:543   */\n      add\n        /* \"#utility.yul\":525:553   */\n      and\n        /* \"#utility.yul\":515:553   */\n      swap1\n      pop\n        /* \"#utility.yul\":457:559   */\n      swap2\n      swap1\n      pop\n      jump\t// out\n        /* \"#utility.yul\":565:745   */\n    tag_37:\n        /* \"#utility.yul\":613:690   */\n      0x4e487b7100000000000000000000000000000000000000000000000000000000\n        /* \"#utility.yul\":610:611   */\n      0x00\n        /* \"#utility.yul\":603:691   */\n      mstore\n        /* \"#utility.yul\":710:714   */\n      0x41\n        /* \"#utility.yul\":707:708   */\n      0x04\n        /* \"#utility.yul\":700:715   */\n      mstore\n        /* \"#utility.yul\":734:738   */\n      0x24\n        /* \"#utility.yul\":731:732   */\n      0x00\n        /* \"#utility.yul\":724:739   */\n      revert\n        /* \"#utility.yul\":751:1032   */\n    tag_38:\n        /* \"#utility.yul\":834:861   */\n      tag_95\n        /* \"#utility.yul\":856:860   */\n      dup3\n        /* \"#utility.yul\":834:861   */\n      tag_36\n      jump\t// in\n    tag_95:\n        /* \"#utility.yul\":826:832   */\n      dup2\n        /* \"#utility.yul\":822:862   */\n      add\n        /* \"#utility.yul\":964:970   */\n      dup2\n        /* \"#utility.yul\":952:962   */\n      dup2\n        /* \"#utility.yul\":949:971   */\n      lt\n        /* \"#utility.yul\":928:946   */\n      0xffffffffffffffff\n        /* \"#utility.yul\":916:926   */\n      dup3\n        /* \"#utility.yul\":913:947   */\n      gt\n        /* \"#utility.yul\":910:972   */\n      or\n        /* \"#utility.yul\":907:995   */\n      iszero\n      tag_96\n      jumpi\n        /* \"#utility.yul\":975:993   */\n      tag_97\n      tag_37\n      jump\t// in\n    tag_97:\n        /* \"#utility.yul\":907:995   */\n    tag_96:\n        /* \"#utility.yul\":1015:1025   */\n      dup1\n        /* \"#utility.yul\":1011:1013   */\n      0x40\n        /* \"#utility.yul\":1004:1026   */\n      mstore\n        /* \"#utility.yul\":794:1032   */\n      pop\n        /* \"#utility.yul\":751:1032   */\n      pop\n      pop\n      jump\t// out\n        /* \"#utility.yul\":1038:1167   */\n    tag_39:\n        /* \"#utility.yul\":1072:1078   */\n      0x00\n        /* \"#utility.yul\":1099:1119   */\n      tag_99\n      tag_32\n      jump\t// in\n    tag_99:\n        /* \"#utility.yul\":1089:1119   */\n      swap1\n      pop\n        /* \"#utility.yul\":1128:1161   */\n      tag_100\n        /* \"#utility.yul\":1156:1160   */\n      dup3\n        /* \"#utility.yul\":1148:1154   */\n      dup3\n        /* \"#utility.yul\":1128:1161   */\n      tag_38\n      jump\t// in\n    tag_100:\n        /* \"#utility.yul\":1038:1167   */\n      swap2\n      swap1\n      pop\n      jump\t// out\n        /* \"#utility.yul\":1173:1494   */\n    tag_40:\n        /* \"#utility.yul\":1260:1264   */\n      0x00\n        /* \"#utility.yul\":1350:1368   */\n      0xffffffffffffffff\n        /* \"#utility.yul\":1342:1348   */\n      dup3\n        /* \"#utility.yul\":1339:1369   */\n      gt\n        /* \"#utility.yul\":1336:1392   */\n      iszero\n      tag_102\n      jumpi\n        /* \"#utility.yul\":1372:1390   */\n      tag_103\n      tag_37\n      jump\t// in\n    tag_103:\n        /* \"#utility.yul\":1336:1392   */\n    tag_102:\n        /* \"#utility.yul\":1422:1426   */\n      0x20\n        /* \"#utility.yul\":1414:1420   */\n      dup3\n        /* \"#utility.yul\":1410:1427   */\n      mul\n        /* \"#utility.yul\":1402:1427   */\n      swap1\n      pop\n        /* \"#utility.yul\":1482:1486   */\n      0x20\n        /* \"#utility.yul\":1476:1480   */\n      dup2\n        /* \"#utility.yul\":1472:1487   */\n      add\n        /* \"#utility.yul\":1464:1487   */\n      swap1\n      pop\n        /* \"#utility.yul\":1173:1494   */\n      swap2\n      swap1\n      pop\n      jump\t// out\n        /* \"#utility.yul\":1500:1617   */\n    tag_41:\n        /* \"#utility.yul\":1609:1610   */\n      0x00\n        /* \"#utility.yul\":1606:1607   */\n      dup1\n        /* \"#utility.yul\":1599:1611   */\n      revert\n        /* \"#utility.yul\":1623:1740   */\n    tag_42:\n        /* \"#utility.yul\":1732:1733   */\n      0x00\n        /* \"#utility.yul\":1729:1730   */\n      dup1\n        /* \"#utility.yul\":1722:1734   */\n      revert\n        /* \"#utility.yul\":1746:2054   */\n    tag_43:\n        /* \"#utility.yul\":1808:1812   */\n      0x00\n        /* \"#utility.yul\":1898:1916   */\n      0xffffffffffffffff\n        /* \"#utility.yul\":1890:1896   */\n      dup3\n        /* \"#utility.yul\":1887:1917   */\n      gt\n        /* \"#utility.yul\":1884:1940   */\n      iszero\n      tag_107\n      jumpi\n        /* \"#utility.yul\":1920:1938   */\n      tag_108\n      tag_37\n      jump\t// in\n    tag_108:\n        /* \"#utility.yul\":1884:1940   */\n    tag_107:\n        /* \"#utility.yul\":1958:1987   */\n      tag_109\n        /* \"#utility.yul\":1980:1986   */\n      dup3\n        /* \"#utility.yul\":1958:1987   */\n      tag_36\n      jump\t// in\n    tag_109:\n        /* \"#utility.yul\":1950:1987   */\n      swap1\n      pop\n        /* \"#utility.yul\":2042:2046   */\n      0x20\n        /* \"#utility.yul\":2036:2040   */\n      dup2\n        /* \"#utility.yul\":2032:2047   */\n      add\n        /* \"#utility.yul\":2024:2047   */\n      swap1\n      pop\n        /* \"#utility.yul\":1746:2054   */\n      swap2\n      swap1\n      pop\n      jump\t// out\n        /* \"#utility.yul\":2060:2214   */\n    tag_44:\n        /* \"#utility.yul\":2144:2150   */\n      dup3\n        /* \"#utility.yul\":2139:2142   */\n      dup2\n        /* \"#utility.yul\":2134:2137   */\n      dup4\n        /* \"#utility.yul\":2121:2151   */\n      calldatacopy\n        /* \"#utility.yul\":2206:2207   */\n      0x00\n        /* \"#utility.yul\":2197:2203   */\n      dup4\n        /* \"#utility.yul\":2192:2195   */\n      dup4\n        /* \"#utility.yul\":2188:2204   */\n      add\n        /* \"#utility.yul\":2181:2208   */\n      mstore\n        /* \"#utility.yul\":2060:2214   */\n      pop\n      pop\n      pop\n      jump\t// out\n        /* \"#utility.yul\":2220:2632   */\n    tag_45:\n        /* \"#utility.yul\":2298:2303   */\n      0x00\n        /* \"#utility.yul\":2323:2389   */\n      tag_112\n        /* \"#utility.yul\":2339:2388   */\n      tag_113\n        /* \"#utility.yul\":2381:2387   */\n      dup5\n        /* \"#utility.yul\":2339:2388   */\n      tag_43\n      jump\t// in\n    tag_113:\n        /* \"#utility.yul\":2323:2389   */\n      tag_39\n      jump\t// in\n    tag_112:\n        /* \"#utility.yul\":2314:2389   */\n      swap1\n      pop\n        /* \"#utility.yul\":2412:2418   */\n      dup3\n        /* \"#utility.yul\":2405:2410   */\n      dup2\n        /* \"#utility.yul\":2398:2419   */\n      mstore\n        /* \"#utility.yul\":2450:2454   */\n      0x20\n        /* \"#utility.yul\":2443:2448   */\n      dup2\n        /* \"#utility.yul\":2439:2455   */\n      add\n        /* \"#utility.yul\":2488:2491   */\n      dup5\n        /* \"#utility.yul\":2479:2485   */\n      dup5\n        /* \"#utility.yul\":2474:2477   */\n      dup5\n        /* \"#utility.yul\":2470:2486   */\n      add\n        /* \"#utility.yul\":2467:2492   */\n      gt\n        /* \"#utility.yul\":2464:2576   */\n      iszero\n      tag_114\n      jumpi\n        /* \"#utility.yul\":2495:2574   */\n      tag_115\n      tag_42\n      jump\t// in\n    tag_115:\n        /* \"#utility.yul\":2464:2576   */\n    tag_114:\n        /* \"#utility.yul\":2585:2626   */\n      tag_116\n        /* \"#utility.yul\":2619:2625   */\n      dup5\n        /* \"#utility.yul\":2614:2617   */\n      dup3\n        /* \"#utility.yul\":2609:2612   */\n      dup6\n        /* \"#utility.yul\":2585:2626   */\n      tag_44\n      jump\t// in\n    tag_116:\n        /* \"#utility.yul\":2304:2632   */\n      pop\n        /* \"#utility.yul\":2220:2632   */\n      swap4\n      swap3\n      pop\n      pop\n      pop\n      jump\t// out\n        /* \"#utility.yul\":2652:2992   */\n    tag_46:\n        /* \"#utility.yul\":2708:2713   */\n      0x00\n        /* \"#utility.yul\":2757:2760   */\n      dup3\n        /* \"#utility.yul\":2750:2754   */\n      0x1f\n        /* \"#utility.yul\":2742:2748   */\n      dup4\n        /* \"#utility.yul\":2738:2755   */\n      add\n        /* \"#utility.yul\":2734:2761   */\n      slt\n        /* \"#utility.yul\":2724:2846   */\n      tag_118\n      jumpi\n        /* \"#utility.yul\":2765:2844   */\n      tag_119\n      tag_35\n      jump\t// in\n    tag_119:\n        /* \"#utility.yul\":2724:2846   */\n    tag_118:\n        /* \"#utility.yul\":2882:2888   */\n      dup2\n        /* \"#utility.yul\":2869:2889   */\n      calldataload\n        /* \"#utility.yul\":2907:2986   */\n      tag_120\n        /* \"#utility.yul\":2982:2985   */\n      dup5\n        /* \"#utility.yul\":2974:2980   */\n      dup3\n        /* \"#utility.yul\":2967:2971   */\n      0x20\n        /* \"#utility.yul\":2959:2965   */\n      dup7\n        /* \"#utility.yul\":2955:2972   */\n      add\n        /* \"#utility.yul\":2907:2986   */\n      tag_45\n      jump\t// in\n    tag_120:\n        /* \"#utility.yul\":2898:2986   */\n      swap2\n      pop\n        /* \"#utility.yul\":2714:2992   */\n      pop\n        /* \"#utility.yul\":2652:2992   */\n      swap3\n      swap2\n      pop\n      pop\n      jump\t// out\n        /* \"#utility.yul\":3014:3959   */\n    tag_47:\n        /* \"#utility.yul\":3120:3125   */\n      0x00\n        /* \"#utility.yul\":3145:3236   */\n      tag_122\n        /* \"#utility.yul\":3161:3235   */\n      tag_123\n        /* \"#utility.yul\":3228:3234   */\n      dup5\n        /* \"#utility.yul\":3161:3235   */\n      tag_40\n      jump\t// in\n    tag_123:\n        /* \"#utility.yul\":3145:3236   */\n      tag_39\n      jump\t// in\n    tag_122:\n        /* \"#utility.yul\":3136:3236   */\n      swap1\n      pop\n        /* \"#utility.yul\":3256:3261   */\n      dup1\n        /* \"#utility.yul\":3285:3291   */\n      dup4\n        /* \"#utility.yul\":3278:3283   */\n      dup3\n        /* \"#utility.yul\":3271:3292   */\n      mstore\n        /* \"#utility.yul\":3319:3323   */\n      0x20\n        /* \"#utility.yul\":3312:3317   */\n      dup3\n        /* \"#utility.yul\":3308:3324   */\n      add\n        /* \"#utility.yul\":3301:3324   */\n      swap1\n      pop\n        /* \"#utility.yul\":3372:3376   */\n      0x20\n        /* \"#utility.yul\":3364:3370   */\n      dup5\n        /* \"#utility.yul\":3360:3377   */\n      mul\n        /* \"#utility.yul\":3352:3358   */\n      dup4\n        /* \"#utility.yul\":3348:3378   */\n      add\n        /* \"#utility.yul\":3401:3404   */\n      dup6\n        /* \"#utility.yul\":3393:3399   */\n      dup2\n        /* \"#utility.yul\":3390:3405   */\n      gt\n        /* \"#utility.yul\":3387:3509   */\n      iszero\n      tag_124\n      jumpi\n        /* \"#utility.yul\":3420:3499   */\n      tag_125\n      tag_41\n      jump\t// in\n    tag_125:\n        /* \"#utility.yul\":3387:3509   */\n    tag_124:\n        /* \"#utility.yul\":3535:3541   */\n      dup4\n        /* \"#utility.yul\":3518:3953   */\n    tag_126:\n        /* \"#utility.yul\":3552:3558   */\n      dup2\n        /* \"#utility.yul\":3547:3550   */\n      dup2\n        /* \"#utility.yul\":3544:3559   */\n      lt\n        /* \"#utility.yul\":3518:3953   */\n      iszero\n      tag_128\n      jumpi\n        /* \"#utility.yul\":3641:3644   */\n      dup1\n        /* \"#utility.yul\":3628:3645   */\n      calldataload\n        /* \"#utility.yul\":3677:3695   */\n      0xffffffffffffffff\n        /* \"#utility.yul\":3664:3675   */\n      dup2\n        /* \"#utility.yul\":3661:3696   */\n      gt\n        /* \"#utility.yul\":3658:3780   */\n      iszero\n      tag_129\n      jumpi\n        /* \"#utility.yul\":3699:3778   */\n      tag_130\n      tag_35\n      jump\t// in\n    tag_130:\n        /* \"#utility.yul\":3658:3780   */\n    tag_129:\n        /* \"#utility.yul\":3823:3834   */\n      dup1\n        /* \"#utility.yul\":3815:3821   */\n      dup7\n        /* \"#utility.yul\":3811:3835   */\n      add\n        /* \"#utility.yul\":3861:3908   */\n      tag_131\n        /* \"#utility.yul\":3904:3907   */\n      dup10\n        /* \"#utility.yul\":3892:3902   */\n      dup3\n        /* \"#utility.yul\":3861:3908   */\n      tag_46\n      jump\t// in\n    tag_131:\n        /* \"#utility.yul\":3856:3859   */\n      dup6\n        /* \"#utility.yul\":3849:3909   */\n      mstore\n        /* \"#utility.yul\":3938:3942   */\n      0x20\n        /* \"#utility.yul\":3933:3936   */\n      dup6\n        /* \"#utility.yul\":3929:3943   */\n      add\n        /* \"#utility.yul\":3922:3943   */\n      swap5\n      pop\n        /* \"#utility.yul\":3594:3953   */\n      pop\n      pop\n        /* \"#utility.yul\":3578:3582   */\n      0x20\n        /* \"#utility.yul\":3573:3576   */\n      dup2\n        /* \"#utility.yul\":3569:3583   */\n      add\n        /* \"#utility.yul\":3562:3583   */\n      swap1\n      pop\n        /* \"#utility.yul\":3518:3953   */\n      jump(tag_126)\n    tag_128:\n        /* \"#utility.yul\":3522:3543   */\n      pop\n        /* \"#utility.yul\":3126:3959   */\n      pop\n      pop\n        /* \"#utility.yul\":3014:3959   */\n      swap4\n      swap3\n      pop\n      pop\n      pop\n      jump\t// out\n        /* \"#utility.yul\":3981:4371   */\n    tag_48:\n        /* \"#utility.yul\":4062:4067   */\n      0x00\n        /* \"#utility.yul\":4111:4114   */\n      dup3\n        /* \"#utility.yul\":4104:4108   */\n      0x1f\n        /* \"#utility.yul\":4096:4102   */\n      dup4\n        /* \"#utility.yul\":4092:4109   */\n      add\n        /* \"#utility.yul\":4088:4115   */\n      slt\n        /* \"#utility.yul\":4078:4200   */\n      tag_133\n      jumpi\n        /* \"#utility.yul\":4119:4198   */\n      tag_134\n      tag_35\n      jump\t// in\n    tag_134:\n        /* \"#utility.yul\":4078:4200   */\n    tag_133:\n        /* \"#utility.yul\":4236:4242   */\n      dup2\n        /* \"#utility.yul\":4223:4243   */\n      calldataload\n        /* \"#utility.yul\":4261:4365   */\n      tag_135\n        /* \"#utility.yul\":4361:4364   */\n      dup5\n        /* \"#utility.yul\":4353:4359   */\n      dup3\n        /* \"#utility.yul\":4346:4350   */\n      0x20\n        /* \"#utility.yul\":4338:4344   */\n      dup7\n        /* \"#utility.yul\":4334:4351   */\n      add\n        /* \"#utility.yul\":4261:4365   */\n      tag_47\n      jump\t// in\n    tag_135:\n        /* \"#utility.yul\":4252:4365   */\n      swap2\n      pop\n        /* \"#utility.yul\":4068:4371   */\n      pop\n        /* \"#utility.yul\":3981:4371   */\n      swap3\n      swap2\n      pop\n      pop\n      jump\t// out\n        /* \"#utility.yul\":4377:4454   */\n    tag_49:\n        /* \"#utility.yul\":4414:4421   */\n      0x00\n        /* \"#utility.yul\":4443:4448   */\n      dup2\n        /* \"#utility.yul\":4432:4448   */\n      swap1\n      pop\n        /* \"#utility.yul\":4377:4454   */\n      swap2\n      swap1\n      pop\n      jump\t// out\n        /* \"#utility.yul\":4460:4582   */\n    tag_50:\n        /* \"#utility.yul\":4533:4557   */\n      tag_138\n        /* \"#utility.yul\":4551:4556   */\n      dup2\n        /* \"#utility.yul\":4533:4557   */\n      tag_49\n      jump\t// in\n    tag_138:\n        /* \"#utility.yul\":4526:4531   */\n      dup2\n        /* \"#utility.yul\":4523:4558   */\n      eq\n        /* \"#utility.yul\":4513:4576   */\n      tag_139\n      jumpi\n        /* \"#utility.yul\":4572:4573   */\n      0x00\n        /* \"#utility.yul\":4569:4570   */\n      dup1\n        /* \"#utility.yul\":4562:4574   */\n      revert\n        /* \"#utility.yul\":4513:4576   */\n    tag_139:\n        /* \"#utility.yul\":4460:4582   */\n      pop\n      jump\t// out\n        /* \"#utility.yul\":4588:4727   */\n    tag_51:\n        /* \"#utility.yul\":4634:4639   */\n      0x00\n        /* \"#utility.yul\":4672:4678   */\n      dup2\n        /* \"#utility.yul\":4659:4679   */\n      calldataload\n        /* \"#utility.yul\":4650:4679   */\n      swap1\n      pop\n        /* \"#utility.yul\":4688:4721   */\n      tag_141\n        /* \"#utility.yul\":4715:4720   */\n      dup2\n        /* \"#utility.yul\":4688:4721   */\n      tag_50\n      jump\t// in\n    tag_141:\n        /* \"#utility.yul\":4588:4727   */\n      swap3\n      swap2\n      pop\n      pop\n      jump\t// out\n        /* \"#utility.yul\":4733:4859   */\n    tag_52:\n        /* \"#utility.yul\":4770:4777   */\n      0x00\n        /* \"#utility.yul\":4810:4852   */\n      0xffffffffffffffffffffffffffffffffffffffff\n        /* \"#utility.yul\":4803:4808   */\n      dup3\n        /* \"#utility.yul\":4799:4853   */\n      and\n        /* \"#utility.yul\":4788:4853   */\n      swap1\n      pop\n        /* \"#utility.yul\":4733:4859   */\n      swap2\n      swap1\n      pop\n      jump\t// out\n        /* \"#utility.yul\":4865:4961   */\n    tag_53:\n        /* \"#utility.yul\":4902:4909   */\n      0x00\n        /* \"#utility.yul\":4931:4955   */\n      tag_144\n        /* \"#utility.yul\":4949:4954   */\n      dup3\n        /* \"#utility.yul\":4931:4955   */\n      tag_52\n      jump\t// in\n    tag_144:\n        /* \"#utility.yul\":4920:4955   */\n      swap1\n      pop\n        /* \"#utility.yul\":4865:4961   */\n      swap2\n      swap1\n      pop\n      jump\t// out\n        /* \"#utility.yul\":4967:5089   */\n    tag_54:\n        /* \"#utility.yul\":5040:5064   */\n      tag_146\n        /* \"#utility.yul\":5058:5063   */\n      dup2\n        /* \"#utility.yul\":5040:5064   */\n      tag_53\n      jump\t// in\n    tag_146:\n        /* \"#utility.yul\":5033:5038   */\n      dup2\n        /* \"#utility.yul\":5030:5065   */\n      eq\n        /* \"#utility.yul\":5020:5083   */\n      tag_147\n      jumpi\n        /* \"#utility.yul\":5079:5080   */\n      0x00\n        /* \"#utility.yul\":5076:5077   */\n      dup1\n        /* \"#utility.yul\":5069:5081   */\n      revert\n        /* \"#utility.yul\":5020:5083   */\n    tag_147:\n        /* \"#utility.yul\":4967:5089   */\n      pop\n      jump\t// out\n        /* \"#utility.yul\":5095:5234   */\n    tag_55:\n        /* \"#utility.yul\":5141:5146   */\n      0x00\n        /* \"#utility.yul\":5179:5185   */\n      dup2\n        /* \"#utility.yul\":5166:5186   */\n      calldataload\n        /* \"#utility.yul\":5157:5186   */\n      swap1\n      pop\n        /* \"#utility.yul\":5195:5228   */\n      tag_149\n        /* \"#utility.yul\":5222:5227   */\n      dup2\n        /* \"#utility.yul\":5195:5228   */\n      tag_54\n      jump\t// in\n    tag_149:\n        /* \"#utility.yul\":5095:5234   */\n      swap3\n      swap2\n      pop\n      pop\n      jump\t// out\n        /* \"#utility.yul\":5240:5357   */\n    tag_56:\n        /* \"#utility.yul\":5349:5350   */\n      0x00\n        /* \"#utility.yul\":5346:5347   */\n      dup1\n        /* \"#utility.yul\":5339:5351   */\n      revert\n        /* \"#utility.yul\":5522:6255   */\n    tag_58:\n        /* \"#utility.yul\":5594:5599   */\n      0x00\n        /* \"#utility.yul\":5638:5642   */\n      0x60\n        /* \"#utility.yul\":5626:5635   */\n      dup3\n        /* \"#utility.yul\":5621:5624   */\n      dup5\n        /* \"#utility.yul\":5617:5636   */\n      sub\n        /* \"#utility.yul\":5613:5643   */\n      slt\n        /* \"#utility.yul\":5610:5727   */\n      iszero\n      tag_153\n      jumpi\n        /* \"#utility.yul\":5646:5725   */\n      tag_154\n      tag_56\n      jump\t// in\n    tag_154:\n        /* \"#utility.yul\":5610:5727   */\n    tag_153:\n        /* \"#utility.yul\":5745:5766   */\n      tag_155\n        /* \"#utility.yul\":5761:5765   */\n      0x60\n        /* \"#utility.yul\":5745:5766   */\n      tag_39\n      jump\t// in\n    tag_155:\n        /* \"#utility.yul\":5736:5766   */\n      swap1\n      pop\n        /* \"#utility.yul\":5825:5826   */\n      0x00\n        /* \"#utility.yul\":5865:5914   */\n      tag_156\n        /* \"#utility.yul\":5910:5913   */\n      dup5\n        /* \"#utility.yul\":5901:5907   */\n      dup3\n        /* \"#utility.yul\":5890:5899   */\n      dup6\n        /* \"#utility.yul\":5886:5908   */\n      add\n        /* \"#utility.yul\":5865:5914   */\n      tag_51\n      jump\t// in\n    tag_156:\n        /* \"#utility.yul\":5858:5862   */\n      0x00\n        /* \"#utility.yul\":5851:5856   */\n      dup4\n        /* \"#utility.yul\":5847:5863   */\n      add\n        /* \"#utility.yul\":5840:5915   */\n      mstore\n        /* \"#utility.yul\":5776:5926   */\n      pop\n        /* \"#utility.yul\":5986:5988   */\n      0x20\n        /* \"#utility.yul\":6027:6076   */\n      tag_157\n        /* \"#utility.yul\":6072:6075   */\n      dup5\n        /* \"#utility.yul\":6063:6069   */\n      dup3\n        /* \"#utility.yul\":6052:6061   */\n      dup6\n        /* \"#utility.yul\":6048:6070   */\n      add\n        /* \"#utility.yul\":6027:6076   */\n      tag_51\n      jump\t// in\n    tag_157:\n        /* \"#utility.yul\":6020:6024   */\n      0x20\n        /* \"#utility.yul\":6013:6018   */\n      dup4\n        /* \"#utility.yul\":6009:6025   */\n      add\n        /* \"#utility.yul\":6002:6077   */\n      mstore\n        /* \"#utility.yul\":5936:6088   */\n      pop\n        /* \"#utility.yul\":6146:6148   */\n      0x40\n        /* \"#utility.yul\":6187:6236   */\n      tag_158\n        /* \"#utility.yul\":6232:6235   */\n      dup5\n        /* \"#utility.yul\":6223:6229   */\n      dup3\n        /* \"#utility.yul\":6212:6221   */\n      dup6\n        /* \"#utility.yul\":6208:6230   */\n      add\n        /* \"#utility.yul\":6187:6236   */\n      tag_51\n      jump\t// in\n    tag_158:\n        /* \"#utility.yul\":6180:6184   */\n      0x40\n        /* \"#utility.yul\":6173:6178   */\n      dup4\n        /* \"#utility.yul\":6169:6185   */\n      add\n        /* \"#utility.yul\":6162:6237   */\n      mstore\n        /* \"#utility.yul\":6098:6248   */\n      pop\n        /* \"#utility.yul\":5522:6255   */\n      swap3\n      swap2\n      pop\n      pop\n      jump\t// out\n        /* \"#utility.yul\":6261:9124   */\n    tag_8:\n        /* \"#utility.yul\":6532:6538   */\n      0x00\n        /* \"#utility.yul\":6540:6546   */\n      dup1\n        /* \"#utility.yul\":6548:6554   */\n      0x00\n        /* \"#utility.yul\":6556:6562   */\n      dup1\n        /* \"#utility.yul\":6564:6570   */\n      0x00\n        /* \"#utility.yul\":6572:6578   */\n      dup1\n        /* \"#utility.yul\":6580:6586   */\n      0x00\n        /* \"#utility.yul\":6588:6594   */\n      dup1\n        /* \"#utility.yul\":6596:6602   */\n      0x00\n        /* \"#utility.yul\":6604:6610   */\n      dup1\n        /* \"#utility.yul\":6653:6656   */\n      0x01c0\n        /* \"#utility.yul\":6641:6650   */\n      dup12\n        /* \"#utility.yul\":6632:6639   */\n      dup14\n        /* \"#utility.yul\":6628:6651   */\n      sub\n        /* \"#utility.yul\":6624:6657   */\n      slt\n        /* \"#utility.yul\":6621:6741   */\n      iszero\n      tag_160\n      jumpi\n        /* \"#utility.yul\":6660:6739   */\n      tag_161\n      tag_33\n      jump\t// in\n    tag_161:\n        /* \"#utility.yul\":6621:6741   */\n    tag_160:\n        /* \"#utility.yul\":6808:6809   */\n      0x00\n        /* \"#utility.yul\":6797:6806   */\n      dup12\n        /* \"#utility.yul\":6793:6810   */\n      add\n        /* \"#utility.yul\":6780:6811   */\n      calldataload\n        /* \"#utility.yul\":6838:6856   */\n      0xffffffffffffffff\n        /* \"#utility.yul\":6830:6836   */\n      dup2\n        /* \"#utility.yul\":6827:6857   */\n      gt\n        /* \"#utility.yul\":6824:6941   */\n      iszero\n      tag_162\n      jumpi\n        /* \"#utility.yul\":6860:6939   */\n      tag_163\n      tag_34\n      jump\t// in\n    tag_163:\n        /* \"#utility.yul\":6824:6941   */\n    tag_162:\n        /* \"#utility.yul\":6965:7053   */\n      tag_164\n        /* \"#utility.yul\":7045:7052   */\n      dup14\n        /* \"#utility.yul\":7036:7042   */\n      dup3\n        /* \"#utility.yul\":7025:7034   */\n      dup15\n        /* \"#utility.yul\":7021:7043   */\n      add\n        /* \"#utility.yul\":6965:7053   */\n      tag_48\n      jump\t// in\n    tag_164:\n        /* \"#utility.yul\":6955:7053   */\n      swap11\n      pop\n        /* \"#utility.yul\":6751:7063   */\n      pop\n        /* \"#utility.yul\":7102:7104   */\n      0x20\n        /* \"#utility.yul\":7128:7181   */\n      tag_165\n        /* \"#utility.yul\":7173:7180   */\n      dup14\n        /* \"#utility.yul\":7164:7170   */\n      dup3\n        /* \"#utility.yul\":7153:7162   */\n      dup15\n        /* \"#utility.yul\":7149:7171   */\n      add\n        /* \"#utility.yul\":7128:7181   */\n      tag_51\n      jump\t// in\n    tag_165:\n        /* \"#utility.yul\":7118:7181   */\n      swap10\n      pop\n        /* \"#utility.yul\":7073:7191   */\n      pop\n        /* \"#utility.yul\":7230:7232   */\n      0x40\n        /* \"#utility.yul\":7256:7309   */\n      tag_166\n        /* \"#utility.yul\":7301:7308   */\n      dup14\n        /* \"#utility.yul\":7292:7298   */\n      dup3\n        /* \"#utility.yul\":7281:7290   */\n      dup15\n        /* \"#utility.yul\":7277:7299   */\n      add\n        /* \"#utility.yul\":7256:7309   */\n      tag_55\n      jump\t// in\n    tag_166:\n        /* \"#utility.yul\":7246:7309   */\n      swap9\n      pop\n        /* \"#utility.yul\":7201:7319   */\n      pop\n        /* \"#utility.yul\":7386:7388   */\n      0x60\n        /* \"#utility.yul\":7375:7384   */\n      dup12\n        /* \"#utility.yul\":7371:7389   */\n      add\n        /* \"#utility.yul\":7358:7390   */\n      calldataload\n        /* \"#utility.yul\":7417:7435   */\n      0xffffffffffffffff\n        /* \"#utility.yul\":7409:7415   */\n      dup2\n        /* \"#utility.yul\":7406:7436   */\n      gt\n        /* \"#utility.yul\":7403:7520   */\n      iszero\n      tag_167\n      jumpi\n        /* \"#utility.yul\":7439:7518   */\n      tag_168\n      tag_34\n      jump\t// in\n    tag_168:\n        /* \"#utility.yul\":7403:7520   */\n    tag_167:\n        /* \"#utility.yul\":7544:7607   */\n      tag_169\n        /* \"#utility.yul\":7599:7606   */\n      dup14\n        /* \"#utility.yul\":7590:7596   */\n      dup3\n        /* \"#utility.yul\":7579:7588   */\n      dup15\n        /* \"#utility.yul\":7575:7597   */\n      add\n        /* \"#utility.yul\":7544:7607   */\n      tag_46\n      jump\t// in\n    tag_169:\n        /* \"#utility.yul\":7534:7607   */\n      swap8\n      pop\n        /* \"#utility.yul\":7329:7617   */\n      pop\n        /* \"#utility.yul\":7656:7659   */\n      0x80\n        /* \"#utility.yul\":7683:7759   */\n      tag_170\n        /* \"#utility.yul\":7751:7758   */\n      dup14\n        /* \"#utility.yul\":7742:7748   */\n      dup3\n        /* \"#utility.yul\":7731:7740   */\n      dup15\n        /* \"#utility.yul\":7727:7749   */\n      add\n        /* \"#utility.yul\":7683:7759   */\n      tag_58\n      jump\t// in\n    tag_170:\n        /* \"#utility.yul\":7673:7759   */\n      swap7\n      pop\n        /* \"#utility.yul\":7627:7769   */\n      pop\n        /* \"#utility.yul\":7808:7811   */\n      0xe0\n        /* \"#utility.yul\":7835:7911   */\n      tag_171\n        /* \"#utility.yul\":7903:7910   */\n      dup14\n        /* \"#utility.yul\":7894:7900   */\n      dup3\n        /* \"#utility.yul\":7883:7892   */\n      dup15\n        /* \"#utility.yul\":7879:7901   */\n      add\n        /* \"#utility.yul\":7835:7911   */\n      tag_58\n      jump\t// in\n    tag_171:\n        /* \"#utility.yul\":7825:7911   */\n      swap6\n      pop\n        /* \"#utility.yul\":7779:7921   */\n      pop\n        /* \"#utility.yul\":7988:7991   */\n      0x0140\n        /* \"#utility.yul\":7977:7986   */\n      dup12\n        /* \"#utility.yul\":7973:7992   */\n      add\n        /* \"#utility.yul\":7960:7993   */\n      calldataload\n        /* \"#utility.yul\":8020:8038   */\n      0xffffffffffffffff\n        /* \"#utility.yul\":8012:8018   */\n      dup2\n        /* \"#utility.yul\":8009:8039   */\n      gt\n        /* \"#utility.yul\":8006:8123   */\n      iszero\n      tag_172\n      jumpi\n        /* \"#utility.yul\":8042:8121   */\n      tag_173\n      tag_34\n      jump\t// in\n    tag_173:\n        /* \"#utility.yul\":8006:8123   */\n    tag_172:\n        /* \"#utility.yul\":8147:8210   */\n      tag_174\n        /* \"#utility.yul\":8202:8209   */\n      dup14\n        /* \"#utility.yul\":8193:8199   */\n      dup3\n        /* \"#utility.yul\":8182:8191   */\n      dup15\n        /* \"#utility.yul\":8178:8200   */\n      add\n        /* \"#utility.yul\":8147:8210   */\n      tag_46\n      jump\t// in\n    tag_174:\n        /* \"#utility.yul\":8137:8210   */\n      swap5\n      pop\n        /* \"#utility.yul\":7931:8220   */\n      pop\n        /* \"#utility.yul\":8287:8290   */\n      0x0160\n        /* \"#utility.yul\":8276:8285   */\n      dup12\n        /* \"#utility.yul\":8272:8291   */\n      add\n        /* \"#utility.yul\":8259:8292   */\n      calldataload\n        /* \"#utility.yul\":8319:8337   */\n      0xffffffffffffffff\n        /* \"#utility.yul\":8311:8317   */\n      dup2\n        /* \"#utility.yul\":8308:8338   */\n      gt\n        /* \"#utility.yul\":8305:8422   */\n      iszero\n      tag_175\n      jumpi\n        /* \"#utility.yul\":8341:8420   */\n      tag_176\n      tag_34\n      jump\t// in\n    tag_176:\n        /* \"#utility.yul\":8305:8422   */\n    tag_175:\n        /* \"#utility.yul\":8446:8509   */\n      tag_177\n        /* \"#utility.yul\":8501:8508   */\n      dup14\n        /* \"#utility.yul\":8492:8498   */\n      dup3\n        /* \"#utility.yul\":8481:8490   */\n      dup15\n        /* \"#utility.yul\":8477:8499   */\n      add\n        /* \"#utility.yul\":8446:8509   */\n      tag_46\n      jump\t// in\n    tag_177:\n        /* \"#utility.yul\":8436:8509   */\n      swap4\n      pop\n        /* \"#utility.yul\":8230:8519   */\n      pop\n        /* \"#utility.yul\":8586:8589   */\n      0x0180\n        /* \"#utility.yul\":8575:8584   */\n      dup12\n        /* \"#utility.yul\":8571:8590   */\n      add\n        /* \"#utility.yul\":8558:8591   */\n      calldataload\n        /* \"#utility.yul\":8618:8636   */\n      0xffffffffffffffff\n        /* \"#utility.yul\":8610:8616   */\n      dup2\n        /* \"#utility.yul\":8607:8637   */\n      gt\n        /* \"#utility.yul\":8604:8721   */\n      iszero\n      tag_178\n      jumpi\n        /* \"#utility.yul\":8640:8719   */\n      tag_179\n      tag_34\n      jump\t// in\n    tag_179:\n        /* \"#utility.yul\":8604:8721   */\n    tag_178:\n        /* \"#utility.yul\":8745:8808   */\n      tag_180\n        /* \"#utility.yul\":8800:8807   */\n      dup14\n        /* \"#utility.yul\":8791:8797   */\n      dup3\n        /* \"#utility.yul\":8780:8789   */\n      dup15\n        /* \"#utility.yul\":8776:8798   */\n      add\n        /* \"#utility.yul\":8745:8808   */\n      tag_46\n      jump\t// in\n    tag_180:\n        /* \"#utility.yul\":8735:8808   */\n      swap3\n      pop\n        /* \"#utility.yul\":8529:8818   */\n      pop\n        /* \"#utility.yul\":8885:8888   */\n      0x01a0\n        /* \"#utility.yul\":8874:8883   */\n      dup12\n        /* \"#utility.yul\":8870:8889   */\n      add\n        /* \"#utility.yul\":8857:8890   */\n      calldataload\n        /* \"#utility.yul\":8917:8935   */\n      0xffffffffffffffff\n        /* \"#utility.yul\":8909:8915   */\n      dup2\n        /* \"#utility.yul\":8906:8936   */\n      gt\n        /* \"#utility.yul\":8903:9020   */\n      iszero\n      tag_181\n      jumpi\n        /* \"#utility.yul\":8939:9018   */\n      tag_182\n      tag_34\n      jump\t// in\n    tag_182:\n        /* \"#utility.yul\":8903:9020   */\n    tag_181:\n        /* \"#utility.yul\":9044:9107   */\n      tag_183\n        /* \"#utility.yul\":9099:9106   */\n      dup14\n        /* \"#utility.yul\":9090:9096   */\n      dup3\n        /* \"#utility.yul\":9079:9088   */\n      dup15\n        /* \"#utility.yul\":9075:9097   */\n      add\n        /* \"#utility.yul\":9044:9107   */\n      tag_46\n      jump\t// in\n    tag_183:\n        /* \"#utility.yul\":9034:9107   */\n      swap2\n      pop\n        /* \"#utility.yul\":8828:9117   */\n      pop\n        /* \"#utility.yul\":6261:9124   */\n      swap3\n      swap6\n      swap9\n      swap12\n      swap2\n      swap5\n      swap8\n      swap11\n      pop\n      swap3\n      swap6\n      swap9\n      pop\n      jump\t// out\n        /* \"#utility.yul\":9130:9459   */\n    tag_12:\n        /* \"#utility.yul\":9189:9195   */\n      0x00\n        /* \"#utility.yul\":9238:9240   */\n      0x20\n        /* \"#utility.yul\":9226:9235   */\n      dup3\n        /* \"#utility.yul\":9217:9224   */\n      dup5\n        /* \"#utility.yul\":9213:9236   */\n      sub\n        /* \"#utility.yul\":9209:9241   */\n      slt\n        /* \"#utility.yul\":9206:9325   */\n      iszero\n      tag_185\n      jumpi\n        /* \"#utility.yul\":9244:9323   */\n      tag_186\n      tag_33\n      jump\t// in\n    tag_186:\n        /* \"#utility.yul\":9206:9325   */\n    tag_185:\n        /* \"#utility.yul\":9364:9365   */\n      0x00\n        /* \"#utility.yul\":9389:9442   */\n      tag_187\n        /* \"#utility.yul\":9434:9441   */\n      dup5\n        /* \"#utility.yul\":9425:9431   */\n      dup3\n        /* \"#utility.yul\":9414:9423   */\n      dup6\n        /* \"#utility.yul\":9410:9432   */\n      add\n        /* \"#utility.yul\":9389:9442   */\n      tag_51\n      jump\t// in\n    tag_187:\n        /* \"#utility.yul\":9379:9442   */\n      swap2\n      pop\n        /* \"#utility.yul\":9335:9452   */\n      pop\n        /* \"#utility.yul\":9130:9459   */\n      swap3\n      swap2\n      pop\n      pop\n      jump\t// out\n        /* \"#utility.yul\":9465:9525   */\n    tag_59:\n        /* \"#utility.yul\":9493:9496   */\n      0x00\n        /* \"#utility.yul\":9514:9519   */\n      dup2\n        /* \"#utility.yul\":9507:9519   */\n      swap1\n      pop\n        /* \"#utility.yul\":9465:9525   */\n      swap2\n      swap1\n      pop\n      jump\t// out\n        /* \"#utility.yul\":9531:9673   */\n    tag_60:\n        /* \"#utility.yul\":9581:9590   */\n      0x00\n        /* \"#utility.yul\":9614:9667   */\n      tag_190\n        /* \"#utility.yul\":9632:9666   */\n      tag_191\n        /* \"#utility.yul\":9641:9665   */\n      tag_192\n        /* \"#utility.yul\":9659:9664   */\n      dup5\n        /* \"#utility.yul\":9641:9665   */\n      tag_52\n      jump\t// in\n    tag_192:\n        /* \"#utility.yul\":9632:9666   */\n      tag_59\n      jump\t// in\n    tag_191:\n        /* \"#utility.yul\":9614:9667   */\n      tag_52\n      jump\t// in\n    tag_190:\n        /* \"#utility.yul\":9601:9667   */\n      swap1\n      pop\n        /* \"#utility.yul\":9531:9673   */\n      swap2\n      swap1\n      pop\n      jump\t// out\n        /* \"#utility.yul\":9679:9805   */\n    tag_61:\n        /* \"#utility.yul\":9729:9738   */\n      0x00\n        /* \"#utility.yul\":9762:9799   */\n      tag_194\n        /* \"#utility.yul\":9793:9798   */\n      dup3\n        /* \"#utility.yul\":9762:9799   */\n      tag_60\n      jump\t// in\n    tag_194:\n        /* \"#utility.yul\":9749:9799   */\n      swap1\n      pop\n        /* \"#utility.yul\":9679:9805   */\n      swap2\n      swap1\n      pop\n      jump\t// out\n        /* \"#utility.yul\":9811:9965   */\n    tag_62:\n        /* \"#utility.yul\":9889:9898   */\n      0x00\n        /* \"#utility.yul\":9922:9959   */\n      tag_196\n        /* \"#utility.yul\":9953:9958   */\n      dup3\n        /* \"#utility.yul\":9922:9959   */\n      tag_61\n      jump\t// in\n    tag_196:\n        /* \"#utility.yul\":9909:9959   */\n      swap1\n      pop\n        /* \"#utility.yul\":9811:9965   */\n      swap2\n      swap1\n      pop\n      jump\t// out\n        /* \"#utility.yul\":9971:10158   */\n    tag_63:\n        /* \"#utility.yul\":10086:10151   */\n      tag_198\n        /* \"#utility.yul\":10145:10150   */\n      dup2\n        /* \"#utility.yul\":10086:10151   */\n      tag_62\n      jump\t// in\n    tag_198:\n        /* \"#utility.yul\":10081:10084   */\n      dup3\n        /* \"#utility.yul\":10074:10152   */\n      mstore\n        /* \"#utility.yul\":9971:10158   */\n      pop\n      pop\n      jump\t// out\n        /* \"#utility.yul\":10164:10442   */\n    tag_15:\n        /* \"#utility.yul\":10285:10289   */\n      0x00\n        /* \"#utility.yul\":10323:10325   */\n      0x20\n        /* \"#utility.yul\":10312:10321   */\n      dup3\n        /* \"#utility.yul\":10308:10326   */\n      add\n        /* \"#utility.yul\":10300:10326   */\n      swap1\n      pop\n        /* \"#utility.yul\":10336:10435   */\n      tag_200\n        /* \"#utility.yul\":10432:10433   */\n      0x00\n        /* \"#utility.yul\":10421:10430   */\n      dup4\n        /* \"#utility.yul\":10417:10434   */\n      add\n        /* \"#utility.yul\":10408:10414   */\n      dup5\n        /* \"#utility.yul\":10336:10435   */\n      tag_63\n      jump\t// in\n    tag_200:\n        /* \"#utility.yul\":10164:10442   */\n      swap3\n      swap2\n      pop\n      pop\n      jump\t// out\n        /* \"#utility.yul\":10448:10590   */\n    tag_64:\n        /* \"#utility.yul\":10543:10549   */\n      0x00\n        /* \"#utility.yul\":10577:10582   */\n      dup2\n        /* \"#utility.yul\":10571:10583   */\n      mload\n        /* \"#utility.yul\":10561:10583   */\n      swap1\n      pop\n        /* \"#utility.yul\":10448:10590   */\n      swap2\n      swap1\n      pop\n      jump\t// out\n        /* \"#utility.yul\":10596:10780   */\n    tag_65:\n        /* \"#utility.yul\":10695:10706   */\n      0x00\n        /* \"#utility.yul\":10729:10735   */\n      dup3\n        /* \"#utility.yul\":10724:10727   */\n      dup3\n        /* \"#utility.yul\":10717:10736   */\n      mstore\n        /* \"#utility.yul\":10769:10773   */\n      0x20\n        /* \"#utility.yul\":10764:10767   */\n      dup3\n        /* \"#utility.yul\":10760:10774   */\n      add\n        /* \"#utility.yul\":10745:10774   */\n      swap1\n      pop\n        /* \"#utility.yul\":10596:10780   */\n      swap3\n      swap2\n      pop\n      pop\n      jump\t// out\n        /* \"#utility.yul\":10786:10946   */\n    tag_66:\n        /* \"#utility.yul\":10881:10885   */\n      0x00\n        /* \"#utility.yul\":10904:10907   */\n      dup2\n        /* \"#utility.yul\":10896:10907   */\n      swap1\n      pop\n        /* \"#utility.yul\":10934:10938   */\n      0x20\n        /* \"#utility.yul\":10929:10932   */\n      dup3\n        /* \"#utility.yul\":10925:10939   */\n      add\n        /* \"#utility.yul\":10917:10939   */\n      swap1\n      pop\n        /* \"#utility.yul\":10786:10946   */\n      swap2\n      swap1\n      pop\n      jump\t// out\n        /* \"#utility.yul\":10952:11129   */\n    tag_67:\n        /* \"#utility.yul\":11057:11122   */\n      tag_205\n        /* \"#utility.yul\":11116:11121   */\n      dup2\n        /* \"#utility.yul\":11057:11122   */\n      tag_62\n      jump\t// in\n    tag_205:\n        /* \"#utility.yul\":11052:11055   */\n      dup3\n        /* \"#utility.yul\":11045:11123   */\n      mstore\n        /* \"#utility.yul\":10952:11129   */\n      pop\n      pop\n      jump\t// out\n        /* \"#utility.yul\":11135:11370   */\n    tag_68:\n        /* \"#utility.yul\":11232:11242   */\n      0x00\n        /* \"#utility.yul\":11253:11327   */\n      tag_207\n        /* \"#utility.yul\":11323:11326   */\n      dup4\n        /* \"#utility.yul\":11315:11321   */\n      dup4\n        /* \"#utility.yul\":11253:11327   */\n      tag_67\n      jump\t// in\n    tag_207:\n        /* \"#utility.yul\":11359:11363   */\n      0x20\n        /* \"#utility.yul\":11354:11357   */\n      dup4\n        /* \"#utility.yul\":11350:11364   */\n      add\n        /* \"#utility.yul\":11336:11364   */\n      swap1\n      pop\n        /* \"#utility.yul\":11135:11370   */\n      swap3\n      swap2\n      pop\n      pop\n      jump\t// out\n        /* \"#utility.yul\":11376:11517   */\n    tag_69:\n        /* \"#utility.yul\":11474:11478   */\n      0x00\n        /* \"#utility.yul\":11506:11510   */\n      0x20\n        /* \"#utility.yul\":11501:11504   */\n      dup3\n        /* \"#utility.yul\":11497:11511   */\n      add\n        /* \"#utility.yul\":11489:11511   */\n      swap1\n      pop\n        /* \"#utility.yul\":11376:11517   */\n      swap2\n      swap1\n      pop\n      jump\t// out\n        /* \"#utility.yul\":11575:12447   */\n    tag_70:\n        /* \"#utility.yul\":11722:11725   */\n      0x00\n        /* \"#utility.yul\":11751:11833   */\n      tag_210\n        /* \"#utility.yul\":11827:11832   */\n      dup3\n        /* \"#utility.yul\":11751:11833   */\n      tag_64\n      jump\t// in\n    tag_210:\n        /* \"#utility.yul\":11849:11935   */\n      tag_211\n        /* \"#utility.yul\":11928:11934   */\n      dup2\n        /* \"#utility.yul\":11923:11926   */\n      dup6\n        /* \"#utility.yul\":11849:11935   */\n      tag_65\n      jump\t// in\n    tag_211:\n        /* \"#utility.yul\":11842:11935   */\n      swap4\n      pop\n        /* \"#utility.yul\":11959:12043   */\n      tag_212\n        /* \"#utility.yul\":12037:12042   */\n      dup4\n        /* \"#utility.yul\":11959:12043   */\n      tag_66\n      jump\t// in\n    tag_212:\n        /* \"#utility.yul\":12066:12073   */\n      dup1\n        /* \"#utility.yul\":12097:12098   */\n      0x00\n        /* \"#utility.yul\":12082:12422   */\n    tag_213:\n        /* \"#utility.yul\":12107:12113   */\n      dup4\n        /* \"#utility.yul\":12104:12105   */\n      dup2\n        /* \"#utility.yul\":12101:12114   */\n      lt\n        /* \"#utility.yul\":12082:12422   */\n      iszero\n      tag_215\n      jumpi\n        /* \"#utility.yul\":12183:12189   */\n      dup2\n        /* \"#utility.yul\":12177:12190   */\n      mload\n        /* \"#utility.yul\":12210:12301   */\n      tag_216\n        /* \"#utility.yul\":12297:12300   */\n      dup9\n        /* \"#utility.yul\":12282:12295   */\n      dup3\n        /* \"#utility.yul\":12210:12301   */\n      tag_68\n      jump\t// in\n    tag_216:\n        /* \"#utility.yul\":12203:12301   */\n      swap8\n      pop\n        /* \"#utility.yul\":12324:12412   */\n      tag_217\n        /* \"#utility.yul\":12405:12411   */\n      dup4\n        /* \"#utility.yul\":12324:12412   */\n      tag_69\n      jump\t// in\n    tag_217:\n        /* \"#utility.yul\":12314:12412   */\n      swap3\n      pop\n        /* \"#utility.yul\":12142:12422   */\n      pop\n        /* \"#utility.yul\":12129:12130   */\n      0x01\n        /* \"#utility.yul\":12126:12127   */\n      dup2\n        /* \"#utility.yul\":12122:12131   */\n      add\n        /* \"#utility.yul\":12117:12131   */\n      swap1\n      pop\n        /* \"#utility.yul\":12082:12422   */\n      jump(tag_213)\n    tag_215:\n        /* \"#utility.yul\":12086:12100   */\n      pop\n        /* \"#utility.yul\":12438:12441   */\n      dup6\n        /* \"#utility.yul\":12431:12441   */\n      swap4\n      pop\n        /* \"#utility.yul\":11727:12447   */\n      pop\n      pop\n      pop\n        /* \"#utility.yul\":11575:12447   */\n      swap3\n      swap2\n      pop\n      pop\n      jump\t// out\n        /* \"#utility.yul\":12453:12882   */\n    tag_19:\n        /* \"#utility.yul\":12624:12628   */\n      0x00\n        /* \"#utility.yul\":12662:12664   */\n      0x20\n        /* \"#utility.yul\":12651:12660   */\n      dup3\n        /* \"#utility.yul\":12647:12665   */\n      add\n        /* \"#utility.yul\":12639:12665   */\n      swap1\n      pop\n        /* \"#utility.yul\":12711:12720   */\n      dup2\n        /* \"#utility.yul\":12705:12709   */\n      dup2\n        /* \"#utility.yul\":12701:12721   */\n      sub\n        /* \"#utility.yul\":12697:12698   */\n      0x00\n        /* \"#utility.yul\":12686:12695   */\n      dup4\n        /* \"#utility.yul\":12682:12699   */\n      add\n        /* \"#utility.yul\":12675:12722   */\n      mstore\n        /* \"#utility.yul\":12739:12875   */\n      tag_219\n        /* \"#utility.yul\":12870:12874   */\n      dup2\n        /* \"#utility.yul\":12861:12867   */\n      dup5\n        /* \"#utility.yul\":12739:12875   */\n      tag_70\n      jump\t// in\n    tag_219:\n        /* \"#utility.yul\":12731:12875   */\n      swap1\n      pop\n        /* \"#utility.yul\":12453:12882   */\n      swap3\n      swap2\n      pop\n      pop\n      jump\t// out\n        /* \"#utility.yul\":12888:13012   */\n    tag_71:\n        /* \"#utility.yul\":12965:12971   */\n      0x00\n        /* \"#utility.yul\":12999:13004   */\n      dup2\n        /* \"#utility.yul\":12993:13005   */\n      mload\n        /* \"#utility.yul\":12983:13005   */\n      swap1\n      pop\n        /* \"#utility.yul\":12888:13012   */\n      swap2\n      swap1\n      pop\n      jump\t// out\n        /* \"#utility.yul\":13018:13212   */\n    tag_72:\n        /* \"#utility.yul\":13127:13138   */\n      0x00\n        /* \"#utility.yul\":13161:13167   */\n      dup3\n        /* \"#utility.yul\":13156:13159   */\n      dup3\n        /* \"#utility.yul\":13149:13168   */\n      mstore\n        /* \"#utility.yul\":13201:13205   */\n      0x20\n        /* \"#utility.yul\":13196:13199   */\n      dup3\n        /* \"#utility.yul\":13192:13206   */\n      add\n        /* \"#utility.yul\":13177:13206   */\n      swap1\n      pop\n        /* \"#utility.yul\":13018:13212   */\n      swap3\n      swap2\n      pop\n      pop\n      jump\t// out\n        /* \"#utility.yul\":13218:13360   */\n    tag_73:\n        /* \"#utility.yul\":13295:13299   */\n      0x00\n        /* \"#utility.yul\":13318:13321   */\n      dup2\n        /* \"#utility.yul\":13310:13321   */\n      swap1\n      pop\n        /* \"#utility.yul\":13348:13352   */\n      0x20\n        /* \"#utility.yul\":13343:13346   */\n      dup3\n        /* \"#utility.yul\":13339:13353   */\n      add\n        /* \"#utility.yul\":13331:13353   */\n      swap1\n      pop\n        /* \"#utility.yul\":13218:13360   */\n      swap2\n      swap1\n      pop\n      jump\t// out\n        /* \"#utility.yul\":13366:13465   */\n    tag_74:\n        /* \"#utility.yul\":13418:13424   */\n      0x00\n        /* \"#utility.yul\":13452:13457   */\n      dup2\n        /* \"#utility.yul\":13446:13458   */\n      mload\n        /* \"#utility.yul\":13436:13458   */\n      swap1\n      pop\n        /* \"#utility.yul\":13366:13465   */\n      swap2\n      swap1\n      pop\n      jump\t// out\n        /* \"#utility.yul\":13471:13630   */\n    tag_75:\n        /* \"#utility.yul\":13545:13556   */\n      0x00\n        /* \"#utility.yul\":13579:13585   */\n      dup3\n        /* \"#utility.yul\":13574:13577   */\n      dup3\n        /* \"#utility.yul\":13567:13586   */\n      mstore\n        /* \"#utility.yul\":13619:13623   */\n      0x20\n        /* \"#utility.yul\":13614:13617   */\n      dup3\n        /* \"#utility.yul\":13610:13624   */\n      add\n        /* \"#utility.yul\":13595:13624   */\n      swap1\n      pop\n        /* \"#utility.yul\":13471:13630   */\n      swap3\n      swap2\n      pop\n      pop\n      jump\t// out\n        /* \"#utility.yul\":13636:13943   */\n    tag_76:\n        /* \"#utility.yul\":13704:13705   */\n      0x00\n        /* \"#utility.yul\":13714:13827   */\n    tag_226:\n        /* \"#utility.yul\":13728:13734   */\n      dup4\n        /* \"#utility.yul\":13725:13726   */\n      dup2\n        /* \"#utility.yul\":13722:13735   */\n      lt\n        /* \"#utility.yul\":13714:13827   */\n      iszero\n      tag_228\n      jumpi\n        /* \"#utility.yul\":13813:13814   */\n      dup1\n        /* \"#utility.yul\":13808:13811   */\n      dup3\n        /* \"#utility.yul\":13804:13815   */\n      add\n        /* \"#utility.yul\":13798:13816   */\n      mload\n        /* \"#utility.yul\":13794:13795   */\n      dup2\n        /* \"#utility.yul\":13789:13792   */\n      dup5\n        /* \"#utility.yul\":13785:13796   */\n      add\n        /* \"#utility.yul\":13778:13817   */\n      mstore\n        /* \"#utility.yul\":13750:13752   */\n      0x20\n        /* \"#utility.yul\":13747:13748   */\n      dup2\n        /* \"#utility.yul\":13743:13753   */\n      add\n        /* \"#utility.yul\":13738:13753   */\n      swap1\n      pop\n        /* \"#utility.yul\":13714:13827   */\n      jump(tag_226)\n    tag_228:\n        /* \"#utility.yul\":13845:13851   */\n      dup4\n        /* \"#utility.yul\":13842:13843   */\n      dup2\n        /* \"#utility.yul\":13839:13852   */\n      gt\n        /* \"#utility.yul\":13836:13937   */\n      iszero\n      tag_229\n      jumpi\n        /* \"#utility.yul\":13925:13926   */\n      0x00\n        /* \"#utility.yul\":13916:13922   */\n      dup5\n        /* \"#utility.yul\":13911:13914   */\n      dup5\n        /* \"#utility.yul\":13907:13923   */\n      add\n        /* \"#utility.yul\":13900:13927   */\n      mstore\n        /* \"#utility.yul\":13836:13937   */\n    tag_229:\n        /* \"#utility.yul\":13685:13943   */\n      pop\n        /* \"#utility.yul\":13636:13943   */\n      pop\n      pop\n      pop\n      jump\t// out\n        /* \"#utility.yul\":13949:14293   */\n    tag_77:\n        /* \"#utility.yul\":14027:14030   */\n      0x00\n        /* \"#utility.yul\":14055:14094   */\n      tag_231\n        /* \"#utility.yul\":14088:14093   */\n      dup3\n        /* \"#utility.yul\":14055:14094   */\n      tag_74\n      jump\t// in\n    tag_231:\n        /* \"#utility.yul\":14110:14171   */\n      tag_232\n        /* \"#utility.yul\":14164:14170   */\n      dup2\n        /* \"#utility.yul\":14159:14162   */\n      dup6\n        /* \"#utility.yul\":14110:14171   */\n      tag_75\n      jump\t// in\n    tag_232:\n        /* \"#utility.yul\":14103:14171   */\n      swap4\n      pop\n        /* \"#utility.yul\":14180:14232   */\n      tag_233\n        /* \"#utility.yul\":14225:14231   */\n      dup2\n        /* \"#utility.yul\":14220:14223   */\n      dup6\n        /* \"#utility.yul\":14213:14217   */\n      0x20\n        /* \"#utility.yul\":14206:14211   */\n      dup7\n        /* \"#utility.yul\":14202:14218   */\n      add\n        /* \"#utility.yul\":14180:14232   */\n      tag_76\n      jump\t// in\n    tag_233:\n        /* \"#utility.yul\":14257:14286   */\n      tag_234\n        /* \"#utility.yul\":14279:14285   */\n      dup2\n        /* \"#utility.yul\":14257:14286   */\n      tag_36\n      jump\t// in\n    tag_234:\n        /* \"#utility.yul\":14252:14255   */\n      dup5\n        /* \"#utility.yul\":14248:14287   */\n      add\n        /* \"#utility.yul\":14241:14287   */\n      swap2\n      pop\n        /* \"#utility.yul\":14031:14293   */\n      pop\n        /* \"#utility.yul\":13949:14293   */\n      swap3\n      swap2\n      pop\n      pop\n      jump\t// out\n        /* \"#utility.yul\":14299:14495   */\n    tag_78:\n        /* \"#utility.yul\":14388:14398   */\n      0x00\n        /* \"#utility.yul\":14423:14489   */\n      tag_236\n        /* \"#utility.yul\":14485:14488   */\n      dup4\n        /* \"#utility.yul\":14477:14483   */\n      dup4\n        /* \"#utility.yul\":14423:14489   */\n      tag_77\n      jump\t// in\n    tag_236:\n        /* \"#utility.yul\":14409:14489   */\n      swap1\n      pop\n        /* \"#utility.yul\":14299:14495   */\n      swap3\n      swap2\n      pop\n      pop\n      jump\t// out\n        /* \"#utility.yul\":14501:14624   */\n    tag_79:\n        /* \"#utility.yul\":14581:14585   */\n      0x00\n        /* \"#utility.yul\":14613:14617   */\n      0x20\n        /* \"#utility.yul\":14608:14611   */\n      dup3\n        /* \"#utility.yul\":14604:14618   */\n      add\n        /* \"#utility.yul\":14596:14618   */\n      swap1\n      pop\n        /* \"#utility.yul\":14501:14624   */\n      swap2\n      swap1\n      pop\n      jump\t// out\n        /* \"#utility.yul\":14658:15649   */\n    tag_80:\n        /* \"#utility.yul\":14797:14800   */\n      0x00\n        /* \"#utility.yul\":14826:14890   */\n      tag_239\n        /* \"#utility.yul\":14884:14889   */\n      dup3\n        /* \"#utility.yul\":14826:14890   */\n      tag_71\n      jump\t// in\n    tag_239:\n        /* \"#utility.yul\":14906:15002   */\n      tag_240\n        /* \"#utility.yul\":14995:15001   */\n      dup2\n        /* \"#utility.yul\":14990:14993   */\n      dup6\n        /* \"#utility.yul\":14906:15002   */\n      tag_72\n      jump\t// in\n    tag_240:\n        /* \"#utility.yul\":14899:15002   */\n      swap4\n      pop\n        /* \"#utility.yul\":15028:15031   */\n      dup4\n        /* \"#utility.yul\":15073:15077   */\n      0x20\n        /* \"#utility.yul\":15065:15071   */\n      dup3\n        /* \"#utility.yul\":15061:15078   */\n      mul\n        /* \"#utility.yul\":15056:15059   */\n      dup6\n        /* \"#utility.yul\":15052:15079   */\n      add\n        /* \"#utility.yul\":15103:15169   */\n      tag_241\n        /* \"#utility.yul\":15163:15168   */\n      dup6\n        /* \"#utility.yul\":15103:15169   */\n      tag_73\n      jump\t// in\n    tag_241:\n        /* \"#utility.yul\":15192:15199   */\n      dup1\n        /* \"#utility.yul\":15223:15224   */\n      0x00\n        /* \"#utility.yul\":15208:15604   */\n    tag_242:\n        /* \"#utility.yul\":15233:15239   */\n      dup6\n        /* \"#utility.yul\":15230:15231   */\n      dup2\n        /* \"#utility.yul\":15227:15240   */\n      lt\n        /* \"#utility.yul\":15208:15604   */\n      iszero\n      tag_244\n      jumpi\n        /* \"#utility.yul\":15304:15313   */\n      dup5\n        /* \"#utility.yul\":15298:15302   */\n      dup5\n        /* \"#utility.yul\":15294:15314   */\n      sub\n        /* \"#utility.yul\":15289:15292   */\n      dup10\n        /* \"#utility.yul\":15282:15315   */\n      mstore\n        /* \"#utility.yul\":15355:15361   */\n      dup2\n        /* \"#utility.yul\":15349:15362   */\n      mload\n        /* \"#utility.yul\":15383:15467   */\n      tag_245\n        /* \"#utility.yul\":15462:15466   */\n      dup6\n        /* \"#utility.yul\":15447:15460   */\n      dup3\n        /* \"#utility.yul\":15383:15467   */\n      tag_78\n      jump\t// in\n    tag_245:\n        /* \"#utility.yul\":15375:15467   */\n      swap5\n      pop\n        /* \"#utility.yul\":15490:15560   */\n      tag_246\n        /* \"#utility.yul\":15553:15559   */\n      dup4\n        /* \"#utility.yul\":15490:15560   */\n      tag_79\n      jump\t// in\n    tag_246:\n        /* \"#utility.yul\":15480:15560   */\n      swap3\n      pop\n        /* \"#utility.yul\":15589:15593   */\n      0x20\n        /* \"#utility.yul\":15584:15587   */\n      dup11\n        /* \"#utility.yul\":15580:15594   */\n      add\n        /* \"#utility.yul\":15573:15594   */\n      swap10\n      pop\n        /* \"#utility.yul\":15268:15604   */\n      pop\n        /* \"#utility.yul\":15255:15256   */\n      0x01\n        /* \"#utility.yul\":15252:15253   */\n      dup2\n        /* \"#utility.yul\":15248:15257   */\n      add\n        /* \"#utility.yul\":15243:15257   */\n      swap1\n      pop\n        /* \"#utility.yul\":15208:15604   */\n      jump(tag_242)\n    tag_244:\n        /* \"#utility.yul\":15212:15226   */\n      pop\n        /* \"#utility.yul\":15620:15624   */\n      dup3\n        /* \"#utility.yul\":15613:15624   */\n      swap8\n      pop\n        /* \"#utility.yul\":15640:15643   */\n      dup8\n        /* \"#utility.yul\":15633:15643   */\n      swap6\n      pop\n        /* \"#utility.yul\":14802:15649   */\n      pop\n      pop\n      pop\n      pop\n      pop\n        /* \"#utility.yul\":14658:15649   */\n      swap3\n      swap2\n      pop\n      pop\n      jump\t// out\n        /* \"#utility.yul\":15655:15773   */\n    tag_81:\n        /* \"#utility.yul\":15742:15766   */\n      tag_248\n        /* \"#utility.yul\":15760:15765   */\n      dup2\n        /* \"#utility.yul\":15742:15766   */\n      tag_49\n      jump\t// in\n    tag_248:\n        /* \"#utility.yul\":15737:15740   */\n      dup3\n        /* \"#utility.yul\":15730:15767   */\n      mstore\n        /* \"#utility.yul\":15655:15773   */\n      pop\n      pop\n      jump\t// out\n        /* \"#utility.yul\":15779:15897   */\n    tag_82:\n        /* \"#utility.yul\":15866:15890   */\n      tag_250\n        /* \"#utility.yul\":15884:15889   */\n      dup2\n        /* \"#utility.yul\":15866:15890   */\n      tag_53\n      jump\t// in\n    tag_250:\n        /* \"#utility.yul\":15861:15864   */\n      dup3\n        /* \"#utility.yul\":15854:15891   */\n      mstore\n        /* \"#utility.yul\":15779:15897   */\n      pop\n      pop\n      jump\t// out\n        /* \"#utility.yul\":15903:16072   */\n    tag_83:\n        /* \"#utility.yul\":15987:15998   */\n      0x00\n        /* \"#utility.yul\":16021:16027   */\n      dup3\n        /* \"#utility.yul\":16016:16019   */\n      dup3\n        /* \"#utility.yul\":16009:16028   */\n      mstore\n        /* \"#utility.yul\":16061:16065   */\n      0x20\n        /* \"#utility.yul\":16056:16059   */\n      dup3\n        /* \"#utility.yul\":16052:16066   */\n      add\n        /* \"#utility.yul\":16037:16066   */\n      swap1\n      pop\n        /* \"#utility.yul\":15903:16072   */\n      swap3\n      swap2\n      pop\n      pop\n      jump\t// out\n        /* \"#utility.yul\":16078:16442   */\n    tag_84:\n        /* \"#utility.yul\":16166:16169   */\n      0x00\n        /* \"#utility.yul\":16194:16233   */\n      tag_253\n        /* \"#utility.yul\":16227:16232   */\n      dup3\n        /* \"#utility.yul\":16194:16233   */\n      tag_74\n      jump\t// in\n    tag_253:\n        /* \"#utility.yul\":16249:16320   */\n      tag_254\n        /* \"#utility.yul\":16313:16319   */\n      dup2\n        /* \"#utility.yul\":16308:16311   */\n      dup6\n        /* \"#utility.yul\":16249:16320   */\n      tag_83\n      jump\t// in\n    tag_254:\n        /* \"#utility.yul\":16242:16320   */\n      swap4\n      pop\n        /* \"#utility.yul\":16329:16381   */\n      tag_255\n        /* \"#utility.yul\":16374:16380   */\n      dup2\n        /* \"#utility.yul\":16369:16372   */\n      dup6\n        /* \"#utility.yul\":16362:16366   */\n      0x20\n        /* \"#utility.yul\":16355:16360   */\n      dup7\n        /* \"#utility.yul\":16351:16367   */\n      add\n        /* \"#utility.yul\":16329:16381   */\n      tag_76\n      jump\t// in\n    tag_255:\n        /* \"#utility.yul\":16406:16435   */\n      tag_256\n        /* \"#utility.yul\":16428:16434   */\n      dup2\n        /* \"#utility.yul\":16406:16435   */\n      tag_36\n      jump\t// in\n    tag_256:\n        /* \"#utility.yul\":16401:16404   */\n      dup5\n        /* \"#utility.yul\":16397:16436   */\n      add\n        /* \"#utility.yul\":16390:16436   */\n      swap2\n      pop\n        /* \"#utility.yul\":16170:16442   */\n      pop\n        /* \"#utility.yul\":16078:16442   */\n      swap3\n      swap2\n      pop\n      pop\n      jump\t// out\n        /* \"#utility.yul\":16448:16556   */\n    tag_85:\n        /* \"#utility.yul\":16525:16549   */\n      tag_258\n        /* \"#utility.yul\":16543:16548   */\n      dup2\n        /* \"#utility.yul\":16525:16549   */\n      tag_49\n      jump\t// in\n    tag_258:\n        /* \"#utility.yul\":16520:16523   */\n      dup3\n        /* \"#utility.yul\":16513:16550   */\n      mstore\n        /* \"#utility.yul\":16448:16556   */\n      pop\n      pop\n      jump\t// out\n        /* \"#utility.yul\":16630:17307   */\n    tag_86:\n        /* \"#utility.yul\":16773:16777   */\n      0x60\n        /* \"#utility.yul\":16768:16771   */\n      dup3\n        /* \"#utility.yul\":16764:16778   */\n      add\n        /* \"#utility.yul\":16860:16864   */\n      0x00\n        /* \"#utility.yul\":16853:16858   */\n      dup3\n        /* \"#utility.yul\":16849:16865   */\n      add\n        /* \"#utility.yul\":16843:16866   */\n      mload\n        /* \"#utility.yul\":16879:16942   */\n      tag_260\n        /* \"#utility.yul\":16936:16940   */\n      0x00\n        /* \"#utility.yul\":16931:16934   */\n      dup6\n        /* \"#utility.yul\":16927:16941   */\n      add\n        /* \"#utility.yul\":16913:16925   */\n      dup3\n        /* \"#utility.yul\":16879:16942   */\n      tag_85\n      jump\t// in\n    tag_260:\n        /* \"#utility.yul\":16788:16952   */\n      pop\n        /* \"#utility.yul\":17035:17039   */\n      0x20\n        /* \"#utility.yul\":17028:17033   */\n      dup3\n        /* \"#utility.yul\":17024:17040   */\n      add\n        /* \"#utility.yul\":17018:17041   */\n      mload\n        /* \"#utility.yul\":17054:17117   */\n      tag_261\n        /* \"#utility.yul\":17111:17115   */\n      0x20\n        /* \"#utility.yul\":17106:17109   */\n      dup6\n        /* \"#utility.yul\":17102:17116   */\n      add\n        /* \"#utility.yul\":17088:17100   */\n      dup3\n        /* \"#utility.yul\":17054:17117   */\n      tag_85\n      jump\t// in\n    tag_261:\n        /* \"#utility.yul\":16962:17127   */\n      pop\n        /* \"#utility.yul\":17208:17212   */\n      0x40\n        /* \"#utility.yul\":17201:17206   */\n      dup3\n        /* \"#utility.yul\":17197:17213   */\n      add\n        /* \"#utility.yul\":17191:17214   */\n      mload\n        /* \"#utility.yul\":17227:17290   */\n      tag_262\n        /* \"#utility.yul\":17284:17288   */\n      0x40\n        /* \"#utility.yul\":17279:17282   */\n      dup6\n        /* \"#utility.yul\":17275:17289   */\n      add\n        /* \"#utility.yul\":17261:17273   */\n      dup3\n        /* \"#utility.yul\":17227:17290   */\n      tag_85\n      jump\t// in\n    tag_262:\n        /* \"#utility.yul\":17137:17300   */\n      pop\n        /* \"#utility.yul\":16742:17307   */\n      pop\n        /* \"#utility.yul\":16630:17307   */\n      pop\n      pop\n      jump\t// out\n        /* \"#utility.yul\":17313:19475   */\n    tag_24:\n        /* \"#utility.yul\":17949:17953   */\n      0x00\n        /* \"#utility.yul\":17987:17990   */\n      0x01e0\n        /* \"#utility.yul\":17976:17985   */\n      dup3\n        /* \"#utility.yul\":17972:17991   */\n      add\n        /* \"#utility.yul\":17964:17991   */\n      swap1\n      pop\n        /* \"#utility.yul\":18037:18046   */\n      dup2\n        /* \"#utility.yul\":18031:18035   */\n      dup2\n        /* \"#utility.yul\":18027:18047   */\n      sub\n        /* \"#utility.yul\":18023:18024   */\n      0x00\n        /* \"#utility.yul\":18012:18021   */\n      dup4\n        /* \"#utility.yul\":18008:18025   */\n      add\n        /* \"#utility.yul\":18001:18048   */\n      mstore\n        /* \"#utility.yul\":18065:18193   */\n      tag_264\n        /* \"#utility.yul\":18188:18192   */\n      dup2\n        /* \"#utility.yul\":18179:18185   */\n      dup15\n        /* \"#utility.yul\":18065:18193   */\n      tag_80\n      jump\t// in\n    tag_264:\n        /* \"#utility.yul\":18057:18193   */\n      swap1\n      pop\n        /* \"#utility.yul\":18203:18275   */\n      tag_265\n        /* \"#utility.yul\":18271:18273   */\n      0x20\n        /* \"#utility.yul\":18260:18269   */\n      dup4\n        /* \"#utility.yul\":18256:18274   */\n      add\n        /* \"#utility.yul\":18247:18253   */\n      dup14\n        /* \"#utility.yul\":18203:18275   */\n      tag_81\n      jump\t// in\n    tag_265:\n        /* \"#utility.yul\":18285:18357   */\n      tag_266\n        /* \"#utility.yul\":18353:18355   */\n      0x40\n        /* \"#utility.yul\":18342:18351   */\n      dup4\n        /* \"#utility.yul\":18338:18356   */\n      add\n        /* \"#utility.yul\":18329:18335   */\n      dup13\n        /* \"#utility.yul\":18285:18357   */\n      tag_82\n      jump\t// in\n    tag_266:\n        /* \"#utility.yul\":18404:18413   */\n      dup2\n        /* \"#utility.yul\":18398:18402   */\n      dup2\n        /* \"#utility.yul\":18394:18414   */\n      sub\n        /* \"#utility.yul\":18389:18391   */\n      0x60\n        /* \"#utility.yul\":18378:18387   */\n      dup4\n        /* \"#utility.yul\":18374:18392   */\n      add\n        /* \"#utility.yul\":18367:18415   */\n      mstore\n        /* \"#utility.yul\":18432:18510   */\n      tag_267\n        /* \"#utility.yul\":18505:18509   */\n      dup2\n        /* \"#utility.yul\":18496:18502   */\n      dup12\n        /* \"#utility.yul\":18432:18510   */\n      tag_84\n      jump\t// in\n    tag_267:\n        /* \"#utility.yul\":18424:18510   */\n      swap1\n      pop\n        /* \"#utility.yul\":18520:18593   */\n      tag_268\n        /* \"#utility.yul\":18588:18591   */\n      0x80\n        /* \"#utility.yul\":18577:18586   */\n      dup4\n        /* \"#utility.yul\":18573:18592   */\n      add\n        /* \"#utility.yul\":18564:18570   */\n      dup11\n        /* \"#utility.yul\":18520:18593   */\n      tag_82\n      jump\t// in\n    tag_268:\n        /* \"#utility.yul\":18603:18722   */\n      tag_269\n        /* \"#utility.yul\":18717:18720   */\n      0xa0\n        /* \"#utility.yul\":18706:18715   */\n      dup4\n        /* \"#utility.yul\":18702:18721   */\n      add\n        /* \"#utility.yul\":18693:18699   */\n      dup10\n        /* \"#utility.yul\":18603:18722   */\n      tag_86\n      jump\t// in\n    tag_269:\n        /* \"#utility.yul\":18732:18851   */\n      tag_270\n        /* \"#utility.yul\":18846:18849   */\n      0x0100\n        /* \"#utility.yul\":18835:18844   */\n      dup4\n        /* \"#utility.yul\":18831:18850   */\n      add\n        /* \"#utility.yul\":18822:18828   */\n      dup9\n        /* \"#utility.yul\":18732:18851   */\n      tag_86\n      jump\t// in\n    tag_270:\n        /* \"#utility.yul\":18899:18908   */\n      dup2\n        /* \"#utility.yul\":18893:18897   */\n      dup2\n        /* \"#utility.yul\":18889:18909   */\n      sub\n        /* \"#utility.yul\":18883:18886   */\n      0x0160\n        /* \"#utility.yul\":18872:18881   */\n      dup4\n        /* \"#utility.yul\":18868:18887   */\n      add\n        /* \"#utility.yul\":18861:18910   */\n      mstore\n        /* \"#utility.yul\":18927:19005   */\n      tag_271\n        /* \"#utility.yul\":19000:19004   */\n      dup2\n        /* \"#utility.yul\":18991:18997   */\n      dup8\n        /* \"#utility.yul\":18927:19005   */\n      tag_84\n      jump\t// in\n    tag_271:\n        /* \"#utility.yul\":18919:19005   */\n      swap1\n      pop\n        /* \"#utility.yul\":19053:19062   */\n      dup2\n        /* \"#utility.yul\":19047:19051   */\n      dup2\n        /* \"#utility.yul\":19043:19063   */\n      sub\n        /* \"#utility.yul\":19037:19040   */\n      0x0180\n        /* \"#utility.yul\":19026:19035   */\n      dup4\n        /* \"#utility.yul\":19022:19041   */\n      add\n        /* \"#utility.yul\":19015:19064   */\n      mstore\n        /* \"#utility.yul\":19081:19159   */\n      tag_272\n        /* \"#utility.yul\":19154:19158   */\n      dup2\n        /* \"#utility.yul\":19145:19151   */\n      dup7\n        /* \"#utility.yul\":19081:19159   */\n      tag_84\n      jump\t// in\n    tag_272:\n        /* \"#utility.yul\":19073:19159   */\n      swap1\n      pop\n        /* \"#utility.yul\":19207:19216   */\n      dup2\n        /* \"#utility.yul\":19201:19205   */\n      dup2\n        /* \"#utility.yul\":19197:19217   */\n      sub\n        /* \"#utility.yul\":19191:19194   */\n      0x01a0\n        /* \"#utility.yul\":19180:19189   */\n      dup4\n        /* \"#utility.yul\":19176:19195   */\n      add\n        /* \"#utility.yul\":19169:19218   */\n      mstore\n        /* \"#utility.yul\":19235:19313   */\n      tag_273\n        /* \"#utility.yul\":19308:19312   */\n      dup2\n        /* \"#utility.yul\":19299:19305   */\n      dup6\n        /* \"#utility.yul\":19235:19313   */\n      tag_84\n      jump\t// in\n    tag_273:\n        /* \"#utility.yul\":19227:19313   */\n      swap1\n      pop\n        /* \"#utility.yul\":19361:19370   */\n      dup2\n        /* \"#utility.yul\":19355:19359   */\n      dup2\n        /* \"#utility.yul\":19351:19371   */\n      sub\n        /* \"#utility.yul\":19345:19348   */\n      0x01c0\n        /* \"#utility.yul\":19334:19343   */\n      dup4\n        /* \"#utility.yul\":19330:19349   */\n      add\n        /* \"#utility.yul\":19323:19372   */\n      mstore\n        /* \"#utility.yul\":19389:19468   */\n      tag_274\n        /* \"#utility.yul\":19463:19467   */\n      dup2\n        /* \"#utility.yul\":19453:19460   */\n      dup5\n        /* \"#utility.yul\":19389:19468   */\n      tag_84\n      jump\t// in\n    tag_274:\n        /* \"#utility.yul\":19381:19468   */\n      swap1\n      pop\n        /* \"#utility.yul\":17313:19475   */\n      swap13\n      swap12\n      pop\n      pop\n      pop\n      pop\n      pop\n      pop\n      pop\n      pop\n      pop\n      pop\n      pop\n      pop\n      jump\t// out\n    stop\n\n    sub_0: assembly {\n            /* \"Transaction.sol\":1360:8575  contract RecurrentTransaction{... */\n          mstore(0x40, 0x80)\n            /* \"Transaction.sol\":2334:2335  0 */\n          0x00\n            /* \"Transaction.sol\":2309:2335  uint public paidAmount = 0 */\n          0x02\n          sstore\n            /* \"Transaction.sol\":2371:2372  0 */\n          0x00\n            /* \"Transaction.sol\":2341:2372  uint public totalPaidAmount = 0 */\n          0x03\n          sstore\n            /* \"Transaction.sol\":2578:2583  false */\n          0x00\n            /* \"Transaction.sol\":2559:2583  bool public paid = false */\n          0x08\n          exp(0x0100, 0x14)\n          dup2\n          sload\n          dup2\n          0xff\n          mul\n          not\n          and\n          swap1\n          dup4\n          iszero\n          iszero\n          mul\n          or\n          swap1\n          sstore\n          pop\n            /* \"Transaction.sol\":2611:2616  false */\n          0x00\n            /* \"Transaction.sol\":2589:2616  bool public audited = false */\n          0x08\n          exp(0x0100, 0x15)\n          dup2\n          sload\n          dup2\n          0xff\n          mul\n          not\n          and\n          swap1\n          dup4\n          iszero\n          iszero\n          mul\n          or\n          swap1\n          sstore\n          pop\n            /* \"Transaction.sol\":2647:2652  false */\n          0x00\n            /* \"Transaction.sol\":2622:2652  bool public accaptable = false */\n          0x08\n          exp(0x0100, 0x16)\n          dup2\n          sload\n          dup2\n          0xff\n          mul\n          not\n          and\n          swap1\n          dup4\n          iszero\n          iszero\n          mul\n          or\n          swap1\n          sstore\n          pop\n            /* \"Transaction.sol\":2857:2858  0 */\n          0x00\n            /* \"Transaction.sol\":2829:2858  uint private currentIndex = 0 */\n          0x14\n          sstore\n            /* \"Transaction.sol\":3190:4663  constructor(string[] memory terms, uint amount, address newCustomer,... */\n          callvalue\n          dup1\n          iszero\n          tag_1\n          jumpi\n          0x00\n          dup1\n          revert\n        tag_1:\n          pop\n          mload(0x40)\n          sub(codesize, bytecodeSize)\n          dup1\n          bytecodeSize\n          dup4\n          codecopy\n          dup2\n          dup2\n          add\n          0x40\n          mstore\n          dup2\n          add\n          swap1\n          tag_2\n          swap2\n          swap1\n          tag_3\n          jump\t// in\n        tag_2:\n            /* \"Transaction.sol\":3622:3633  newSupplier */\n          dup7\n            /* \"Transaction.sol\":3611:3619  supplier */\n          0x08\n          0x00\n            /* \"Transaction.sol\":3611:3633  supplier = newSupplier */\n          0x0100\n          exp\n          dup2\n          sload\n          dup2\n          0xffffffffffffffffffffffffffffffffffffffff\n          mul\n          not\n          and\n          swap1\n          dup4\n          0xffffffffffffffffffffffffffffffffffffffff\n          and\n          mul\n          or\n          swap1\n          sstore\n          pop\n            /* \"Transaction.sol\":3652:3672  Type storage newType */\n          0x00\n            /* \"Transaction.sol\":3675:3690  typeTransaction */\n          0x12\n            /* \"Transaction.sol\":3652:3690  Type storage newType = typeTransaction */\n          swap1\n          pop\n            /* \"Transaction.sol\":3726:3743  typeOfTransaction */\n          dup3\n            /* \"Transaction.sol\":3700:3707  newType */\n          dup2\n            /* \"Transaction.sol\":3700:3723  newType.transactionType */\n          0x00\n          add\n            /* \"Transaction.sol\":3700:3743  newType.transactionType = typeOfTransaction */\n          swap1\n          dup1\n          mload\n          swap1\n          0x20\n          add\n          swap1\n          tag_6\n          swap3\n          swap2\n          swap1\n          tag_7\n          jump\t// in\n        tag_6:\n          pop\n            /* \"Transaction.sol\":3755:3790  TermsAndConditions storage newTerms */\n          0x00\n            /* \"Transaction.sol\":3793:3798  tandc */\n          0x09\n            /* \"Transaction.sol\":3755:3798  TermsAndConditions storage newTerms = tandc */\n          swap1\n          pop\n            /* \"Transaction.sol\":3833:3839  amount */\n          dup12\n            /* \"Transaction.sol\":3817:3830  backUpPayment */\n          0x00\n            /* \"Transaction.sol\":3817:3839  backUpPayment = amount */\n          dup2\n          swap1\n          sstore\n          pop\n            /* \"Transaction.sol\":3864:3879  newSupplierName */\n          dup6\n            /* \"Transaction.sol\":3849:3861  supplierName */\n          0x04\n            /* \"Transaction.sol\":3849:3879  supplierName = newSupplierName */\n          swap1\n          dup1\n          mload\n          swap1\n          0x20\n          add\n          swap1\n          tag_8\n          swap3\n          swap2\n          swap1\n          tag_7\n          jump\t// in\n        tag_8:\n          pop\n            /* \"Transaction.sol\":3904:3919  newCustomerName */\n          dup5\n            /* \"Transaction.sol\":3889:3901  customerName */\n          0x05\n            /* \"Transaction.sol\":3889:3919  customerName = newCustomerName */\n          swap1\n          dup1\n          mload\n          swap1\n          0x20\n          add\n          swap1\n          tag_9\n          swap3\n          swap2\n          swap1\n          tag_7\n          jump\t// in\n        tag_9:\n          pop\n            /* \"Transaction.sol\":3935:3941  uint i */\n          0x00\n            /* \"Transaction.sol\":3930:4023  for (uint i = 0; i<terms.length;i++){... */\n        tag_10:\n            /* \"Transaction.sol\":3949:3954  terms */\n          dup14\n            /* \"Transaction.sol\":3949:3961  terms.length */\n          mload\n            /* \"Transaction.sol\":3947:3948  i */\n          dup2\n            /* \"Transaction.sol\":3947:3961  i<terms.length */\n          lt\n            /* \"Transaction.sol\":3930:4023  for (uint i = 0; i<terms.length;i++){... */\n          iszero\n          tag_11\n          jumpi\n            /* \"Transaction.sol\":3980:3988  newTerms */\n          dup2\n            /* \"Transaction.sol\":3980:3997  newTerms.allTerms */\n          0x00\n          add\n            /* \"Transaction.sol\":4003:4008  terms */\n          dup15\n            /* \"Transaction.sol\":4009:4010  i */\n          dup3\n            /* \"Transaction.sol\":4003:4011  terms[i] */\n          dup2\n          mload\n          dup2\n          lt\n          tag_13\n          jumpi\n          tag_14\n          tag_15\n          jump\t// in\n        tag_14:\n        tag_13:\n          0x20\n          mul\n          0x20\n          add\n          add\n          mload\n            /* \"Transaction.sol\":3980:4012  newTerms.allTerms.push(terms[i]) */\n          swap1\n          dup1\n          0x01\n          dup2\n          sload\n          add\n          dup1\n          dup3\n          sstore\n          dup1\n          swap2\n          pop\n          pop\n          0x01\n          swap1\n          sub\n          swap1\n          0x00\n          mstore\n          keccak256(0x00, 0x20)\n          add\n          0x00\n          swap1\n          swap2\n          swap1\n          swap2\n          swap1\n          swap2\n          pop\n          swap1\n          dup1\n          mload\n          swap1\n          0x20\n          add\n          swap1\n          tag_17\n          swap3\n          swap2\n          swap1\n          tag_7\n          jump\t// in\n        tag_17:\n          pop\n            /* \"Transaction.sol\":3962:3965  i++ */\n          dup1\n          dup1\n          tag_18\n          swap1\n          tag_19\n          jump\t// in\n        tag_18:\n          swap2\n          pop\n          pop\n            /* \"Transaction.sol\":3930:4023  for (uint i = 0; i<terms.length;i++){... */\n          jump(tag_10)\n        tag_11:\n          pop\n            /* \"Transaction.sol\":4052:4057  false */\n          0x00\n            /* \"Transaction.sol\":4032:4040  newTerms */\n          dup2\n            /* \"Transaction.sol\":4032:4049  newTerms.accepted */\n          0x01\n          add\n          0x00\n            /* \"Transaction.sol\":4032:4057  newTerms.accepted = false */\n          0x0100\n          exp\n          dup2\n          sload\n          dup2\n          0xff\n          mul\n          not\n          and\n          swap1\n          dup4\n          iszero\n          iszero\n          mul\n          or\n          swap1\n          sstore\n          pop\n            /* \"Transaction.sol\":4088:4100  startDateNew */\n          dup8\n            /* \"Transaction.sol\":4067:4075  newTerms */\n          dup2\n            /* \"Transaction.sol\":4067:4085  newTerms.startDate */\n          0x02\n          add\n            /* \"Transaction.sol\":4067:4100  newTerms.startDate = startDateNew */\n          0x00\n          dup3\n          add\n          mload\n          dup2\n          0x00\n          add\n          sstore\n          0x20\n          dup3\n          add\n          mload\n          dup2\n          0x01\n          add\n          sstore\n          0x40\n          dup3\n          add\n          mload\n          dup2\n          0x02\n          add\n          sstore\n          swap1\n          pop\n          pop\n            /* \"Transaction.sol\":4129:4139  endDateNew */\n          dup7\n            /* \"Transaction.sol\":4110:4118  newTerms */\n          dup2\n            /* \"Transaction.sol\":4110:4126  newTerms.endDate */\n          0x05\n          add\n            /* \"Transaction.sol\":4110:4139  newTerms.endDate = endDateNew */\n          0x00\n          dup3\n          add\n          mload\n          dup2\n          0x00\n          add\n          sstore\n          0x20\n          dup3\n          add\n          mload\n          dup2\n          0x01\n          add\n          sstore\n          0x40\n          dup3\n          add\n          mload\n          dup2\n          0x02\n          add\n          sstore\n          swap1\n          pop\n          pop\n            /* \"Transaction.sol\":4166:4171  false */\n          0x00\n            /* \"Transaction.sol\":4149:4157  newTerms */\n          dup2\n            /* \"Transaction.sol\":4149:4163  newTerms.valid */\n          0x08\n          add\n          0x00\n            /* \"Transaction.sol\":4149:4171  newTerms.valid = false */\n          0x0100\n          exp\n          dup2\n          sload\n          dup2\n          0xff\n          mul\n          not\n          and\n          swap1\n          dup4\n          iszero\n          iszero\n          mul\n          or\n          swap1\n          sstore\n          pop\n            /* \"Transaction.sol\":4198:4204  amount */\n          dup12\n            /* \"Transaction.sol\":4182:4195  paymentAmount */\n          0x01\n            /* \"Transaction.sol\":4182:4204  paymentAmount = amount */\n          dup2\n          swap1\n          sstore\n          pop\n            /* \"Transaction.sol\":4228:4242  descriptionSet */\n          dup10\n            /* \"Transaction.sol\":4214:4225  description */\n          0x06\n            /* \"Transaction.sol\":4214:4242  description = descriptionSet */\n          swap1\n          dup1\n          mload\n          swap1\n          0x20\n          add\n          swap1\n          tag_20\n          swap3\n          swap2\n          swap1\n          tag_7\n          jump\t// in\n        tag_20:\n          pop\n            /* \"Transaction.sol\":4263:4274  newCustomer */\n          dup11\n            /* \"Transaction.sol\":4252:4260  customer */\n          0x07\n          0x00\n            /* \"Transaction.sol\":4252:4274  customer = newCustomer */\n          0x0100\n          exp\n          dup2\n          sload\n          dup2\n          0xffffffffffffffffffffffffffffffffffffffff\n          mul\n          not\n          and\n          swap1\n          dup4\n          0xffffffffffffffffffffffffffffffffffffffff\n          and\n          mul\n          or\n          swap1\n          sstore\n          pop\n            /* \"Transaction.sol\":4293:4319  History storage newHistory */\n          0x00\n            /* \"Transaction.sol\":4322:4332  allHistory */\n          0x13\n            /* \"Transaction.sol\":4322:4346  allHistory[currentIndex] */\n          0x00\n            /* \"Transaction.sol\":4333:4345  currentIndex */\n          sload(0x14)\n            /* \"Transaction.sol\":4322:4346  allHistory[currentIndex] */\n          dup2\n          mstore\n          0x20\n          add\n          swap1\n          dup2\n          mstore\n          0x20\n          add\n          0x00\n          keccak256\n            /* \"Transaction.sol\":4293:4346  History storage newHistory = allHistory[currentIndex] */\n          swap1\n          pop\n            /* \"Transaction.sol\":4374:4380  amount */\n          dup13\n            /* \"Transaction.sol\":4356:4366  newHistory */\n          dup2\n            /* \"Transaction.sol\":4356:4371  newHistory.owed */\n          0x00\n          add\n            /* \"Transaction.sol\":4356:4380  newHistory.owed = amount */\n          dup2\n          swap1\n          sstore\n          pop\n            /* \"Transaction.sol\":4411:4412  0 */\n          0x00\n            /* \"Transaction.sol\":4390:4400  newHistory */\n          dup2\n            /* \"Transaction.sol\":4390:4408  newHistory.howMuch */\n          0x01\n          add\n            /* \"Transaction.sol\":4390:4412  newHistory.howMuch = 0 */\n          dup2\n          swap1\n          sstore\n          pop\n            /* \"Transaction.sol\":4443:4447  true */\n          0x01\n            /* \"Transaction.sol\":4422:4432  newHistory */\n          dup2\n            /* \"Transaction.sol\":4422:4440  newHistory.initial */\n          0x02\n          add\n          0x00\n            /* \"Transaction.sol\":4422:4447  newHistory.initial = true */\n          0x0100\n          exp\n          dup2\n          sload\n          dup2\n          0xff\n          mul\n          not\n          and\n          swap1\n          dup4\n          iszero\n          iszero\n          mul\n          or\n          swap1\n          sstore\n          pop\n            /* \"Transaction.sol\":4476:4481  false */\n          0x00\n            /* \"Transaction.sol\":4457:4467  newHistory */\n          dup2\n            /* \"Transaction.sol\":4457:4473  newHistory.audit */\n          0x02\n          add\n          0x01\n            /* \"Transaction.sol\":4457:4481  newHistory.audit = false */\n          0x0100\n          exp\n          dup2\n          sload\n          dup2\n          0xff\n          mul\n          not\n          and\n          swap1\n          dup4\n          iszero\n          iszero\n          mul\n          or\n          swap1\n          sstore\n          pop\n            /* \"Transaction.sol\":4508:4513  false */\n          0x00\n            /* \"Transaction.sol\":4491:4501  newHistory */\n          dup2\n            /* \"Transaction.sol\":4491:4505  newHistory.end */\n          0x02\n          add\n          0x02\n            /* \"Transaction.sol\":4491:4513  newHistory.end = false */\n          0x0100\n          exp\n          dup2\n          sload\n          dup2\n          0xff\n          mul\n          not\n          and\n          swap1\n          dup4\n          iszero\n          iszero\n          mul\n          or\n          swap1\n          sstore\n          pop\n            /* \"Transaction.sol\":4544:4549  false */\n          0x00\n            /* \"Transaction.sol\":4523:4533  newHistory */\n          dup2\n            /* \"Transaction.sol\":4523:4541  newHistory.payment */\n          0x02\n          add\n          0x03\n            /* \"Transaction.sol\":4523:4549  newHistory.payment = false */\n          0x0100\n          exp\n          dup2\n          sload\n          dup2\n          0xff\n          mul\n          not\n          and\n          swap1\n          dup4\n          iszero\n          iszero\n          mul\n          or\n          swap1\n          sstore\n          pop\n            /* \"Transaction.sol\":4581:4586  false */\n          0x00\n            /* \"Transaction.sol\":4559:4569  newHistory */\n          dup2\n            /* \"Transaction.sol\":4559:4578  newHistory.monthEnd */\n          0x02\n          add\n          0x04\n            /* \"Transaction.sol\":4559:4586  newHistory.monthEnd = false */\n          0x0100\n          exp\n          dup2\n          sload\n          dup2\n          0xff\n          mul\n          not\n          and\n          swap1\n          dup4\n          iszero\n          iszero\n          mul\n          or\n          swap1\n          sstore\n          pop\n            /* \"Transaction.sol\":4619:4631  newTimeStamp */\n          dup4\n            /* \"Transaction.sol\":4596:4606  newHistory */\n          dup2\n            /* \"Transaction.sol\":4596:4616  newHistory.timeStamp */\n          0x03\n          add\n            /* \"Transaction.sol\":4596:4631  newHistory.timeStamp = newTimeStamp */\n          swap1\n          dup1\n          mload\n          swap1\n          0x20\n          add\n          swap1\n          tag_21\n          swap3\n          swap2\n          swap1\n          tag_7\n          jump\t// in\n        tag_21:\n          pop\n            /* \"Transaction.sol\":4641:4653  currentIndex */\n          0x14\n          0x00\n            /* \"Transaction.sol\":4641:4655  currentIndex++ */\n          dup2\n          sload\n          dup1\n          swap3\n          swap2\n          swap1\n          tag_22\n          swap1\n          tag_19\n          jump\t// in\n        tag_22:\n          swap2\n          swap1\n          pop\n          sstore\n          pop\n            /* \"Transaction.sol\":3601:4663  {... */\n          pop\n          pop\n          pop\n            /* \"Transaction.sol\":3190:4663  constructor(string[] memory terms, uint amount, address newCustomer,... */\n          pop\n          pop\n          pop\n          pop\n          pop\n          pop\n          pop\n          pop\n          pop\n          pop\n          pop\n            /* \"Transaction.sol\":1360:8575  contract RecurrentTransaction{... */\n          jump(tag_23)\n        tag_7:\n          dup3\n          dup1\n          sload\n          tag_24\n          swap1\n          tag_25\n          jump\t// in\n        tag_24:\n          swap1\n          0x00\n          mstore\n          keccak256(0x00, 0x20)\n          swap1\n          0x1f\n          add\n          0x20\n          swap1\n          div\n          dup2\n          add\n          swap3\n          dup3\n          tag_27\n          jumpi\n          0x00\n          dup6\n          sstore\n          jump(tag_26)\n        tag_27:\n          dup3\n          0x1f\n          lt\n          tag_28\n          jumpi\n          dup1\n          mload\n          not(0xff)\n          and\n          dup4\n          dup1\n          add\n          or\n          dup6\n          sstore\n          jump(tag_26)\n        tag_28:\n          dup3\n          dup1\n          add\n          0x01\n          add\n          dup6\n          sstore\n          dup3\n          iszero\n          tag_26\n          jumpi\n          swap2\n          dup3\n          add\n        tag_29:\n          dup3\n          dup2\n          gt\n          iszero\n          tag_30\n          jumpi\n          dup3\n          mload\n          dup3\n          sstore\n          swap2\n          0x20\n          add\n          swap2\n          swap1\n          0x01\n          add\n          swap1\n          jump(tag_29)\n        tag_30:\n        tag_26:\n          pop\n          swap1\n          pop\n          tag_31\n          swap2\n          swap1\n          tag_32\n          jump\t// in\n        tag_31:\n          pop\n          swap1\n          jump\t// out\n        tag_32:\n        tag_33:\n          dup1\n          dup3\n          gt\n          iszero\n          tag_34\n          jumpi\n          0x00\n          dup2\n          0x00\n          swap1\n          sstore\n          pop\n          0x01\n          add\n          jump(tag_33)\n        tag_34:\n          pop\n          swap1\n          jump\t// out\n            /* \"#utility.yul\":7:82   */\n        tag_35:\n            /* \"#utility.yul\":40:46   */\n          0x00\n            /* \"#utility.yul\":73:75   */\n          0x40\n            /* \"#utility.yul\":67:76   */\n          mload\n            /* \"#utility.yul\":57:76   */\n          swap1\n          pop\n            /* \"#utility.yul\":7:82   */\n          swap1\n          jump\t// out\n            /* \"#utility.yul\":88:205   */\n        tag_36:\n            /* \"#utility.yul\":197:198   */\n          0x00\n            /* \"#utility.yul\":194:195   */\n          dup1\n            /* \"#utility.yul\":187:199   */\n          revert\n            /* \"#utility.yul\":211:328   */\n        tag_37:\n            /* \"#utility.yul\":320:321   */\n          0x00\n            /* \"#utility.yul\":317:318   */\n          dup1\n            /* \"#utility.yul\":310:322   */\n          revert\n            /* \"#utility.yul\":334:451   */\n        tag_38:\n            /* \"#utility.yul\":443:444   */\n          0x00\n            /* \"#utility.yul\":440:441   */\n          dup1\n            /* \"#utility.yul\":433:445   */\n          revert\n            /* \"#utility.yul\":457:559   */\n        tag_39:\n            /* \"#utility.yul\":498:504   */\n          0x00\n            /* \"#utility.yul\":549:551   */\n          0x1f\n            /* \"#utility.yul\":545:552   */\n          not\n            /* \"#utility.yul\":540:542   */\n          0x1f\n            /* \"#utility.yul\":533:538   */\n          dup4\n            /* \"#utility.yul\":529:543   */\n          add\n            /* \"#utility.yul\":525:553   */\n          and\n            /* \"#utility.yul\":515:553   */\n          swap1\n          pop\n            /* \"#utility.yul\":457:559   */\n          swap2\n          swap1\n          pop\n          jump\t// out\n            /* \"#utility.yul\":565:745   */\n        tag_40:\n            /* \"#utility.yul\":613:690   */\n          0x4e487b7100000000000000000000000000000000000000000000000000000000\n            /* \"#utility.yul\":610:611   */\n          0x00\n            /* \"#utility.yul\":603:691   */\n          mstore\n            /* \"#utility.yul\":710:714   */\n          0x41\n            /* \"#utility.yul\":707:708   */\n          0x04\n            /* \"#utility.yul\":700:715   */\n          mstore\n            /* \"#utility.yul\":734:738   */\n          0x24\n            /* \"#utility.yul\":731:732   */\n          0x00\n            /* \"#utility.yul\":724:739   */\n          revert\n            /* \"#utility.yul\":751:1032   */\n        tag_41:\n            /* \"#utility.yul\":834:861   */\n          tag_72\n            /* \"#utility.yul\":856:860   */\n          dup3\n            /* \"#utility.yul\":834:861   */\n          tag_39\n          jump\t// in\n        tag_72:\n            /* \"#utility.yul\":826:832   */\n          dup2\n            /* \"#utility.yul\":822:862   */\n          add\n            /* \"#utility.yul\":964:970   */\n          dup2\n            /* \"#utility.yul\":952:962   */\n          dup2\n            /* \"#utility.yul\":949:971   */\n          lt\n            /* \"#utility.yul\":928:946   */\n          0xffffffffffffffff\n            /* \"#utility.yul\":916:926   */\n          dup3\n            /* \"#utility.yul\":913:947   */\n          gt\n            /* \"#utility.yul\":910:972   */\n          or\n            /* \"#utility.yul\":907:995   */\n          iszero\n          tag_73\n          jumpi\n            /* \"#utility.yul\":975:993   */\n          tag_74\n          tag_40\n          jump\t// in\n        tag_74:\n            /* \"#utility.yul\":907:995   */\n        tag_73:\n            /* \"#utility.yul\":1015:1025   */\n          dup1\n            /* \"#utility.yul\":1011:1013   */\n          0x40\n            /* \"#utility.yul\":1004:1026   */\n          mstore\n            /* \"#utility.yul\":794:1032   */\n          pop\n            /* \"#utility.yul\":751:1032   */\n          pop\n          pop\n          jump\t// out\n            /* \"#utility.yul\":1038:1167   */\n        tag_42:\n            /* \"#utility.yul\":1072:1078   */\n          0x00\n            /* \"#utility.yul\":1099:1119   */\n          tag_76\n          tag_35\n          jump\t// in\n        tag_76:\n            /* \"#utility.yul\":1089:1119   */\n          swap1\n          pop\n            /* \"#utility.yul\":1128:1161   */\n          tag_77\n            /* \"#utility.yul\":1156:1160   */\n          dup3\n            /* \"#utility.yul\":1148:1154   */\n          dup3\n            /* \"#utility.yul\":1128:1161   */\n          tag_41\n          jump\t// in\n        tag_77:\n            /* \"#utility.yul\":1038:1167   */\n          swap2\n          swap1\n          pop\n          jump\t// out\n            /* \"#utility.yul\":1173:1494   */\n        tag_43:\n            /* \"#utility.yul\":1260:1264   */\n          0x00\n            /* \"#utility.yul\":1350:1368   */\n          0xffffffffffffffff\n            /* \"#utility.yul\":1342:1348   */\n          dup3\n            /* \"#utility.yul\":1339:1369   */\n          gt\n            /* \"#utility.yul\":1336:1392   */\n          iszero\n          tag_79\n          jumpi\n            /* \"#utility.yul\":1372:1390   */\n          tag_80\n          tag_40\n          jump\t// in\n        tag_80:\n            /* \"#utility.yul\":1336:1392   */\n        tag_79:\n            /* \"#utility.yul\":1422:1426   */\n          0x20\n            /* \"#utility.yul\":1414:1420   */\n          dup3\n            /* \"#utility.yul\":1410:1427   */\n          mul\n            /* \"#utility.yul\":1402:1427   */\n          swap1\n          pop\n            /* \"#utility.yul\":1482:1486   */\n          0x20\n            /* \"#utility.yul\":1476:1480   */\n          dup2\n            /* \"#utility.yul\":1472:1487   */\n          add\n            /* \"#utility.yul\":1464:1487   */\n          swap1\n          pop\n            /* \"#utility.yul\":1173:1494   */\n          swap2\n          swap1\n          pop\n          jump\t// out\n            /* \"#utility.yul\":1500:1617   */\n        tag_44:\n            /* \"#utility.yul\":1609:1610   */\n          0x00\n            /* \"#utility.yul\":1606:1607   */\n          dup1\n            /* \"#utility.yul\":1599:1611   */\n          revert\n            /* \"#utility.yul\":1623:1740   */\n        tag_45:\n            /* \"#utility.yul\":1732:1733   */\n          0x00\n            /* \"#utility.yul\":1729:1730   */\n          dup1\n            /* \"#utility.yul\":1722:1734   */\n          revert\n            /* \"#utility.yul\":1746:2054   */\n        tag_46:\n            /* \"#utility.yul\":1808:1812   */\n          0x00\n            /* \"#utility.yul\":1898:1916   */\n          0xffffffffffffffff\n            /* \"#utility.yul\":1890:1896   */\n          dup3\n            /* \"#utility.yul\":1887:1917   */\n          gt\n            /* \"#utility.yul\":1884:1940   */\n          iszero\n          tag_84\n          jumpi\n            /* \"#utility.yul\":1920:1938   */\n          tag_85\n          tag_40\n          jump\t// in\n        tag_85:\n            /* \"#utility.yul\":1884:1940   */\n        tag_84:\n            /* \"#utility.yul\":1958:1987   */\n          tag_86\n            /* \"#utility.yul\":1980:1986   */\n          dup3\n            /* \"#utility.yul\":1958:1987   */\n          tag_39\n          jump\t// in\n        tag_86:\n            /* \"#utility.yul\":1950:1987   */\n          swap1\n          pop\n            /* \"#utility.yul\":2042:2046   */\n          0x20\n            /* \"#utility.yul\":2036:2040   */\n          dup2\n            /* \"#utility.yul\":2032:2047   */\n          add\n            /* \"#utility.yul\":2024:2047   */\n          swap1\n          pop\n            /* \"#utility.yul\":1746:2054   */\n          swap2\n          swap1\n          pop\n          jump\t// out\n            /* \"#utility.yul\":2060:2367   */\n        tag_47:\n            /* \"#utility.yul\":2128:2129   */\n          0x00\n            /* \"#utility.yul\":2138:2251   */\n        tag_88:\n            /* \"#utility.yul\":2152:2158   */\n          dup4\n            /* \"#utility.yul\":2149:2150   */\n          dup2\n            /* \"#utility.yul\":2146:2159   */\n          lt\n            /* \"#utility.yul\":2138:2251   */\n          iszero\n          tag_90\n          jumpi\n            /* \"#utility.yul\":2237:2238   */\n          dup1\n            /* \"#utility.yul\":2232:2235   */\n          dup3\n            /* \"#utility.yul\":2228:2239   */\n          add\n            /* \"#utility.yul\":2222:2240   */\n          mload\n            /* \"#utility.yul\":2218:2219   */\n          dup2\n            /* \"#utility.yul\":2213:2216   */\n          dup5\n            /* \"#utility.yul\":2209:2220   */\n          add\n            /* \"#utility.yul\":2202:2241   */\n          mstore\n            /* \"#utility.yul\":2174:2176   */\n          0x20\n            /* \"#utility.yul\":2171:2172   */\n          dup2\n            /* \"#utility.yul\":2167:2177   */\n          add\n            /* \"#utility.yul\":2162:2177   */\n          swap1\n          pop\n            /* \"#utility.yul\":2138:2251   */\n          jump(tag_88)\n        tag_90:\n            /* \"#utility.yul\":2269:2275   */\n          dup4\n            /* \"#utility.yul\":2266:2267   */\n          dup2\n            /* \"#utility.yul\":2263:2276   */\n          gt\n            /* \"#utility.yul\":2260:2361   */\n          iszero\n          tag_91\n          jumpi\n            /* \"#utility.yul\":2349:2350   */\n          0x00\n            /* \"#utility.yul\":2340:2346   */\n          dup5\n            /* \"#utility.yul\":2335:2338   */\n          dup5\n            /* \"#utility.yul\":2331:2347   */\n          add\n            /* \"#utility.yul\":2324:2351   */\n          mstore\n            /* \"#utility.yul\":2260:2361   */\n        tag_91:\n            /* \"#utility.yul\":2109:2367   */\n          pop\n            /* \"#utility.yul\":2060:2367   */\n          pop\n          pop\n          pop\n          jump\t// out\n            /* \"#utility.yul\":2373:2794   */\n        tag_48:\n            /* \"#utility.yul\":2462:2467   */\n          0x00\n            /* \"#utility.yul\":2487:2553   */\n          tag_93\n            /* \"#utility.yul\":2503:2552   */\n          tag_94\n            /* \"#utility.yul\":2545:2551   */\n          dup5\n            /* \"#utility.yul\":2503:2552   */\n          tag_46\n          jump\t// in\n        tag_94:\n            /* \"#utility.yul\":2487:2553   */\n          tag_42\n          jump\t// in\n        tag_93:\n            /* \"#utility.yul\":2478:2553   */\n          swap1\n          pop\n            /* \"#utility.yul\":2576:2582   */\n          dup3\n            /* \"#utility.yul\":2569:2574   */\n          dup2\n            /* \"#utility.yul\":2562:2583   */\n          mstore\n            /* \"#utility.yul\":2614:2618   */\n          0x20\n            /* \"#utility.yul\":2607:2612   */\n          dup2\n            /* \"#utility.yul\":2603:2619   */\n          add\n            /* \"#utility.yul\":2652:2655   */\n          dup5\n            /* \"#utility.yul\":2643:2649   */\n          dup5\n            /* \"#utility.yul\":2638:2641   */\n          dup5\n            /* \"#utility.yul\":2634:2650   */\n          add\n            /* \"#utility.yul\":2631:2656   */\n          gt\n            /* \"#utility.yul\":2628:2740   */\n          iszero\n          tag_95\n          jumpi\n            /* \"#utility.yul\":2659:2738   */\n          tag_96\n          tag_45\n          jump\t// in\n        tag_96:\n            /* \"#utility.yul\":2628:2740   */\n        tag_95:\n            /* \"#utility.yul\":2749:2788   */\n          tag_97\n            /* \"#utility.yul\":2781:2787   */\n          dup5\n            /* \"#utility.yul\":2776:2779   */\n          dup3\n            /* \"#utility.yul\":2771:2774   */\n          dup6\n            /* \"#utility.yul\":2749:2788   */\n          tag_47\n          jump\t// in\n        tag_97:\n            /* \"#utility.yul\":2468:2794   */\n          pop\n            /* \"#utility.yul\":2373:2794   */\n          swap4\n          swap3\n          pop\n          pop\n          pop\n          jump\t// out\n            /* \"#utility.yul\":2814:3169   */\n        tag_49:\n            /* \"#utility.yul\":2881:2886   */\n          0x00\n            /* \"#utility.yul\":2930:2933   */\n          dup3\n            /* \"#utility.yul\":2923:2927   */\n          0x1f\n            /* \"#utility.yul\":2915:2921   */\n          dup4\n            /* \"#utility.yul\":2911:2928   */\n          add\n            /* \"#utility.yul\":2907:2934   */\n          slt\n            /* \"#utility.yul\":2897:3019   */\n          tag_99\n          jumpi\n            /* \"#utility.yul\":2938:3017   */\n          tag_100\n          tag_38\n          jump\t// in\n        tag_100:\n            /* \"#utility.yul\":2897:3019   */\n        tag_99:\n            /* \"#utility.yul\":3048:3054   */\n          dup2\n            /* \"#utility.yul\":3042:3055   */\n          mload\n            /* \"#utility.yul\":3073:3163   */\n          tag_101\n            /* \"#utility.yul\":3159:3162   */\n          dup5\n            /* \"#utility.yul\":3151:3157   */\n          dup3\n            /* \"#utility.yul\":3144:3148   */\n          0x20\n            /* \"#utility.yul\":3136:3142   */\n          dup7\n            /* \"#utility.yul\":3132:3149   */\n          add\n            /* \"#utility.yul\":3073:3163   */\n          tag_48\n          jump\t// in\n        tag_101:\n            /* \"#utility.yul\":3064:3163   */\n          swap2\n          pop\n            /* \"#utility.yul\":2887:3169   */\n          pop\n            /* \"#utility.yul\":2814:3169   */\n          swap3\n          swap2\n          pop\n          pop\n          jump\t// out\n            /* \"#utility.yul\":3191:4151   */\n        tag_50:\n            /* \"#utility.yul\":3308:3313   */\n          0x00\n            /* \"#utility.yul\":3333:3424   */\n          tag_103\n            /* \"#utility.yul\":3349:3423   */\n          tag_104\n            /* \"#utility.yul\":3416:3422   */\n          dup5\n            /* \"#utility.yul\":3349:3423   */\n          tag_43\n          jump\t// in\n        tag_104:\n            /* \"#utility.yul\":3333:3424   */\n          tag_42\n          jump\t// in\n        tag_103:\n            /* \"#utility.yul\":3324:3424   */\n          swap1\n          pop\n            /* \"#utility.yul\":3444:3449   */\n          dup1\n            /* \"#utility.yul\":3473:3479   */\n          dup4\n            /* \"#utility.yul\":3466:3471   */\n          dup3\n            /* \"#utility.yul\":3459:3480   */\n          mstore\n            /* \"#utility.yul\":3507:3511   */\n          0x20\n            /* \"#utility.yul\":3500:3505   */\n          dup3\n            /* \"#utility.yul\":3496:3512   */\n          add\n            /* \"#utility.yul\":3489:3512   */\n          swap1\n          pop\n            /* \"#utility.yul\":3560:3564   */\n          0x20\n            /* \"#utility.yul\":3552:3558   */\n          dup5\n            /* \"#utility.yul\":3548:3565   */\n          mul\n            /* \"#utility.yul\":3540:3546   */\n          dup4\n            /* \"#utility.yul\":3536:3566   */\n          add\n            /* \"#utility.yul\":3589:3592   */\n          dup6\n            /* \"#utility.yul\":3581:3587   */\n          dup2\n            /* \"#utility.yul\":3578:3593   */\n          gt\n            /* \"#utility.yul\":3575:3697   */\n          iszero\n          tag_105\n          jumpi\n            /* \"#utility.yul\":3608:3687   */\n          tag_106\n          tag_44\n          jump\t// in\n        tag_106:\n            /* \"#utility.yul\":3575:3697   */\n        tag_105:\n            /* \"#utility.yul\":3723:3729   */\n          dup4\n            /* \"#utility.yul\":3706:4145   */\n        tag_107:\n            /* \"#utility.yul\":3740:3746   */\n          dup2\n            /* \"#utility.yul\":3735:3738   */\n          dup2\n            /* \"#utility.yul\":3732:3747   */\n          lt\n            /* \"#utility.yul\":3706:4145   */\n          iszero\n          tag_109\n          jumpi\n            /* \"#utility.yul\":3822:3825   */\n          dup1\n            /* \"#utility.yul\":3816:3826   */\n          mload\n            /* \"#utility.yul\":3858:3876   */\n          0xffffffffffffffff\n            /* \"#utility.yul\":3845:3856   */\n          dup2\n            /* \"#utility.yul\":3842:3877   */\n          gt\n            /* \"#utility.yul\":3839:3961   */\n          iszero\n          tag_110\n          jumpi\n            /* \"#utility.yul\":3880:3959   */\n          tag_111\n          tag_38\n          jump\t// in\n        tag_111:\n            /* \"#utility.yul\":3839:3961   */\n        tag_110:\n            /* \"#utility.yul\":4004:4015   */\n          dup1\n            /* \"#utility.yul\":3996:4002   */\n          dup7\n            /* \"#utility.yul\":3992:4016   */\n          add\n            /* \"#utility.yul\":4042:4100   */\n          tag_112\n            /* \"#utility.yul\":4096:4099   */\n          dup10\n            /* \"#utility.yul\":4084:4094   */\n          dup3\n            /* \"#utility.yul\":4042:4100   */\n          tag_49\n          jump\t// in\n        tag_112:\n            /* \"#utility.yul\":4037:4040   */\n          dup6\n            /* \"#utility.yul\":4030:4101   */\n          mstore\n            /* \"#utility.yul\":4130:4134   */\n          0x20\n            /* \"#utility.yul\":4125:4128   */\n          dup6\n            /* \"#utility.yul\":4121:4135   */\n          add\n            /* \"#utility.yul\":4114:4135   */\n          swap5\n          pop\n            /* \"#utility.yul\":3782:4145   */\n          pop\n          pop\n            /* \"#utility.yul\":3766:3770   */\n          0x20\n            /* \"#utility.yul\":3761:3764   */\n          dup2\n            /* \"#utility.yul\":3757:3771   */\n          add\n            /* \"#utility.yul\":3750:3771   */\n          swap1\n          pop\n            /* \"#utility.yul\":3706:4145   */\n          jump(tag_107)\n        tag_109:\n            /* \"#utility.yul\":3710:3731   */\n          pop\n            /* \"#utility.yul\":3314:4151   */\n          pop\n          pop\n            /* \"#utility.yul\":3191:4151   */\n          swap4\n          swap3\n          pop\n          pop\n          pop\n          jump\t// out\n            /* \"#utility.yul\":4173:4578   */\n        tag_51:\n            /* \"#utility.yul\":4265:4270   */\n          0x00\n            /* \"#utility.yul\":4314:4317   */\n          dup3\n            /* \"#utility.yul\":4307:4311   */\n          0x1f\n            /* \"#utility.yul\":4299:4305   */\n          dup4\n            /* \"#utility.yul\":4295:4312   */\n          add\n            /* \"#utility.yul\":4291:4318   */\n          slt\n            /* \"#utility.yul\":4281:4403   */\n          tag_114\n          jumpi\n            /* \"#utility.yul\":4322:4401   */\n          tag_115\n          tag_38\n          jump\t// in\n        tag_115:\n            /* \"#utility.yul\":4281:4403   */\n        tag_114:\n            /* \"#utility.yul\":4432:4438   */\n          dup2\n            /* \"#utility.yul\":4426:4439   */\n          mload\n            /* \"#utility.yul\":4457:4572   */\n          tag_116\n            /* \"#utility.yul\":4568:4571   */\n          dup5\n            /* \"#utility.yul\":4560:4566   */\n          dup3\n            /* \"#utility.yul\":4553:4557   */\n          0x20\n            /* \"#utility.yul\":4545:4551   */\n          dup7\n            /* \"#utility.yul\":4541:4558   */\n          add\n            /* \"#utility.yul\":4457:4572   */\n          tag_50\n          jump\t// in\n        tag_116:\n            /* \"#utility.yul\":4448:4572   */\n          swap2\n          pop\n            /* \"#utility.yul\":4271:4578   */\n          pop\n            /* \"#utility.yul\":4173:4578   */\n          swap3\n          swap2\n          pop\n          pop\n          jump\t// out\n            /* \"#utility.yul\":4584:4661   */\n        tag_52:\n            /* \"#utility.yul\":4621:4628   */\n          0x00\n            /* \"#utility.yul\":4650:4655   */\n          dup2\n            /* \"#utility.yul\":4639:4655   */\n          swap1\n          pop\n            /* \"#utility.yul\":4584:4661   */\n          swap2\n          swap1\n          pop\n          jump\t// out\n            /* \"#utility.yul\":4667:4789   */\n        tag_53:\n            /* \"#utility.yul\":4740:4764   */\n          tag_119\n            /* \"#utility.yul\":4758:4763   */\n          dup2\n            /* \"#utility.yul\":4740:4764   */\n          tag_52\n          jump\t// in\n        tag_119:\n            /* \"#utility.yul\":4733:4738   */\n          dup2\n            /* \"#utility.yul\":4730:4765   */\n          eq\n            /* \"#utility.yul\":4720:4783   */\n          tag_120\n          jumpi\n            /* \"#utility.yul\":4779:4780   */\n          0x00\n            /* \"#utility.yul\":4776:4777   */\n          dup1\n            /* \"#utility.yul\":4769:4781   */\n          revert\n            /* \"#utility.yul\":4720:4783   */\n        tag_120:\n            /* \"#utility.yul\":4667:4789   */\n          pop\n          jump\t// out\n            /* \"#utility.yul\":4795:4938   */\n        tag_54:\n            /* \"#utility.yul\":4852:4857   */\n          0x00\n            /* \"#utility.yul\":4883:4889   */\n          dup2\n            /* \"#utility.yul\":4877:4890   */\n          mload\n            /* \"#utility.yul\":4868:4890   */\n          swap1\n          pop\n            /* \"#utility.yul\":4899:4932   */\n          tag_122\n            /* \"#utility.yul\":4926:4931   */\n          dup2\n            /* \"#utility.yul\":4899:4932   */\n          tag_53\n          jump\t// in\n        tag_122:\n            /* \"#utility.yul\":4795:4938   */\n          swap3\n          swap2\n          pop\n          pop\n          jump\t// out\n            /* \"#utility.yul\":4944:5070   */\n        tag_55:\n            /* \"#utility.yul\":4981:4988   */\n          0x00\n            /* \"#utility.yul\":5021:5063   */\n          0xffffffffffffffffffffffffffffffffffffffff\n            /* \"#utility.yul\":5014:5019   */\n          dup3\n            /* \"#utility.yul\":5010:5064   */\n          and\n            /* \"#utility.yul\":4999:5064   */\n          swap1\n          pop\n            /* \"#utility.yul\":4944:5070   */\n          swap2\n          swap1\n          pop\n          jump\t// out\n            /* \"#utility.yul\":5076:5172   */\n        tag_56:\n            /* \"#utility.yul\":5113:5120   */\n          0x00\n            /* \"#utility.yul\":5142:5166   */\n          tag_125\n            /* \"#utility.yul\":5160:5165   */\n          dup3\n            /* \"#utility.yul\":5142:5166   */\n          tag_55\n          jump\t// in\n        tag_125:\n            /* \"#utility.yul\":5131:5166   */\n          swap1\n          pop\n            /* \"#utility.yul\":5076:5172   */\n          swap2\n          swap1\n          pop\n          jump\t// out\n            /* \"#utility.yul\":5178:5300   */\n        tag_57:\n            /* \"#utility.yul\":5251:5275   */\n          tag_127\n            /* \"#utility.yul\":5269:5274   */\n          dup2\n            /* \"#utility.yul\":5251:5275   */\n          tag_56\n          jump\t// in\n        tag_127:\n            /* \"#utility.yul\":5244:5249   */\n          dup2\n            /* \"#utility.yul\":5241:5276   */\n          eq\n            /* \"#utility.yul\":5231:5294   */\n          tag_128\n          jumpi\n            /* \"#utility.yul\":5290:5291   */\n          0x00\n            /* \"#utility.yul\":5287:5288   */\n          dup1\n            /* \"#utility.yul\":5280:5292   */\n          revert\n            /* \"#utility.yul\":5231:5294   */\n        tag_128:\n            /* \"#utility.yul\":5178:5300   */\n          pop\n          jump\t// out\n            /* \"#utility.yul\":5306:5449   */\n        tag_58:\n            /* \"#utility.yul\":5363:5368   */\n          0x00\n            /* \"#utility.yul\":5394:5400   */\n          dup2\n            /* \"#utility.yul\":5388:5401   */\n          mload\n            /* \"#utility.yul\":5379:5401   */\n          swap1\n          pop\n            /* \"#utility.yul\":5410:5443   */\n          tag_130\n            /* \"#utility.yul\":5437:5442   */\n          dup2\n            /* \"#utility.yul\":5410:5443   */\n          tag_57\n          jump\t// in\n        tag_130:\n            /* \"#utility.yul\":5306:5449   */\n          swap3\n          swap2\n          pop\n          pop\n          jump\t// out\n            /* \"#utility.yul\":5455:5572   */\n        tag_59:\n            /* \"#utility.yul\":5564:5565   */\n          0x00\n            /* \"#utility.yul\":5561:5562   */\n          dup1\n            /* \"#utility.yul\":5554:5566   */\n          revert\n            /* \"#utility.yul\":5737:6514   */\n        tag_61:\n            /* \"#utility.yul\":5820:5825   */\n          0x00\n            /* \"#utility.yul\":5864:5868   */\n          0x60\n            /* \"#utility.yul\":5852:5861   */\n          dup3\n            /* \"#utility.yul\":5847:5850   */\n          dup5\n            /* \"#utility.yul\":5843:5862   */\n          sub\n            /* \"#utility.yul\":5839:5869   */\n          slt\n            /* \"#utility.yul\":5836:5953   */\n          iszero\n          tag_134\n          jumpi\n            /* \"#utility.yul\":5872:5951   */\n          tag_135\n          tag_59\n          jump\t// in\n        tag_135:\n            /* \"#utility.yul\":5836:5953   */\n        tag_134:\n            /* \"#utility.yul\":5971:5992   */\n          tag_136\n            /* \"#utility.yul\":5987:5991   */\n          0x60\n            /* \"#utility.yul\":5971:5992   */\n          tag_42\n          jump\t// in\n        tag_136:\n            /* \"#utility.yul\":5962:5992   */\n          swap1\n          pop\n            /* \"#utility.yul\":6051:6052   */\n          0x00\n            /* \"#utility.yul\":6091:6151   */\n          tag_137\n            /* \"#utility.yul\":6147:6150   */\n          dup5\n            /* \"#utility.yul\":6138:6144   */\n          dup3\n            /* \"#utility.yul\":6127:6136   */\n          dup6\n            /* \"#utility.yul\":6123:6145   */\n          add\n            /* \"#utility.yul\":6091:6151   */\n          tag_54\n          jump\t// in\n        tag_137:\n            /* \"#utility.yul\":6084:6088   */\n          0x00\n            /* \"#utility.yul\":6077:6082   */\n          dup4\n            /* \"#utility.yul\":6073:6089   */\n          add\n            /* \"#utility.yul\":6066:6152   */\n          mstore\n            /* \"#utility.yul\":6002:6163   */\n          pop\n            /* \"#utility.yul\":6223:6225   */\n          0x20\n            /* \"#utility.yul\":6264:6324   */\n          tag_138\n            /* \"#utility.yul\":6320:6323   */\n          dup5\n            /* \"#utility.yul\":6311:6317   */\n          dup3\n            /* \"#utility.yul\":6300:6309   */\n          dup6\n            /* \"#utility.yul\":6296:6318   */\n          add\n            /* \"#utility.yul\":6264:6324   */\n          tag_54\n          jump\t// in\n        tag_138:\n            /* \"#utility.yul\":6257:6261   */\n          0x20\n            /* \"#utility.yul\":6250:6255   */\n          dup4\n            /* \"#utility.yul\":6246:6262   */\n          add\n            /* \"#utility.yul\":6239:6325   */\n          mstore\n            /* \"#utility.yul\":6173:6336   */\n          pop\n            /* \"#utility.yul\":6394:6396   */\n          0x40\n            /* \"#utility.yul\":6435:6495   */\n          tag_139\n            /* \"#utility.yul\":6491:6494   */\n          dup5\n            /* \"#utility.yul\":6482:6488   */\n          dup3\n            /* \"#utility.yul\":6471:6480   */\n          dup6\n            /* \"#utility.yul\":6467:6489   */\n          add\n            /* \"#utility.yul\":6435:6495   */\n          tag_54\n          jump\t// in\n        tag_139:\n            /* \"#utility.yul\":6428:6432   */\n          0x40\n            /* \"#utility.yul\":6421:6426   */\n          dup4\n            /* \"#utility.yul\":6417:6433   */\n          add\n            /* \"#utility.yul\":6410:6496   */\n          mstore\n            /* \"#utility.yul\":6346:6507   */\n          pop\n            /* \"#utility.yul\":5737:6514   */\n          swap3\n          swap2\n          pop\n          pop\n          jump\t// out\n            /* \"#utility.yul\":6520:9621   */\n        tag_3:\n            /* \"#utility.yul\":6811:6817   */\n          0x00\n            /* \"#utility.yul\":6819:6825   */\n          dup1\n            /* \"#utility.yul\":6827:6833   */\n          0x00\n            /* \"#utility.yul\":6835:6841   */\n          dup1\n            /* \"#utility.yul\":6843:6849   */\n          0x00\n            /* \"#utility.yul\":6851:6857   */\n          dup1\n            /* \"#utility.yul\":6859:6865   */\n          0x00\n            /* \"#utility.yul\":6867:6873   */\n          dup1\n            /* \"#utility.yul\":6875:6881   */\n          0x00\n            /* \"#utility.yul\":6883:6889   */\n          dup1\n            /* \"#utility.yul\":6891:6898   */\n          0x00\n            /* \"#utility.yul\":6941:6944   */\n          0x01e0\n            /* \"#utility.yul\":6929:6938   */\n          dup13\n            /* \"#utility.yul\":6920:6927   */\n          dup15\n            /* \"#utility.yul\":6916:6939   */\n          sub\n            /* \"#utility.yul\":6912:6945   */\n          slt\n            /* \"#utility.yul\":6909:7029   */\n          iszero\n          tag_141\n          jumpi\n            /* \"#utility.yul\":6948:7027   */\n          tag_142\n          tag_36\n          jump\t// in\n        tag_142:\n            /* \"#utility.yul\":6909:7029   */\n        tag_141:\n            /* \"#utility.yul\":7089:7090   */\n          0x00\n            /* \"#utility.yul\":7078:7087   */\n          dup13\n            /* \"#utility.yul\":7074:7091   */\n          add\n            /* \"#utility.yul\":7068:7092   */\n          mload\n            /* \"#utility.yul\":7119:7137   */\n          0xffffffffffffffff\n            /* \"#utility.yul\":7111:7117   */\n          dup2\n            /* \"#utility.yul\":7108:7138   */\n          gt\n            /* \"#utility.yul\":7105:7222   */\n          iszero\n          tag_143\n          jumpi\n            /* \"#utility.yul\":7141:7220   */\n          tag_144\n          tag_37\n          jump\t// in\n        tag_144:\n            /* \"#utility.yul\":7105:7222   */\n        tag_143:\n            /* \"#utility.yul\":7246:7345   */\n          tag_145\n            /* \"#utility.yul\":7337:7344   */\n          dup15\n            /* \"#utility.yul\":7328:7334   */\n          dup3\n            /* \"#utility.yul\":7317:7326   */\n          dup16\n            /* \"#utility.yul\":7313:7335   */\n          add\n            /* \"#utility.yul\":7246:7345   */\n          tag_51\n          jump\t// in\n        tag_145:\n            /* \"#utility.yul\":7236:7345   */\n          swap12\n          pop\n            /* \"#utility.yul\":7039:7355   */\n          pop\n            /* \"#utility.yul\":7394:7396   */\n          0x20\n            /* \"#utility.yul\":7420:7484   */\n          tag_146\n            /* \"#utility.yul\":7476:7483   */\n          dup15\n            /* \"#utility.yul\":7467:7473   */\n          dup3\n            /* \"#utility.yul\":7456:7465   */\n          dup16\n            /* \"#utility.yul\":7452:7474   */\n          add\n            /* \"#utility.yul\":7420:7484   */\n          tag_54\n          jump\t// in\n        tag_146:\n            /* \"#utility.yul\":7410:7484   */\n          swap11\n          pop\n            /* \"#utility.yul\":7365:7494   */\n          pop\n            /* \"#utility.yul\":7533:7535   */\n          0x40\n            /* \"#utility.yul\":7559:7623   */\n          tag_147\n            /* \"#utility.yul\":7615:7622   */\n          dup15\n            /* \"#utility.yul\":7606:7612   */\n          dup3\n            /* \"#utility.yul\":7595:7604   */\n          dup16\n            /* \"#utility.yul\":7591:7613   */\n          add\n            /* \"#utility.yul\":7559:7623   */\n          tag_58\n          jump\t// in\n        tag_147:\n            /* \"#utility.yul\":7549:7623   */\n          swap10\n          pop\n            /* \"#utility.yul\":7504:7633   */\n          pop\n            /* \"#utility.yul\":7693:7695   */\n          0x60\n            /* \"#utility.yul\":7682:7691   */\n          dup13\n            /* \"#utility.yul\":7678:7696   */\n          add\n            /* \"#utility.yul\":7672:7697   */\n          mload\n            /* \"#utility.yul\":7724:7742   */\n          0xffffffffffffffff\n            /* \"#utility.yul\":7716:7722   */\n          dup2\n            /* \"#utility.yul\":7713:7743   */\n          gt\n            /* \"#utility.yul\":7710:7827   */\n          iszero\n          tag_148\n          jumpi\n            /* \"#utility.yul\":7746:7825   */\n          tag_149\n          tag_37\n          jump\t// in\n        tag_149:\n            /* \"#utility.yul\":7710:7827   */\n        tag_148:\n            /* \"#utility.yul\":7851:7925   */\n          tag_150\n            /* \"#utility.yul\":7917:7924   */\n          dup15\n            /* \"#utility.yul\":7908:7914   */\n          dup3\n            /* \"#utility.yul\":7897:7906   */\n          dup16\n            /* \"#utility.yul\":7893:7915   */\n          add\n            /* \"#utility.yul\":7851:7925   */\n          tag_49\n          jump\t// in\n        tag_150:\n            /* \"#utility.yul\":7841:7925   */\n          swap9\n          pop\n            /* \"#utility.yul\":7643:7935   */\n          pop\n            /* \"#utility.yul\":7974:7977   */\n          0x80\n            /* \"#utility.yul\":8001:8065   */\n          tag_151\n            /* \"#utility.yul\":8057:8064   */\n          dup15\n            /* \"#utility.yul\":8048:8054   */\n          dup3\n            /* \"#utility.yul\":8037:8046   */\n          dup16\n            /* \"#utility.yul\":8033:8055   */\n          add\n            /* \"#utility.yul\":8001:8065   */\n          tag_58\n          jump\t// in\n        tag_151:\n            /* \"#utility.yul\":7991:8065   */\n          swap8\n          pop\n            /* \"#utility.yul\":7945:8075   */\n          pop\n            /* \"#utility.yul\":8114:8117   */\n          0xa0\n            /* \"#utility.yul\":8141:8228   */\n          tag_152\n            /* \"#utility.yul\":8220:8227   */\n          dup15\n            /* \"#utility.yul\":8211:8217   */\n          dup3\n            /* \"#utility.yul\":8200:8209   */\n          dup16\n            /* \"#utility.yul\":8196:8218   */\n          add\n            /* \"#utility.yul\":8141:8228   */\n          tag_61\n          jump\t// in\n        tag_152:\n            /* \"#utility.yul\":8131:8228   */\n          swap7\n          pop\n            /* \"#utility.yul\":8085:8238   */\n          pop\n            /* \"#utility.yul\":8277:8280   */\n          0x0100\n            /* \"#utility.yul\":8304:8391   */\n          tag_153\n            /* \"#utility.yul\":8383:8390   */\n          dup15\n            /* \"#utility.yul\":8374:8380   */\n          dup3\n            /* \"#utility.yul\":8363:8372   */\n          dup16\n            /* \"#utility.yul\":8359:8381   */\n          add\n            /* \"#utility.yul\":8304:8391   */\n          tag_61\n          jump\t// in\n        tag_153:\n            /* \"#utility.yul\":8294:8391   */\n          swap6\n          pop\n            /* \"#utility.yul\":8248:8401   */\n          pop\n            /* \"#utility.yul\":8461:8464   */\n          0x0160\n            /* \"#utility.yul\":8450:8459   */\n          dup13\n            /* \"#utility.yul\":8446:8465   */\n          add\n            /* \"#utility.yul\":8440:8466   */\n          mload\n            /* \"#utility.yul\":8493:8511   */\n          0xffffffffffffffff\n            /* \"#utility.yul\":8485:8491   */\n          dup2\n            /* \"#utility.yul\":8482:8512   */\n          gt\n            /* \"#utility.yul\":8479:8596   */\n          iszero\n          tag_154\n          jumpi\n            /* \"#utility.yul\":8515:8594   */\n          tag_155\n          tag_37\n          jump\t// in\n        tag_155:\n            /* \"#utility.yul\":8479:8596   */\n        tag_154:\n            /* \"#utility.yul\":8620:8694   */\n          tag_156\n            /* \"#utility.yul\":8686:8693   */\n          dup15\n            /* \"#utility.yul\":8677:8683   */\n          dup3\n            /* \"#utility.yul\":8666:8675   */\n          dup16\n            /* \"#utility.yul\":8662:8684   */\n          add\n            /* \"#utility.yul\":8620:8694   */\n          tag_49\n          jump\t// in\n        tag_156:\n            /* \"#utility.yul\":8610:8694   */\n          swap5\n          pop\n            /* \"#utility.yul\":8411:8704   */\n          pop\n            /* \"#utility.yul\":8764:8767   */\n          0x0180\n            /* \"#utility.yul\":8753:8762   */\n          dup13\n            /* \"#utility.yul\":8749:8768   */\n          add\n            /* \"#utility.yul\":8743:8769   */\n          mload\n            /* \"#utility.yul\":8796:8814   */\n          0xffffffffffffffff\n            /* \"#utility.yul\":8788:8794   */\n          dup2\n            /* \"#utility.yul\":8785:8815   */\n          gt\n            /* \"#utility.yul\":8782:8899   */\n          iszero\n          tag_157\n          jumpi\n            /* \"#utility.yul\":8818:8897   */\n          tag_158\n          tag_37\n          jump\t// in\n        tag_158:\n            /* \"#utility.yul\":8782:8899   */\n        tag_157:\n            /* \"#utility.yul\":8923:8997   */\n          tag_159\n            /* \"#utility.yul\":8989:8996   */\n          dup15\n            /* \"#utility.yul\":8980:8986   */\n          dup3\n            /* \"#utility.yul\":8969:8978   */\n          dup16\n            /* \"#utility.yul\":8965:8987   */\n          add\n            /* \"#utility.yul\":8923:8997   */\n          tag_49\n          jump\t// in\n        tag_159:\n            /* \"#utility.yul\":8913:8997   */\n          swap4\n          pop\n            /* \"#utility.yul\":8714:9007   */\n          pop\n            /* \"#utility.yul\":9067:9070   */\n          0x01a0\n            /* \"#utility.yul\":9056:9065   */\n          dup13\n            /* \"#utility.yul\":9052:9071   */\n          add\n            /* \"#utility.yul\":9046:9072   */\n          mload\n            /* \"#utility.yul\":9099:9117   */\n          0xffffffffffffffff\n            /* \"#utility.yul\":9091:9097   */\n          dup2\n            /* \"#utility.yul\":9088:9118   */\n          gt\n            /* \"#utility.yul\":9085:9202   */\n          iszero\n          tag_160\n          jumpi\n            /* \"#utility.yul\":9121:9200   */\n          tag_161\n          tag_37\n          jump\t// in\n        tag_161:\n            /* \"#utility.yul\":9085:9202   */\n        tag_160:\n            /* \"#utility.yul\":9226:9300   */\n          tag_162\n            /* \"#utility.yul\":9292:9299   */\n          dup15\n            /* \"#utility.yul\":9283:9289   */\n          dup3\n            /* \"#utility.yul\":9272:9281   */\n          dup16\n            /* \"#utility.yul\":9268:9290   */\n          add\n            /* \"#utility.yul\":9226:9300   */\n          tag_49\n          jump\t// in\n        tag_162:\n            /* \"#utility.yul\":9216:9300   */\n          swap3\n          pop\n            /* \"#utility.yul\":9017:9310   */\n          pop\n            /* \"#utility.yul\":9370:9373   */\n          0x01c0\n            /* \"#utility.yul\":9359:9368   */\n          dup13\n            /* \"#utility.yul\":9355:9374   */\n          add\n            /* \"#utility.yul\":9349:9375   */\n          mload\n            /* \"#utility.yul\":9402:9420   */\n          0xffffffffffffffff\n            /* \"#utility.yul\":9394:9400   */\n          dup2\n            /* \"#utility.yul\":9391:9421   */\n          gt\n            /* \"#utility.yul\":9388:9505   */\n          iszero\n          tag_163\n          jumpi\n            /* \"#utility.yul\":9424:9503   */\n          tag_164\n          tag_37\n          jump\t// in\n        tag_164:\n            /* \"#utility.yul\":9388:9505   */\n        tag_163:\n            /* \"#utility.yul\":9530:9604   */\n          tag_165\n            /* \"#utility.yul\":9596:9603   */\n          dup15\n            /* \"#utility.yul\":9587:9593   */\n          dup3\n            /* \"#utility.yul\":9576:9585   */\n          dup16\n            /* \"#utility.yul\":9572:9594   */\n          add\n            /* \"#utility.yul\":9530:9604   */\n          tag_49\n          jump\t// in\n        tag_165:\n            /* \"#utility.yul\":9519:9604   */\n          swap2\n          pop\n            /* \"#utility.yul\":9320:9614   */\n          pop\n            /* \"#utility.yul\":6520:9621   */\n          swap3\n          swap6\n          swap9\n          swap12\n          pop\n          swap3\n          swap6\n          swap9\n          swap12\n          swap1\n          swap4\n          swap7\n          swap10\n          pop\n          jump\t// out\n            /* \"#utility.yul\":9627:9807   */\n        tag_15:\n            /* \"#utility.yul\":9675:9752   */\n          0x4e487b7100000000000000000000000000000000000000000000000000000000\n            /* \"#utility.yul\":9672:9673   */\n          0x00\n            /* \"#utility.yul\":9665:9753   */\n          mstore\n            /* \"#utility.yul\":9772:9776   */\n          0x32\n            /* \"#utility.yul\":9769:9770   */\n          0x04\n            /* \"#utility.yul\":9762:9777   */\n          mstore\n            /* \"#utility.yul\":9796:9800   */\n          0x24\n            /* \"#utility.yul\":9793:9794   */\n          0x00\n            /* \"#utility.yul\":9786:9801   */\n          revert\n            /* \"#utility.yul\":9813:9993   */\n        tag_62:\n            /* \"#utility.yul\":9861:9938   */\n          0x4e487b7100000000000000000000000000000000000000000000000000000000\n            /* \"#utility.yul\":9858:9859   */\n          0x00\n            /* \"#utility.yul\":9851:9939   */\n          mstore\n            /* \"#utility.yul\":9958:9962   */\n          0x11\n            /* \"#utility.yul\":9955:9956   */\n          0x04\n            /* \"#utility.yul\":9948:9963   */\n          mstore\n            /* \"#utility.yul\":9982:9986   */\n          0x24\n            /* \"#utility.yul\":9979:9980   */\n          0x00\n            /* \"#utility.yul\":9972:9987   */\n          revert\n            /* \"#utility.yul\":9999:10232   */\n        tag_19:\n            /* \"#utility.yul\":10038:10041   */\n          0x00\n            /* \"#utility.yul\":10061:10085   */\n          tag_169\n            /* \"#utility.yul\":10079:10084   */\n          dup3\n            /* \"#utility.yul\":10061:10085   */\n          tag_52\n          jump\t// in\n        tag_169:\n            /* \"#utility.yul\":10052:10085   */\n          swap2\n          pop\n            /* \"#utility.yul\":10107:10173   */\n          0xffffffffffffffffffffffffffffffffffffffffffffffffffffffffffffffff\n            /* \"#utility.yul\":10100:10105   */\n          dup3\n            /* \"#utility.yul\":10097:10174   */\n          eq\n            /* \"#utility.yul\":10094:10197   */\n          iszero\n          tag_170\n          jumpi\n            /* \"#utility.yul\":10177:10195   */\n          tag_171\n          tag_62\n          jump\t// in\n        tag_171:\n            /* \"#utility.yul\":10094:10197   */\n        tag_170:\n            /* \"#utility.yul\":10224:10225   */\n          0x01\n            /* \"#utility.yul\":10217:10222   */\n          dup3\n            /* \"#utility.yul\":10213:10226   */\n          add\n            /* \"#utility.yul\":10206:10226   */\n          swap1\n          pop\n            /* \"#utility.yul\":9999:10232   */\n          swap2\n          swap1\n          pop\n          jump\t// out\n            /* \"#utility.yul\":10238:10418   */\n        tag_63:\n            /* \"#utility.yul\":10286:10363   */\n          0x4e487b7100000000000000000000000000000000000000000000000000000000\n            /* \"#utility.yul\":10283:10284   */\n          0x00\n            /* \"#utility.yul\":10276:10364   */\n          mstore\n            /* \"#utility.yul\":10383:10387   */\n          0x22\n            /* \"#utility.yul\":10380:10381   */\n          0x04\n            /* \"#utility.yul\":10373:10388   */\n          mstore\n            /* \"#utility.yul\":10407:10411   */\n          0x24\n            /* \"#utility.yul\":10404:10405   */\n          0x00\n            /* \"#utility.yul\":10397:10412   */\n          revert\n            /* \"#utility.yul\":10424:10744   */\n        tag_25:\n            /* \"#utility.yul\":10468:10474   */\n          0x00\n            /* \"#utility.yul\":10505:10506   */\n          0x02\n            /* \"#utility.yul\":10499:10503   */\n          dup3\n            /* \"#utility.yul\":10495:10507   */\n          div\n            /* \"#utility.yul\":10485:10507   */\n          swap1\n          pop\n            /* \"#utility.yul\":10552:10553   */\n          0x01\n            /* \"#utility.yul\":10546:10550   */\n          dup3\n            /* \"#utility.yul\":10542:10554   */\n          and\n            /* \"#utility.yul\":10573:10591   */\n          dup1\n            /* \"#utility.yul\":10563:10644   */\n          tag_174\n          jumpi\n            /* \"#utility.yul\":10629:10633   */\n          0x7f\n            /* \"#utility.yul\":10621:10627   */\n          dup3\n            /* \"#utility.yul\":10617:10634   */\n          and\n            /* \"#utility.yul\":10607:10634   */\n          swap2\n          pop\n            /* \"#utility.yul\":10563:10644   */\n        tag_174:\n            /* \"#utility.yul\":10691:10693   */\n          0x20\n            /* \"#utility.yul\":10683:10689   */\n          dup3\n            /* \"#utility.yul\":10680:10694   */\n          lt\n            /* \"#utility.yul\":10660:10678   */\n          dup2\n            /* \"#utility.yul\":10657:10695   */\n          eq\n            /* \"#utility.yul\":10654:10738   */\n          iszero\n          tag_175\n          jumpi\n            /* \"#utility.yul\":10710:10728   */\n          tag_176\n          tag_63\n          jump\t// in\n        tag_176:\n            /* \"#utility.yul\":10654:10738   */\n        tag_175:\n            /* \"#utility.yul\":10475:10744   */\n          pop\n            /* \"#utility.yul\":10424:10744   */\n          swap2\n          swap1\n          pop\n          jump\t// out\n            /* \"Transaction.sol\":1360:8575  contract RecurrentTransaction{... */\n        tag_23:\n          dataSize(sub_0)\n          dup1\n          dataOffset(sub_0)\n          0x00\n          codecopy\n          0x00\n          return\n        stop\n\n        sub_0: assembly {\n                /* \"Transaction.sol\":1360:8575  contract RecurrentTransaction{... */\n              mstore(0x40, 0x80)\n              jumpi(tag_1, lt(calldatasize, 0x04))\n              shr(0xe0, calldataload(0x00))\n              dup1\n              0x60a7f29f\n              gt\n              tag_25\n              jumpi\n              dup1\n              0xa5ce3eb0\n              gt\n              tag_26\n              jumpi\n              dup1\n              0xa5ce3eb0\n              eq\n              tag_19\n              jumpi\n              dup1\n              0xc35905c6\n              eq\n              tag_20\n              jumpi\n              dup1\n              0xcefceaf9\n              eq\n              tag_21\n              jumpi\n              dup1\n              0xe8919b1a\n              eq\n              tag_22\n              jumpi\n              dup1\n              0xef197de9\n              eq\n              tag_23\n              jumpi\n              dup1\n              0xfad03404\n              eq\n              tag_24\n              jumpi\n              jump(tag_1)\n            tag_26:\n              dup1\n              0x60a7f29f\n              eq\n              tag_13\n              jumpi\n              dup1\n              0x7284e416\n              eq\n              tag_14\n              jumpi\n              dup1\n              0x815af908\n              eq\n              tag_15\n              jumpi\n              dup1\n              0x82b9f262\n              eq\n              tag_16\n              jumpi\n              dup1\n              0x901c5953\n              eq\n              tag_17\n              jumpi\n              dup1\n              0xa18861a3\n              eq\n              tag_18\n              jumpi\n              jump(tag_1)\n            tag_25:\n              dup1\n              0x185750b0\n              gt\n              tag_27\n              jumpi\n              dup1\n              0x185750b0\n              eq\n              tag_7\n              jumpi\n              dup1\n              0x2804b2c0\n              eq\n              tag_8\n              jumpi\n              dup1\n              0x295b4e17\n              eq\n              tag_9\n              jumpi\n              dup1\n              0x308f5566\n              eq\n              tag_10\n              jumpi\n              dup1\n              0x36da4468\n              eq\n              tag_11\n              jumpi\n              dup1\n              0x4051ddac\n              eq\n              tag_12\n              jumpi\n              jump(tag_1)\n            tag_27:\n              dup1\n              0x05116bb0\n              eq\n              tag_2\n              jumpi\n              dup1\n              0x08135879\n              eq\n              tag_3\n              jumpi\n              dup1\n              0x0ad2a074\n              eq\n              tag_4\n              jumpi\n              dup1\n              0x0baff053\n              eq\n              tag_5\n              jumpi\n              dup1\n              0x12fa769f\n              eq\n              tag_6\n              jumpi\n            tag_1:\n              0x00\n              dup1\n              revert\n                /* \"Transaction.sol\":2383:2409  string public supplierName */\n            tag_2:\n              callvalue\n              dup1\n              iszero\n              tag_28\n              jumpi\n              0x00\n              dup1\n              revert\n            tag_28:\n              pop\n              tag_29\n              tag_30\n              jump\t// in\n            tag_29:\n              mload(0x40)\n              tag_31\n              swap2\n              swap1\n              tag_32\n              jump\t// in\n            tag_31:\n              mload(0x40)\n              dup1\n              swap2\n              sub\n              swap1\n              return\n                /* \"Transaction.sol\":2659:2690  TermsAndConditions public tandc */\n            tag_3:\n              callvalue\n              dup1\n              iszero\n              tag_33\n              jumpi\n              0x00\n              dup1\n              revert\n            tag_33:\n              pop\n              tag_34\n              tag_35\n              jump\t// in\n            tag_34:\n              mload(0x40)\n              tag_36\n              swap5\n              swap4\n              swap3\n              swap2\n              swap1\n              tag_37\n              jump\t// in\n            tag_36:\n              mload(0x40)\n              dup1\n              swap2\n              sub\n              swap1\n              return\n                /* \"Transaction.sol\":2247:2272  uint public backUpPayment */\n            tag_4:\n              callvalue\n              dup1\n              iszero\n              tag_38\n              jumpi\n              0x00\n              dup1\n              revert\n            tag_38:\n              pop\n              tag_39\n              tag_40\n              jump\t// in\n            tag_39:\n              mload(0x40)\n              tag_41\n              swap2\n              swap1\n              tag_42\n              jump\t// in\n            tag_41:\n              mload(0x40)\n              dup1\n              swap2\n              sub\n              swap1\n              return\n                /* \"Transaction.sol\":2589:2616  bool public audited = false */\n            tag_5:\n              callvalue\n              dup1\n              iszero\n              tag_43\n              jumpi\n              0x00\n              dup1\n              revert\n            tag_43:\n              pop\n              tag_44\n              tag_45\n              jump\t// in\n            tag_44:\n              mload(0x40)\n              tag_46\n              swap2\n              swap1\n              tag_47\n              jump\t// in\n            tag_46:\n              mload(0x40)\n              dup1\n              swap2\n              sub\n              swap1\n              return\n                /* \"Transaction.sol\":2309:2335  uint public paidAmount = 0 */\n            tag_6:\n              callvalue\n              dup1\n              iszero\n              tag_48\n              jumpi\n              0x00\n              dup1\n              revert\n            tag_48:\n              pop\n              tag_49\n              tag_50\n              jump\t// in\n            tag_49:\n              mload(0x40)\n              tag_51\n              swap2\n              swap1\n              tag_42\n              jump\t// in\n            tag_51:\n              mload(0x40)\n              dup1\n              swap2\n              sub\n              swap1\n              return\n                /* \"Transaction.sol\":2696:2723  Type public typeTransaction */\n            tag_7:\n              callvalue\n              dup1\n              iszero\n              tag_52\n              jumpi\n              0x00\n              dup1\n              revert\n            tag_52:\n              pop\n              tag_53\n              tag_54\n              jump\t// in\n            tag_53:\n              mload(0x40)\n              tag_55\n              swap2\n              swap1\n              tag_32\n              jump\t// in\n            tag_55:\n              mload(0x40)\n              dup1\n              swap2\n              sub\n              swap1\n              return\n                /* \"Transaction.sol\":2479:2502  address public customer */\n            tag_8:\n              callvalue\n              dup1\n              iszero\n              tag_56\n              jumpi\n              0x00\n              dup1\n              revert\n            tag_56:\n              pop\n              tag_57\n              tag_58\n              jump\t// in\n            tag_57:\n              mload(0x40)\n              tag_59\n              swap2\n              swap1\n              tag_60\n              jump\t// in\n            tag_59:\n              mload(0x40)\n              dup1\n              swap2\n              sub\n              swap1\n              return\n                /* \"Transaction.sol\":2559:2583  bool public paid = false */\n            tag_9:\n              callvalue\n              dup1\n              iszero\n              tag_61\n              jumpi\n              0x00\n              dup1\n              revert\n            tag_61:\n              pop\n              tag_62\n              tag_63\n              jump\t// in\n            tag_62:\n              mload(0x40)\n              tag_64\n              swap2\n              swap1\n              tag_47\n              jump\t// in\n            tag_64:\n              mload(0x40)\n              dup1\n              swap2\n              sub\n              swap1\n              return\n                /* \"Transaction.sol\":2781:2823  mapping(uint => History) public allHistory */\n            tag_10:\n              callvalue\n              dup1\n              iszero\n              tag_65\n              jumpi\n              0x00\n              dup1\n              revert\n            tag_65:\n              pop\n              tag_66\n              0x04\n              dup1\n              calldatasize\n              sub\n              dup2\n              add\n              swap1\n              tag_67\n              swap2\n              swap1\n              tag_68\n              jump\t// in\n            tag_67:\n              tag_69\n              jump\t// in\n            tag_66:\n              mload(0x40)\n              tag_70\n              swap9\n              swap8\n              swap7\n              swap6\n              swap5\n              swap4\n              swap3\n              swap2\n              swap1\n              tag_71\n              jump\t// in\n            tag_70:\n              mload(0x40)\n              dup1\n              swap2\n              sub\n              swap1\n              return\n                /* \"Transaction.sol\":2508:2531  address public supplier */\n            tag_11:\n              callvalue\n              dup1\n              iszero\n              tag_72\n              jumpi\n              0x00\n              dup1\n              revert\n            tag_72:\n              pop\n              tag_73\n              tag_74\n              jump\t// in\n            tag_73:\n              mload(0x40)\n              tag_75\n              swap2\n              swap1\n              tag_60\n              jump\t// in\n            tag_75:\n              mload(0x40)\n              dup1\n              swap2\n              sub\n              swap1\n              return\n                /* \"Transaction.sol\":7605:8163  function getSummary() public view returns(... */\n            tag_12:\n              callvalue\n              dup1\n              iszero\n              tag_76\n              jumpi\n              0x00\n              dup1\n              revert\n            tag_76:\n              pop\n              tag_77\n              tag_78\n              jump\t// in\n            tag_77:\n              mload(0x40)\n              tag_79\n              swap13\n              swap12\n              swap11\n              swap10\n              swap9\n              swap8\n              swap7\n              swap6\n              swap5\n              swap4\n              swap3\n              swap2\n              swap1\n              tag_80\n              jump\t// in\n            tag_79:\n              mload(0x40)\n              dup1\n              swap2\n              sub\n              swap1\n              return\n                /* \"Transaction.sol\":6717:6812  function resetContractValue() public onlySupplier{... */\n            tag_13:\n              callvalue\n              dup1\n              iszero\n              tag_81\n              jumpi\n              0x00\n              dup1\n              revert\n            tag_81:\n              pop\n              tag_82\n              tag_83\n              jump\t// in\n            tag_82:\n              stop\n                /* \"Transaction.sol\":2447:2472  string public description */\n            tag_14:\n              callvalue\n              dup1\n              iszero\n              tag_84\n              jumpi\n              0x00\n              dup1\n              revert\n            tag_84:\n              pop\n              tag_85\n              tag_86\n              jump\t// in\n            tag_85:\n              mload(0x40)\n              tag_87\n              swap2\n              swap1\n              tag_32\n              jump\t// in\n            tag_87:\n              mload(0x40)\n              dup1\n              swap2\n              sub\n              swap1\n              return\n                /* \"Transaction.sol\":4706:4862  function acceptTerms() public onlyCustomer{... */\n            tag_15:\n              callvalue\n              dup1\n              iszero\n              tag_88\n              jumpi\n              0x00\n              dup1\n              revert\n            tag_88:\n              pop\n              tag_89\n              tag_90\n              jump\t// in\n            tag_89:\n              stop\n                /* \"Transaction.sol\":6841:7508  function audit(string memory newTimeStamp) public onlySupplier{... */\n            tag_16:\n              callvalue\n              dup1\n              iszero\n              tag_91\n              jumpi\n              0x00\n              dup1\n              revert\n            tag_91:\n              pop\n              tag_92\n              0x04\n              dup1\n              calldatasize\n              sub\n              dup2\n              add\n              swap1\n              tag_93\n              swap2\n              swap1\n              tag_94\n              jump\t// in\n            tag_93:\n              tag_95\n              jump\t// in\n            tag_92:\n              stop\n                /* \"Transaction.sol\":5173:6711  function pay(string memory newTimeStamp, uint totalPayment) public payable onlyCustomer{... */\n            tag_17:\n              tag_96\n              0x04\n              dup1\n              calldatasize\n              sub\n              dup2\n              add\n              swap1\n              tag_97\n              swap2\n              swap1\n              tag_98\n              jump\t// in\n            tag_97:\n              tag_99\n              jump\t// in\n            tag_96:\n              stop\n                /* \"Transaction.sol\":8482:8571  function getHistoryCount() public view returns (uint){... */\n            tag_18:\n              callvalue\n              dup1\n              iszero\n              tag_100\n              jumpi\n              0x00\n              dup1\n              revert\n            tag_100:\n              pop\n              tag_101\n              tag_102\n              jump\t// in\n            tag_101:\n              mload(0x40)\n              tag_103\n              swap2\n              swap1\n              tag_42\n              jump\t// in\n            tag_103:\n              mload(0x40)\n              dup1\n              swap2\n              sub\n              swap1\n              return\n                /* \"Transaction.sol\":2341:2372  uint public totalPaidAmount = 0 */\n            tag_19:\n              callvalue\n              dup1\n              iszero\n              tag_104\n              jumpi\n              0x00\n              dup1\n              revert\n            tag_104:\n              pop\n              tag_105\n              tag_106\n              jump\t// in\n            tag_105:\n              mload(0x40)\n              tag_107\n              swap2\n              swap1\n              tag_42\n              jump\t// in\n            tag_107:\n              mload(0x40)\n              dup1\n              swap2\n              sub\n              swap1\n              return\n                /* \"Transaction.sol\":2278:2303  uint public paymentAmount */\n            tag_20:\n              callvalue\n              dup1\n              iszero\n              tag_108\n              jumpi\n              0x00\n              dup1\n              revert\n            tag_108:\n              pop\n              tag_109\n              tag_110\n              jump\t// in\n            tag_109:\n              mload(0x40)\n              tag_111\n              swap2\n              swap1\n              tag_42\n              jump\t// in\n            tag_111:\n              mload(0x40)\n              dup1\n              swap2\n              sub\n              swap1\n              return\n                /* \"Transaction.sol\":2415:2441  string public customerName */\n            tag_21:\n              callvalue\n              dup1\n              iszero\n              tag_112\n              jumpi\n              0x00\n              dup1\n              revert\n            tag_112:\n              pop\n              tag_113\n              tag_114\n              jump\t// in\n            tag_113:\n              mload(0x40)\n              tag_115\n              swap2\n              swap1\n              tag_32\n              jump\t// in\n            tag_115:\n              mload(0x40)\n              dup1\n              swap2\n              sub\n              swap1\n              return\n                /* \"Transaction.sol\":2622:2652  bool public accaptable = false */\n            tag_22:\n              callvalue\n              dup1\n              iszero\n              tag_116\n              jumpi\n              0x00\n              dup1\n              revert\n            tag_116:\n              pop\n              tag_117\n              tag_118\n              jump\t// in\n            tag_117:\n              mload(0x40)\n              tag_119\n              swap2\n              swap1\n              tag_47\n              jump\t// in\n            tag_119:\n              mload(0x40)\n              dup1\n              swap2\n              sub\n              swap1\n              return\n                /* \"Transaction.sol\":4941:5117  function forfeitTerms() public onlyCustomer onlySupplier{... */\n            tag_23:\n              callvalue\n              dup1\n              iszero\n              tag_120\n              jumpi\n              0x00\n              dup1\n              revert\n            tag_120:\n              pop\n              tag_121\n              tag_122\n              jump\t// in\n            tag_121:\n              stop\n                /* \"Transaction.sol\":8169:8476  function getTermsSummary() public view returns(... */\n            tag_24:\n              callvalue\n              dup1\n              iszero\n              tag_123\n              jumpi\n              0x00\n              dup1\n              revert\n            tag_123:\n              pop\n              tag_124\n              tag_125\n              jump\t// in\n            tag_124:\n              mload(0x40)\n              tag_126\n              swap5\n              swap4\n              swap3\n              swap2\n              swap1\n              tag_127\n              jump\t// in\n            tag_126:\n              mload(0x40)\n              dup1\n              swap2\n              sub\n              swap1\n              return\n                /* \"Transaction.sol\":2383:2409  string public supplierName */\n            tag_30:\n              0x04\n              dup1\n              sload\n              tag_128\n              swap1\n              tag_129\n              jump\t// in\n            tag_128:\n              dup1\n              0x1f\n              add\n              0x20\n              dup1\n              swap2\n              div\n              mul\n              0x20\n              add\n              mload(0x40)\n              swap1\n              dup2\n              add\n              0x40\n              mstore\n              dup1\n              swap3\n              swap2\n              swap1\n              dup2\n              dup2\n              mstore\n              0x20\n              add\n              dup3\n              dup1\n              sload\n              tag_130\n              swap1\n              tag_129\n              jump\t// in\n            tag_130:\n              dup1\n              iszero\n              tag_131\n              jumpi\n              dup1\n              0x1f\n              lt\n              tag_132\n              jumpi\n              0x0100\n              dup1\n              dup4\n              sload\n              div\n              mul\n              dup4\n              mstore\n              swap2\n              0x20\n              add\n              swap2\n              jump(tag_131)\n            tag_132:\n              dup3\n              add\n              swap2\n              swap1\n              0x00\n              mstore\n              keccak256(0x00, 0x20)\n              swap1\n            tag_133:\n              dup2\n              sload\n              dup2\n              mstore\n              swap1\n              0x01\n              add\n              swap1\n              0x20\n              add\n              dup1\n              dup4\n              gt\n              tag_133\n              jumpi\n              dup3\n              swap1\n              sub\n              0x1f\n              and\n              dup3\n              add\n              swap2\n            tag_131:\n              pop\n              pop\n              pop\n              pop\n              pop\n              dup2\n              jump\t// out\n                /* \"Transaction.sol\":2659:2690  TermsAndConditions public tandc */\n            tag_35:\n              0x09\n              dup1\n              0x01\n              add\n              0x00\n              swap1\n              sload\n              swap1\n              0x0100\n              exp\n              swap1\n              div\n              0xff\n              and\n              swap1\n              dup1\n              0x02\n              add\n              mload(0x40)\n              dup1\n              0x60\n              add\n              0x40\n              mstore\n              swap1\n              dup2\n              0x00\n              dup3\n              add\n              sload\n              dup2\n              mstore\n              0x20\n              add\n              0x01\n              dup3\n              add\n              sload\n              dup2\n              mstore\n              0x20\n              add\n              0x02\n              dup3\n              add\n              sload\n              dup2\n              mstore\n              pop\n              pop\n              swap1\n              dup1\n              0x05\n              add\n              mload(0x40)\n              dup1\n              0x60\n              add\n              0x40\n              mstore\n              swap1\n              dup2\n              0x00\n              dup3\n              add\n              sload\n              dup2\n              mstore\n              0x20\n              add\n              0x01\n              dup3\n              add\n              sload\n              dup2\n              mstore\n              0x20\n              add\n              0x02\n              dup3\n              add\n              sload\n              dup2\n              mstore\n              pop\n              pop\n              swap1\n              dup1\n              0x08\n              add\n              0x00\n              swap1\n              sload\n              swap1\n              0x0100\n              exp\n              swap1\n              div\n              0xff\n              and\n              swap1\n              pop\n              dup5\n              jump\t// out\n                /* \"Transaction.sol\":2247:2272  uint public backUpPayment */\n            tag_40:\n              sload(0x00)\n              dup2\n              jump\t// out\n                /* \"Transaction.sol\":2589:2616  bool public audited = false */\n            tag_45:\n              0x08\n              0x15\n              swap1\n              sload\n              swap1\n              0x0100\n              exp\n              swap1\n              div\n              0xff\n              and\n              dup2\n              jump\t// out\n                /* \"Transaction.sol\":2309:2335  uint public paidAmount = 0 */\n            tag_50:\n              sload(0x02)\n              dup2\n              jump\t// out\n                /* \"Transaction.sol\":2696:2723  Type public typeTransaction */\n            tag_54:\n              0x12\n              dup1\n              0x00\n              add\n              dup1\n              sload\n              tag_134\n              swap1\n              tag_129\n              jump\t// in\n            tag_134:\n              dup1\n              0x1f\n              add\n              0x20\n              dup1\n              swap2\n              div\n              mul\n              0x20\n              add\n              mload(0x40)\n              swap1\n              dup2\n              add\n              0x40\n              mstore\n              dup1\n              swap3\n              swap2\n              swap1\n              dup2\n              dup2\n              mstore\n              0x20\n              add\n              dup3\n              dup1\n              sload\n              tag_135\n              swap1\n              tag_129\n              jump\t// in\n            tag_135:\n              dup1\n              iszero\n              tag_136\n              jumpi\n              dup1\n              0x1f\n              lt\n              tag_137\n              jumpi\n              0x0100\n              dup1\n              dup4\n              sload\n              div\n              mul\n              dup4\n              mstore\n              swap2\n              0x20\n              add\n              swap2\n              jump(tag_136)\n            tag_137:\n              dup3\n              add\n              swap2\n              swap1\n              0x00\n              mstore\n              keccak256(0x00, 0x20)\n              swap1\n            tag_138:\n              dup2\n              sload\n              dup2\n              mstore\n              swap1\n              0x01\n              add\n              swap1\n              0x20\n              add\n              dup1\n              dup4\n              gt\n              tag_138\n              jumpi\n              dup3\n              swap1\n              sub\n              0x1f\n              and\n              dup3\n              add\n              swap2\n            tag_136:\n              pop\n              pop\n              pop\n              pop\n              pop\n              swap1\n              pop\n              dup2\n              jump\t// out\n                /* \"Transaction.sol\":2479:2502  address public customer */\n            tag_58:\n              0x07\n              0x00\n              swap1\n              sload\n              swap1\n              0x0100\n              exp\n              swap1\n              div\n              0xffffffffffffffffffffffffffffffffffffffff\n              and\n              dup2\n              jump\t// out\n                /* \"Transaction.sol\":2559:2583  bool public paid = false */\n            tag_63:\n              0x08\n              0x14\n              swap1\n              sload\n              swap1\n              0x0100\n              exp\n              swap1\n              div\n              0xff\n              and\n              dup2\n              jump\t// out\n                /* \"Transaction.sol\":2781:2823  mapping(uint => History) public allHistory */\n            tag_69:\n              mstore(0x20, 0x13)\n              dup1\n              0x00\n              mstore\n              keccak256(0x00, 0x40)\n              0x00\n              swap2\n              pop\n              swap1\n              pop\n              dup1\n              0x00\n              add\n              sload\n              swap1\n              dup1\n              0x01\n              add\n              sload\n              swap1\n              dup1\n              0x02\n              add\n              0x00\n              swap1\n              sload\n              swap1\n              0x0100\n              exp\n              swap1\n              div\n              0xff\n              and\n              swap1\n              dup1\n              0x02\n              add\n              0x01\n              swap1\n              sload\n              swap1\n              0x0100\n              exp\n              swap1\n              div\n              0xff\n              and\n              swap1\n              dup1\n              0x02\n              add\n              0x02\n              swap1\n              sload\n              swap1\n              0x0100\n              exp\n              swap1\n              div\n              0xff\n              and\n              swap1\n              dup1\n              0x02\n              add\n              0x03\n              swap1\n              sload\n              swap1\n              0x0100\n              exp\n              swap1\n              div\n              0xff\n              and\n              swap1\n              dup1\n              0x02\n              add\n              0x04\n              swap1\n              sload\n              swap1\n              0x0100\n              exp\n              swap1\n              div\n              0xff\n              and\n              swap1\n              dup1\n              0x03\n              add\n              dup1\n              sload\n              tag_139\n              swap1\n              tag_129\n              jump\t// in\n            tag_139:\n              dup1\n              0x1f\n              add\n              0x20\n              dup1\n              swap2\n              div\n              mul\n              0x20\n              add\n              mload(0x40)\n              swap1\n              dup2\n              add\n              0x40\n              mstore\n              dup1\n              swap3\n              swap2\n              swap1\n              dup2\n              dup2\n              mstore\n              0x20\n              add\n              dup3\n              dup1\n              sload\n              tag_140\n              swap1\n              tag_129\n              jump\t// in\n            tag_140:\n              dup1\n              iszero\n              tag_141\n              jumpi\n              dup1\n              0x1f\n              lt\n              tag_142\n              jumpi\n              0x0100\n              dup1\n              dup4\n              sload\n              div\n              mul\n              dup4\n              mstore\n              swap2\n              0x20\n              add\n              swap2\n              jump(tag_141)\n            tag_142:\n              dup3\n              add\n              swap2\n              swap1\n              0x00\n              mstore\n              keccak256(0x00, 0x20)\n              swap1\n            tag_143:\n              dup2\n              sload\n              dup2\n              mstore\n              swap1\n              0x01\n              add\n              swap1\n              0x20\n              add\n              dup1\n              dup4\n              gt\n              tag_143\n              jumpi\n              dup3\n              swap1\n              sub\n              0x1f\n              and\n              dup3\n              add\n              swap2\n            tag_141:\n              pop\n              pop\n              pop\n              pop\n              pop\n              swap1\n              pop\n              dup9\n              jump\t// out\n                /* \"Transaction.sol\":2508:2531  address public supplier */\n            tag_74:\n              0x08\n              0x00\n              swap1\n              sload\n              swap1\n              0x0100\n              exp\n              swap1\n              div\n              0xffffffffffffffffffffffffffffffffffffffff\n              and\n              dup2\n              jump\t// out\n                /* \"Transaction.sol\":7605:8163  function getSummary() public view returns(... */\n            tag_78:\n                /* \"Transaction.sol\":7656:7669  string memory */\n              0x60\n                /* \"Transaction.sol\":7670:7683  string memory */\n              dup1\n                /* \"Transaction.sol\":7685:7698  string memory */\n              0x60\n                /* \"Transaction.sol\":7709:7713  uint */\n              0x00\n                /* \"Transaction.sol\":7715:7719  uint */\n              dup1\n                /* \"Transaction.sol\":7721:7725  uint */\n              0x00\n                /* \"Transaction.sol\":7727:7731  uint */\n              dup1\n                /* \"Transaction.sol\":7732:7739  address */\n              0x00\n                /* \"Transaction.sol\":7741:7748  address */\n              dup1\n                /* \"Transaction.sol\":7750:7754  bool */\n              0x00\n                /* \"Transaction.sol\":7756:7760  bool */\n              dup1\n                /* \"Transaction.sol\":7762:7766  bool */\n              0x00\n                /* \"Transaction.sol\":7816:7827  description */\n              0x06\n                /* \"Transaction.sol\":7845:7857  customerName */\n              0x05\n                /* \"Transaction.sol\":7875:7887  supplierName */\n              0x04\n                /* \"Transaction.sol\":7905:7920  totalPaidAmount */\n              sload(0x03)\n                /* \"Transaction.sol\":7938:7951  paymentAmount */\n              sload(0x01)\n                /* \"Transaction.sol\":7969:7979  paidAmount */\n              sload(0x02)\n                /* \"Transaction.sol\":7997:8010  backUpPayment */\n              sload(0x00)\n                /* \"Transaction.sol\":8029:8037  customer */\n              0x07\n              0x00\n              swap1\n              sload\n              swap1\n              0x0100\n              exp\n              swap1\n              div\n              0xffffffffffffffffffffffffffffffffffffffff\n              and\n                /* \"Transaction.sol\":8055:8063  supplier */\n              0x08\n              0x00\n              swap1\n              sload\n              swap1\n              0x0100\n              exp\n              swap1\n              div\n              0xffffffffffffffffffffffffffffffffffffffff\n              and\n                /* \"Transaction.sol\":8081:8086  tandc */\n              0x09\n                /* \"Transaction.sol\":8081:8095  tandc.accepted */\n              0x01\n              add\n              0x00\n              swap1\n              sload\n              swap1\n              0x0100\n              exp\n              swap1\n              div\n              0xff\n              and\n                /* \"Transaction.sol\":8113:8117  paid */\n              0x08\n              0x14\n              swap1\n              sload\n              swap1\n              0x0100\n              exp\n              swap1\n              div\n              0xff\n              and\n                /* \"Transaction.sol\":8135:8142  audited */\n              0x08\n              0x15\n              swap1\n              sload\n              swap1\n              0x0100\n              exp\n              swap1\n              div\n              0xff\n              and\n                /* \"Transaction.sol\":7791:8156  return (... */\n              dup12\n              dup1\n              sload\n              tag_145\n              swap1\n              tag_129\n              jump\t// in\n            tag_145:\n              dup1\n              0x1f\n              add\n              0x20\n              dup1\n              swap2\n              div\n              mul\n              0x20\n              add\n              mload(0x40)\n              swap1\n              dup2\n              add\n              0x40\n              mstore\n              dup1\n              swap3\n              swap2\n              swap1\n              dup2\n              dup2\n              mstore\n              0x20\n              add\n              dup3\n              dup1\n              sload\n              tag_146\n              swap1\n              tag_129\n              jump\t// in\n            tag_146:\n              dup1\n              iszero\n              tag_147\n              jumpi\n              dup1\n              0x1f\n              lt\n              tag_148\n              jumpi\n              0x0100\n              dup1\n              dup4\n              sload\n              div\n              mul\n              dup4\n              mstore\n              swap2\n              0x20\n              add\n              swap2\n              jump(tag_147)\n            tag_148:\n              dup3\n              add\n              swap2\n              swap1\n              0x00\n              mstore\n              keccak256(0x00, 0x20)\n              swap1\n            tag_149:\n              dup2\n              sload\n              dup2\n              mstore\n              swap1\n              0x01\n              add\n              swap1\n              0x20\n              add\n              dup1\n              dup4\n              gt\n              tag_149\n              jumpi\n              dup3\n              swap1\n              sub\n              0x1f\n              and\n              dup3\n              add\n              swap2\n            tag_147:\n              pop\n              pop\n              pop\n              pop\n              pop\n              swap12\n              pop\n              dup11\n              dup1\n              sload\n              tag_150\n              swap1\n              tag_129\n              jump\t// in\n            tag_150:\n              dup1\n              0x1f\n              add\n              0x20\n              dup1\n              swap2\n              div\n              mul\n              0x20\n              add\n              mload(0x40)\n              swap1\n              dup2\n              add\n              0x40\n              mstore\n              dup1\n              swap3\n              swap2\n              swap1\n              dup2\n              dup2\n              mstore\n              0x20\n              add\n              dup3\n              dup1\n              sload\n              tag_151\n              swap1\n              tag_129\n              jump\t// in\n            tag_151:\n              dup1\n              iszero\n              tag_152\n              jumpi\n              dup1\n              0x1f\n              lt\n              tag_153\n              jumpi\n              0x0100\n              dup1\n              dup4\n              sload\n              div\n              mul\n              dup4\n              mstore\n              swap2\n              0x20\n              add\n              swap2\n              jump(tag_152)\n            tag_153:\n              dup3\n              add\n              swap2\n              swap1\n              0x00\n              mstore\n              keccak256(0x00, 0x20)\n              swap1\n            tag_154:\n              dup2\n              sload\n              dup2\n              mstore\n              swap1\n              0x01\n              add\n              swap1\n              0x20\n              add\n              dup1\n              dup4\n              gt\n              tag_154\n              jumpi\n              dup3\n              swap1\n              sub\n              0x1f\n              and\n              dup3\n              add\n              swap2\n            tag_152:\n              pop\n              pop\n              pop\n              pop\n              pop\n              swap11\n              pop\n              dup10\n              dup1\n              sload\n              tag_155\n              swap1\n              tag_129\n              jump\t// in\n            tag_155:\n              dup1\n              0x1f\n              add\n              0x20\n              dup1\n              swap2\n              div\n              mul\n              0x20\n              add\n              mload(0x40)\n              swap1\n              dup2\n              add\n              0x40\n              mstore\n              dup1\n              swap3\n              swap2\n              swap1\n              dup2\n              dup2\n              mstore\n              0x20\n              add\n              dup3\n              dup1\n              sload\n              tag_156\n              swap1\n              tag_129\n              jump\t// in\n            tag_156:\n              dup1\n              iszero\n              tag_157\n              jumpi\n              dup1\n              0x1f\n              lt\n              tag_158\n              jumpi\n              0x0100\n              dup1\n              dup4\n              sload\n              div\n              mul\n              dup4\n              mstore\n              swap2\n              0x20\n              add\n              swap2\n              jump(tag_157)\n            tag_158:\n              dup3\n              add\n              swap2\n              swap1\n              0x00\n              mstore\n              keccak256(0x00, 0x20)\n              swap1\n            tag_159:\n              dup2\n              sload\n              dup2\n              mstore\n              swap1\n              0x01\n              add\n              swap1\n              0x20\n              add\n              dup1\n              dup4\n              gt\n              tag_159\n              jumpi\n              dup3\n              swap1\n              sub\n              0x1f\n              and\n              dup3\n              add\n              swap2\n            tag_157:\n              pop\n              pop\n              pop\n              pop\n              pop\n              swap10\n              pop\n              swap12\n              pop\n              swap12\n              pop\n              swap12\n              pop\n              swap12\n              pop\n              swap12\n              pop\n              swap12\n              pop\n              swap12\n              pop\n              swap12\n              pop\n              swap12\n              pop\n              swap12\n              pop\n              swap12\n              pop\n              swap12\n              pop\n                /* \"Transaction.sol\":7605:8163  function getSummary() public view returns(... */\n              swap1\n              swap2\n              swap3\n              swap4\n              swap5\n              swap6\n              swap7\n              swap8\n              swap9\n              swap10\n              swap11\n              swap12\n              jump\t// out\n                /* \"Transaction.sol\":6717:6812  function resetContractValue() public onlySupplier{... */\n            tag_83:\n                /* \"Transaction.sol\":2953:2961  supplier */\n              0x08\n              0x00\n              swap1\n              sload\n              swap1\n              0x0100\n              exp\n              swap1\n              div\n              0xffffffffffffffffffffffffffffffffffffffff\n              and\n                /* \"Transaction.sol\":2939:2961  msg.sender == supplier */\n              0xffffffffffffffffffffffffffffffffffffffff\n              and\n                /* \"Transaction.sol\":2939:2949  msg.sender */\n              caller\n                /* \"Transaction.sol\":2939:2961  msg.sender == supplier */\n              0xffffffffffffffffffffffffffffffffffffffff\n              and\n              eq\n                /* \"Transaction.sol\":2931:2990  require(msg.sender == supplier, \"You are not the supplier\") */\n              tag_161\n              jumpi\n              mload(0x40)\n              0x08c379a000000000000000000000000000000000000000000000000000000000\n              dup2\n              mstore\n              0x04\n              add\n              tag_162\n              swap1\n              tag_163\n              jump\t// in\n            tag_162:\n              mload(0x40)\n              dup1\n              swap2\n              sub\n              swap1\n              revert\n            tag_161:\n                /* \"Transaction.sol\":6792:6805  backUpPayment */\n              sload(0x00)\n                /* \"Transaction.sol\":6776:6789  paymentAmount */\n              0x01\n                /* \"Transaction.sol\":6776:6805  paymentAmount = backUpPayment */\n              dup2\n              swap1\n              sstore\n              pop\n                /* \"Transaction.sol\":6717:6812  function resetContractValue() public onlySupplier{... */\n              jump\t// out\n                /* \"Transaction.sol\":2447:2472  string public description */\n            tag_86:\n              0x06\n              dup1\n              sload\n              tag_165\n              swap1\n              tag_129\n              jump\t// in\n            tag_165:\n              dup1\n              0x1f\n              add\n              0x20\n              dup1\n              swap2\n              div\n              mul\n              0x20\n              add\n              mload(0x40)\n              swap1\n              dup2\n              add\n              0x40\n              mstore\n              dup1\n              swap3\n              swap2\n              swap1\n              dup2\n              dup2\n              mstore\n              0x20\n              add\n              dup3\n              dup1\n              sload\n              tag_166\n              swap1\n              tag_129\n              jump\t// in\n            tag_166:\n              dup1\n              iszero\n              tag_167\n              jumpi\n              dup1\n              0x1f\n              lt\n              tag_168\n              jumpi\n              0x0100\n              dup1\n              dup4\n              sload\n              div\n              mul\n              dup4\n              mstore\n              swap2\n              0x20\n              add\n              swap2\n              jump(tag_167)\n            tag_168:\n              dup3\n              add\n              swap2\n              swap1\n              0x00\n              mstore\n              keccak256(0x00, 0x20)\n              swap1\n            tag_169:\n              dup2\n              sload\n              dup2\n              mstore\n              swap1\n              0x01\n              add\n              swap1\n              0x20\n              add\n              dup1\n              dup4\n              gt\n              tag_169\n              jumpi\n              dup3\n              swap1\n              sub\n              0x1f\n              and\n              dup3\n              add\n              swap2\n            tag_167:\n              pop\n              pop\n              pop\n              pop\n              pop\n              dup2\n              jump\t// out\n                /* \"Transaction.sol\":4706:4862  function acceptTerms() public onlyCustomer{... */\n            tag_90:\n                /* \"Transaction.sol\":3102:3110  customer */\n              0x07\n              0x00\n              swap1\n              sload\n              swap1\n              0x0100\n              exp\n              swap1\n              div\n              0xffffffffffffffffffffffffffffffffffffffff\n              and\n                /* \"Transaction.sol\":3088:3110  msg.sender == customer */\n              0xffffffffffffffffffffffffffffffffffffffff\n              and\n                /* \"Transaction.sol\":3088:3098  msg.sender */\n              caller\n                /* \"Transaction.sol\":3088:3110  msg.sender == customer */\n              0xffffffffffffffffffffffffffffffffffffffff\n              and\n              eq\n                /* \"Transaction.sol\":3080:3139  require(msg.sender == customer, \"You are not the customer\") */\n              tag_171\n              jumpi\n              mload(0x40)\n              0x08c379a000000000000000000000000000000000000000000000000000000000\n              dup2\n              mstore\n              0x04\n              add\n              tag_172\n              swap1\n              tag_173\n              jump\t// in\n            tag_172:\n              mload(0x40)\n              dup1\n              swap2\n              sub\n              swap1\n              revert\n            tag_171:\n                /* \"Transaction.sol\":4784:4789  false */\n              0x00\n                /* \"Transaction.sol\":4766:4789  tandc.accepted == false */\n              iszero\n              iszero\n                /* \"Transaction.sol\":4766:4771  tandc */\n              0x09\n                /* \"Transaction.sol\":4766:4780  tandc.accepted */\n              0x01\n              add\n              0x00\n              swap1\n              sload\n              swap1\n              0x0100\n              exp\n              swap1\n              div\n              0xff\n              and\n                /* \"Transaction.sol\":4766:4789  tandc.accepted == false */\n              iszero\n              iszero\n              eq\n                /* \"Transaction.sol\":4758:4824  require(tandc.accepted == false, \"The terms are already accepted\") */\n              tag_175\n              jumpi\n              mload(0x40)\n              0x08c379a000000000000000000000000000000000000000000000000000000000\n              dup2\n              mstore\n              0x04\n              add\n              tag_176\n              swap1\n              tag_177\n              jump\t// in\n            tag_176:\n              mload(0x40)\n              dup1\n              swap2\n              sub\n              swap1\n              revert\n            tag_175:\n                /* \"Transaction.sol\":4851:4855  true */\n              0x01\n                /* \"Transaction.sol\":4834:4839  tandc */\n              0x09\n                /* \"Transaction.sol\":4834:4848  tandc.accepted */\n              0x01\n              add\n              0x00\n                /* \"Transaction.sol\":4834:4855  tandc.accepted = true */\n              0x0100\n              exp\n              dup2\n              sload\n              dup2\n              0xff\n              mul\n              not\n              and\n              swap1\n              dup4\n              iszero\n              iszero\n              mul\n              or\n              swap1\n              sstore\n              pop\n                /* \"Transaction.sol\":4706:4862  function acceptTerms() public onlyCustomer{... */\n              jump\t// out\n                /* \"Transaction.sol\":6841:7508  function audit(string memory newTimeStamp) public onlySupplier{... */\n            tag_95:\n                /* \"Transaction.sol\":2953:2961  supplier */\n              0x08\n              0x00\n              swap1\n              sload\n              swap1\n              0x0100\n              exp\n              swap1\n              div\n              0xffffffffffffffffffffffffffffffffffffffff\n              and\n                /* \"Transaction.sol\":2939:2961  msg.sender == supplier */\n              0xffffffffffffffffffffffffffffffffffffffff\n              and\n                /* \"Transaction.sol\":2939:2949  msg.sender */\n              caller\n                /* \"Transaction.sol\":2939:2961  msg.sender == supplier */\n              0xffffffffffffffffffffffffffffffffffffffff\n              and\n              eq\n                /* \"Transaction.sol\":2931:2990  require(msg.sender == supplier, \"You are not the supplier\") */\n              tag_179\n              jumpi\n              mload(0x40)\n              0x08c379a000000000000000000000000000000000000000000000000000000000\n              dup2\n              mstore\n              0x04\n              add\n              tag_180\n              swap1\n              tag_163\n              jump\t// in\n            tag_180:\n              mload(0x40)\n              dup1\n              swap2\n              sub\n              swap1\n              revert\n            tag_179:\n                /* \"Transaction.sol\":6939:6943  true */\n              0x01\n                /* \"Transaction.sol\":6921:6943  tandc.accepted == true */\n              iszero\n              iszero\n                /* \"Transaction.sol\":6921:6926  tandc */\n              0x09\n                /* \"Transaction.sol\":6921:6935  tandc.accepted */\n              0x01\n              add\n              0x00\n              swap1\n              sload\n              swap1\n              0x0100\n              exp\n              swap1\n              div\n              0xff\n              and\n                /* \"Transaction.sol\":6921:6943  tandc.accepted == true */\n              iszero\n              iszero\n              eq\n                /* \"Transaction.sol\":6913:6970  require(tandc.accepted == true, \"Terms are not accepted\") */\n              tag_182\n              jumpi\n              mload(0x40)\n              0x08c379a000000000000000000000000000000000000000000000000000000000\n              dup2\n              mstore\n              0x04\n              add\n              tag_183\n              swap1\n              tag_184\n              jump\t// in\n            tag_183:\n              mload(0x40)\n              dup1\n              swap2\n              sub\n              swap1\n              revert\n            tag_182:\n                /* \"Transaction.sol\":6996:7000  true */\n              0x01\n                /* \"Transaction.sol\":6988:7000  paid == true */\n              iszero\n              iszero\n                /* \"Transaction.sol\":6988:6992  paid */\n              0x08\n              0x14\n              swap1\n              sload\n              swap1\n              0x0100\n              exp\n              swap1\n              div\n              0xff\n              and\n                /* \"Transaction.sol\":6988:7000  paid == true */\n              iszero\n              iszero\n              eq\n                /* \"Transaction.sol\":6980:7024  require(paid == true, \"Payment is not done\") */\n              tag_185\n              jumpi\n              mload(0x40)\n              0x08c379a000000000000000000000000000000000000000000000000000000000\n              dup2\n              mstore\n              0x04\n              add\n              tag_186\n              swap1\n              tag_187\n              jump\t// in\n            tag_186:\n              mload(0x40)\n              dup1\n              swap2\n              sub\n              swap1\n              revert\n            tag_185:\n                /* \"Transaction.sol\":7045:7049  true */\n              0x01\n                /* \"Transaction.sol\":7035:7042  audited */\n              0x08\n              0x15\n                /* \"Transaction.sol\":7035:7049  audited = true */\n              0x0100\n              exp\n              dup2\n              sload\n              dup2\n              0xff\n              mul\n              not\n              and\n              swap1\n              dup4\n              iszero\n              iszero\n              mul\n              or\n              swap1\n              sstore\n              pop\n                /* \"Transaction.sol\":7066:7071  false */\n              0x00\n                /* \"Transaction.sol\":7059:7063  paid */\n              0x08\n              0x14\n                /* \"Transaction.sol\":7059:7071  paid = false */\n              0x0100\n              exp\n              dup2\n              sload\n              dup2\n              0xff\n              mul\n              not\n              and\n              swap1\n              dup4\n              iszero\n              iszero\n              mul\n              or\n              swap1\n              sstore\n              pop\n                /* \"Transaction.sol\":7098:7111  backUpPayment */\n              sload(0x00)\n                /* \"Transaction.sol\":7082:7095  paymentAmount */\n              0x01\n                /* \"Transaction.sol\":7082:7111  paymentAmount = backUpPayment */\n              dup2\n              swap1\n              sstore\n              pop\n                /* \"Transaction.sol\":7122:7148  History storage newHistory */\n              0x00\n                /* \"Transaction.sol\":7151:7161  allHistory */\n              0x13\n                /* \"Transaction.sol\":7151:7175  allHistory[currentIndex] */\n              0x00\n                /* \"Transaction.sol\":7162:7174  currentIndex */\n              sload(0x14)\n                /* \"Transaction.sol\":7151:7175  allHistory[currentIndex] */\n              dup2\n              mstore\n              0x20\n              add\n              swap1\n              dup2\n              mstore\n              0x20\n              add\n              0x00\n              keccak256\n                /* \"Transaction.sol\":7122:7175  History storage newHistory = allHistory[currentIndex] */\n              swap1\n              pop\n                /* \"Transaction.sol\":7203:7216  paymentAmount */\n              sload(0x01)\n                /* \"Transaction.sol\":7185:7195  newHistory */\n              dup2\n                /* \"Transaction.sol\":7185:7200  newHistory.owed */\n              0x00\n              add\n                /* \"Transaction.sol\":7185:7216  newHistory.owed = paymentAmount */\n              dup2\n              swap1\n              sstore\n              pop\n                /* \"Transaction.sol\":7247:7257  paidAmount */\n              sload(0x02)\n                /* \"Transaction.sol\":7226:7236  newHistory */\n              dup2\n                /* \"Transaction.sol\":7226:7244  newHistory.howMuch */\n              0x01\n              add\n                /* \"Transaction.sol\":7226:7257  newHistory.howMuch = paidAmount */\n              dup2\n              swap1\n              sstore\n              pop\n                /* \"Transaction.sol\":7288:7293  false */\n              0x00\n                /* \"Transaction.sol\":7267:7277  newHistory */\n              dup2\n                /* \"Transaction.sol\":7267:7285  newHistory.initial */\n              0x02\n              add\n              0x00\n                /* \"Transaction.sol\":7267:7293  newHistory.initial = false */\n              0x0100\n              exp\n              dup2\n              sload\n              dup2\n              0xff\n              mul\n              not\n              and\n              swap1\n              dup4\n              iszero\n              iszero\n              mul\n              or\n              swap1\n              sstore\n              pop\n                /* \"Transaction.sol\":7322:7326  true */\n              0x01\n                /* \"Transaction.sol\":7303:7313  newHistory */\n              dup2\n                /* \"Transaction.sol\":7303:7319  newHistory.audit */\n              0x02\n              add\n              0x01\n                /* \"Transaction.sol\":7303:7326  newHistory.audit = true */\n              0x0100\n              exp\n              dup2\n              sload\n              dup2\n              0xff\n              mul\n              not\n              and\n              swap1\n              dup4\n              iszero\n              iszero\n              mul\n              or\n              swap1\n              sstore\n              pop\n                /* \"Transaction.sol\":7353:7358  false */\n              0x00\n                /* \"Transaction.sol\":7336:7346  newHistory */\n              dup2\n                /* \"Transaction.sol\":7336:7350  newHistory.end */\n              0x02\n              add\n              0x02\n                /* \"Transaction.sol\":7336:7358  newHistory.end = false */\n              0x0100\n              exp\n              dup2\n              sload\n              dup2\n              0xff\n              mul\n              not\n              and\n              swap1\n              dup4\n              iszero\n              iszero\n              mul\n              or\n              swap1\n              sstore\n              pop\n                /* \"Transaction.sol\":7389:7394  false */\n              0x00\n                /* \"Transaction.sol\":7368:7378  newHistory */\n              dup2\n                /* \"Transaction.sol\":7368:7386  newHistory.payment */\n              0x02\n              add\n              0x03\n                /* \"Transaction.sol\":7368:7394  newHistory.payment = false */\n              0x0100\n              exp\n              dup2\n              sload\n              dup2\n              0xff\n              mul\n              not\n              and\n              swap1\n              dup4\n              iszero\n              iszero\n              mul\n              or\n              swap1\n              sstore\n              pop\n                /* \"Transaction.sol\":7426:7431  false */\n              0x00\n                /* \"Transaction.sol\":7404:7414  newHistory */\n              dup2\n                /* \"Transaction.sol\":7404:7423  newHistory.monthEnd */\n              0x02\n              add\n              0x04\n                /* \"Transaction.sol\":7404:7431  newHistory.monthEnd = false */\n              0x0100\n              exp\n              dup2\n              sload\n              dup2\n              0xff\n              mul\n              not\n              and\n              swap1\n              dup4\n              iszero\n              iszero\n              mul\n              or\n              swap1\n              sstore\n              pop\n                /* \"Transaction.sol\":7464:7476  newTimeStamp */\n              dup2\n                /* \"Transaction.sol\":7441:7451  newHistory */\n              dup2\n                /* \"Transaction.sol\":7441:7461  newHistory.timeStamp */\n              0x03\n              add\n                /* \"Transaction.sol\":7441:7476  newHistory.timeStamp = newTimeStamp */\n              swap1\n              dup1\n              mload\n              swap1\n              0x20\n              add\n              swap1\n              tag_188\n              swap3\n              swap2\n              swap1\n              tag_189\n              jump\t// in\n            tag_188:\n              pop\n                /* \"Transaction.sol\":7486:7498  currentIndex */\n              0x14\n              0x00\n                /* \"Transaction.sol\":7486:7500  currentIndex++ */\n              dup2\n              sload\n              dup1\n              swap3\n              swap2\n              swap1\n              tag_190\n              swap1\n              tag_191\n              jump\t// in\n            tag_190:\n              swap2\n              swap1\n              pop\n              sstore\n              pop\n                /* \"Transaction.sol\":6903:7508  {... */\n              pop\n                /* \"Transaction.sol\":6841:7508  function audit(string memory newTimeStamp) public onlySupplier{... */\n              pop\n              jump\t// out\n                /* \"Transaction.sol\":5173:6711  function pay(string memory newTimeStamp, uint totalPayment) public payable onlyCustomer{... */\n            tag_99:\n                /* \"Transaction.sol\":3102:3110  customer */\n              0x07\n              0x00\n              swap1\n              sload\n              swap1\n              0x0100\n              exp\n              swap1\n              div\n              0xffffffffffffffffffffffffffffffffffffffff\n              and\n                /* \"Transaction.sol\":3088:3110  msg.sender == customer */\n              0xffffffffffffffffffffffffffffffffffffffff\n              and\n                /* \"Transaction.sol\":3088:3098  msg.sender */\n              caller\n                /* \"Transaction.sol\":3088:3110  msg.sender == customer */\n              0xffffffffffffffffffffffffffffffffffffffff\n              and\n              eq\n                /* \"Transaction.sol\":3080:3139  require(msg.sender == customer, \"You are not the customer\") */\n              tag_193\n              jumpi\n              mload(0x40)\n              0x08c379a000000000000000000000000000000000000000000000000000000000\n              dup2\n              mstore\n              0x04\n              add\n              tag_194\n              swap1\n              tag_173\n              jump\t// in\n            tag_194:\n              mload(0x40)\n              dup1\n              swap2\n              sub\n              swap1\n              revert\n            tag_193:\n                /* \"Transaction.sol\":5296:5300  true */\n              0x01\n                /* \"Transaction.sol\":5278:5300  tandc.accepted == true */\n              iszero\n              iszero\n                /* \"Transaction.sol\":5278:5283  tandc */\n              0x09\n                /* \"Transaction.sol\":5278:5292  tandc.accepted */\n              0x01\n              add\n              0x00\n              swap1\n              sload\n              swap1\n              0x0100\n              exp\n              swap1\n              div\n              0xff\n              and\n                /* \"Transaction.sol\":5278:5300  tandc.accepted == true */\n              iszero\n              iszero\n              eq\n                /* \"Transaction.sol\":5270:5331  require(tandc.accepted == true, \"The terms are not accepted\") */\n              tag_196\n              jumpi\n              mload(0x40)\n              0x08c379a000000000000000000000000000000000000000000000000000000000\n              dup2\n              mstore\n              0x04\n              add\n              tag_197\n              swap1\n              tag_198\n              jump\t// in\n            tag_197:\n              mload(0x40)\n              dup1\n              swap2\n              sub\n              swap1\n              revert\n            tag_196:\n                /* \"Transaction.sol\":5341:5353  uint payment */\n              0x00\n                /* \"Transaction.sol\":5356:5365  msg.value */\n              callvalue\n                /* \"Transaction.sol\":5341:5365  uint payment = msg.value */\n              swap1\n              pop\n                /* \"Transaction.sol\":5394:5407  paymentAmount */\n              sload(0x01)\n                /* \"Transaction.sol\":5383:5390  payment */\n              dup2\n                /* \"Transaction.sol\":5383:5407  payment <= paymentAmount */\n              gt\n              iszero\n                /* \"Transaction.sol\":5375:5465  require(payment <= paymentAmount, \"The amount entered is more than what needs to be paid\") */\n              tag_199\n              jumpi\n              mload(0x40)\n              0x08c379a000000000000000000000000000000000000000000000000000000000\n              dup2\n              mstore\n              0x04\n              add\n              tag_200\n              swap1\n              tag_201\n              jump\t// in\n            tag_200:\n              mload(0x40)\n              dup1\n              swap2\n              sub\n              swap1\n              revert\n            tag_199:\n                /* \"Transaction.sol\":5490:5497  payment */\n              dup1\n                /* \"Transaction.sol\":5476:5486  paidAmount */\n              0x02\n              0x00\n                /* \"Transaction.sol\":5476:5497  paidAmount += payment */\n              dup3\n              dup3\n              sload\n              tag_202\n              swap2\n              swap1\n              tag_203\n              jump\t// in\n            tag_202:\n              swap3\n              pop\n              pop\n              dup2\n              swap1\n              sstore\n              pop\n                /* \"Transaction.sol\":5524:5531  payment */\n              dup1\n                /* \"Transaction.sol\":5507:5520  paymentAmount */\n              0x01\n              0x00\n                /* \"Transaction.sol\":5507:5531  paymentAmount -= payment */\n              dup3\n              dup3\n              sload\n              tag_204\n              swap2\n              swap1\n              tag_205\n              jump\t// in\n            tag_204:\n              swap3\n              pop\n              pop\n              dup2\n              swap1\n              sstore\n              pop\n                /* \"Transaction.sol\":5560:5567  payment */\n              dup1\n                /* \"Transaction.sol\":5541:5556  totalPaidAmount */\n              0x03\n              0x00\n                /* \"Transaction.sol\":5541:5567  totalPaidAmount += payment */\n              dup3\n              dup3\n              sload\n              tag_206\n              swap2\n              swap1\n              tag_203\n              jump\t// in\n            tag_206:\n              swap3\n              pop\n              pop\n              dup2\n              swap1\n              sstore\n              pop\n                /* \"Transaction.sol\":5585:5593  supplier */\n              0x08\n              0x00\n              swap1\n              sload\n              swap1\n              0x0100\n              exp\n              swap1\n              div\n              0xffffffffffffffffffffffffffffffffffffffff\n              and\n                /* \"Transaction.sol\":5577:5603  payable(supplier).transfer */\n              0xffffffffffffffffffffffffffffffffffffffff\n              and\n                /* \"Transaction.sol\":5577:5612  payable(supplier).transfer(payment) */\n              0x08fc\n                /* \"Transaction.sol\":5604:5611  payment */\n              dup3\n                /* \"Transaction.sol\":5577:5612  payable(supplier).transfer(payment) */\n              swap1\n              dup2\n              iszero\n              mul\n              swap1\n              mload(0x40)\n              0x00\n              mload(0x40)\n              dup1\n              dup4\n              sub\n              dup2\n              dup6\n              dup9\n              dup9\n              call\n              swap4\n              pop\n              pop\n              pop\n              pop\n              iszero\n              dup1\n              iszero\n              tag_208\n              jumpi\n              returndatasize\n              0x00\n              dup1\n              returndatacopy\n              revert(0x00, returndatasize)\n            tag_208:\n              pop\n                /* \"Transaction.sol\":5623:5649  History storage newHistory */\n              0x00\n                /* \"Transaction.sol\":5652:5662  allHistory */\n              0x13\n                /* \"Transaction.sol\":5652:5676  allHistory[currentIndex] */\n              0x00\n                /* \"Transaction.sol\":5663:5675  currentIndex */\n              sload(0x14)\n                /* \"Transaction.sol\":5652:5676  allHistory[currentIndex] */\n              dup2\n              mstore\n              0x20\n              add\n              swap1\n              dup2\n              mstore\n              0x20\n              add\n              0x00\n              keccak256\n                /* \"Transaction.sol\":5623:5676  History storage newHistory = allHistory[currentIndex] */\n              swap1\n              pop\n                /* \"Transaction.sol\":5705:5718  paymentAmount */\n              sload(0x01)\n                /* \"Transaction.sol\":5687:5697  newHistory */\n              dup2\n                /* \"Transaction.sol\":5687:5702  newHistory.owed */\n              0x00\n              add\n                /* \"Transaction.sol\":5687:5718  newHistory.owed = paymentAmount */\n              dup2\n              swap1\n              sstore\n              pop\n                /* \"Transaction.sol\":5750:5757  payment */\n              dup2\n                /* \"Transaction.sol\":5729:5739  newHistory */\n              dup2\n                /* \"Transaction.sol\":5729:5747  newHistory.howMuch */\n              0x01\n              add\n                /* \"Transaction.sol\":5729:5757  newHistory.howMuch = payment */\n              dup2\n              swap1\n              sstore\n              pop\n                /* \"Transaction.sol\":5786:5791  false */\n              0x00\n                /* \"Transaction.sol\":5767:5777  newHistory */\n              dup2\n                /* \"Transaction.sol\":5767:5783  newHistory.audit */\n              0x02\n              add\n              0x01\n                /* \"Transaction.sol\":5767:5791  newHistory.audit = false */\n              0x0100\n              exp\n              dup2\n              sload\n              dup2\n              0xff\n              mul\n              not\n              and\n              swap1\n              dup4\n              iszero\n              iszero\n              mul\n              or\n              swap1\n              sstore\n              pop\n                /* \"Transaction.sol\":5822:5827  false */\n              0x00\n                /* \"Transaction.sol\":5801:5811  newHistory */\n              dup2\n                /* \"Transaction.sol\":5801:5819  newHistory.initial */\n              0x02\n              add\n              0x00\n                /* \"Transaction.sol\":5801:5827  newHistory.initial = false */\n              0x0100\n              exp\n              dup2\n              sload\n              dup2\n              0xff\n              mul\n              not\n              and\n              swap1\n              dup4\n              iszero\n              iszero\n              mul\n              or\n              swap1\n              sstore\n              pop\n                /* \"Transaction.sol\":5858:5862  true */\n              0x01\n                /* \"Transaction.sol\":5837:5847  newHistory */\n              dup2\n                /* \"Transaction.sol\":5837:5855  newHistory.payment */\n              0x02\n              add\n              0x03\n                /* \"Transaction.sol\":5837:5862  newHistory.payment = true */\n              0x0100\n              exp\n              dup2\n              sload\n              dup2\n              0xff\n              mul\n              not\n              and\n              swap1\n              dup4\n              iszero\n              iszero\n              mul\n              or\n              swap1\n              sstore\n              pop\n                /* \"Transaction.sol\":5894:5899  false */\n              0x00\n                /* \"Transaction.sol\":5872:5882  newHistory */\n              dup2\n                /* \"Transaction.sol\":5872:5891  newHistory.monthEnd */\n              0x02\n              add\n              0x04\n                /* \"Transaction.sol\":5872:5899  newHistory.monthEnd = false */\n              0x0100\n              exp\n              dup2\n              sload\n              dup2\n              0xff\n              mul\n              not\n              and\n              swap1\n              dup4\n              iszero\n              iszero\n              mul\n              or\n              swap1\n              sstore\n              pop\n                /* \"Transaction.sol\":5932:5944  newTimeStamp */\n              dup4\n                /* \"Transaction.sol\":5909:5919  newHistory */\n              dup2\n                /* \"Transaction.sol\":5909:5929  newHistory.timeStamp */\n              0x03\n              add\n                /* \"Transaction.sol\":5909:5944  newHistory.timeStamp = newTimeStamp */\n              swap1\n              dup1\n              mload\n              swap1\n              0x20\n              add\n              swap1\n              tag_209\n              swap3\n              swap2\n              swap1\n              tag_189\n              jump\t// in\n            tag_209:\n              pop\n                /* \"Transaction.sol\":5954:5966  currentIndex */\n              0x14\n              0x00\n                /* \"Transaction.sol\":5954:5968  currentIndex++ */\n              dup2\n              sload\n              dup1\n              swap3\n              swap2\n              swap1\n              tag_210\n              swap1\n              tag_191\n              jump\t// in\n            tag_210:\n              swap2\n              swap1\n              pop\n              sstore\n              pop\n                /* \"Transaction.sol\":5999:6000  0 */\n              0x00\n                /* \"Transaction.sol\":5982:5995  paymentAmount */\n              sload(0x01)\n                /* \"Transaction.sol\":5982:6000  paymentAmount == 0 */\n              eq\n                /* \"Transaction.sol\":5979:6465  if(paymentAmount == 0){... */\n              iszero\n              tag_211\n              jumpi\n                /* \"Transaction.sol\":6028:6055  History storage newHistory2 */\n              0x00\n                /* \"Transaction.sol\":6058:6068  allHistory */\n              0x13\n                /* \"Transaction.sol\":6058:6082  allHistory[currentIndex] */\n              0x00\n                /* \"Transaction.sol\":6069:6081  currentIndex */\n              sload(0x14)\n                /* \"Transaction.sol\":6058:6082  allHistory[currentIndex] */\n              dup2\n              mstore\n              0x20\n              add\n              swap1\n              dup2\n              mstore\n              0x20\n              add\n              0x00\n              keccak256\n                /* \"Transaction.sol\":6028:6082  History storage newHistory2 = allHistory[currentIndex] */\n              swap1\n              pop\n                /* \"Transaction.sol\":6112:6125  backUpPayment */\n              sload(0x00)\n                /* \"Transaction.sol\":6096:6109  paymentAmount */\n              0x01\n                /* \"Transaction.sol\":6096:6125  paymentAmount = backUpPayment */\n              dup2\n              swap1\n              sstore\n              pop\n                /* \"Transaction.sol\":6158:6171  paymentAmount */\n              sload(0x01)\n                /* \"Transaction.sol\":6139:6150  newHistory2 */\n              dup2\n                /* \"Transaction.sol\":6139:6155  newHistory2.owed */\n              0x00\n              add\n                /* \"Transaction.sol\":6139:6171  newHistory2.owed = paymentAmount */\n              dup2\n              swap1\n              sstore\n              pop\n                /* \"Transaction.sol\":6207:6214  payment */\n              dup3\n                /* \"Transaction.sol\":6185:6196  newHistory2 */\n              dup2\n                /* \"Transaction.sol\":6185:6204  newHistory2.howMuch */\n              0x01\n              add\n                /* \"Transaction.sol\":6185:6214  newHistory2.howMuch = payment */\n              dup2\n              swap1\n              sstore\n              pop\n                /* \"Transaction.sol\":6248:6253  false */\n              0x00\n                /* \"Transaction.sol\":6228:6239  newHistory2 */\n              dup2\n                /* \"Transaction.sol\":6228:6245  newHistory2.audit */\n              0x02\n              add\n              0x01\n                /* \"Transaction.sol\":6228:6253  newHistory2.audit = false */\n              0x0100\n              exp\n              dup2\n              sload\n              dup2\n              0xff\n              mul\n              not\n              and\n              swap1\n              dup4\n              iszero\n              iszero\n              mul\n              or\n              swap1\n              sstore\n              pop\n                /* \"Transaction.sol\":6289:6294  false */\n              0x00\n                /* \"Transaction.sol\":6267:6278  newHistory2 */\n              dup2\n                /* \"Transaction.sol\":6267:6286  newHistory2.initial */\n              0x02\n              add\n              0x00\n                /* \"Transaction.sol\":6267:6294  newHistory2.initial = false */\n              0x0100\n              exp\n              dup2\n              sload\n              dup2\n              0xff\n              mul\n              not\n              and\n              swap1\n              dup4\n              iszero\n              iszero\n              mul\n              or\n              swap1\n              sstore\n              pop\n                /* \"Transaction.sol\":6330:6335  false */\n              0x00\n                /* \"Transaction.sol\":6308:6319  newHistory2 */\n              dup2\n                /* \"Transaction.sol\":6308:6327  newHistory2.payment */\n              0x02\n              add\n              0x03\n                /* \"Transaction.sol\":6308:6335  newHistory2.payment = false */\n              0x0100\n              exp\n              dup2\n              sload\n              dup2\n              0xff\n              mul\n              not\n              and\n              swap1\n              dup4\n              iszero\n              iszero\n              mul\n              or\n              swap1\n              sstore\n              pop\n                /* \"Transaction.sol\":6372:6376  true */\n              0x01\n                /* \"Transaction.sol\":6349:6360  newHistory2 */\n              dup2\n                /* \"Transaction.sol\":6349:6369  newHistory2.monthEnd */\n              0x02\n              add\n              0x04\n                /* \"Transaction.sol\":6349:6376  newHistory2.monthEnd = true */\n              0x0100\n              exp\n              dup2\n              sload\n              dup2\n              0xff\n              mul\n              not\n              and\n              swap1\n              dup4\n              iszero\n              iszero\n              mul\n              or\n              swap1\n              sstore\n              pop\n                /* \"Transaction.sol\":6414:6426  newTimeStamp */\n              dup5\n                /* \"Transaction.sol\":6390:6401  newHistory2 */\n              dup2\n                /* \"Transaction.sol\":6390:6411  newHistory2.timeStamp */\n              0x03\n              add\n                /* \"Transaction.sol\":6390:6426  newHistory2.timeStamp = newTimeStamp */\n              swap1\n              dup1\n              mload\n              swap1\n              0x20\n              add\n              swap1\n              tag_212\n              swap3\n              swap2\n              swap1\n              tag_189\n              jump\t// in\n            tag_212:\n              pop\n                /* \"Transaction.sol\":6440:6452  currentIndex */\n              0x14\n              0x00\n                /* \"Transaction.sol\":6440:6454  currentIndex++ */\n              dup2\n              sload\n              dup1\n              swap3\n              swap2\n              swap1\n              tag_213\n              swap1\n              tag_191\n              jump\t// in\n            tag_213:\n              swap2\n              swap1\n              pop\n              sstore\n              pop\n                /* \"Transaction.sol\":6001:6465  {... */\n              pop\n                /* \"Transaction.sol\":5979:6465  if(paymentAmount == 0){... */\n            tag_211:\n                /* \"Transaction.sol\":6497:6509  totalPayment */\n              dup3\n                /* \"Transaction.sol\":6478:6493  totalPaidAmount */\n              sload(0x03)\n                /* \"Transaction.sol\":6478:6509  totalPaidAmount == totalPayment */\n              eq\n                /* \"Transaction.sol\":6475:6661  if(totalPaidAmount == totalPayment){... */\n              iszero\n              tag_214\n              jumpi\n                /* \"Transaction.sol\":6531:6535  true */\n              0x01\n                /* \"Transaction.sol\":6524:6528  paid */\n              0x08\n              0x14\n                /* \"Transaction.sol\":6524:6535  paid = true */\n              0x0100\n              exp\n              dup2\n              sload\n              dup2\n              0xff\n              mul\n              not\n              and\n              swap1\n              dup4\n              iszero\n              iszero\n              mul\n              or\n              swap1\n              sstore\n              pop\n                /* \"Transaction.sol\":6559:6564  false */\n              0x00\n                /* \"Transaction.sol\":6549:6556  audited */\n              0x08\n              0x15\n                /* \"Transaction.sol\":6549:6564  audited = false */\n              0x0100\n              exp\n              dup2\n              sload\n              dup2\n              0xff\n              mul\n              not\n              and\n              swap1\n              dup4\n              iszero\n              iszero\n              mul\n              or\n              swap1\n              sstore\n              pop\n                /* \"Transaction.sol\":6595:6599  true */\n              0x01\n                /* \"Transaction.sol\":6578:6588  newHistory */\n              dup2\n                /* \"Transaction.sol\":6578:6592  newHistory.end */\n              0x02\n              add\n              0x02\n                /* \"Transaction.sol\":6578:6599  newHistory.end = true */\n              0x0100\n              exp\n              dup2\n              sload\n              dup2\n              0xff\n              mul\n              not\n              and\n              swap1\n              dup4\n              iszero\n              iszero\n              mul\n              or\n              swap1\n              sstore\n              pop\n                /* \"Transaction.sol\":6475:6661  if(totalPaidAmount == totalPayment){... */\n              jump(tag_215)\n            tag_214:\n                /* \"Transaction.sol\":6645:6650  false */\n              0x00\n                /* \"Transaction.sol\":6628:6638  newHistory */\n              dup2\n                /* \"Transaction.sol\":6628:6642  newHistory.end */\n              0x02\n              add\n              0x02\n                /* \"Transaction.sol\":6628:6650  newHistory.end = false */\n              0x0100\n              exp\n              dup2\n              sload\n              dup2\n              0xff\n              mul\n              not\n              and\n              swap1\n              dup4\n              iszero\n              iszero\n              mul\n              or\n              swap1\n              sstore\n              pop\n                /* \"Transaction.sol\":6475:6661  if(totalPaidAmount == totalPayment){... */\n            tag_215:\n                /* \"Transaction.sol\":6698:6703  false */\n              0x00\n                /* \"Transaction.sol\":6688:6695  audited */\n              0x08\n              0x15\n                /* \"Transaction.sol\":6688:6703  audited = false */\n              0x0100\n              exp\n              dup2\n              sload\n              dup2\n              0xff\n              mul\n              not\n              and\n              swap1\n              dup4\n              iszero\n              iszero\n              mul\n              or\n              swap1\n              sstore\n              pop\n                /* \"Transaction.sol\":5260:6711  {... */\n              pop\n              pop\n                /* \"Transaction.sol\":5173:6711  function pay(string memory newTimeStamp, uint totalPayment) public payable onlyCustomer{... */\n              pop\n              pop\n              jump\t// out\n                /* \"Transaction.sol\":8482:8571  function getHistoryCount() public view returns (uint){... */\n            tag_102:\n                /* \"Transaction.sol\":8530:8534  uint */\n              0x00\n                /* \"Transaction.sol\":8552:8564  currentIndex */\n              sload(0x14)\n                /* \"Transaction.sol\":8545:8564  return currentIndex */\n              swap1\n              pop\n                /* \"Transaction.sol\":8482:8571  function getHistoryCount() public view returns (uint){... */\n              swap1\n              jump\t// out\n                /* \"Transaction.sol\":2341:2372  uint public totalPaidAmount = 0 */\n            tag_106:\n              sload(0x03)\n              dup2\n              jump\t// out\n                /* \"Transaction.sol\":2278:2303  uint public paymentAmount */\n            tag_110:\n              sload(0x01)\n              dup2\n              jump\t// out\n                /* \"Transaction.sol\":2415:2441  string public customerName */\n            tag_114:\n              0x05\n              dup1\n              sload\n              tag_217\n              swap1\n              tag_129\n              jump\t// in\n            tag_217:\n              dup1\n              0x1f\n              add\n              0x20\n              dup1\n              swap2\n              div\n              mul\n              0x20\n              add\n              mload(0x40)\n              swap1\n              dup2\n              add\n              0x40\n              mstore\n              dup1\n              swap3\n              swap2\n              swap1\n              dup2\n              dup2\n              mstore\n              0x20\n              add\n              dup3\n              dup1\n              sload\n              tag_218\n              swap1\n              tag_129\n              jump\t// in\n            tag_218:\n              dup1\n              iszero\n              tag_219\n              jumpi\n              dup1\n              0x1f\n              lt\n              tag_220\n              jumpi\n              0x0100\n              dup1\n              dup4\n              sload\n              div\n              mul\n              dup4\n              mstore\n              swap2\n              0x20\n              add\n              swap2\n              jump(tag_219)\n            tag_220:\n              dup3\n              add\n              swap2\n              swap1\n              0x00\n              mstore\n              keccak256(0x00, 0x20)\n              swap1\n            tag_221:\n              dup2\n              sload\n              dup2\n              mstore\n              swap1\n              0x01\n              add\n              swap1\n              0x20\n              add\n              dup1\n              dup4\n              gt\n              tag_221\n              jumpi\n              dup3\n              swap1\n              sub\n              0x1f\n              and\n              dup3\n              add\n              swap2\n            tag_219:\n              pop\n              pop\n              pop\n              pop\n              pop\n              dup2\n              jump\t// out\n                /* \"Transaction.sol\":2622:2652  bool public accaptable = false */\n            tag_118:\n              0x08\n              0x16\n              swap1\n              sload\n              swap1\n              0x0100\n              exp\n              swap1\n              div\n              0xff\n              and\n              dup2\n              jump\t// out\n                /* \"Transaction.sol\":4941:5117  function forfeitTerms() public onlyCustomer onlySupplier{... */\n            tag_122:\n                /* \"Transaction.sol\":3102:3110  customer */\n              0x07\n              0x00\n              swap1\n              sload\n              swap1\n              0x0100\n              exp\n              swap1\n              div\n              0xffffffffffffffffffffffffffffffffffffffff\n              and\n                /* \"Transaction.sol\":3088:3110  msg.sender == customer */\n              0xffffffffffffffffffffffffffffffffffffffff\n              and\n                /* \"Transaction.sol\":3088:3098  msg.sender */\n              caller\n                /* \"Transaction.sol\":3088:3110  msg.sender == customer */\n              0xffffffffffffffffffffffffffffffffffffffff\n              and\n              eq\n                /* \"Transaction.sol\":3080:3139  require(msg.sender == customer, \"You are not the customer\") */\n              tag_223\n              jumpi\n              mload(0x40)\n              0x08c379a000000000000000000000000000000000000000000000000000000000\n              dup2\n              mstore\n              0x04\n              add\n              tag_224\n              swap1\n              tag_173\n              jump\t// in\n            tag_224:\n              mload(0x40)\n              dup1\n              swap2\n              sub\n              swap1\n              revert\n            tag_223:\n                /* \"Transaction.sol\":2953:2961  supplier */\n              0x08\n              0x00\n              swap1\n              sload\n              swap1\n              0x0100\n              exp\n              swap1\n              div\n              0xffffffffffffffffffffffffffffffffffffffff\n              and\n                /* \"Transaction.sol\":2939:2961  msg.sender == supplier */\n              0xffffffffffffffffffffffffffffffffffffffff\n              and\n                /* \"Transaction.sol\":2939:2949  msg.sender */\n              caller\n                /* \"Transaction.sol\":2939:2961  msg.sender == supplier */\n              0xffffffffffffffffffffffffffffffffffffffff\n              and\n              eq\n                /* \"Transaction.sol\":2931:2990  require(msg.sender == supplier, \"You are not the supplier\") */\n              tag_226\n              jumpi\n              mload(0x40)\n              0x08c379a000000000000000000000000000000000000000000000000000000000\n              dup2\n              mstore\n              0x04\n              add\n              tag_227\n              swap1\n              tag_163\n              jump\t// in\n            tag_227:\n              mload(0x40)\n              dup1\n              swap2\n              sub\n              swap1\n              revert\n            tag_226:\n                /* \"Transaction.sol\":5033:5037  true */\n              0x01\n                /* \"Transaction.sol\":5015:5037  tandc.accepted == true */\n              iszero\n              iszero\n                /* \"Transaction.sol\":5015:5020  tandc */\n              0x09\n                /* \"Transaction.sol\":5015:5029  tandc.accepted */\n              0x01\n              add\n              0x00\n              swap1\n              sload\n              swap1\n              0x0100\n              exp\n              swap1\n              div\n              0xff\n              and\n                /* \"Transaction.sol\":5015:5037  tandc.accepted == true */\n              iszero\n              iszero\n              eq\n                /* \"Transaction.sol\":5007:5078  require(tandc.accepted == true, \"You can't forfeit non accepted terms\") */\n              tag_229\n              jumpi\n              mload(0x40)\n              0x08c379a000000000000000000000000000000000000000000000000000000000\n              dup2\n              mstore\n              0x04\n              add\n              tag_230\n              swap1\n              tag_231\n              jump\t// in\n            tag_230:\n              mload(0x40)\n              dup1\n              swap2\n              sub\n              swap1\n              revert\n            tag_229:\n                /* \"Transaction.sol\":5105:5110  false */\n              0x00\n                /* \"Transaction.sol\":5088:5093  tandc */\n              0x09\n                /* \"Transaction.sol\":5088:5102  tandc.accepted */\n              0x01\n              add\n              0x00\n                /* \"Transaction.sol\":5088:5110  tandc.accepted = false */\n              0x0100\n              exp\n              dup2\n              sload\n              dup2\n              0xff\n              mul\n              not\n              and\n              swap1\n              dup4\n              iszero\n              iszero\n              mul\n              or\n              swap1\n              sstore\n              pop\n                /* \"Transaction.sol\":4941:5117  function forfeitTerms() public onlyCustomer onlySupplier{... */\n              jump\t// out\n                /* \"Transaction.sol\":8169:8476  function getTermsSummary() public view returns(... */\n            tag_125:\n                /* \"Transaction.sol\":8225:8240  string[] memory */\n              0x60\n                /* \"Transaction.sol\":8242:8246  bool */\n              0x00\n                /* \"Transaction.sol\":8248:8276  SharedStruct.DateTime memory */\n              tag_232\n              tag_233\n              jump\t// in\n            tag_232:\n                /* \"Transaction.sol\":8286:8314  SharedStruct.DateTime memory */\n              tag_234\n              tag_233\n              jump\t// in\n            tag_234:\n                /* \"Transaction.sol\":8352:8357  tandc */\n              0x09\n                /* \"Transaction.sol\":8352:8366  tandc.allTerms */\n              0x00\n              add\n                /* \"Transaction.sol\":8380:8385  tandc */\n              0x09\n                /* \"Transaction.sol\":8380:8394  tandc.accepted */\n              0x01\n              add\n              0x00\n              swap1\n              sload\n              swap1\n              0x0100\n              exp\n              swap1\n              div\n              0xff\n              and\n                /* \"Transaction.sol\":8408:8413  tandc */\n              0x09\n                /* \"Transaction.sol\":8408:8423  tandc.startDate */\n              0x02\n              add\n                /* \"Transaction.sol\":8437:8442  tandc */\n              0x09\n                /* \"Transaction.sol\":8437:8450  tandc.endDate */\n              0x05\n              add\n                /* \"Transaction.sol\":8331:8460  return (... */\n              dup4\n              dup1\n              sload\n              dup1\n              0x20\n              mul\n              0x20\n              add\n              mload(0x40)\n              swap1\n              dup2\n              add\n              0x40\n              mstore\n              dup1\n              swap3\n              swap2\n              swap1\n              dup2\n              dup2\n              mstore\n              0x20\n              add\n              0x00\n              swap1\n            tag_236:\n              dup3\n              dup3\n              lt\n              iszero\n              tag_237\n              jumpi\n              dup4\n              dup3\n              swap1\n              0x00\n              mstore\n              keccak256(0x00, 0x20)\n              add\n              dup1\n              sload\n              tag_239\n              swap1\n              tag_129\n              jump\t// in\n            tag_239:\n              dup1\n              0x1f\n              add\n              0x20\n              dup1\n              swap2\n              div\n              mul\n              0x20\n              add\n              mload(0x40)\n              swap1\n              dup2\n              add\n              0x40\n              mstore\n              dup1\n              swap3\n              swap2\n              swap1\n              dup2\n              dup2\n              mstore\n              0x20\n              add\n              dup3\n              dup1\n              sload\n              tag_240\n              swap1\n              tag_129\n              jump\t// in\n            tag_240:\n              dup1\n              iszero\n              tag_241\n              jumpi\n              dup1\n              0x1f\n              lt\n              tag_242\n              jumpi\n              0x0100\n              dup1\n              dup4\n              sload\n              div\n              mul\n              dup4\n              mstore\n              swap2\n              0x20\n              add\n              swap2\n              jump(tag_241)\n            tag_242:\n              dup3\n              add\n              swap2\n              swap1\n              0x00\n              mstore\n              keccak256(0x00, 0x20)\n              swap1\n            tag_243:\n              dup2\n              sload\n              dup2\n              mstore\n              swap1\n              0x01\n              add\n              swap1\n              0x20\n              add\n              dup1\n              dup4\n              gt\n              tag_243\n              jumpi\n              dup3\n              swap1\n              sub\n              0x1f\n              and\n              dup3\n              add\n              swap2\n            tag_241:\n              pop\n              pop\n              pop\n              pop\n              pop\n              dup2\n              mstore\n              0x20\n              add\n              swap1\n              0x01\n              add\n              swap1\n              jump(tag_236)\n            tag_237:\n              pop\n              pop\n              pop\n              pop\n              swap4\n              pop\n              dup2\n              mload(0x40)\n              dup1\n              0x60\n              add\n              0x40\n              mstore\n              swap1\n              dup2\n              0x00\n              dup3\n              add\n              sload\n              dup2\n              mstore\n              0x20\n              add\n              0x01\n              dup3\n              add\n              sload\n              dup2\n              mstore\n              0x20\n              add\n              0x02\n              dup3\n              add\n              sload\n              dup2\n              mstore\n              pop\n              pop\n              swap2\n              pop\n              dup1\n              mload(0x40)\n              dup1\n              0x60\n              add\n              0x40\n              mstore\n              swap1\n              dup2\n              0x00\n              dup3\n              add\n              sload\n              dup2\n              mstore\n              0x20\n              add\n              0x01\n              dup3\n              add\n              sload\n              dup2\n              mstore\n              0x20\n              add\n              0x02\n              dup3\n              add\n              sload\n              dup2\n              mstore\n              pop\n              pop\n              swap1\n              pop\n              swap4\n              pop\n              swap4\n              pop\n              swap4\n              pop\n              swap4\n              pop\n                /* \"Transaction.sol\":8169:8476  function getTermsSummary() public view returns(... */\n              swap1\n              swap2\n              swap3\n              swap4\n              jump\t// out\n            tag_189:\n              dup3\n              dup1\n              sload\n              tag_244\n              swap1\n              tag_129\n              jump\t// in\n            tag_244:\n              swap1\n              0x00\n              mstore\n              keccak256(0x00, 0x20)\n              swap1\n              0x1f\n              add\n              0x20\n              swap1\n              div\n              dup2\n              add\n              swap3\n              dup3\n              tag_246\n              jumpi\n              0x00\n              dup6\n              sstore\n              jump(tag_245)\n            tag_246:\n              dup3\n              0x1f\n              lt\n              tag_247\n              jumpi\n              dup1\n              mload\n              not(0xff)\n              and\n              dup4\n              dup1\n              add\n              or\n              dup6\n              sstore\n              jump(tag_245)\n            tag_247:\n              dup3\n              dup1\n              add\n              0x01\n              add\n              dup6\n              sstore\n              dup3\n              iszero\n              tag_245\n              jumpi\n              swap2\n              dup3\n              add\n            tag_248:\n              dup3\n              dup2\n              gt\n              iszero\n              tag_249\n              jumpi\n              dup3\n              mload\n              dup3\n              sstore\n              swap2\n              0x20\n              add\n              swap2\n              swap1\n              0x01\n              add\n              swap1\n              jump(tag_248)\n            tag_249:\n            tag_245:\n              pop\n              swap1\n              pop\n              tag_250\n              swap2\n              swap1\n              tag_251\n              jump\t// in\n            tag_250:\n              pop\n              swap1\n              jump\t// out\n            tag_233:\n              mload(0x40)\n              dup1\n              0x60\n              add\n              0x40\n              mstore\n              dup1\n              0x00\n              dup2\n              mstore\n              0x20\n              add\n              0x00\n              dup2\n              mstore\n              0x20\n              add\n              0x00\n              dup2\n              mstore\n              pop\n              swap1\n              jump\t// out\n            tag_251:\n            tag_252:\n              dup1\n              dup3\n              gt\n              iszero\n              tag_253\n              jumpi\n              0x00\n              dup2\n              0x00\n              swap1\n              sstore\n              pop\n              0x01\n              add\n              jump(tag_252)\n            tag_253:\n              pop\n              swap1\n              jump\t// out\n                /* \"#utility.yul\":7:106   */\n            tag_254:\n                /* \"#utility.yul\":59:65   */\n              0x00\n                /* \"#utility.yul\":93:98   */\n              dup2\n                /* \"#utility.yul\":87:99   */\n              mload\n                /* \"#utility.yul\":77:99   */\n              swap1\n              pop\n                /* \"#utility.yul\":7:106   */\n              swap2\n              swap1\n              pop\n              jump\t// out\n                /* \"#utility.yul\":112:281   */\n            tag_255:\n                /* \"#utility.yul\":196:207   */\n              0x00\n                /* \"#utility.yul\":230:236   */\n              dup3\n                /* \"#utility.yul\":225:228   */\n              dup3\n                /* \"#utility.yul\":218:237   */\n              mstore\n                /* \"#utility.yul\":270:274   */\n              0x20\n                /* \"#utility.yul\":265:268   */\n              dup3\n                /* \"#utility.yul\":261:275   */\n              add\n                /* \"#utility.yul\":246:275   */\n              swap1\n              pop\n                /* \"#utility.yul\":112:281   */\n              swap3\n              swap2\n              pop\n              pop\n              jump\t// out\n                /* \"#utility.yul\":287:594   */\n            tag_256:\n                /* \"#utility.yul\":355:356   */\n              0x00\n                /* \"#utility.yul\":365:478   */\n            tag_312:\n                /* \"#utility.yul\":379:385   */\n              dup4\n                /* \"#utility.yul\":376:377   */\n              dup2\n                /* \"#utility.yul\":373:386   */\n              lt\n                /* \"#utility.yul\":365:478   */\n              iszero\n              tag_314\n              jumpi\n                /* \"#utility.yul\":464:465   */\n              dup1\n                /* \"#utility.yul\":459:462   */\n              dup3\n                /* \"#utility.yul\":455:466   */\n              add\n                /* \"#utility.yul\":449:467   */\n              mload\n                /* \"#utility.yul\":445:446   */\n              dup2\n                /* \"#utility.yul\":440:443   */\n              dup5\n                /* \"#utility.yul\":436:447   */\n              add\n                /* \"#utility.yul\":429:468   */\n              mstore\n                /* \"#utility.yul\":401:403   */\n              0x20\n                /* \"#utility.yul\":398:399   */\n              dup2\n                /* \"#utility.yul\":394:404   */\n              add\n                /* \"#utility.yul\":389:404   */\n              swap1\n              pop\n                /* \"#utility.yul\":365:478   */\n              jump(tag_312)\n            tag_314:\n                /* \"#utility.yul\":496:502   */\n              dup4\n                /* \"#utility.yul\":493:494   */\n              dup2\n                /* \"#utility.yul\":490:503   */\n              gt\n                /* \"#utility.yul\":487:588   */\n              iszero\n              tag_315\n              jumpi\n                /* \"#utility.yul\":576:577   */\n              0x00\n                /* \"#utility.yul\":567:573   */\n              dup5\n                /* \"#utility.yul\":562:565   */\n              dup5\n                /* \"#utility.yul\":558:574   */\n              add\n                /* \"#utility.yul\":551:578   */\n              mstore\n                /* \"#utility.yul\":487:588   */\n            tag_315:\n                /* \"#utility.yul\":336:594   */\n              pop\n                /* \"#utility.yul\":287:594   */\n              pop\n              pop\n              pop\n              jump\t// out\n                /* \"#utility.yul\":600:702   */\n            tag_257:\n                /* \"#utility.yul\":641:647   */\n              0x00\n                /* \"#utility.yul\":692:694   */\n              0x1f\n                /* \"#utility.yul\":688:695   */\n              not\n                /* \"#utility.yul\":683:685   */\n              0x1f\n                /* \"#utility.yul\":676:681   */\n              dup4\n                /* \"#utility.yul\":672:686   */\n              add\n                /* \"#utility.yul\":668:696   */\n              and\n                /* \"#utility.yul\":658:696   */\n              swap1\n              pop\n                /* \"#utility.yul\":600:702   */\n              swap2\n              swap1\n              pop\n              jump\t// out\n                /* \"#utility.yul\":708:1072   */\n            tag_258:\n                /* \"#utility.yul\":796:799   */\n              0x00\n                /* \"#utility.yul\":824:863   */\n              tag_318\n                /* \"#utility.yul\":857:862   */\n              dup3\n                /* \"#utility.yul\":824:863   */\n              tag_254\n              jump\t// in\n            tag_318:\n                /* \"#utility.yul\":879:950   */\n              tag_319\n                /* \"#utility.yul\":943:949   */\n              dup2\n                /* \"#utility.yul\":938:941   */\n              dup6\n                /* \"#utility.yul\":879:950   */\n              tag_255\n              jump\t// in\n            tag_319:\n                /* \"#utility.yul\":872:950   */\n              swap4\n              pop\n                /* \"#utility.yul\":959:1011   */\n              tag_320\n                /* \"#utility.yul\":1004:1010   */\n              dup2\n                /* \"#utility.yul\":999:1002   */\n              dup6\n                /* \"#utility.yul\":992:996   */\n              0x20\n                /* \"#utility.yul\":985:990   */\n              dup7\n                /* \"#utility.yul\":981:997   */\n              add\n                /* \"#utility.yul\":959:1011   */\n              tag_256\n              jump\t// in\n            tag_320:\n                /* \"#utility.yul\":1036:1065   */\n              tag_321\n                /* \"#utility.yul\":1058:1064   */\n              dup2\n                /* \"#utility.yul\":1036:1065   */\n              tag_257\n              jump\t// in\n            tag_321:\n                /* \"#utility.yul\":1031:1034   */\n              dup5\n                /* \"#utility.yul\":1027:1066   */\n              add\n                /* \"#utility.yul\":1020:1066   */\n              swap2\n              pop\n                /* \"#utility.yul\":800:1072   */\n              pop\n                /* \"#utility.yul\":708:1072   */\n              swap3\n              swap2\n              pop\n              pop\n              jump\t// out\n                /* \"#utility.yul\":1078:1391   */\n            tag_32:\n                /* \"#utility.yul\":1191:1195   */\n              0x00\n                /* \"#utility.yul\":1229:1231   */\n              0x20\n                /* \"#utility.yul\":1218:1227   */\n              dup3\n                /* \"#utility.yul\":1214:1232   */\n              add\n                /* \"#utility.yul\":1206:1232   */\n              swap1\n              pop\n                /* \"#utility.yul\":1278:1287   */\n              dup2\n                /* \"#utility.yul\":1272:1276   */\n              dup2\n                /* \"#utility.yul\":1268:1288   */\n              sub\n                /* \"#utility.yul\":1264:1265   */\n              0x00\n                /* \"#utility.yul\":1253:1262   */\n              dup4\n                /* \"#utility.yul\":1249:1266   */\n              add\n                /* \"#utility.yul\":1242:1289   */\n              mstore\n                /* \"#utility.yul\":1306:1384   */\n              tag_323\n                /* \"#utility.yul\":1379:1383   */\n              dup2\n                /* \"#utility.yul\":1370:1376   */\n              dup5\n                /* \"#utility.yul\":1306:1384   */\n              tag_258\n              jump\t// in\n            tag_323:\n                /* \"#utility.yul\":1298:1384   */\n              swap1\n              pop\n                /* \"#utility.yul\":1078:1391   */\n              swap3\n              swap2\n              pop\n              pop\n              jump\t// out\n                /* \"#utility.yul\":1397:1487   */\n            tag_259:\n                /* \"#utility.yul\":1431:1438   */\n              0x00\n                /* \"#utility.yul\":1474:1479   */\n              dup2\n                /* \"#utility.yul\":1467:1480   */\n              iszero\n                /* \"#utility.yul\":1460:1481   */\n              iszero\n                /* \"#utility.yul\":1449:1481   */\n              swap1\n              pop\n                /* \"#utility.yul\":1397:1487   */\n              swap2\n              swap1\n              pop\n              jump\t// out\n                /* \"#utility.yul\":1493:1602   */\n            tag_260:\n                /* \"#utility.yul\":1574:1595   */\n              tag_326\n                /* \"#utility.yul\":1589:1594   */\n              dup2\n                /* \"#utility.yul\":1574:1595   */\n              tag_259\n              jump\t// in\n            tag_326:\n                /* \"#utility.yul\":1569:1572   */\n              dup3\n                /* \"#utility.yul\":1562:1596   */\n              mstore\n                /* \"#utility.yul\":1493:1602   */\n              pop\n              pop\n              jump\t// out\n                /* \"#utility.yul\":1608:1685   */\n            tag_261:\n                /* \"#utility.yul\":1645:1652   */\n              0x00\n                /* \"#utility.yul\":1674:1679   */\n              dup2\n                /* \"#utility.yul\":1663:1679   */\n              swap1\n              pop\n                /* \"#utility.yul\":1608:1685   */\n              swap2\n              swap1\n              pop\n              jump\t// out\n                /* \"#utility.yul\":1691:1799   */\n            tag_262:\n                /* \"#utility.yul\":1768:1792   */\n              tag_329\n                /* \"#utility.yul\":1786:1791   */\n              dup2\n                /* \"#utility.yul\":1768:1792   */\n              tag_261\n              jump\t// in\n            tag_329:\n                /* \"#utility.yul\":1763:1766   */\n              dup3\n                /* \"#utility.yul\":1756:1793   */\n              mstore\n                /* \"#utility.yul\":1691:1799   */\n              pop\n              pop\n              jump\t// out\n                /* \"#utility.yul\":1873:2550   */\n            tag_263:\n                /* \"#utility.yul\":2016:2020   */\n              0x60\n                /* \"#utility.yul\":2011:2014   */\n              dup3\n                /* \"#utility.yul\":2007:2021   */\n              add\n                /* \"#utility.yul\":2103:2107   */\n              0x00\n                /* \"#utility.yul\":2096:2101   */\n              dup3\n                /* \"#utility.yul\":2092:2108   */\n              add\n                /* \"#utility.yul\":2086:2109   */\n              mload\n                /* \"#utility.yul\":2122:2185   */\n              tag_331\n                /* \"#utility.yul\":2179:2183   */\n              0x00\n                /* \"#utility.yul\":2174:2177   */\n              dup6\n                /* \"#utility.yul\":2170:2184   */\n              add\n                /* \"#utility.yul\":2156:2168   */\n              dup3\n                /* \"#utility.yul\":2122:2185   */\n              tag_262\n              jump\t// in\n            tag_331:\n                /* \"#utility.yul\":2031:2195   */\n              pop\n                /* \"#utility.yul\":2278:2282   */\n              0x20\n                /* \"#utility.yul\":2271:2276   */\n              dup3\n                /* \"#utility.yul\":2267:2283   */\n              add\n                /* \"#utility.yul\":2261:2284   */\n              mload\n                /* \"#utility.yul\":2297:2360   */\n              tag_332\n                /* \"#utility.yul\":2354:2358   */\n              0x20\n                /* \"#utility.yul\":2349:2352   */\n              dup6\n                /* \"#utility.yul\":2345:2359   */\n              add\n                /* \"#utility.yul\":2331:2343   */\n              dup3\n                /* \"#utility.yul\":2297:2360   */\n              tag_262\n              jump\t// in\n            tag_332:\n                /* \"#utility.yul\":2205:2370   */\n              pop\n                /* \"#utility.yul\":2451:2455   */\n              0x40\n                /* \"#utility.yul\":2444:2449   */\n              dup3\n                /* \"#utility.yul\":2440:2456   */\n              add\n                /* \"#utility.yul\":2434:2457   */\n              mload\n                /* \"#utility.yul\":2470:2533   */\n              tag_333\n                /* \"#utility.yul\":2527:2531   */\n              0x40\n                /* \"#utility.yul\":2522:2525   */\n              dup6\n                /* \"#utility.yul\":2518:2532   */\n              add\n                /* \"#utility.yul\":2504:2516   */\n              dup3\n                /* \"#utility.yul\":2470:2533   */\n              tag_262\n              jump\t// in\n            tag_333:\n                /* \"#utility.yul\":2380:2543   */\n              pop\n                /* \"#utility.yul\":1985:2550   */\n              pop\n                /* \"#utility.yul\":1873:2550   */\n              pop\n              pop\n              jump\t// out\n                /* \"#utility.yul\":2556:3271   */\n            tag_37:\n                /* \"#utility.yul\":2813:2817   */\n              0x00\n                /* \"#utility.yul\":2851:2854   */\n              0x0100\n                /* \"#utility.yul\":2840:2849   */\n              dup3\n                /* \"#utility.yul\":2836:2855   */\n              add\n                /* \"#utility.yul\":2828:2855   */\n              swap1\n              pop\n                /* \"#utility.yul\":2865:2930   */\n              tag_335\n                /* \"#utility.yul\":2927:2928   */\n              0x00\n                /* \"#utility.yul\":2916:2925   */\n              dup4\n                /* \"#utility.yul\":2912:2929   */\n              add\n                /* \"#utility.yul\":2903:2909   */\n              dup8\n                /* \"#utility.yul\":2865:2930   */\n              tag_260\n              jump\t// in\n            tag_335:\n                /* \"#utility.yul\":2940:3058   */\n              tag_336\n                /* \"#utility.yul\":3054:3056   */\n              0x20\n                /* \"#utility.yul\":3043:3052   */\n              dup4\n                /* \"#utility.yul\":3039:3057   */\n              add\n                /* \"#utility.yul\":3030:3036   */\n              dup7\n                /* \"#utility.yul\":2940:3058   */\n              tag_263\n              jump\t// in\n            tag_336:\n                /* \"#utility.yul\":3068:3187   */\n              tag_337\n                /* \"#utility.yul\":3182:3185   */\n              0x80\n                /* \"#utility.yul\":3171:3180   */\n              dup4\n                /* \"#utility.yul\":3167:3186   */\n              add\n                /* \"#utility.yul\":3158:3164   */\n              dup6\n                /* \"#utility.yul\":3068:3187   */\n              tag_263\n              jump\t// in\n            tag_337:\n                /* \"#utility.yul\":3197:3264   */\n              tag_338\n                /* \"#utility.yul\":3259:3262   */\n              0xe0\n                /* \"#utility.yul\":3248:3257   */\n              dup4\n                /* \"#utility.yul\":3244:3263   */\n              add\n                /* \"#utility.yul\":3235:3241   */\n              dup5\n                /* \"#utility.yul\":3197:3264   */\n              tag_260\n              jump\t// in\n            tag_338:\n                /* \"#utility.yul\":2556:3271   */\n              swap6\n              swap5\n              pop\n              pop\n              pop\n              pop\n              pop\n              jump\t// out\n                /* \"#utility.yul\":3277:3395   */\n            tag_264:\n                /* \"#utility.yul\":3364:3388   */\n              tag_340\n                /* \"#utility.yul\":3382:3387   */\n              dup2\n                /* \"#utility.yul\":3364:3388   */\n              tag_261\n              jump\t// in\n            tag_340:\n                /* \"#utility.yul\":3359:3362   */\n              dup3\n                /* \"#utility.yul\":3352:3389   */\n              mstore\n                /* \"#utility.yul\":3277:3395   */\n              pop\n              pop\n              jump\t// out\n                /* \"#utility.yul\":3401:3623   */\n            tag_42:\n                /* \"#utility.yul\":3494:3498   */\n              0x00\n                /* \"#utility.yul\":3532:3534   */\n              0x20\n                /* \"#utility.yul\":3521:3530   */\n              dup3\n                /* \"#utility.yul\":3517:3535   */\n              add\n                /* \"#utility.yul\":3509:3535   */\n              swap1\n              pop\n                /* \"#utility.yul\":3545:3616   */\n              tag_342\n                /* \"#utility.yul\":3613:3614   */\n              0x00\n                /* \"#utility.yul\":3602:3611   */\n              dup4\n                /* \"#utility.yul\":3598:3615   */\n              add\n                /* \"#utility.yul\":3589:3595   */\n              dup5\n                /* \"#utility.yul\":3545:3616   */\n              tag_264\n              jump\t// in\n            tag_342:\n                /* \"#utility.yul\":3401:3623   */\n              swap3\n              swap2\n              pop\n              pop\n              jump\t// out\n                /* \"#utility.yul\":3629:3839   */\n            tag_47:\n                /* \"#utility.yul\":3716:3720   */\n              0x00\n                /* \"#utility.yul\":3754:3756   */\n              0x20\n                /* \"#utility.yul\":3743:3752   */\n              dup3\n                /* \"#utility.yul\":3739:3757   */\n              add\n                /* \"#utility.yul\":3731:3757   */\n              swap1\n              pop\n                /* \"#utility.yul\":3767:3832   */\n              tag_344\n                /* \"#utility.yul\":3829:3830   */\n              0x00\n                /* \"#utility.yul\":3818:3827   */\n              dup4\n                /* \"#utility.yul\":3814:3831   */\n              add\n                /* \"#utility.yul\":3805:3811   */\n              dup5\n                /* \"#utility.yul\":3767:3832   */\n              tag_260\n              jump\t// in\n            tag_344:\n                /* \"#utility.yul\":3629:3839   */\n              swap3\n              swap2\n              pop\n              pop\n              jump\t// out\n                /* \"#utility.yul\":3845:3971   */\n            tag_265:\n                /* \"#utility.yul\":3882:3889   */\n              0x00\n                /* \"#utility.yul\":3922:3964   */\n              0xffffffffffffffffffffffffffffffffffffffff\n                /* \"#utility.yul\":3915:3920   */\n              dup3\n                /* \"#utility.yul\":3911:3965   */\n              and\n                /* \"#utility.yul\":3900:3965   */\n              swap1\n              pop\n                /* \"#utility.yul\":3845:3971   */\n              swap2\n              swap1\n              pop\n              jump\t// out\n                /* \"#utility.yul\":3977:4073   */\n            tag_266:\n                /* \"#utility.yul\":4014:4021   */\n              0x00\n                /* \"#utility.yul\":4043:4067   */\n              tag_347\n                /* \"#utility.yul\":4061:4066   */\n              dup3\n                /* \"#utility.yul\":4043:4067   */\n              tag_265\n              jump\t// in\n            tag_347:\n                /* \"#utility.yul\":4032:4067   */\n              swap1\n              pop\n                /* \"#utility.yul\":3977:4073   */\n              swap2\n              swap1\n              pop\n              jump\t// out\n                /* \"#utility.yul\":4079:4197   */\n            tag_267:\n                /* \"#utility.yul\":4166:4190   */\n              tag_349\n                /* \"#utility.yul\":4184:4189   */\n              dup2\n                /* \"#utility.yul\":4166:4190   */\n              tag_266\n              jump\t// in\n            tag_349:\n                /* \"#utility.yul\":4161:4164   */\n              dup3\n                /* \"#utility.yul\":4154:4191   */\n              mstore\n                /* \"#utility.yul\":4079:4197   */\n              pop\n              pop\n              jump\t// out\n                /* \"#utility.yul\":4203:4425   */\n            tag_60:\n                /* \"#utility.yul\":4296:4300   */\n              0x00\n                /* \"#utility.yul\":4334:4336   */\n              0x20\n                /* \"#utility.yul\":4323:4332   */\n              dup3\n                /* \"#utility.yul\":4319:4337   */\n              add\n                /* \"#utility.yul\":4311:4337   */\n              swap1\n              pop\n                /* \"#utility.yul\":4347:4418   */\n              tag_351\n                /* \"#utility.yul\":4415:4416   */\n              0x00\n                /* \"#utility.yul\":4404:4413   */\n              dup4\n                /* \"#utility.yul\":4400:4417   */\n              add\n                /* \"#utility.yul\":4391:4397   */\n              dup5\n                /* \"#utility.yul\":4347:4418   */\n              tag_267\n              jump\t// in\n            tag_351:\n                /* \"#utility.yul\":4203:4425   */\n              swap3\n              swap2\n              pop\n              pop\n              jump\t// out\n                /* \"#utility.yul\":4431:4506   */\n            tag_268:\n                /* \"#utility.yul\":4464:4470   */\n              0x00\n                /* \"#utility.yul\":4497:4499   */\n              0x40\n                /* \"#utility.yul\":4491:4500   */\n              mload\n                /* \"#utility.yul\":4481:4500   */\n              swap1\n              pop\n                /* \"#utility.yul\":4431:4506   */\n              swap1\n              jump\t// out\n                /* \"#utility.yul\":4512:4629   */\n            tag_269:\n                /* \"#utility.yul\":4621:4622   */\n              0x00\n                /* \"#utility.yul\":4618:4619   */\n              dup1\n                /* \"#utility.yul\":4611:4623   */\n              revert\n                /* \"#utility.yul\":4635:4752   */\n            tag_270:\n                /* \"#utility.yul\":4744:4745   */\n              0x00\n                /* \"#utility.yul\":4741:4742   */\n              dup1\n                /* \"#utility.yul\":4734:4746   */\n              revert\n                /* \"#utility.yul\":4758:4880   */\n            tag_271:\n                /* \"#utility.yul\":4831:4855   */\n              tag_356\n                /* \"#utility.yul\":4849:4854   */\n              dup2\n                /* \"#utility.yul\":4831:4855   */\n              tag_261\n              jump\t// in\n            tag_356:\n                /* \"#utility.yul\":4824:4829   */\n              dup2\n                /* \"#utility.yul\":4821:4856   */\n              eq\n                /* \"#utility.yul\":4811:4874   */\n              tag_357\n              jumpi\n                /* \"#utility.yul\":4870:4871   */\n              0x00\n                /* \"#utility.yul\":4867:4868   */\n              dup1\n                /* \"#utility.yul\":4860:4872   */\n              revert\n                /* \"#utility.yul\":4811:4874   */\n            tag_357:\n                /* \"#utility.yul\":4758:4880   */\n              pop\n              jump\t// out\n                /* \"#utility.yul\":4886:5025   */\n            tag_272:\n                /* \"#utility.yul\":4932:4937   */\n              0x00\n                /* \"#utility.yul\":4970:4976   */\n              dup2\n                /* \"#utility.yul\":4957:4977   */\n              calldataload\n                /* \"#utility.yul\":4948:4977   */\n              swap1\n              pop\n                /* \"#utility.yul\":4986:5019   */\n              tag_359\n                /* \"#utility.yul\":5013:5018   */\n              dup2\n                /* \"#utility.yul\":4986:5019   */\n              tag_271\n              jump\t// in\n            tag_359:\n                /* \"#utility.yul\":4886:5025   */\n              swap3\n              swap2\n              pop\n              pop\n              jump\t// out\n                /* \"#utility.yul\":5031:5360   */\n            tag_68:\n                /* \"#utility.yul\":5090:5096   */\n              0x00\n                /* \"#utility.yul\":5139:5141   */\n              0x20\n                /* \"#utility.yul\":5127:5136   */\n              dup3\n                /* \"#utility.yul\":5118:5125   */\n              dup5\n                /* \"#utility.yul\":5114:5137   */\n              sub\n                /* \"#utility.yul\":5110:5142   */\n              slt\n                /* \"#utility.yul\":5107:5226   */\n              iszero\n              tag_361\n              jumpi\n                /* \"#utility.yul\":5145:5224   */\n              tag_362\n              tag_269\n              jump\t// in\n            tag_362:\n                /* \"#utility.yul\":5107:5226   */\n            tag_361:\n                /* \"#utility.yul\":5265:5266   */\n              0x00\n                /* \"#utility.yul\":5290:5343   */\n              tag_363\n                /* \"#utility.yul\":5335:5342   */\n              dup5\n                /* \"#utility.yul\":5326:5332   */\n              dup3\n                /* \"#utility.yul\":5315:5324   */\n              dup6\n                /* \"#utility.yul\":5311:5333   */\n              add\n                /* \"#utility.yul\":5290:5343   */\n              tag_272\n              jump\t// in\n            tag_363:\n                /* \"#utility.yul\":5280:5343   */\n              swap2\n              pop\n                /* \"#utility.yul\":5236:5353   */\n              pop\n                /* \"#utility.yul\":5031:5360   */\n              swap3\n              swap2\n              pop\n              pop\n              jump\t// out\n                /* \"#utility.yul\":5366:6394   */\n            tag_71:\n                /* \"#utility.yul\":5645:5649   */\n              0x00\n                /* \"#utility.yul\":5683:5686   */\n              0x0100\n                /* \"#utility.yul\":5672:5681   */\n              dup3\n                /* \"#utility.yul\":5668:5687   */\n              add\n                /* \"#utility.yul\":5660:5687   */\n              swap1\n              pop\n                /* \"#utility.yul\":5697:5768   */\n              tag_365\n                /* \"#utility.yul\":5765:5766   */\n              0x00\n                /* \"#utility.yul\":5754:5763   */\n              dup4\n                /* \"#utility.yul\":5750:5767   */\n              add\n                /* \"#utility.yul\":5741:5747   */\n              dup12\n                /* \"#utility.yul\":5697:5768   */\n              tag_264\n              jump\t// in\n            tag_365:\n                /* \"#utility.yul\":5778:5850   */\n              tag_366\n                /* \"#utility.yul\":5846:5848   */\n              0x20\n                /* \"#utility.yul\":5835:5844   */\n              dup4\n                /* \"#utility.yul\":5831:5849   */\n              add\n                /* \"#utility.yul\":5822:5828   */\n              dup11\n                /* \"#utility.yul\":5778:5850   */\n              tag_264\n              jump\t// in\n            tag_366:\n                /* \"#utility.yul\":5860:5926   */\n              tag_367\n                /* \"#utility.yul\":5922:5924   */\n              0x40\n                /* \"#utility.yul\":5911:5920   */\n              dup4\n                /* \"#utility.yul\":5907:5925   */\n              add\n                /* \"#utility.yul\":5898:5904   */\n              dup10\n                /* \"#utility.yul\":5860:5926   */\n              tag_260\n              jump\t// in\n            tag_367:\n                /* \"#utility.yul\":5936:6002   */\n              tag_368\n                /* \"#utility.yul\":5998:6000   */\n              0x60\n                /* \"#utility.yul\":5987:5996   */\n              dup4\n                /* \"#utility.yul\":5983:6001   */\n              add\n                /* \"#utility.yul\":5974:5980   */\n              dup9\n                /* \"#utility.yul\":5936:6002   */\n              tag_260\n              jump\t// in\n            tag_368:\n                /* \"#utility.yul\":6012:6079   */\n              tag_369\n                /* \"#utility.yul\":6074:6077   */\n              0x80\n                /* \"#utility.yul\":6063:6072   */\n              dup4\n                /* \"#utility.yul\":6059:6078   */\n              add\n                /* \"#utility.yul\":6050:6056   */\n              dup8\n                /* \"#utility.yul\":6012:6079   */\n              tag_260\n              jump\t// in\n            tag_369:\n                /* \"#utility.yul\":6089:6156   */\n              tag_370\n                /* \"#utility.yul\":6151:6154   */\n              0xa0\n                /* \"#utility.yul\":6140:6149   */\n              dup4\n                /* \"#utility.yul\":6136:6155   */\n              add\n                /* \"#utility.yul\":6127:6133   */\n              dup7\n                /* \"#utility.yul\":6089:6156   */\n              tag_260\n              jump\t// in\n            tag_370:\n                /* \"#utility.yul\":6166:6233   */\n              tag_371\n                /* \"#utility.yul\":6228:6231   */\n              0xc0\n                /* \"#utility.yul\":6217:6226   */\n              dup4\n                /* \"#utility.yul\":6213:6232   */\n              add\n                /* \"#utility.yul\":6204:6210   */\n              dup6\n                /* \"#utility.yul\":6166:6233   */\n              tag_260\n              jump\t// in\n            tag_371:\n                /* \"#utility.yul\":6281:6290   */\n              dup2\n                /* \"#utility.yul\":6275:6279   */\n              dup2\n                /* \"#utility.yul\":6271:6291   */\n              sub\n                /* \"#utility.yul\":6265:6268   */\n              0xe0\n                /* \"#utility.yul\":6254:6263   */\n              dup4\n                /* \"#utility.yul\":6250:6269   */\n              add\n                /* \"#utility.yul\":6243:6292   */\n              mstore\n                /* \"#utility.yul\":6309:6387   */\n              tag_372\n                /* \"#utility.yul\":6382:6386   */\n              dup2\n                /* \"#utility.yul\":6373:6379   */\n              dup5\n                /* \"#utility.yul\":6309:6387   */\n              tag_258\n              jump\t// in\n            tag_372:\n                /* \"#utility.yul\":6301:6387   */\n              swap1\n              pop\n                /* \"#utility.yul\":5366:6394   */\n              swap10\n              swap9\n              pop\n              pop\n              pop\n              pop\n              pop\n              pop\n              pop\n              pop\n              pop\n              jump\t// out\n                /* \"#utility.yul\":6400:8082   */\n            tag_80:\n                /* \"#utility.yul\":6845:6849   */\n              0x00\n                /* \"#utility.yul\":6883:6886   */\n              0x0180\n                /* \"#utility.yul\":6872:6881   */\n              dup3\n                /* \"#utility.yul\":6868:6887   */\n              add\n                /* \"#utility.yul\":6860:6887   */\n              swap1\n              pop\n                /* \"#utility.yul\":6933:6942   */\n              dup2\n                /* \"#utility.yul\":6927:6931   */\n              dup2\n                /* \"#utility.yul\":6923:6943   */\n              sub\n                /* \"#utility.yul\":6919:6920   */\n              0x00\n                /* \"#utility.yul\":6908:6917   */\n              dup4\n                /* \"#utility.yul\":6904:6921   */\n              add\n                /* \"#utility.yul\":6897:6944   */\n              mstore\n                /* \"#utility.yul\":6961:7039   */\n              tag_374\n                /* \"#utility.yul\":7034:7038   */\n              dup2\n                /* \"#utility.yul\":7025:7031   */\n              dup16\n                /* \"#utility.yul\":6961:7039   */\n              tag_258\n              jump\t// in\n            tag_374:\n                /* \"#utility.yul\":6953:7039   */\n              swap1\n              pop\n                /* \"#utility.yul\":7086:7095   */\n              dup2\n                /* \"#utility.yul\":7080:7084   */\n              dup2\n                /* \"#utility.yul\":7076:7096   */\n              sub\n                /* \"#utility.yul\":7071:7073   */\n              0x20\n                /* \"#utility.yul\":7060:7069   */\n              dup4\n                /* \"#utility.yul\":7056:7074   */\n              add\n                /* \"#utility.yul\":7049:7097   */\n              mstore\n                /* \"#utility.yul\":7114:7192   */\n              tag_375\n                /* \"#utility.yul\":7187:7191   */\n              dup2\n                /* \"#utility.yul\":7178:7184   */\n              dup15\n                /* \"#utility.yul\":7114:7192   */\n              tag_258\n              jump\t// in\n            tag_375:\n                /* \"#utility.yul\":7106:7192   */\n              swap1\n              pop\n                /* \"#utility.yul\":7239:7248   */\n              dup2\n                /* \"#utility.yul\":7233:7237   */\n              dup2\n                /* \"#utility.yul\":7229:7249   */\n              sub\n                /* \"#utility.yul\":7224:7226   */\n              0x40\n                /* \"#utility.yul\":7213:7222   */\n              dup4\n                /* \"#utility.yul\":7209:7227   */\n              add\n                /* \"#utility.yul\":7202:7250   */\n              mstore\n                /* \"#utility.yul\":7267:7345   */\n              tag_376\n                /* \"#utility.yul\":7340:7344   */\n              dup2\n                /* \"#utility.yul\":7331:7337   */\n              dup14\n                /* \"#utility.yul\":7267:7345   */\n              tag_258\n              jump\t// in\n            tag_376:\n                /* \"#utility.yul\":7259:7345   */\n              swap1\n              pop\n                /* \"#utility.yul\":7355:7427   */\n              tag_377\n                /* \"#utility.yul\":7423:7425   */\n              0x60\n                /* \"#utility.yul\":7412:7421   */\n              dup4\n                /* \"#utility.yul\":7408:7426   */\n              add\n                /* \"#utility.yul\":7399:7405   */\n              dup13\n                /* \"#utility.yul\":7355:7427   */\n              tag_264\n              jump\t// in\n            tag_377:\n                /* \"#utility.yul\":7437:7510   */\n              tag_378\n                /* \"#utility.yul\":7505:7508   */\n              0x80\n                /* \"#utility.yul\":7494:7503   */\n              dup4\n                /* \"#utility.yul\":7490:7509   */\n              add\n                /* \"#utility.yul\":7481:7487   */\n              dup12\n                /* \"#utility.yul\":7437:7510   */\n              tag_264\n              jump\t// in\n            tag_378:\n                /* \"#utility.yul\":7520:7593   */\n              tag_379\n                /* \"#utility.yul\":7588:7591   */\n              0xa0\n                /* \"#utility.yul\":7577:7586   */\n              dup4\n                /* \"#utility.yul\":7573:7592   */\n              add\n                /* \"#utility.yul\":7564:7570   */\n              dup11\n                /* \"#utility.yul\":7520:7593   */\n              tag_264\n              jump\t// in\n            tag_379:\n                /* \"#utility.yul\":7603:7676   */\n              tag_380\n                /* \"#utility.yul\":7671:7674   */\n              0xc0\n                /* \"#utility.yul\":7660:7669   */\n              dup4\n                /* \"#utility.yul\":7656:7675   */\n              add\n                /* \"#utility.yul\":7647:7653   */\n              dup10\n                /* \"#utility.yul\":7603:7676   */\n              tag_264\n              jump\t// in\n            tag_380:\n                /* \"#utility.yul\":7686:7759   */\n              tag_381\n                /* \"#utility.yul\":7754:7757   */\n              0xe0\n                /* \"#utility.yul\":7743:7752   */\n              dup4\n                /* \"#utility.yul\":7739:7758   */\n              add\n                /* \"#utility.yul\":7730:7736   */\n              dup9\n                /* \"#utility.yul\":7686:7759   */\n              tag_267\n              jump\t// in\n            tag_381:\n                /* \"#utility.yul\":7769:7842   */\n              tag_382\n                /* \"#utility.yul\":7837:7840   */\n              0x0100\n                /* \"#utility.yul\":7826:7835   */\n              dup4\n                /* \"#utility.yul\":7822:7841   */\n              add\n                /* \"#utility.yul\":7813:7819   */\n              dup8\n                /* \"#utility.yul\":7769:7842   */\n              tag_267\n              jump\t// in\n            tag_382:\n                /* \"#utility.yul\":7852:7919   */\n              tag_383\n                /* \"#utility.yul\":7914:7917   */\n              0x0120\n                /* \"#utility.yul\":7903:7912   */\n              dup4\n                /* \"#utility.yul\":7899:7918   */\n              add\n                /* \"#utility.yul\":7890:7896   */\n              dup7\n                /* \"#utility.yul\":7852:7919   */\n              tag_260\n              jump\t// in\n            tag_383:\n                /* \"#utility.yul\":7929:7997   */\n              tag_384\n                /* \"#utility.yul\":7992:7995   */\n              0x0140\n                /* \"#utility.yul\":7981:7990   */\n              dup4\n                /* \"#utility.yul\":7977:7996   */\n              add\n                /* \"#utility.yul\":7967:7974   */\n              dup6\n                /* \"#utility.yul\":7929:7997   */\n              tag_260\n              jump\t// in\n            tag_384:\n                /* \"#utility.yul\":8007:8075   */\n              tag_385\n                /* \"#utility.yul\":8070:8073   */\n              0x0160\n                /* \"#utility.yul\":8059:8068   */\n              dup4\n                /* \"#utility.yul\":8055:8074   */\n              add\n                /* \"#utility.yul\":8045:8052   */\n              dup5\n                /* \"#utility.yul\":8007:8075   */\n              tag_260\n              jump\t// in\n            tag_385:\n                /* \"#utility.yul\":6400:8082   */\n              swap14\n              swap13\n              pop\n              pop\n              pop\n              pop\n              pop\n              pop\n              pop\n              pop\n              pop\n              pop\n              pop\n              pop\n              pop\n              jump\t// out\n                /* \"#utility.yul\":8088:8205   */\n            tag_273:\n                /* \"#utility.yul\":8197:8198   */\n              0x00\n                /* \"#utility.yul\":8194:8195   */\n              dup1\n                /* \"#utility.yul\":8187:8199   */\n              revert\n                /* \"#utility.yul\":8211:8328   */\n            tag_274:\n                /* \"#utility.yul\":8320:8321   */\n              0x00\n                /* \"#utility.yul\":8317:8318   */\n              dup1\n                /* \"#utility.yul\":8310:8322   */\n              revert\n                /* \"#utility.yul\":8334:8514   */\n            tag_275:\n                /* \"#utility.yul\":8382:8459   */\n              0x4e487b7100000000000000000000000000000000000000000000000000000000\n                /* \"#utility.yul\":8379:8380   */\n              0x00\n                /* \"#utility.yul\":8372:8460   */\n              mstore\n                /* \"#utility.yul\":8479:8483   */\n              0x41\n                /* \"#utility.yul\":8476:8477   */\n              0x04\n                /* \"#utility.yul\":8469:8484   */\n              mstore\n                /* \"#utility.yul\":8503:8507   */\n              0x24\n                /* \"#utility.yul\":8500:8501   */\n              0x00\n                /* \"#utility.yul\":8493:8508   */\n              revert\n                /* \"#utility.yul\":8520:8801   */\n            tag_276:\n                /* \"#utility.yul\":8603:8630   */\n              tag_390\n                /* \"#utility.yul\":8625:8629   */\n              dup3\n                /* \"#utility.yul\":8603:8630   */\n              tag_257\n              jump\t// in\n            tag_390:\n                /* \"#utility.yul\":8595:8601   */\n              dup2\n                /* \"#utility.yul\":8591:8631   */\n              add\n                /* \"#utility.yul\":8733:8739   */\n              dup2\n                /* \"#utility.yul\":8721:8731   */\n              dup2\n                /* \"#utility.yul\":8718:8740   */\n              lt\n                /* \"#utility.yul\":8697:8715   */\n              0xffffffffffffffff\n                /* \"#utility.yul\":8685:8695   */\n              dup3\n                /* \"#utility.yul\":8682:8716   */\n              gt\n                /* \"#utility.yul\":8679:8741   */\n              or\n                /* \"#utility.yul\":8676:8764   */\n              iszero\n              tag_391\n              jumpi\n                /* \"#utility.yul\":8744:8762   */\n              tag_392\n              tag_275\n              jump\t// in\n            tag_392:\n                /* \"#utility.yul\":8676:8764   */\n            tag_391:\n                /* \"#utility.yul\":8784:8794   */\n              dup1\n                /* \"#utility.yul\":8780:8782   */\n              0x40\n                /* \"#utility.yul\":8773:8795   */\n              mstore\n                /* \"#utility.yul\":8563:8801   */\n              pop\n                /* \"#utility.yul\":8520:8801   */\n              pop\n              pop\n              jump\t// out\n                /* \"#utility.yul\":8807:8936   */\n            tag_277:\n                /* \"#utility.yul\":8841:8847   */\n              0x00\n                /* \"#utility.yul\":8868:8888   */\n              tag_394\n              tag_268\n              jump\t// in\n            tag_394:\n                /* \"#utility.yul\":8858:8888   */\n              swap1\n              pop\n                /* \"#utility.yul\":8897:8930   */\n              tag_395\n                /* \"#utility.yul\":8925:8929   */\n              dup3\n                /* \"#utility.yul\":8917:8923   */\n              dup3\n                /* \"#utility.yul\":8897:8930   */\n              tag_276\n              jump\t// in\n            tag_395:\n                /* \"#utility.yul\":8807:8936   */\n              swap2\n              swap1\n              pop\n              jump\t// out\n                /* \"#utility.yul\":8942:9250   */\n            tag_278:\n                /* \"#utility.yul\":9004:9008   */\n              0x00\n                /* \"#utility.yul\":9094:9112   */\n              0xffffffffffffffff\n                /* \"#utility.yul\":9086:9092   */\n              dup3\n                /* \"#utility.yul\":9083:9113   */\n              gt\n                /* \"#utility.yul\":9080:9136   */\n              iszero\n              tag_397\n              jumpi\n                /* \"#utility.yul\":9116:9134   */\n              tag_398\n              tag_275\n              jump\t// in\n            tag_398:\n                /* \"#utility.yul\":9080:9136   */\n            tag_397:\n                /* \"#utility.yul\":9154:9183   */\n              tag_399\n                /* \"#utility.yul\":9176:9182   */\n              dup3\n                /* \"#utility.yul\":9154:9183   */\n              tag_257\n              jump\t// in\n            tag_399:\n                /* \"#utility.yul\":9146:9183   */\n              swap1\n              pop\n                /* \"#utility.yul\":9238:9242   */\n              0x20\n                /* \"#utility.yul\":9232:9236   */\n              dup2\n                /* \"#utility.yul\":9228:9243   */\n              add\n                /* \"#utility.yul\":9220:9243   */\n              swap1\n              pop\n                /* \"#utility.yul\":8942:9250   */\n              swap2\n              swap1\n              pop\n              jump\t// out\n                /* \"#utility.yul\":9256:9410   */\n            tag_279:\n                /* \"#utility.yul\":9340:9346   */\n              dup3\n                /* \"#utility.yul\":9335:9338   */\n              dup2\n                /* \"#utility.yul\":9330:9333   */\n              dup4\n                /* \"#utility.yul\":9317:9347   */\n              calldatacopy\n                /* \"#utility.yul\":9402:9403   */\n              0x00\n                /* \"#utility.yul\":9393:9399   */\n              dup4\n                /* \"#utility.yul\":9388:9391   */\n              dup4\n                /* \"#utility.yul\":9384:9400   */\n              add\n                /* \"#utility.yul\":9377:9404   */\n              mstore\n                /* \"#utility.yul\":9256:9410   */\n              pop\n              pop\n              pop\n              jump\t// out\n                /* \"#utility.yul\":9416:9828   */\n            tag_280:\n                /* \"#utility.yul\":9494:9499   */\n              0x00\n                /* \"#utility.yul\":9519:9585   */\n              tag_402\n                /* \"#utility.yul\":9535:9584   */\n              tag_403\n                /* \"#utility.yul\":9577:9583   */\n              dup5\n                /* \"#utility.yul\":9535:9584   */\n              tag_278\n              jump\t// in\n            tag_403:\n                /* \"#utility.yul\":9519:9585   */\n              tag_277\n              jump\t// in\n            tag_402:\n                /* \"#utility.yul\":9510:9585   */\n              swap1\n              pop\n                /* \"#utility.yul\":9608:9614   */\n              dup3\n                /* \"#utility.yul\":9601:9606   */\n              dup2\n                /* \"#utility.yul\":9594:9615   */\n              mstore\n                /* \"#utility.yul\":9646:9650   */\n              0x20\n                /* \"#utility.yul\":9639:9644   */\n              dup2\n                /* \"#utility.yul\":9635:9651   */\n              add\n                /* \"#utility.yul\":9684:9687   */\n              dup5\n                /* \"#utility.yul\":9675:9681   */\n              dup5\n                /* \"#utility.yul\":9670:9673   */\n              dup5\n                /* \"#utility.yul\":9666:9682   */\n              add\n                /* \"#utility.yul\":9663:9688   */\n              gt\n                /* \"#utility.yul\":9660:9772   */\n              iszero\n              tag_404\n              jumpi\n                /* \"#utility.yul\":9691:9770   */\n              tag_405\n              tag_274\n              jump\t// in\n            tag_405:\n                /* \"#utility.yul\":9660:9772   */\n            tag_404:\n                /* \"#utility.yul\":9781:9822   */\n              tag_406\n                /* \"#utility.yul\":9815:9821   */\n              dup5\n                /* \"#utility.yul\":9810:9813   */\n              dup3\n                /* \"#utility.yul\":9805:9808   */\n              dup6\n                /* \"#utility.yul\":9781:9822   */\n              tag_279\n              jump\t// in\n            tag_406:\n                /* \"#utility.yul\":9500:9828   */\n              pop\n                /* \"#utility.yul\":9416:9828   */\n              swap4\n              swap3\n              pop\n              pop\n              pop\n              jump\t// out\n                /* \"#utility.yul\":9848:10188   */\n            tag_281:\n                /* \"#utility.yul\":9904:9909   */\n              0x00\n                /* \"#utility.yul\":9953:9956   */\n              dup3\n                /* \"#utility.yul\":9946:9950   */\n              0x1f\n                /* \"#utility.yul\":9938:9944   */\n              dup4\n                /* \"#utility.yul\":9934:9951   */\n              add\n                /* \"#utility.yul\":9930:9957   */\n              slt\n                /* \"#utility.yul\":9920:10042   */\n              tag_408\n              jumpi\n                /* \"#utility.yul\":9961:10040   */\n              tag_409\n              tag_273\n              jump\t// in\n            tag_409:\n                /* \"#utility.yul\":9920:10042   */\n            tag_408:\n                /* \"#utility.yul\":10078:10084   */\n              dup2\n                /* \"#utility.yul\":10065:10085   */\n              calldataload\n                /* \"#utility.yul\":10103:10182   */\n              tag_410\n                /* \"#utility.yul\":10178:10181   */\n              dup5\n                /* \"#utility.yul\":10170:10176   */\n              dup3\n                /* \"#utility.yul\":10163:10167   */\n              0x20\n                /* \"#utility.yul\":10155:10161   */\n              dup7\n                /* \"#utility.yul\":10151:10168   */\n              add\n                /* \"#utility.yul\":10103:10182   */\n              tag_280\n              jump\t// in\n            tag_410:\n                /* \"#utility.yul\":10094:10182   */\n              swap2\n              pop\n                /* \"#utility.yul\":9910:10188   */\n              pop\n                /* \"#utility.yul\":9848:10188   */\n              swap3\n              swap2\n              pop\n              pop\n              jump\t// out\n                /* \"#utility.yul\":10194:10703   */\n            tag_94:\n                /* \"#utility.yul\":10263:10269   */\n              0x00\n                /* \"#utility.yul\":10312:10314   */\n              0x20\n                /* \"#utility.yul\":10300:10309   */\n              dup3\n                /* \"#utility.yul\":10291:10298   */\n              dup5\n                /* \"#utility.yul\":10287:10310   */\n              sub\n                /* \"#utility.yul\":10283:10315   */\n              slt\n                /* \"#utility.yul\":10280:10399   */\n              iszero\n              tag_412\n              jumpi\n                /* \"#utility.yul\":10318:10397   */\n              tag_413\n              tag_269\n              jump\t// in\n            tag_413:\n                /* \"#utility.yul\":10280:10399   */\n            tag_412:\n                /* \"#utility.yul\":10466:10467   */\n              0x00\n                /* \"#utility.yul\":10455:10464   */\n              dup3\n                /* \"#utility.yul\":10451:10468   */\n              add\n                /* \"#utility.yul\":10438:10469   */\n              calldataload\n                /* \"#utility.yul\":10496:10514   */\n              0xffffffffffffffff\n                /* \"#utility.yul\":10488:10494   */\n              dup2\n                /* \"#utility.yul\":10485:10515   */\n              gt\n                /* \"#utility.yul\":10482:10599   */\n              iszero\n              tag_414\n              jumpi\n                /* \"#utility.yul\":10518:10597   */\n              tag_415\n              tag_270\n              jump\t// in\n            tag_415:\n                /* \"#utility.yul\":10482:10599   */\n            tag_414:\n                /* \"#utility.yul\":10623:10686   */\n              tag_416\n                /* \"#utility.yul\":10678:10685   */\n              dup5\n                /* \"#utility.yul\":10669:10675   */\n              dup3\n                /* \"#utility.yul\":10658:10667   */\n              dup6\n                /* \"#utility.yul\":10654:10676   */\n              add\n                /* \"#utility.yul\":10623:10686   */\n              tag_281\n              jump\t// in\n            tag_416:\n                /* \"#utility.yul\":10613:10686   */\n              swap2\n              pop\n                /* \"#utility.yul\":10409:10696   */\n              pop\n                /* \"#utility.yul\":10194:10703   */\n              swap3\n              swap2\n              pop\n              pop\n              jump\t// out\n                /* \"#utility.yul\":10709:11363   */\n            tag_98:\n                /* \"#utility.yul\":10787:10793   */\n              0x00\n                /* \"#utility.yul\":10795:10801   */\n              dup1\n                /* \"#utility.yul\":10844:10846   */\n              0x40\n                /* \"#utility.yul\":10832:10841   */\n              dup4\n                /* \"#utility.yul\":10823:10830   */\n              dup6\n                /* \"#utility.yul\":10819:10842   */\n              sub\n                /* \"#utility.yul\":10815:10847   */\n              slt\n                /* \"#utility.yul\":10812:10931   */\n              iszero\n              tag_418\n              jumpi\n                /* \"#utility.yul\":10850:10929   */\n              tag_419\n              tag_269\n              jump\t// in\n            tag_419:\n                /* \"#utility.yul\":10812:10931   */\n            tag_418:\n                /* \"#utility.yul\":10998:10999   */\n              0x00\n                /* \"#utility.yul\":10987:10996   */\n              dup4\n                /* \"#utility.yul\":10983:11000   */\n              add\n                /* \"#utility.yul\":10970:11001   */\n              calldataload\n                /* \"#utility.yul\":11028:11046   */\n              0xffffffffffffffff\n                /* \"#utility.yul\":11020:11026   */\n              dup2\n                /* \"#utility.yul\":11017:11047   */\n              gt\n                /* \"#utility.yul\":11014:11131   */\n              iszero\n              tag_420\n              jumpi\n                /* \"#utility.yul\":11050:11129   */\n              tag_421\n              tag_270\n              jump\t// in\n            tag_421:\n                /* \"#utility.yul\":11014:11131   */\n            tag_420:\n                /* \"#utility.yul\":11155:11218   */\n              tag_422\n                /* \"#utility.yul\":11210:11217   */\n              dup6\n                /* \"#utility.yul\":11201:11207   */\n              dup3\n                /* \"#utility.yul\":11190:11199   */\n              dup7\n                /* \"#utility.yul\":11186:11208   */\n              add\n                /* \"#utility.yul\":11155:11218   */\n              tag_281\n              jump\t// in\n            tag_422:\n                /* \"#utility.yul\":11145:11218   */\n              swap3\n              pop\n                /* \"#utility.yul\":10941:11228   */\n              pop\n                /* \"#utility.yul\":11267:11269   */\n              0x20\n                /* \"#utility.yul\":11293:11346   */\n              tag_423\n                /* \"#utility.yul\":11338:11345   */\n              dup6\n                /* \"#utility.yul\":11329:11335   */\n              dup3\n                /* \"#utility.yul\":11318:11327   */\n              dup7\n                /* \"#utility.yul\":11314:11336   */\n              add\n                /* \"#utility.yul\":11293:11346   */\n              tag_272\n              jump\t// in\n            tag_423:\n                /* \"#utility.yul\":11283:11346   */\n              swap2\n              pop\n                /* \"#utility.yul\":11238:11356   */\n              pop\n                /* \"#utility.yul\":10709:11363   */\n              swap3\n              pop\n              swap3\n              swap1\n              pop\n              jump\t// out\n                /* \"#utility.yul\":11369:11493   */\n            tag_282:\n                /* \"#utility.yul\":11446:11452   */\n              0x00\n                /* \"#utility.yul\":11480:11485   */\n              dup2\n                /* \"#utility.yul\":11474:11486   */\n              mload\n                /* \"#utility.yul\":11464:11486   */\n              swap1\n              pop\n                /* \"#utility.yul\":11369:11493   */\n              swap2\n              swap1\n              pop\n              jump\t// out\n                /* \"#utility.yul\":11499:11693   */\n            tag_283:\n                /* \"#utility.yul\":11608:11619   */\n              0x00\n                /* \"#utility.yul\":11642:11648   */\n              dup3\n                /* \"#utility.yul\":11637:11640   */\n              dup3\n                /* \"#utility.yul\":11630:11649   */\n              mstore\n                /* \"#utility.yul\":11682:11686   */\n              0x20\n                /* \"#utility.yul\":11677:11680   */\n              dup3\n                /* \"#utility.yul\":11673:11687   */\n              add\n                /* \"#utility.yul\":11658:11687   */\n              swap1\n              pop\n                /* \"#utility.yul\":11499:11693   */\n              swap3\n              swap2\n              pop\n              pop\n              jump\t// out\n                /* \"#utility.yul\":11699:11841   */\n            tag_284:\n                /* \"#utility.yul\":11776:11780   */\n              0x00\n                /* \"#utility.yul\":11799:11802   */\n              dup2\n                /* \"#utility.yul\":11791:11802   */\n              swap1\n              pop\n                /* \"#utility.yul\":11829:11833   */\n              0x20\n                /* \"#utility.yul\":11824:11827   */\n              dup3\n                /* \"#utility.yul\":11820:11834   */\n              add\n                /* \"#utility.yul\":11812:11834   */\n              swap1\n              pop\n                /* \"#utility.yul\":11699:11841   */\n              swap2\n              swap1\n              pop\n              jump\t// out\n                /* \"#utility.yul\":11847:12006   */\n            tag_285:\n                /* \"#utility.yul\":11921:11932   */\n              0x00\n                /* \"#utility.yul\":11955:11961   */\n              dup3\n                /* \"#utility.yul\":11950:11953   */\n              dup3\n                /* \"#utility.yul\":11943:11962   */\n              mstore\n                /* \"#utility.yul\":11995:11999   */\n              0x20\n                /* \"#utility.yul\":11990:11993   */\n              dup3\n                /* \"#utility.yul\":11986:12000   */\n              add\n                /* \"#utility.yul\":11971:12000   */\n              swap1\n              pop\n                /* \"#utility.yul\":11847:12006   */\n              swap3\n              swap2\n              pop\n              pop\n              jump\t// out\n                /* \"#utility.yul\":12012:12356   */\n            tag_286:\n                /* \"#utility.yul\":12090:12093   */\n              0x00\n                /* \"#utility.yul\":12118:12157   */\n              tag_429\n                /* \"#utility.yul\":12151:12156   */\n              dup3\n                /* \"#utility.yul\":12118:12157   */\n              tag_254\n              jump\t// in\n            tag_429:\n                /* \"#utility.yul\":12173:12234   */\n              tag_430\n                /* \"#utility.yul\":12227:12233   */\n              dup2\n                /* \"#utility.yul\":12222:12225   */\n              dup6\n                /* \"#utility.yul\":12173:12234   */\n              tag_285\n              jump\t// in\n            tag_430:\n                /* \"#utility.yul\":12166:12234   */\n              swap4\n              pop\n                /* \"#utility.yul\":12243:12295   */\n              tag_431\n                /* \"#utility.yul\":12288:12294   */\n              dup2\n                /* \"#utility.yul\":12283:12286   */\n              dup6\n                /* \"#utility.yul\":12276:12280   */\n              0x20\n                /* \"#utility.yul\":12269:12274   */\n              dup7\n                /* \"#utility.yul\":12265:12281   */\n              add\n                /* \"#utility.yul\":12243:12295   */\n              tag_256\n              jump\t// in\n            tag_431:\n                /* \"#utility.yul\":12320:12349   */\n              tag_432\n                /* \"#utility.yul\":12342:12348   */\n              dup2\n                /* \"#utility.yul\":12320:12349   */\n              tag_257\n              jump\t// in\n            tag_432:\n                /* \"#utility.yul\":12315:12318   */\n              dup5\n                /* \"#utility.yul\":12311:12350   */\n              add\n                /* \"#utility.yul\":12304:12350   */\n              swap2\n              pop\n                /* \"#utility.yul\":12094:12356   */\n              pop\n                /* \"#utility.yul\":12012:12356   */\n              swap3\n              swap2\n              pop\n              pop\n              jump\t// out\n                /* \"#utility.yul\":12362:12558   */\n            tag_287:\n                /* \"#utility.yul\":12451:12461   */\n              0x00\n                /* \"#utility.yul\":12486:12552   */\n              tag_434\n                /* \"#utility.yul\":12548:12551   */\n              dup4\n                /* \"#utility.yul\":12540:12546   */\n              dup4\n                /* \"#utility.yul\":12486:12552   */\n              tag_286\n              jump\t// in\n            tag_434:\n                /* \"#utility.yul\":12472:12552   */\n              swap1\n              pop\n                /* \"#utility.yul\":12362:12558   */\n              swap3\n              swap2\n              pop\n              pop\n              jump\t// out\n                /* \"#utility.yul\":12564:12687   */\n            tag_288:\n                /* \"#utility.yul\":12644:12648   */\n              0x00\n                /* \"#utility.yul\":12676:12680   */\n              0x20\n                /* \"#utility.yul\":12671:12674   */\n              dup3\n                /* \"#utility.yul\":12667:12681   */\n              add\n                /* \"#utility.yul\":12659:12681   */\n              swap1\n              pop\n                /* \"#utility.yul\":12564:12687   */\n              swap2\n              swap1\n              pop\n              jump\t// out\n                /* \"#utility.yul\":12721:13712   */\n            tag_289:\n                /* \"#utility.yul\":12860:12863   */\n              0x00\n                /* \"#utility.yul\":12889:12953   */\n              tag_437\n                /* \"#utility.yul\":12947:12952   */\n              dup3\n                /* \"#utility.yul\":12889:12953   */\n              tag_282\n              jump\t// in\n            tag_437:\n                /* \"#utility.yul\":12969:13065   */\n              tag_438\n                /* \"#utility.yul\":13058:13064   */\n              dup2\n                /* \"#utility.yul\":13053:13056   */\n              dup6\n                /* \"#utility.yul\":12969:13065   */\n              tag_283\n              jump\t// in\n            tag_438:\n                /* \"#utility.yul\":12962:13065   */\n              swap4\n              pop\n                /* \"#utility.yul\":13091:13094   */\n              dup4\n                /* \"#utility.yul\":13136:13140   */\n              0x20\n                /* \"#utility.yul\":13128:13134   */\n              dup3\n                /* \"#utility.yul\":13124:13141   */\n              mul\n                /* \"#utility.yul\":13119:13122   */\n              dup6\n                /* \"#utility.yul\":13115:13142   */\n              add\n                /* \"#utility.yul\":13166:13232   */\n              tag_439\n                /* \"#utility.yul\":13226:13231   */\n              dup6\n                /* \"#utility.yul\":13166:13232   */\n              tag_284\n              jump\t// in\n            tag_439:\n                /* \"#utility.yul\":13255:13262   */\n              dup1\n                /* \"#utility.yul\":13286:13287   */\n              0x00\n                /* \"#utility.yul\":13271:13667   */\n            tag_440:\n                /* \"#utility.yul\":13296:13302   */\n              dup6\n                /* \"#utility.yul\":13293:13294   */\n              dup2\n                /* \"#utility.yul\":13290:13303   */\n              lt\n                /* \"#utility.yul\":13271:13667   */\n              iszero\n              tag_442\n              jumpi\n                /* \"#utility.yul\":13367:13376   */\n              dup5\n                /* \"#utility.yul\":13361:13365   */\n              dup5\n                /* \"#utility.yul\":13357:13377   */\n              sub\n                /* \"#utility.yul\":13352:13355   */\n              dup10\n                /* \"#utility.yul\":13345:13378   */\n              mstore\n                /* \"#utility.yul\":13418:13424   */\n              dup2\n                /* \"#utility.yul\":13412:13425   */\n              mload\n                /* \"#utility.yul\":13446:13530   */\n              tag_443\n                /* \"#utility.yul\":13525:13529   */\n              dup6\n                /* \"#utility.yul\":13510:13523   */\n              dup3\n                /* \"#utility.yul\":13446:13530   */\n              tag_287\n              jump\t// in\n            tag_443:\n                /* \"#utility.yul\":13438:13530   */\n              swap5\n              pop\n                /* \"#utility.yul\":13553:13623   */\n              tag_444\n                /* \"#utility.yul\":13616:13622   */\n              dup4\n                /* \"#utility.yul\":13553:13623   */\n              tag_288\n              jump\t// in\n            tag_444:\n                /* \"#utility.yul\":13543:13623   */\n              swap3\n              pop\n                /* \"#utility.yul\":13652:13656   */\n              0x20\n                /* \"#utility.yul\":13647:13650   */\n              dup11\n                /* \"#utility.yul\":13643:13657   */\n              add\n                /* \"#utility.yul\":13636:13657   */\n              swap10\n              pop\n                /* \"#utility.yul\":13331:13667   */\n              pop\n                /* \"#utility.yul\":13318:13319   */\n              0x01\n                /* \"#utility.yul\":13315:13316   */\n              dup2\n                /* \"#utility.yul\":13311:13320   */\n              add\n                /* \"#utility.yul\":13306:13320   */\n              swap1\n              pop\n                /* \"#utility.yul\":13271:13667   */\n              jump(tag_440)\n            tag_442:\n                /* \"#utility.yul\":13275:13289   */\n              pop\n                /* \"#utility.yul\":13683:13687   */\n              dup3\n                /* \"#utility.yul\":13676:13687   */\n              swap8\n              pop\n                /* \"#utility.yul\":13703:13706   */\n              dup8\n                /* \"#utility.yul\":13696:13706   */\n              swap6\n              pop\n                /* \"#utility.yul\":12865:13712   */\n              pop\n              pop\n              pop\n              pop\n              pop\n                /* \"#utility.yul\":12721:13712   */\n              swap3\n              swap2\n              pop\n              pop\n              jump\t// out\n                /* \"#utility.yul\":13718:14635   */\n            tag_127:\n                /* \"#utility.yul\":14051:14055   */\n              0x00\n                /* \"#utility.yul\":14089:14092   */\n              0x0100\n                /* \"#utility.yul\":14078:14087   */\n              dup3\n                /* \"#utility.yul\":14074:14093   */\n              add\n                /* \"#utility.yul\":14066:14093   */\n              swap1\n              pop\n                /* \"#utility.yul\":14139:14148   */\n              dup2\n                /* \"#utility.yul\":14133:14137   */\n              dup2\n                /* \"#utility.yul\":14129:14149   */\n              sub\n                /* \"#utility.yul\":14125:14126   */\n              0x00\n                /* \"#utility.yul\":14114:14123   */\n              dup4\n                /* \"#utility.yul\":14110:14127   */\n              add\n                /* \"#utility.yul\":14103:14150   */\n              mstore\n                /* \"#utility.yul\":14167:14295   */\n              tag_446\n                /* \"#utility.yul\":14290:14294   */\n              dup2\n                /* \"#utility.yul\":14281:14287   */\n              dup8\n                /* \"#utility.yul\":14167:14295   */\n              tag_289\n              jump\t// in\n            tag_446:\n                /* \"#utility.yul\":14159:14295   */\n              swap1\n              pop\n                /* \"#utility.yul\":14305:14371   */\n              tag_447\n                /* \"#utility.yul\":14367:14369   */\n              0x20\n                /* \"#utility.yul\":14356:14365   */\n              dup4\n                /* \"#utility.yul\":14352:14370   */\n              add\n                /* \"#utility.yul\":14343:14349   */\n              dup7\n                /* \"#utility.yul\":14305:14371   */\n              tag_260\n              jump\t// in\n            tag_447:\n                /* \"#utility.yul\":14381:14499   */\n              tag_448\n                /* \"#utility.yul\":14495:14497   */\n              0x40\n                /* \"#utility.yul\":14484:14493   */\n              dup4\n                /* \"#utility.yul\":14480:14498   */\n              add\n                /* \"#utility.yul\":14471:14477   */\n              dup6\n                /* \"#utility.yul\":14381:14499   */\n              tag_263\n              jump\t// in\n            tag_448:\n                /* \"#utility.yul\":14509:14628   */\n              tag_449\n                /* \"#utility.yul\":14623:14626   */\n              0xa0\n                /* \"#utility.yul\":14612:14621   */\n              dup4\n                /* \"#utility.yul\":14608:14627   */\n              add\n                /* \"#utility.yul\":14599:14605   */\n              dup5\n                /* \"#utility.yul\":14509:14628   */\n              tag_263\n              jump\t// in\n            tag_449:\n                /* \"#utility.yul\":13718:14635   */\n              swap6\n              swap5\n              pop\n              pop\n              pop\n              pop\n              pop\n              jump\t// out\n                /* \"#utility.yul\":14641:14821   */\n            tag_290:\n                /* \"#utility.yul\":14689:14766   */\n              0x4e487b7100000000000000000000000000000000000000000000000000000000\n                /* \"#utility.yul\":14686:14687   */\n              0x00\n                /* \"#utility.yul\":14679:14767   */\n              mstore\n                /* \"#utility.yul\":14786:14790   */\n              0x22\n                /* \"#utility.yul\":14783:14784   */\n              0x04\n                /* \"#utility.yul\":14776:14791   */\n              mstore\n                /* \"#utility.yul\":14810:14814   */\n              0x24\n                /* \"#utility.yul\":14807:14808   */\n              0x00\n                /* \"#utility.yul\":14800:14815   */\n              revert\n                /* \"#utility.yul\":14827:15147   */\n            tag_129:\n                /* \"#utility.yul\":14871:14877   */\n              0x00\n                /* \"#utility.yul\":14908:14909   */\n              0x02\n                /* \"#utility.yul\":14902:14906   */\n              dup3\n                /* \"#utility.yul\":14898:14910   */\n              div\n                /* \"#utility.yul\":14888:14910   */\n              swap1\n              pop\n                /* \"#utility.yul\":14955:14956   */\n              0x01\n                /* \"#utility.yul\":14949:14953   */\n              dup3\n                /* \"#utility.yul\":14945:14957   */\n              and\n                /* \"#utility.yul\":14976:14994   */\n              dup1\n                /* \"#utility.yul\":14966:15047   */\n              tag_452\n              jumpi\n                /* \"#utility.yul\":15032:15036   */\n              0x7f\n                /* \"#utility.yul\":15024:15030   */\n              dup3\n                /* \"#utility.yul\":15020:15037   */\n              and\n                /* \"#utility.yul\":15010:15037   */\n              swap2\n              pop\n                /* \"#utility.yul\":14966:15047   */\n            tag_452:\n                /* \"#utility.yul\":15094:15096   */\n              0x20\n                /* \"#utility.yul\":15086:15092   */\n              dup3\n                /* \"#utility.yul\":15083:15097   */\n              lt\n                /* \"#utility.yul\":15063:15081   */\n              dup2\n                /* \"#utility.yul\":15060:15098   */\n              eq\n                /* \"#utility.yul\":15057:15141   */\n              iszero\n              tag_453\n              jumpi\n                /* \"#utility.yul\":15113:15131   */\n              tag_454\n              tag_290\n              jump\t// in\n            tag_454:\n                /* \"#utility.yul\":15057:15141   */\n            tag_453:\n                /* \"#utility.yul\":14878:15147   */\n              pop\n                /* \"#utility.yul\":14827:15147   */\n              swap2\n              swap1\n              pop\n              jump\t// out\n                /* \"#utility.yul\":15153:15327   */\n            tag_291:\n                /* \"#utility.yul\":15293:15319   */\n              0x596f7520617265206e6f742074686520737570706c6965720000000000000000\n                /* \"#utility.yul\":15289:15290   */\n              0x00\n                /* \"#utility.yul\":15281:15287   */\n              dup3\n                /* \"#utility.yul\":15277:15291   */\n              add\n                /* \"#utility.yul\":15270:15320   */\n              mstore\n                /* \"#utility.yul\":15153:15327   */\n              pop\n              jump\t// out\n                /* \"#utility.yul\":15333:15699   */\n            tag_292:\n                /* \"#utility.yul\":15475:15478   */\n              0x00\n                /* \"#utility.yul\":15496:15563   */\n              tag_457\n                /* \"#utility.yul\":15560:15562   */\n              0x18\n                /* \"#utility.yul\":15555:15558   */\n              dup4\n                /* \"#utility.yul\":15496:15563   */\n              tag_255\n              jump\t// in\n            tag_457:\n                /* \"#utility.yul\":15489:15563   */\n              swap2\n              pop\n                /* \"#utility.yul\":15572:15665   */\n              tag_458\n                /* \"#utility.yul\":15661:15664   */\n              dup3\n                /* \"#utility.yul\":15572:15665   */\n              tag_291\n              jump\t// in\n            tag_458:\n                /* \"#utility.yul\":15690:15692   */\n              0x20\n                /* \"#utility.yul\":15685:15688   */\n              dup3\n                /* \"#utility.yul\":15681:15693   */\n              add\n                /* \"#utility.yul\":15674:15693   */\n              swap1\n              pop\n                /* \"#utility.yul\":15333:15699   */\n              swap2\n              swap1\n              pop\n              jump\t// out\n                /* \"#utility.yul\":15705:16124   */\n            tag_163:\n                /* \"#utility.yul\":15871:15875   */\n              0x00\n                /* \"#utility.yul\":15909:15911   */\n              0x20\n                /* \"#utility.yul\":15898:15907   */\n              dup3\n                /* \"#utility.yul\":15894:15912   */\n              add\n                /* \"#utility.yul\":15886:15912   */\n              swap1\n              pop\n                /* \"#utility.yul\":15958:15967   */\n              dup2\n                /* \"#utility.yul\":15952:15956   */\n              dup2\n                /* \"#utility.yul\":15948:15968   */\n              sub\n                /* \"#utility.yul\":15944:15945   */\n              0x00\n                /* \"#utility.yul\":15933:15942   */\n              dup4\n                /* \"#utility.yul\":15929:15946   */\n              add\n                /* \"#utility.yul\":15922:15969   */\n              mstore\n                /* \"#utility.yul\":15986:16117   */\n              tag_460\n                /* \"#utility.yul\":16112:16116   */\n              dup2\n                /* \"#utility.yul\":15986:16117   */\n              tag_292\n              jump\t// in\n            tag_460:\n                /* \"#utility.yul\":15978:16117   */\n              swap1\n              pop\n                /* \"#utility.yul\":15705:16124   */\n              swap2\n              swap1\n              pop\n              jump\t// out\n                /* \"#utility.yul\":16130:16304   */\n            tag_293:\n                /* \"#utility.yul\":16270:16296   */\n              0x596f7520617265206e6f742074686520637573746f6d65720000000000000000\n                /* \"#utility.yul\":16266:16267   */\n              0x00\n                /* \"#utility.yul\":16258:16264   */\n              dup3\n                /* \"#utility.yul\":16254:16268   */\n              add\n                /* \"#utility.yul\":16247:16297   */\n              mstore\n                /* \"#utility.yul\":16130:16304   */\n              pop\n              jump\t// out\n                /* \"#utility.yul\":16310:16676   */\n            tag_294:\n                /* \"#utility.yul\":16452:16455   */\n              0x00\n                /* \"#utility.yul\":16473:16540   */\n              tag_463\n                /* \"#utility.yul\":16537:16539   */\n              0x18\n                /* \"#utility.yul\":16532:16535   */\n              dup4\n                /* \"#utility.yul\":16473:16540   */\n              tag_255\n              jump\t// in\n            tag_463:\n                /* \"#utility.yul\":16466:16540   */\n              swap2\n              pop\n                /* \"#utility.yul\":16549:16642   */\n              tag_464\n                /* \"#utility.yul\":16638:16641   */\n              dup3\n                /* \"#utility.yul\":16549:16642   */\n              tag_293\n              jump\t// in\n            tag_464:\n                /* \"#utility.yul\":16667:16669   */\n              0x20\n                /* \"#utility.yul\":16662:16665   */\n              dup3\n                /* \"#utility.yul\":16658:16670   */\n              add\n                /* \"#utility.yul\":16651:16670   */\n              swap1\n              pop\n                /* \"#utility.yul\":16310:16676   */\n              swap2\n              swap1\n              pop\n              jump\t// out\n                /* \"#utility.yul\":16682:17101   */\n            tag_173:\n                /* \"#utility.yul\":16848:16852   */\n              0x00\n                /* \"#utility.yul\":16886:16888   */\n              0x20\n                /* \"#utility.yul\":16875:16884   */\n              dup3\n                /* \"#utility.yul\":16871:16889   */\n              add\n                /* \"#utility.yul\":16863:16889   */\n              swap1\n              pop\n                /* \"#utility.yul\":16935:16944   */\n              dup2\n                /* \"#utility.yul\":16929:16933   */\n              dup2\n                /* \"#utility.yul\":16925:16945   */\n              sub\n                /* \"#utility.yul\":16921:16922   */\n              0x00\n                /* \"#utility.yul\":16910:16919   */\n              dup4\n                /* \"#utility.yul\":16906:16923   */\n              add\n                /* \"#utility.yul\":16899:16946   */\n              mstore\n                /* \"#utility.yul\":16963:17094   */\n              tag_466\n                /* \"#utility.yul\":17089:17093   */\n              dup2\n                /* \"#utility.yul\":16963:17094   */\n              tag_294\n              jump\t// in\n            tag_466:\n                /* \"#utility.yul\":16955:17094   */\n              swap1\n              pop\n                /* \"#utility.yul\":16682:17101   */\n              swap2\n              swap1\n              pop\n              jump\t// out\n                /* \"#utility.yul\":17107:17287   */\n            tag_295:\n                /* \"#utility.yul\":17247:17279   */\n              0x546865207465726d732061726520616c72656164792061636365707465640000\n                /* \"#utility.yul\":17243:17244   */\n              0x00\n                /* \"#utility.yul\":17235:17241   */\n              dup3\n                /* \"#utility.yul\":17231:17245   */\n              add\n                /* \"#utility.yul\":17224:17280   */\n              mstore\n                /* \"#utility.yul\":17107:17287   */\n              pop\n              jump\t// out\n                /* \"#utility.yul\":17293:17659   */\n            tag_296:\n                /* \"#utility.yul\":17435:17438   */\n              0x00\n                /* \"#utility.yul\":17456:17523   */\n              tag_469\n                /* \"#utility.yul\":17520:17522   */\n              0x1e\n                /* \"#utility.yul\":17515:17518   */\n              dup4\n                /* \"#utility.yul\":17456:17523   */\n              tag_255\n              jump\t// in\n            tag_469:\n                /* \"#utility.yul\":17449:17523   */\n              swap2\n              pop\n                /* \"#utility.yul\":17532:17625   */\n              tag_470\n                /* \"#utility.yul\":17621:17624   */\n              dup3\n                /* \"#utility.yul\":17532:17625   */\n              tag_295\n              jump\t// in\n            tag_470:\n                /* \"#utility.yul\":17650:17652   */\n              0x20\n                /* \"#utility.yul\":17645:17648   */\n              dup3\n                /* \"#utility.yul\":17641:17653   */\n              add\n                /* \"#utility.yul\":17634:17653   */\n              swap1\n              pop\n                /* \"#utility.yul\":17293:17659   */\n              swap2\n              swap1\n              pop\n              jump\t// out\n                /* \"#utility.yul\":17665:18084   */\n            tag_177:\n                /* \"#utility.yul\":17831:17835   */\n              0x00\n                /* \"#utility.yul\":17869:17871   */\n              0x20\n                /* \"#utility.yul\":17858:17867   */\n              dup3\n                /* \"#utility.yul\":17854:17872   */\n              add\n                /* \"#utility.yul\":17846:17872   */\n              swap1\n              pop\n                /* \"#utility.yul\":17918:17927   */\n              dup2\n                /* \"#utility.yul\":17912:17916   */\n              dup2\n                /* \"#utility.yul\":17908:17928   */\n              sub\n                /* \"#utility.yul\":17904:17905   */\n              0x00\n                /* \"#utility.yul\":17893:17902   */\n              dup4\n                /* \"#utility.yul\":17889:17906   */\n              add\n                /* \"#utility.yul\":17882:17929   */\n              mstore\n                /* \"#utility.yul\":17946:18077   */\n              tag_472\n                /* \"#utility.yul\":18072:18076   */\n              dup2\n                /* \"#utility.yul\":17946:18077   */\n              tag_296\n              jump\t// in\n            tag_472:\n                /* \"#utility.yul\":17938:18077   */\n              swap1\n              pop\n                /* \"#utility.yul\":17665:18084   */\n              swap2\n              swap1\n              pop\n              jump\t// out\n                /* \"#utility.yul\":18090:18262   */\n            tag_297:\n                /* \"#utility.yul\":18230:18254   */\n              0x5465726d7320617265206e6f7420616363657074656400000000000000000000\n                /* \"#utility.yul\":18226:18227   */\n              0x00\n                /* \"#utility.yul\":18218:18224   */\n              dup3\n                /* \"#utility.yul\":18214:18228   */\n              add\n                /* \"#utility.yul\":18207:18255   */\n              mstore\n                /* \"#utility.yul\":18090:18262   */\n              pop\n              jump\t// out\n                /* \"#utility.yul\":18268:18634   */\n            tag_298:\n                /* \"#utility.yul\":18410:18413   */\n              0x00\n                /* \"#utility.yul\":18431:18498   */\n              tag_475\n                /* \"#utility.yul\":18495:18497   */\n              0x16\n                /* \"#utility.yul\":18490:18493   */\n              dup4\n                /* \"#utility.yul\":18431:18498   */\n              tag_255\n              jump\t// in\n            tag_475:\n                /* \"#utility.yul\":18424:18498   */\n              swap2\n              pop\n                /* \"#utility.yul\":18507:18600   */\n              tag_476\n                /* \"#utility.yul\":18596:18599   */\n              dup3\n                /* \"#utility.yul\":18507:18600   */\n              tag_297\n              jump\t// in\n            tag_476:\n                /* \"#utility.yul\":18625:18627   */\n              0x20\n                /* \"#utility.yul\":18620:18623   */\n              dup3\n                /* \"#utility.yul\":18616:18628   */\n              add\n                /* \"#utility.yul\":18609:18628   */\n              swap1\n              pop\n                /* \"#utility.yul\":18268:18634   */\n              swap2\n              swap1\n              pop\n              jump\t// out\n                /* \"#utility.yul\":18640:19059   */\n            tag_184:\n                /* \"#utility.yul\":18806:18810   */\n              0x00\n                /* \"#utility.yul\":18844:18846   */\n              0x20\n                /* \"#utility.yul\":18833:18842   */\n              dup3\n                /* \"#utility.yul\":18829:18847   */\n              add\n                /* \"#utility.yul\":18821:18847   */\n              swap1\n              pop\n                /* \"#utility.yul\":18893:18902   */\n              dup2\n                /* \"#utility.yul\":18887:18891   */\n              dup2\n                /* \"#utility.yul\":18883:18903   */\n              sub\n                /* \"#utility.yul\":18879:18880   */\n              0x00\n                /* \"#utility.yul\":18868:18877   */\n              dup4\n                /* \"#utility.yul\":18864:18881   */\n              add\n                /* \"#utility.yul\":18857:18904   */\n              mstore\n                /* \"#utility.yul\":18921:19052   */\n              tag_478\n                /* \"#utility.yul\":19047:19051   */\n              dup2\n                /* \"#utility.yul\":18921:19052   */\n              tag_298\n              jump\t// in\n            tag_478:\n                /* \"#utility.yul\":18913:19052   */\n              swap1\n              pop\n                /* \"#utility.yul\":18640:19059   */\n              swap2\n              swap1\n              pop\n              jump\t// out\n                /* \"#utility.yul\":19065:19234   */\n            tag_299:\n                /* \"#utility.yul\":19205:19226   */\n              0x5061796d656e74206973206e6f7420646f6e6500000000000000000000000000\n                /* \"#utility.yul\":19201:19202   */\n              0x00\n                /* \"#utility.yul\":19193:19199   */\n              dup3\n                /* \"#utility.yul\":19189:19203   */\n              add\n                /* \"#utility.yul\":19182:19227   */\n              mstore\n                /* \"#utility.yul\":19065:19234   */\n              pop\n              jump\t// out\n                /* \"#utility.yul\":19240:19606   */\n            tag_300:\n                /* \"#utility.yul\":19382:19385   */\n              0x00\n                /* \"#utility.yul\":19403:19470   */\n              tag_481\n                /* \"#utility.yul\":19467:19469   */\n              0x13\n                /* \"#utility.yul\":19462:19465   */\n              dup4\n                /* \"#utility.yul\":19403:19470   */\n              tag_255\n              jump\t// in\n            tag_481:\n                /* \"#utility.yul\":19396:19470   */\n              swap2\n              pop\n                /* \"#utility.yul\":19479:19572   */\n              tag_482\n                /* \"#utility.yul\":19568:19571   */\n              dup3\n                /* \"#utility.yul\":19479:19572   */\n              tag_299\n              jump\t// in\n            tag_482:\n                /* \"#utility.yul\":19597:19599   */\n              0x20\n                /* \"#utility.yul\":19592:19595   */\n              dup3\n                /* \"#utility.yul\":19588:19600   */\n              add\n                /* \"#utility.yul\":19581:19600   */\n              swap1\n              pop\n                /* \"#utility.yul\":19240:19606   */\n              swap2\n              swap1\n              pop\n              jump\t// out\n                /* \"#utility.yul\":19612:20031   */\n            tag_187:\n                /* \"#utility.yul\":19778:19782   */\n              0x00\n                /* \"#utility.yul\":19816:19818   */\n              0x20\n                /* \"#utility.yul\":19805:19814   */\n              dup3\n                /* \"#utility.yul\":19801:19819   */\n              add\n                /* \"#utility.yul\":19793:19819   */\n              swap1\n              pop\n                /* \"#utility.yul\":19865:19874   */\n              dup2\n                /* \"#utility.yul\":19859:19863   */\n              dup2\n                /* \"#utility.yul\":19855:19875   */\n              sub\n                /* \"#utility.yul\":19851:19852   */\n              0x00\n                /* \"#utility.yul\":19840:19849   */\n              dup4\n                /* \"#utility.yul\":19836:19853   */\n              add\n                /* \"#utility.yul\":19829:19876   */\n              mstore\n                /* \"#utility.yul\":19893:20024   */\n              tag_484\n                /* \"#utility.yul\":20019:20023   */\n              dup2\n                /* \"#utility.yul\":19893:20024   */\n              tag_300\n              jump\t// in\n            tag_484:\n                /* \"#utility.yul\":19885:20024   */\n              swap1\n              pop\n                /* \"#utility.yul\":19612:20031   */\n              swap2\n              swap1\n              pop\n              jump\t// out\n                /* \"#utility.yul\":20037:20217   */\n            tag_301:\n                /* \"#utility.yul\":20085:20162   */\n              0x4e487b7100000000000000000000000000000000000000000000000000000000\n                /* \"#utility.yul\":20082:20083   */\n              0x00\n                /* \"#utility.yul\":20075:20163   */\n              mstore\n                /* \"#utility.yul\":20182:20186   */\n              0x11\n                /* \"#utility.yul\":20179:20180   */\n              0x04\n                /* \"#utility.yul\":20172:20187   */\n              mstore\n                /* \"#utility.yul\":20206:20210   */\n              0x24\n                /* \"#utility.yul\":20203:20204   */\n              0x00\n                /* \"#utility.yul\":20196:20211   */\n              revert\n                /* \"#utility.yul\":20223:20456   */\n            tag_191:\n                /* \"#utility.yul\":20262:20265   */\n              0x00\n                /* \"#utility.yul\":20285:20309   */\n              tag_487\n                /* \"#utility.yul\":20303:20308   */\n              dup3\n                /* \"#utility.yul\":20285:20309   */\n              tag_261\n              jump\t// in\n            tag_487:\n                /* \"#utility.yul\":20276:20309   */\n              swap2\n              pop\n                /* \"#utility.yul\":20331:20397   */\n              0xffffffffffffffffffffffffffffffffffffffffffffffffffffffffffffffff\n                /* \"#utility.yul\":20324:20329   */\n              dup3\n                /* \"#utility.yul\":20321:20398   */\n              eq\n                /* \"#utility.yul\":20318:20421   */\n              iszero\n              tag_488\n              jumpi\n                /* \"#utility.yul\":20401:20419   */\n              tag_489\n              tag_301\n              jump\t// in\n            tag_489:\n                /* \"#utility.yul\":20318:20421   */\n            tag_488:\n                /* \"#utility.yul\":20448:20449   */\n              0x01\n                /* \"#utility.yul\":20441:20446   */\n              dup3\n                /* \"#utility.yul\":20437:20450   */\n              add\n                /* \"#utility.yul\":20430:20450   */\n              swap1\n              pop\n                /* \"#utility.yul\":20223:20456   */\n              swap2\n              swap1\n              pop\n              jump\t// out\n                /* \"#utility.yul\":20462:20638   */\n            tag_302:\n                /* \"#utility.yul\":20602:20630   */\n              0x546865207465726d7320617265206e6f74206163636570746564000000000000\n                /* \"#utility.yul\":20598:20599   */\n              0x00\n                /* \"#utility.yul\":20590:20596   */\n              dup3\n                /* \"#utility.yul\":20586:20600   */\n              add\n                /* \"#utility.yul\":20579:20631   */\n              mstore\n                /* \"#utility.yul\":20462:20638   */\n              pop\n              jump\t// out\n                /* \"#utility.yul\":20644:21010   */\n            tag_303:\n                /* \"#utility.yul\":20786:20789   */\n              0x00\n                /* \"#utility.yul\":20807:20874   */\n              tag_492\n                /* \"#utility.yul\":20871:20873   */\n              0x1a\n                /* \"#utility.yul\":20866:20869   */\n              dup4\n                /* \"#utility.yul\":20807:20874   */\n              tag_255\n              jump\t// in\n            tag_492:\n                /* \"#utility.yul\":20800:20874   */\n              swap2\n              pop\n                /* \"#utility.yul\":20883:20976   */\n              tag_493\n                /* \"#utility.yul\":20972:20975   */\n              dup3\n                /* \"#utility.yul\":20883:20976   */\n              tag_302\n              jump\t// in\n            tag_493:\n                /* \"#utility.yul\":21001:21003   */\n              0x20\n                /* \"#utility.yul\":20996:20999   */\n              dup3\n                /* \"#utility.yul\":20992:21004   */\n              add\n                /* \"#utility.yul\":20985:21004   */\n              swap1\n              pop\n                /* \"#utility.yul\":20644:21010   */\n              swap2\n              swap1\n              pop\n              jump\t// out\n                /* \"#utility.yul\":21016:21435   */\n            tag_198:\n                /* \"#utility.yul\":21182:21186   */\n              0x00\n                /* \"#utility.yul\":21220:21222   */\n              0x20\n                /* \"#utility.yul\":21209:21218   */\n              dup3\n                /* \"#utility.yul\":21205:21223   */\n              add\n                /* \"#utility.yul\":21197:21223   */\n              swap1\n              pop\n                /* \"#utility.yul\":21269:21278   */\n              dup2\n                /* \"#utility.yul\":21263:21267   */\n              dup2\n                /* \"#utility.yul\":21259:21279   */\n              sub\n                /* \"#utility.yul\":21255:21256   */\n              0x00\n                /* \"#utility.yul\":21244:21253   */\n              dup4\n                /* \"#utility.yul\":21240:21257   */\n              add\n                /* \"#utility.yul\":21233:21280   */\n              mstore\n                /* \"#utility.yul\":21297:21428   */\n              tag_495\n                /* \"#utility.yul\":21423:21427   */\n              dup2\n                /* \"#utility.yul\":21297:21428   */\n              tag_303\n              jump\t// in\n            tag_495:\n                /* \"#utility.yul\":21289:21428   */\n              swap1\n              pop\n                /* \"#utility.yul\":21016:21435   */\n              swap2\n              swap1\n              pop\n              jump\t// out\n                /* \"#utility.yul\":21441:21681   */\n            tag_304:\n                /* \"#utility.yul\":21581:21615   */\n              0x54686520616d6f756e7420656e7465726564206973206d6f7265207468616e20\n                /* \"#utility.yul\":21577:21578   */\n              0x00\n                /* \"#utility.yul\":21569:21575   */\n              dup3\n                /* \"#utility.yul\":21565:21579   */\n              add\n                /* \"#utility.yul\":21558:21616   */\n              mstore\n                /* \"#utility.yul\":21650:21673   */\n              0x77686174206e6565647320746f20626520706169640000000000000000000000\n                /* \"#utility.yul\":21645:21647   */\n              0x20\n                /* \"#utility.yul\":21637:21643   */\n              dup3\n                /* \"#utility.yul\":21633:21648   */\n              add\n                /* \"#utility.yul\":21626:21674   */\n              mstore\n                /* \"#utility.yul\":21441:21681   */\n              pop\n              jump\t// out\n                /* \"#utility.yul\":21687:22053   */\n            tag_305:\n                /* \"#utility.yul\":21829:21832   */\n              0x00\n                /* \"#utility.yul\":21850:21917   */\n              tag_498\n                /* \"#utility.yul\":21914:21916   */\n              0x35\n                /* \"#utility.yul\":21909:21912   */\n              dup4\n                /* \"#utility.yul\":21850:21917   */\n              tag_255\n              jump\t// in\n            tag_498:\n                /* \"#utility.yul\":21843:21917   */\n              swap2\n              pop\n                /* \"#utility.yul\":21926:22019   */\n              tag_499\n                /* \"#utility.yul\":22015:22018   */\n              dup3\n                /* \"#utility.yul\":21926:22019   */\n              tag_304\n              jump\t// in\n            tag_499:\n                /* \"#utility.yul\":22044:22046   */\n              0x40\n                /* \"#utility.yul\":22039:22042   */\n              dup3\n                /* \"#utility.yul\":22035:22047   */\n              add\n                /* \"#utility.yul\":22028:22047   */\n              swap1\n              pop\n                /* \"#utility.yul\":21687:22053   */\n              swap2\n              swap1\n              pop\n              jump\t// out\n                /* \"#utility.yul\":22059:22478   */\n            tag_201:\n                /* \"#utility.yul\":22225:22229   */\n              0x00\n                /* \"#utility.yul\":22263:22265   */\n              0x20\n                /* \"#utility.yul\":22252:22261   */\n              dup3\n                /* \"#utility.yul\":22248:22266   */\n              add\n                /* \"#utility.yul\":22240:22266   */\n              swap1\n              pop\n                /* \"#utility.yul\":22312:22321   */\n              dup2\n                /* \"#utility.yul\":22306:22310   */\n              dup2\n                /* \"#utility.yul\":22302:22322   */\n              sub\n                /* \"#utility.yul\":22298:22299   */\n              0x00\n                /* \"#utility.yul\":22287:22296   */\n              dup4\n                /* \"#utility.yul\":22283:22300   */\n              add\n                /* \"#utility.yul\":22276:22323   */\n              mstore\n                /* \"#utility.yul\":22340:22471   */\n              tag_501\n                /* \"#utility.yul\":22466:22470   */\n              dup2\n                /* \"#utility.yul\":22340:22471   */\n              tag_305\n              jump\t// in\n            tag_501:\n                /* \"#utility.yul\":22332:22471   */\n              swap1\n              pop\n                /* \"#utility.yul\":22059:22478   */\n              swap2\n              swap1\n              pop\n              jump\t// out\n                /* \"#utility.yul\":22484:22789   */\n            tag_203:\n                /* \"#utility.yul\":22524:22527   */\n              0x00\n                /* \"#utility.yul\":22543:22563   */\n              tag_503\n                /* \"#utility.yul\":22561:22562   */\n              dup3\n                /* \"#utility.yul\":22543:22563   */\n              tag_261\n              jump\t// in\n            tag_503:\n                /* \"#utility.yul\":22538:22563   */\n              swap2\n              pop\n                /* \"#utility.yul\":22577:22597   */\n              tag_504\n                /* \"#utility.yul\":22595:22596   */\n              dup4\n                /* \"#utility.yul\":22577:22597   */\n              tag_261\n              jump\t// in\n            tag_504:\n                /* \"#utility.yul\":22572:22597   */\n              swap3\n              pop\n                /* \"#utility.yul\":22731:22732   */\n              dup3\n                /* \"#utility.yul\":22663:22729   */\n              0xffffffffffffffffffffffffffffffffffffffffffffffffffffffffffffffff\n                /* \"#utility.yul\":22659:22733   */\n              sub\n                /* \"#utility.yul\":22656:22657   */\n              dup3\n                /* \"#utility.yul\":22653:22734   */\n              gt\n                /* \"#utility.yul\":22650:22757   */\n              iszero\n              tag_505\n              jumpi\n                /* \"#utility.yul\":22737:22755   */\n              tag_506\n              tag_301\n              jump\t// in\n            tag_506:\n                /* \"#utility.yul\":22650:22757   */\n            tag_505:\n                /* \"#utility.yul\":22781:22782   */\n              dup3\n                /* \"#utility.yul\":22778:22779   */\n              dup3\n                /* \"#utility.yul\":22774:22783   */\n              add\n                /* \"#utility.yul\":22767:22783   */\n              swap1\n              pop\n                /* \"#utility.yul\":22484:22789   */\n              swap3\n              swap2\n              pop\n              pop\n              jump\t// out\n                /* \"#utility.yul\":22795:22986   */\n            tag_205:\n                /* \"#utility.yul\":22835:22839   */\n              0x00\n                /* \"#utility.yul\":22855:22875   */\n              tag_508\n                /* \"#utility.yul\":22873:22874   */\n              dup3\n                /* \"#utility.yul\":22855:22875   */\n              tag_261\n              jump\t// in\n            tag_508:\n                /* \"#utility.yul\":22850:22875   */\n              swap2\n              pop\n                /* \"#utility.yul\":22889:22909   */\n              tag_509\n                /* \"#utility.yul\":22907:22908   */\n              dup4\n                /* \"#utility.yul\":22889:22909   */\n              tag_261\n              jump\t// in\n            tag_509:\n                /* \"#utility.yul\":22884:22909   */\n              swap3\n              pop\n                /* \"#utility.yul\":22928:22929   */\n              dup3\n                /* \"#utility.yul\":22925:22926   */\n              dup3\n                /* \"#utility.yul\":22922:22930   */\n              lt\n                /* \"#utility.yul\":22919:22953   */\n              iszero\n              tag_510\n              jumpi\n                /* \"#utility.yul\":22933:22951   */\n              tag_511\n              tag_301\n              jump\t// in\n            tag_511:\n                /* \"#utility.yul\":22919:22953   */\n            tag_510:\n                /* \"#utility.yul\":22978:22979   */\n              dup3\n                /* \"#utility.yul\":22975:22976   */\n              dup3\n                /* \"#utility.yul\":22971:22980   */\n              sub\n                /* \"#utility.yul\":22963:22980   */\n              swap1\n              pop\n                /* \"#utility.yul\":22795:22986   */\n              swap3\n              swap2\n              pop\n              pop\n              jump\t// out\n                /* \"#utility.yul\":22992:23215   */\n            tag_306:\n                /* \"#utility.yul\":23132:23166   */\n              0x596f752063616e277420666f7266656974206e6f6e2061636365707465642074\n                /* \"#utility.yul\":23128:23129   */\n              0x00\n                /* \"#utility.yul\":23120:23126   */\n              dup3\n                /* \"#utility.yul\":23116:23130   */\n              add\n                /* \"#utility.yul\":23109:23167   */\n              mstore\n                /* \"#utility.yul\":23201:23207   */\n              0x65726d7300000000000000000000000000000000000000000000000000000000\n                /* \"#utility.yul\":23196:23198   */\n              0x20\n                /* \"#utility.yul\":23188:23194   */\n              dup3\n                /* \"#utility.yul\":23184:23199   */\n              add\n                /* \"#utility.yul\":23177:23208   */\n              mstore\n                /* \"#utility.yul\":22992:23215   */\n              pop\n              jump\t// out\n                /* \"#utility.yul\":23221:23587   */\n            tag_307:\n                /* \"#utility.yul\":23363:23366   */\n              0x00\n                /* \"#utility.yul\":23384:23451   */\n              tag_514\n                /* \"#utility.yul\":23448:23450   */\n              0x24\n                /* \"#utility.yul\":23443:23446   */\n              dup4\n                /* \"#utility.yul\":23384:23451   */\n              tag_255\n              jump\t// in\n            tag_514:\n                /* \"#utility.yul\":23377:23451   */\n              swap2\n              pop\n                /* \"#utility.yul\":23460:23553   */\n              tag_515\n                /* \"#utility.yul\":23549:23552   */\n              dup3\n                /* \"#utility.yul\":23460:23553   */\n              tag_306\n              jump\t// in\n            tag_515:\n                /* \"#utility.yul\":23578:23580   */\n              0x40\n                /* \"#utility.yul\":23573:23576   */\n              dup3\n                /* \"#utility.yul\":23569:23581   */\n              add\n                /* \"#utility.yul\":23562:23581   */\n              swap1\n              pop\n                /* \"#utility.yul\":23221:23587   */\n              swap2\n              swap1\n              pop\n              jump\t// out\n                /* \"#utility.yul\":23593:24012   */\n            tag_231:\n                /* \"#utility.yul\":23759:23763   */\n              0x00\n                /* \"#utility.yul\":23797:23799   */\n              0x20\n                /* \"#utility.yul\":23786:23795   */\n              dup3\n                /* \"#utility.yul\":23782:23800   */\n              add\n                /* \"#utility.yul\":23774:23800   */\n              swap1\n              pop\n                /* \"#utility.yul\":23846:23855   */\n              dup2\n                /* \"#utility.yul\":23840:23844   */\n              dup2\n                /* \"#utility.yul\":23836:23856   */\n              sub\n                /* \"#utility.yul\":23832:23833   */\n              0x00\n                /* \"#utility.yul\":23821:23830   */\n              dup4\n                /* \"#utility.yul\":23817:23834   */\n              add\n                /* \"#utility.yul\":23810:23857   */\n              mstore\n                /* \"#utility.yul\":23874:24005   */\n              tag_517\n                /* \"#utility.yul\":24000:24004   */\n              dup2\n                /* \"#utility.yul\":23874:24005   */\n              tag_307\n              jump\t// in\n            tag_517:\n                /* \"#utility.yul\":23866:24005   */\n              swap1\n              pop\n                /* \"#utility.yul\":23593:24012   */\n              swap2\n              swap1\n              pop\n              jump\t// out\n\n            auxdata: 0xa26469706673582212204746ee6dd589e3a1120c611ff9c5e30364bbfdf4a7815d4249e760b999f47b5264736f6c634300080a0033\n        }\n    }\n\n    auxdata: 0xa26469706673582212202f06f35a98de733dd821fbda6aee948ca7f86fb76d12c3f04ace501cdeca37bc64736f6c634300080a0033\n}\n","bytecode":{"linkReferences":{},"object":"608060405234801561001057600080fd5b50613be1806100206000396000f3fe60806040523480156200001157600080fd5b5060043610620000465760003560e01c80634102a008146200004b578063e17036f4146200006b578063f4d79e6c14620000a1575b600080fd5b620000696004803603810190620000639190620005e8565b620000c3565b005b6200008960048036038101906200008391906200079a565b62000184565b60405162000098919062000837565b60405180910390f35b620000ab620001c4565b604051620000ba919062000922565b60405180910390f35b60008a8a8a8a338b8b8a8c8b8b604051620000de9062000254565b620000f49b9a9998979695949392919062000b76565b604051809103906000f08015801562000111573d6000803e3d6000fd5b5090506000819080600181540180825580915050600190039060005260206000200160009091909190916101000a81548173ffffffffffffffffffffffffffffffffffffffff021916908373ffffffffffffffffffffffffffffffffffffffff1602179055505050505050505050505050565b600081815481106200019557600080fd5b906000526020600020016000915054906101000a900473ffffffffffffffffffffffffffffffffffffffff1681565b606060008054806020026020016040519081016040528092919081815260200182805480156200024a57602002820191906000526020600020905b8160009054906101000a900473ffffffffffffffffffffffffffffffffffffffff1673ffffffffffffffffffffffffffffffffffffffff1681526020019060010190808311620001ff575b5050505050905090565b612f488062000c6483390190565b6000604051905090565b600080fd5b600080fd5b600080fd5b6000601f19601f8301169050919050565b7f4e487b7100000000000000000000000000000000000000000000000000000000600052604160045260246000fd5b620002c6826200027b565b810181811067ffffffffffffffff82111715620002e857620002e76200028c565b5b80604052505050565b6000620002fd62000262565b90506200030b8282620002bb565b919050565b600067ffffffffffffffff8211156200032e576200032d6200028c565b5b602082029050602081019050919050565b600080fd5b600080fd5b600067ffffffffffffffff8211156200036757620003666200028c565b5b62000372826200027b565b9050602081019050919050565b82818337600083830152505050565b6000620003a56200039f8462000349565b620002f1565b905082815260208101848484011115620003c457620003c362000344565b5b620003d18482856200037f565b509392505050565b600082601f830112620003f157620003f062000276565b5b8135620004038482602086016200038e565b91505092915050565b6000620004236200041d8462000310565b620002f1565b905080838252602082019050602084028301858111156200044957620004486200033f565b5b835b818110156200049757803567ffffffffffffffff81111562000472576200047162000276565b5b808601620004818982620003d9565b855260208501945050506020810190506200044b565b5050509392505050565b600082601f830112620004b957620004b862000276565b5b8135620004cb8482602086016200040c565b91505092915050565b6000819050919050565b620004e981620004d4565b8114620004f557600080fd5b50565b6000813590506200050981620004de565b92915050565b600073ffffffffffffffffffffffffffffffffffffffff82169050919050565b60006200053c826200050f565b9050919050565b6200054e816200052f565b81146200055a57600080fd5b50565b6000813590506200056e8162000543565b92915050565b600080fd5b60006060828403121562000592576200059162000574565b5b6200059e6060620002f1565b90506000620005b084828501620004f8565b6000830152506020620005c684828501620004f8565b6020830152506040620005dc84828501620004f8565b60408301525092915050565b6000806000806000806000806000806101c08b8d0312156200060f576200060e6200026c565b5b60008b013567ffffffffffffffff81111562000630576200062f62000271565b5b6200063e8d828e01620004a1565b9a50506020620006518d828e01620004f8565b9950506040620006648d828e016200055d565b98505060608b013567ffffffffffffffff81111562000688576200068762000271565b5b620006968d828e01620003d9565b9750506080620006a98d828e0162000579565b96505060e0620006bc8d828e0162000579565b9550506101408b013567ffffffffffffffff811115620006e157620006e062000271565b5b620006ef8d828e01620003d9565b9450506101608b013567ffffffffffffffff81111562000714576200071362000271565b5b620007228d828e01620003d9565b9350506101808b013567ffffffffffffffff81111562000747576200074662000271565b5b620007558d828e01620003d9565b9250506101a08b013567ffffffffffffffff8111156200077a576200077962000271565b5b620007888d828e01620003d9565b9150509295989b9194979a5092959850565b600060208284031215620007b357620007b26200026c565b5b6000620007c384828501620004f8565b91505092915050565b6000819050919050565b6000620007f7620007f1620007eb846200050f565b620007cc565b6200050f565b9050919050565b60006200080b82620007d6565b9050919050565b60006200081f82620007fe565b9050919050565b620008318162000812565b82525050565b60006020820190506200084e600083018462000826565b92915050565b600081519050919050565b600082825260208201905092915050565b6000819050602082019050919050565b6200088b8162000812565b82525050565b60006200089f838362000880565b60208301905092915050565b6000602082019050919050565b6000620008c58262000854565b620008d181856200085f565b9350620008de8362000870565b8060005b8381101562000915578151620008f9888262000891565b97506200090683620008ab565b925050600181019050620008e2565b5085935050505092915050565b600060208201905081810360008301526200093e8184620008b8565b905092915050565b600081519050919050565b600082825260208201905092915050565b6000819050602082019050919050565b600081519050919050565b600082825260208201905092915050565b60005b83811015620009ae57808201518184015260208101905062000991565b83811115620009be576000848401525b50505050565b6000620009d18262000972565b620009dd81856200097d565b9350620009ef8185602086016200098e565b620009fa816200027b565b840191505092915050565b600062000a138383620009c4565b905092915050565b6000602082019050919050565b600062000a358262000946565b62000a41818562000951565b93508360208202850162000a558562000962565b8060005b8581101562000a97578484038952815162000a75858262000a05565b945062000a828362000a1b565b925060208a0199505060018101905062000a59565b50829750879550505050505092915050565b62000ab481620004d4565b82525050565b62000ac5816200052f565b82525050565b600082825260208201905092915050565b600062000ae98262000972565b62000af5818562000acb565b935062000b078185602086016200098e565b62000b12816200027b565b840191505092915050565b62000b2881620004d4565b82525050565b60608201600082015162000b46600085018262000b1d565b50602082015162000b5b602085018262000b1d565b50604082015162000b70604085018262000b1d565b50505050565b60006101e082019050818103600083015262000b93818e62000a28565b905062000ba4602083018d62000aa9565b62000bb3604083018c62000aba565b818103606083015262000bc7818b62000adc565b905062000bd8608083018a62000aba565b62000be760a083018962000b2e565b62000bf761010083018862000b2e565b81810361016083015262000c0c818762000adc565b905081810361018083015262000c23818662000adc565b90508181036101a083015262000c3a818562000adc565b90508181036101c083015262000c51818462000adc565b90509c9b50505050505050505050505056fe6080604052600060025560006003556000600860146101000a81548160ff0219169083151502179055506000600860156101000a81548160ff0219169083151502179055506000600860166101000a81548160ff02191690831515021790555060006014553480156200007157600080fd5b5060405162002f4838038062002f48833981810160405281019062000097919062000803565b86600860006101000a81548173ffffffffffffffffffffffffffffffffffffffff021916908373ffffffffffffffffffffffffffffffffffffffff16021790555060006012905082816000019080519060200190620000f8929190620003a6565b506000600990508b60008190555085600490805190602001906200011e929190620003a6565b50846005908051906020019062000137929190620003a6565b5060005b8d51811015620001b857816000018e82815181106200015f576200015e620009cc565b5b6020026020010151908060018154018082558091505060019003906000526020600020016000909190919091509080519060200190620001a1929190620003a6565b508080620001af9062000a2a565b9150506200013b565b5060008160010160006101000a81548160ff0219169083151502179055508781600201600082015181600001556020820151816001015560408201518160020155905050868160050160008201518160000155602082015181600101556040820151816002015590505060008160080160006101000a81548160ff0219169083151502179055508b60018190555089600690805190602001906200025e929190620003a6565b508a600760006101000a81548173ffffffffffffffffffffffffffffffffffffffff021916908373ffffffffffffffffffffffffffffffffffffffff160217905550600060136000601454815260200190815260200160002090508c81600001819055506000816001018190555060018160020160006101000a81548160ff02191690831515021790555060008160020160016101000a81548160ff02191690831515021790555060008160020160026101000a81548160ff02191690831515021790555060008160020160036101000a81548160ff02191690831515021790555060008160020160046101000a81548160ff0219169083151502179055508381600301908051906020019062000377929190620003a6565b50601460008154809291906200038d9062000a2a565b9190505550505050505050505050505050505062000add565b828054620003b49062000aa7565b90600052602060002090601f016020900481019282620003d8576000855562000424565b82601f10620003f357805160ff191683800117855562000424565b8280016001018555821562000424579182015b828111156200042357825182559160200191906001019062000406565b5b50905062000433919062000437565b5090565b5b808211156200045257600081600090555060010162000438565b5090565b6000604051905090565b600080fd5b600080fd5b600080fd5b6000601f19601f8301169050919050565b7f4e487b7100000000000000000000000000000000000000000000000000000000600052604160045260246000fd5b620004ba826200046f565b810181811067ffffffffffffffff82111715620004dc57620004db62000480565b5b80604052505050565b6000620004f162000456565b9050620004ff8282620004af565b919050565b600067ffffffffffffffff82111562000522576200052162000480565b5b602082029050602081019050919050565b600080fd5b600080fd5b600067ffffffffffffffff8211156200055b576200055a62000480565b5b62000566826200046f565b9050602081019050919050565b60005b838110156200059357808201518184015260208101905062000576565b83811115620005a3576000848401525b50505050565b6000620005c0620005ba846200053d565b620004e5565b905082815260208101848484011115620005df57620005de62000538565b5b620005ec84828562000573565b509392505050565b600082601f8301126200060c576200060b6200046a565b5b81516200061e848260208601620005a9565b91505092915050565b60006200063e620006388462000504565b620004e5565b9050808382526020820190506020840283018581111562000664576200066362000533565b5b835b81811015620006b257805167ffffffffffffffff8111156200068d576200068c6200046a565b5b8086016200069c8982620005f4565b8552602085019450505060208101905062000666565b5050509392505050565b600082601f830112620006d457620006d36200046a565b5b8151620006e684826020860162000627565b91505092915050565b6000819050919050565b6200070481620006ef565b81146200071057600080fd5b50565b6000815190506200072481620006f9565b92915050565b600073ffffffffffffffffffffffffffffffffffffffff82169050919050565b600062000757826200072a565b9050919050565b62000769816200074a565b81146200077557600080fd5b50565b60008151905062000789816200075e565b92915050565b600080fd5b600060608284031215620007ad57620007ac6200078f565b5b620007b96060620004e5565b90506000620007cb8482850162000713565b6000830152506020620007e18482850162000713565b6020830152506040620007f78482850162000713565b60408301525092915050565b60008060008060008060008060008060006101e08c8e0312156200082c576200082b62000460565b5b60008c015167ffffffffffffffff8111156200084d576200084c62000465565b5b6200085b8e828f01620006bc565b9b505060206200086e8e828f0162000713565b9a50506040620008818e828f0162000778565b99505060608c015167ffffffffffffffff811115620008a557620008a462000465565b5b620008b38e828f01620005f4565b9850506080620008c68e828f0162000778565b97505060a0620008d98e828f0162000794565b965050610100620008ed8e828f0162000794565b9550506101608c015167ffffffffffffffff81111562000912576200091162000465565b5b620009208e828f01620005f4565b9450506101808c015167ffffffffffffffff81111562000945576200094462000465565b5b620009538e828f01620005f4565b9350506101a08c015167ffffffffffffffff81111562000978576200097762000465565b5b620009868e828f01620005f4565b9250506101c08c015167ffffffffffffffff811115620009ab57620009aa62000465565b5b620009b98e828f01620005f4565b9150509295989b509295989b9093969950565b7f4e487b7100000000000000000000000000000000000000000000000000000000600052603260045260246000fd5b7f4e487b7100000000000000000000000000000000000000000000000000000000600052601160045260246000fd5b600062000a3782620006ef565b91507fffffffffffffffffffffffffffffffffffffffffffffffffffffffffffffffff82141562000a6d5762000a6c620009fb565b5b600182019050919050565b7f4e487b7100000000000000000000000000000000000000000000000000000000600052602260045260246000fd5b6000600282049050600182168062000ac057607f821691505b6020821081141562000ad75762000ad662000a78565b5b50919050565b61245b8062000aed6000396000f3fe6080604052600436106101405760003560e01c806360a7f29f116100b6578063a5ce3eb01161006f578063a5ce3eb01461040e578063c35905c614610439578063cefceaf914610464578063e8919b1a1461048f578063ef197de9146104ba578063fad03404146104d157610140565b806360a7f29f146103455780637284e4161461035c578063815af9081461038757806382b9f2621461039e578063901c5953146103c7578063a18861a3146103e357610140565b8063185750b011610108578063185750b01461021f5780632804b2c01461024a578063295b4e1714610275578063308f5566146102a057806336da4468146102e45780634051ddac1461030f57610140565b806305116bb01461014557806308135879146101705780630ad2a0741461019e5780630baff053146101c957806312fa769f146101f4575b600080fd5b34801561015157600080fd5b5061015a6104ff565b60405161016791906118a3565b60405180910390f35b34801561017c57600080fd5b5061018561058d565b604051610195949392919061193b565b60405180910390f35b3480156101aa57600080fd5b506101b3610615565b6040516101c09190611990565b60405180910390f35b3480156101d557600080fd5b506101de61061b565b6040516101eb91906119ab565b60405180910390f35b34801561020057600080fd5b5061020961062e565b6040516102169190611990565b60405180910390f35b34801561022b57600080fd5b50610234610634565b60405161024191906118a3565b60405180910390f35b34801561025657600080fd5b5061025f6106c8565b60405161026c9190611a07565b60405180910390f35b34801561028157600080fd5b5061028a6106ee565b60405161029791906119ab565b60405180910390f35b3480156102ac57600080fd5b506102c760048036038101906102c29190611a62565b610701565b6040516102db989796959493929190611a8f565b60405180910390f35b3480156102f057600080fd5b506102f9610812565b6040516103069190611a07565b60405180910390f35b34801561031b57600080fd5b50610324610838565b60405161033c9c9b9a99989796959493929190611b14565b60405180910390f35b34801561035157600080fd5b5061035a610aa0565b005b34801561036857600080fd5b50610371610b3b565b60405161037e91906118a3565b60405180910390f35b34801561039357600080fd5b5061039c610bc9565b005b3480156103aa57600080fd5b506103c560048036038101906103c09190611d18565b610cd2565b005b6103e160048036038101906103dc9190611d61565b610f45565b005b3480156103ef57600080fd5b506103f8611387565b6040516104059190611990565b60405180910390f35b34801561041a57600080fd5b50610423611391565b6040516104309190611990565b60405180910390f35b34801561044557600080fd5b5061044e611397565b60405161045b9190611990565b60405180910390f35b34801561047057600080fd5b5061047961139d565b60405161048691906118a3565b60405180910390f35b34801561049b57600080fd5b506104a461142b565b6040516104b191906119ab565b60405180910390f35b3480156104c657600080fd5b506104cf61143e565b005b3480156104dd57600080fd5b506104e66115d7565b6040516104f69493929190611ec9565b60405180910390f35b6004805461050c90611f45565b80601f016020809104026020016040519081016040528092919081815260200182805461053890611f45565b80156105855780601f1061055a57610100808354040283529160200191610585565b820191906000526020600020905b81548152906001019060200180831161056857829003601f168201915b505050505081565b60098060010160009054906101000a900460ff169080600201604051806060016040529081600082015481526020016001820154815260200160028201548152505090806005016040518060600160405290816000820154815260200160018201548152602001600282015481525050908060080160009054906101000a900460ff16905084565b60005481565b600860159054906101000a900460ff1681565b60025481565b601280600001805461064590611f45565b80601f016020809104026020016040519081016040528092919081815260200182805461067190611f45565b80156106be5780601f10610693576101008083540402835291602001916106be565b820191906000526020600020905b8154815290600101906020018083116106a157829003601f168201915b5050505050905081565b600760009054906101000a900473ffffffffffffffffffffffffffffffffffffffff1681565b600860149054906101000a900460ff1681565b60136020528060005260406000206000915090508060000154908060010154908060020160009054906101000a900460ff16908060020160019054906101000a900460ff16908060020160029054906101000a900460ff16908060020160039054906101000a900460ff16908060020160049054906101000a900460ff169080600301805461078f90611f45565b80601f01602080910402602001604051908101604052809291908181526020018280546107bb90611f45565b80156108085780601f106107dd57610100808354040283529160200191610808565b820191906000526020600020905b8154815290600101906020018083116107eb57829003601f168201915b5050505050905088565b600860009054906101000a900473ffffffffffffffffffffffffffffffffffffffff1681565b60608060606000806000806000806000806000600660056004600354600154600254600054600760009054906101000a900473ffffffffffffffffffffffffffffffffffffffff16600860009054906101000a900473ffffffffffffffffffffffffffffffffffffffff16600960010160009054906101000a900460ff16600860149054906101000a900460ff16600860159054906101000a900460ff168b80546108e290611f45565b80601f016020809104026020016040519081016040528092919081815260200182805461090e90611f45565b801561095b5780601f106109305761010080835404028352916020019161095b565b820191906000526020600020905b81548152906001019060200180831161093e57829003601f168201915b50505050509b508a805461096e90611f45565b80601f016020809104026020016040519081016040528092919081815260200182805461099a90611f45565b80156109e75780601f106109bc576101008083540402835291602001916109e7565b820191906000526020600020905b8154815290600101906020018083116109ca57829003601f168201915b50505050509a508980546109fa90611f45565b80601f0160208091040260200160405190810160405280929190818152602001828054610a2690611f45565b8015610a735780601f10610a4857610100808354040283529160200191610a73565b820191906000526020600020905b815481529060010190602001808311610a5657829003601f168201915b505050505099509b509b509b509b509b509b509b509b509b509b509b509b50909192939495969798999a9b565b600860009054906101000a900473ffffffffffffffffffffffffffffffffffffffff1673ffffffffffffffffffffffffffffffffffffffff163373ffffffffffffffffffffffffffffffffffffffff1614610b30576040517f08c379a0000000000000000000000000000000000000000000000000000000008152600401610b2790611fc3565b60405180910390fd5b600054600181905550565b60068054610b4890611f45565b80601f0160208091040260200160405190810160405280929190818152602001828054610b7490611f45565b8015610bc15780601f10610b9657610100808354040283529160200191610bc1565b820191906000526020600020905b815481529060010190602001808311610ba457829003601f168201915b505050505081565b600760009054906101000a900473ffffffffffffffffffffffffffffffffffffffff1673ffffffffffffffffffffffffffffffffffffffff163373ffffffffffffffffffffffffffffffffffffffff1614610c59576040517f08c379a0000000000000000000000000000000000000000000000000000000008152600401610c509061202f565b60405180910390fd5b60001515600960010160009054906101000a900460ff16151514610cb2576040517f08c379a0000000000000000000000000000000000000000000000000000000008152600401610ca99061209b565b60405180910390fd5b6001600960010160006101000a81548160ff021916908315150217905550565b600860009054906101000a900473ffffffffffffffffffffffffffffffffffffffff1673ffffffffffffffffffffffffffffffffffffffff163373ffffffffffffffffffffffffffffffffffffffff1614610d62576040517f08c379a0000000000000000000000000000000000000000000000000000000008152600401610d5990611fc3565b60405180910390fd5b60011515600960010160009054906101000a900460ff16151514610dbb576040517f08c379a0000000000000000000000000000000000000000000000000000000008152600401610db290612107565b60405180910390fd5b60011515600860149054906101000a900460ff16151514610e11576040517f08c379a0000000000000000000000000000000000000000000000000000000008152600401610e0890612173565b60405180910390fd5b6001600860156101000a81548160ff0219169083151502179055506000600860146101000a81548160ff021916908315150217905550600054600181905550600060136000601454815260200190815260200160002090506001548160000181905550600254816001018190555060008160020160006101000a81548160ff02191690831515021790555060018160020160016101000a81548160ff02191690831515021790555060008160020160026101000a81548160ff02191690831515021790555060008160020160036101000a81548160ff02191690831515021790555060008160020160046101000a81548160ff02191690831515021790555081816003019080519060200190610f28929190611746565b5060146000815480929190610f3c906121c2565b91905055505050565b600760009054906101000a900473ffffffffffffffffffffffffffffffffffffffff1673ffffffffffffffffffffffffffffffffffffffff163373ffffffffffffffffffffffffffffffffffffffff1614610fd5576040517f08c379a0000000000000000000000000000000000000000000000000000000008152600401610fcc9061202f565b60405180910390fd5b60011515600960010160009054906101000a900460ff1615151461102e576040517f08c379a000000000000000000000000000000000000000000000000000000000815260040161102590612257565b60405180910390fd5b6000349050600154811115611078576040517f08c379a000000000000000000000000000000000000000000000000000000000815260040161106f906122e9565b60405180910390fd5b806002600082825461108a9190612309565b9250508190555080600160008282546110a3919061235f565b9250508190555080600360008282546110bc9190612309565b92505081905550600860009054906101000a900473ffffffffffffffffffffffffffffffffffffffff1673ffffffffffffffffffffffffffffffffffffffff166108fc829081150290604051600060405180830381858888f1935050505015801561112b573d6000803e3d6000fd5b5060006013600060145481526020019081526020016000209050600154816000018190555081816001018190555060008160020160016101000a81548160ff02191690831515021790555060008160020160006101000a81548160ff02191690831515021790555060018160020160036101000a81548160ff02191690831515021790555060008160020160046101000a81548160ff021916908315150217905550838160030190805190602001906111e5929190611746565b50601460008154809291906111f9906121c2565b9190505550600060015414156112e65760006013600060145481526020019081526020016000209050600054600181905550600154816000018190555082816001018190555060008160020160016101000a81548160ff02191690831515021790555060008160020160006101000a81548160ff02191690831515021790555060008160020160036101000a81548160ff02191690831515021790555060018160020160046101000a81548160ff021916908315150217905550848160030190805190602001906112cb929190611746565b50601460008154809291906112df906121c2565b9190505550505b826003541415611348576001600860146101000a81548160ff0219169083151502179055506000600860156101000a81548160ff02191690831515021790555060018160020160026101000a81548160ff021916908315150217905550611366565b60008160020160026101000a81548160ff0219169083151502179055505b6000600860156101000a81548160ff02191690831515021790555050505050565b6000601454905090565b60035481565b60015481565b600580546113aa90611f45565b80601f01602080910402602001604051908101604052809291908181526020018280546113d690611f45565b80156114235780601f106113f857610100808354040283529160200191611423565b820191906000526020600020905b81548152906001019060200180831161140657829003601f168201915b505050505081565b600860169054906101000a900460ff1681565b600760009054906101000a900473ffffffffffffffffffffffffffffffffffffffff1673ffffffffffffffffffffffffffffffffffffffff163373ffffffffffffffffffffffffffffffffffffffff16146114ce576040517f08c379a00000000000000000000000000000000000000000000000000000000081526004016114c59061202f565b60405180910390fd5b600860009054906101000a900473ffffffffffffffffffffffffffffffffffffffff1673ffffffffffffffffffffffffffffffffffffffff163373ffffffffffffffffffffffffffffffffffffffff161461155e576040517f08c379a000000000000000000000000000000000000000000000000000000000815260040161155590611fc3565b60405180910390fd5b60011515600960010160009054906101000a900460ff161515146115b7576040517f08c379a00000000000000000000000000000000000000000000000000000000081526004016115ae90612405565b60405180910390fd5b6000600960010160006101000a81548160ff021916908315150217905550565b606060006115e36117cc565b6115eb6117cc565b6009600001600960010160009054906101000a900460ff166009600201600960050183805480602002602001604051908101604052809291908181526020016000905b828210156116da57838290600052602060002001805461164d90611f45565b80601f016020809104026020016040519081016040528092919081815260200182805461167990611f45565b80156116c65780601f1061169b576101008083540402835291602001916116c6565b820191906000526020600020905b8154815290600101906020018083116116a957829003601f168201915b50505050508152602001906001019061162e565b50505050935081604051806060016040529081600082015481526020016001820154815260200160028201548152505091508060405180606001604052908160008201548152602001600182015481526020016002820154815250509050935093509350935090919293565b82805461175290611f45565b90600052602060002090601f01602090048101928261177457600085556117bb565b82601f1061178d57805160ff19168380011785556117bb565b828001600101855582156117bb579182015b828111156117ba57825182559160200191906001019061179f565b5b5090506117c891906117ed565b5090565b60405180606001604052806000815260200160008152602001600081525090565b5b808211156118065760008160009055506001016117ee565b5090565b600081519050919050565b600082825260208201905092915050565b60005b83811015611844578082015181840152602081019050611829565b83811115611853576000848401525b50505050565b6000601f19601f8301169050919050565b60006118758261180a565b61187f8185611815565b935061188f818560208601611826565b61189881611859565b840191505092915050565b600060208201905081810360008301526118bd818461186a565b905092915050565b60008115159050919050565b6118da816118c5565b82525050565b6000819050919050565b6118f3816118e0565b82525050565b60608201600082015161190f60008501826118ea565b50602082015161192260208501826118ea565b50604082015161193560408501826118ea565b50505050565b60006101008201905061195160008301876118d1565b61195e60208301866118f9565b61196b60808301856118f9565b61197860e08301846118d1565b95945050505050565b61198a816118e0565b82525050565b60006020820190506119a56000830184611981565b92915050565b60006020820190506119c060008301846118d1565b92915050565b600073ffffffffffffffffffffffffffffffffffffffff82169050919050565b60006119f1826119c6565b9050919050565b611a01816119e6565b82525050565b6000602082019050611a1c60008301846119f8565b92915050565b6000604051905090565b600080fd5b600080fd5b611a3f816118e0565b8114611a4a57600080fd5b50565b600081359050611a5c81611a36565b92915050565b600060208284031215611a7857611a77611a2c565b5b6000611a8684828501611a4d565b91505092915050565b600061010082019050611aa5600083018b611981565b611ab2602083018a611981565b611abf60408301896118d1565b611acc60608301886118d1565b611ad960808301876118d1565b611ae660a08301866118d1565b611af360c08301856118d1565b81810360e0830152611b05818461186a565b90509998505050505050505050565b6000610180820190508181036000830152611b2f818f61186a565b90508181036020830152611b43818e61186a565b90508181036040830152611b57818d61186a565b9050611b66606083018c611981565b611b73608083018b611981565b611b8060a083018a611981565b611b8d60c0830189611981565b611b9a60e08301886119f8565b611ba86101008301876119f8565b611bb66101208301866118d1565b611bc46101408301856118d1565b611bd26101608301846118d1565b9d9c50505050505050505050505050565b600080fd5b600080fd5b7f4e487b7100000000000000000000000000000000000000000000000000000000600052604160045260246000fd5b611c2582611859565b810181811067ffffffffffffffff82111715611c4457611c43611bed565b5b80604052505050565b6000611c57611a22565b9050611c638282611c1c565b919050565b600067ffffffffffffffff821115611c8357611c82611bed565b5b611c8c82611859565b9050602081019050919050565b82818337600083830152505050565b6000611cbb611cb684611c68565b611c4d565b905082815260208101848484011115611cd757611cd6611be8565b5b611ce2848285611c99565b509392505050565b600082601f830112611cff57611cfe611be3565b5b8135611d0f848260208601611ca8565b91505092915050565b600060208284031215611d2e57611d2d611a2c565b5b600082013567ffffffffffffffff811115611d4c57611d4b611a31565b5b611d5884828501611cea565b91505092915050565b60008060408385031215611d7857611d77611a2c565b5b600083013567ffffffffffffffff811115611d9657611d95611a31565b5b611da285828601611cea565b9250506020611db385828601611a4d565b9150509250929050565b600081519050919050565b600082825260208201905092915050565b6000819050602082019050919050565b600082825260208201905092915050565b6000611e058261180a565b611e0f8185611de9565b9350611e1f818560208601611826565b611e2881611859565b840191505092915050565b6000611e3f8383611dfa565b905092915050565b6000602082019050919050565b6000611e5f82611dbd565b611e698185611dc8565b935083602082028501611e7b85611dd9565b8060005b85811015611eb75784840389528151611e988582611e33565b9450611ea383611e47565b925060208a01995050600181019050611e7f565b50829750879550505050505092915050565b6000610100820190508181036000830152611ee48187611e54565b9050611ef360208301866118d1565b611f0060408301856118f9565b611f0d60a08301846118f9565b95945050505050565b7f4e487b7100000000000000000000000000000000000000000000000000000000600052602260045260246000fd5b60006002820490506001821680611f5d57607f821691505b60208210811415611f7157611f70611f16565b5b50919050565b7f596f7520617265206e6f742074686520737570706c6965720000000000000000600082015250565b6000611fad601883611815565b9150611fb882611f77565b602082019050919050565b60006020820190508181036000830152611fdc81611fa0565b9050919050565b7f596f7520617265206e6f742074686520637573746f6d65720000000000000000600082015250565b6000612019601883611815565b915061202482611fe3565b602082019050919050565b600060208201905081810360008301526120488161200c565b9050919050565b7f546865207465726d732061726520616c72656164792061636365707465640000600082015250565b6000612085601e83611815565b91506120908261204f565b602082019050919050565b600060208201905081810360008301526120b481612078565b9050919050565b7f5465726d7320617265206e6f7420616363657074656400000000000000000000600082015250565b60006120f1601683611815565b91506120fc826120bb565b602082019050919050565b60006020820190508181036000830152612120816120e4565b9050919050565b7f5061796d656e74206973206e6f7420646f6e6500000000000000000000000000600082015250565b600061215d601383611815565b915061216882612127565b602082019050919050565b6000602082019050818103600083015261218c81612150565b9050919050565b7f4e487b7100000000000000000000000000000000000000000000000000000000600052601160045260246000fd5b60006121cd826118e0565b91507fffffffffffffffffffffffffffffffffffffffffffffffffffffffffffffffff821415612200576121ff612193565b5b600182019050919050565b7f546865207465726d7320617265206e6f74206163636570746564000000000000600082015250565b6000612241601a83611815565b915061224c8261220b565b602082019050919050565b6000602082019050818103600083015261227081612234565b9050919050565b7f54686520616d6f756e7420656e7465726564206973206d6f7265207468616e2060008201527f77686174206e6565647320746f20626520706169640000000000000000000000602082015250565b60006122d3603583611815565b91506122de82612277565b604082019050919050565b60006020820190508181036000830152612302816122c6565b9050919050565b6000612314826118e0565b915061231f836118e0565b9250827fffffffffffffffffffffffffffffffffffffffffffffffffffffffffffffffff0382111561235457612353612193565b5b828201905092915050565b600061236a826118e0565b9150612375836118e0565b92508282101561238857612387612193565b5b828203905092915050565b7f596f752063616e277420666f7266656974206e6f6e206163636570746564207460008201527f65726d7300000000000000000000000000000000000000000000000000000000602082015250565b60006123ef602483611815565b91506123fa82612393565b604082019050919050565b6000602082019050818103600083015261241e816123e2565b905091905056fea26469706673582212204746ee6dd589e3a1120c611ff9c5e30364bbfdf4a7815d4249e760b999f47b5264736f6c634300080a0033a26469706673582212202f06f35a98de733dd821fbda6aee948ca7f86fb76d12c3f04ace501cdeca37bc64736f6c634300080a0033","opcodes":"PUSH1 0x80 PUSH1 0x40 MSTORE CALLVALUE DUP1 ISZERO PUSH2 0x10 JUMPI PUSH1 0x0 DUP1 REVERT JUMPDEST POP PUSH2 0x3BE1 DUP1 PUSH2 0x20 PUSH1 0x0 CODECOPY PUSH1 0x0 RETURN INVALID PUSH1 0x80 PUSH1 0x40 MSTORE CALLVALUE DUP1 ISZERO PUSH3 0x11 JUMPI PUSH1 0x0 DUP1 REVERT JUMPDEST POP PUSH1 0x4 CALLDATASIZE LT PUSH3 0x46 JUMPI PUSH1 0x0 CALLDATALOAD PUSH1 0xE0 SHR DUP1 PUSH4 0x4102A008 EQ PUSH3 0x4B JUMPI DUP1 PUSH4 0xE17036F4 EQ PUSH3 0x6B JUMPI DUP1 PUSH4 0xF4D79E6C EQ PUSH3 0xA1 JUMPI JUMPDEST PUSH1 0x0 DUP1 REVERT JUMPDEST PUSH3 0x69 PUSH1 0x4 DUP1 CALLDATASIZE SUB DUP2 ADD SWAP1 PUSH3 0x63 SWAP2 SWAP1 PUSH3 0x5E8 JUMP JUMPDEST PUSH3 0xC3 JUMP JUMPDEST STOP JUMPDEST PUSH3 0x89 PUSH1 0x4 DUP1 CALLDATASIZE SUB DUP2 ADD SWAP1 PUSH3 0x83 SWAP2 SWAP1 PUSH3 0x79A JUMP JUMPDEST PUSH3 0x184 JUMP JUMPDEST PUSH1 0x40 MLOAD PUSH3 0x98 SWAP2 SWAP1 PUSH3 0x837 JUMP JUMPDEST PUSH1 0x40 MLOAD DUP1 SWAP2 SUB SWAP1 RETURN JUMPDEST PUSH3 0xAB PUSH3 0x1C4 JUMP JUMPDEST PUSH1 0x40 MLOAD PUSH3 0xBA SWAP2 SWAP1 PUSH3 0x922 JUMP JUMPDEST PUSH1 0x40 MLOAD DUP1 SWAP2 SUB SWAP1 RETURN JUMPDEST PUSH1 0x0 DUP11 DUP11 DUP11 DUP11 CALLER DUP12 DUP12 DUP11 DUP13 DUP12 DUP12 PUSH1 0x40 MLOAD PUSH3 0xDE SWAP1 PUSH3 0x254 JUMP JUMPDEST PUSH3 0xF4 SWAP12 SWAP11 SWAP10 SWAP9 SWAP8 SWAP7 SWAP6 SWAP5 SWAP4 SWAP3 SWAP2 SWAP1 PUSH3 0xB76 JUMP JUMPDEST PUSH1 0x40 MLOAD DUP1 SWAP2 SUB SWAP1 PUSH1 0x0 CREATE DUP1 ISZERO DUP1 ISZERO PUSH3 0x111 JUMPI RETURNDATASIZE PUSH1 0x0 DUP1 RETURNDATACOPY RETURNDATASIZE PUSH1 0x0 REVERT JUMPDEST POP SWAP1 POP PUSH1 0x0 DUP2 SWAP1 DUP1 PUSH1 0x1 DUP2 SLOAD ADD DUP1 DUP3 SSTORE DUP1 SWAP2 POP POP PUSH1 0x1 SWAP1 SUB SWAP1 PUSH1 0x0 MSTORE PUSH1 0x20 PUSH1 0x0 KECCAK256 ADD PUSH1 0x0 SWAP1 SWAP2 SWAP1 SWAP2 SWAP1 SWAP2 PUSH2 0x100 EXP DUP2 SLOAD DUP2 PUSH20 0xFFFFFFFFFFFFFFFFFFFFFFFFFFFFFFFFFFFFFFFF MUL NOT AND SWAP1 DUP4 PUSH20 0xFFFFFFFFFFFFFFFFFFFFFFFFFFFFFFFFFFFFFFFF AND MUL OR SWAP1 SSTORE POP POP POP POP POP POP POP POP POP POP POP POP JUMP JUMPDEST PUSH1 0x0 DUP2 DUP2 SLOAD DUP2 LT PUSH3 0x195 JUMPI PUSH1 0x0 DUP1 REVERT JUMPDEST SWAP1 PUSH1 0x0 MSTORE PUSH1 0x20 PUSH1 0x0 KECCAK256 ADD PUSH1 0x0 SWAP2 POP SLOAD SWAP1 PUSH2 0x100 EXP SWAP1 DIV PUSH20 0xFFFFFFFFFFFFFFFFFFFFFFFFFFFFFFFFFFFFFFFF AND DUP2 JUMP JUMPDEST PUSH1 0x60 PUSH1 0x0 DUP1 SLOAD DUP1 PUSH1 0x20 MUL PUSH1 0x20 ADD PUSH1 0x40 MLOAD SWAP1 DUP2 ADD PUSH1 0x40 MSTORE DUP1 SWAP3 SWAP2 SWAP1 DUP2 DUP2 MSTORE PUSH1 0x20 ADD DUP3 DUP1 SLOAD DUP1 ISZERO PUSH3 0x24A JUMPI PUSH1 0x20 MUL DUP3 ADD SWAP2 SWAP1 PUSH1 0x0 MSTORE PUSH1 0x20 PUSH1 0x0 KECCAK256 SWAP1 JUMPDEST DUP2 PUSH1 0x0 SWAP1 SLOAD SWAP1 PUSH2 0x100 EXP SWAP1 DIV PUSH20 0xFFFFFFFFFFFFFFFFFFFFFFFFFFFFFFFFFFFFFFFF AND PUSH20 0xFFFFFFFFFFFFFFFFFFFFFFFFFFFFFFFFFFFFFFFF AND DUP2 MSTORE PUSH1 0x20 ADD SWAP1 PUSH1 0x1 ADD SWAP1 DUP1 DUP4 GT PUSH3 0x1FF JUMPI JUMPDEST POP POP POP POP POP SWAP1 POP SWAP1 JUMP JUMPDEST PUSH2 0x2F48 DUP1 PUSH3 0xC64 DUP4 CODECOPY ADD SWAP1 JUMP JUMPDEST PUSH1 0x0 PUSH1 0x40 MLOAD SWAP1 POP SWAP1 JUMP JUMPDEST PUSH1 0x0 DUP1 REVERT JUMPDEST PUSH1 0x0 DUP1 REVERT JUMPDEST PUSH1 0x0 DUP1 REVERT JUMPDEST PUSH1 0x0 PUSH1 0x1F NOT PUSH1 0x1F DUP4 ADD AND SWAP1 POP SWAP2 SWAP1 POP JUMP JUMPDEST PUSH32 0x4E487B7100000000000000000000000000000000000000000000000000000000 PUSH1 0x0 MSTORE PUSH1 0x41 PUSH1 0x4 MSTORE PUSH1 0x24 PUSH1 0x0 REVERT JUMPDEST PUSH3 0x2C6 DUP3 PUSH3 0x27B JUMP JUMPDEST DUP2 ADD DUP2 DUP2 LT PUSH8 0xFFFFFFFFFFFFFFFF DUP3 GT OR ISZERO PUSH3 0x2E8 JUMPI PUSH3 0x2E7 PUSH3 0x28C JUMP JUMPDEST JUMPDEST DUP1 PUSH1 0x40 MSTORE POP POP POP JUMP JUMPDEST PUSH1 0x0 PUSH3 0x2FD PUSH3 0x262 JUMP JUMPDEST SWAP1 POP PUSH3 0x30B DUP3 DUP3 PUSH3 0x2BB JUMP JUMPDEST SWAP2 SWAP1 POP JUMP JUMPDEST PUSH1 0x0 PUSH8 0xFFFFFFFFFFFFFFFF DUP3 GT ISZERO PUSH3 0x32E JUMPI PUSH3 0x32D PUSH3 0x28C JUMP JUMPDEST JUMPDEST PUSH1 0x20 DUP3 MUL SWAP1 POP PUSH1 0x20 DUP2 ADD SWAP1 POP SWAP2 SWAP1 POP JUMP JUMPDEST PUSH1 0x0 DUP1 REVERT JUMPDEST PUSH1 0x0 DUP1 REVERT JUMPDEST PUSH1 0x0 PUSH8 0xFFFFFFFFFFFFFFFF DUP3 GT ISZERO PUSH3 0x367 JUMPI PUSH3 0x366 PUSH3 0x28C JUMP JUMPDEST JUMPDEST PUSH3 0x372 DUP3 PUSH3 0x27B JUMP JUMPDEST SWAP1 POP PUSH1 0x20 DUP2 ADD SWAP1 POP SWAP2 SWAP1 POP JUMP JUMPDEST DUP3 DUP2 DUP4 CALLDATACOPY PUSH1 0x0 DUP4 DUP4 ADD MSTORE POP POP POP JUMP JUMPDEST PUSH1 0x0 PUSH3 0x3A5 PUSH3 0x39F DUP5 PUSH3 0x349 JUMP JUMPDEST PUSH3 0x2F1 JUMP JUMPDEST SWAP1 POP DUP3 DUP2 MSTORE PUSH1 0x20 DUP2 ADD DUP5 DUP5 DUP5 ADD GT ISZERO PUSH3 0x3C4 JUMPI PUSH3 0x3C3 PUSH3 0x344 JUMP JUMPDEST JUMPDEST PUSH3 0x3D1 DUP5 DUP3 DUP6 PUSH3 0x37F JUMP JUMPDEST POP SWAP4 SWAP3 POP POP POP JUMP JUMPDEST PUSH1 0x0 DUP3 PUSH1 0x1F DUP4 ADD SLT PUSH3 0x3F1 JUMPI PUSH3 0x3F0 PUSH3 0x276 JUMP JUMPDEST JUMPDEST DUP2 CALLDATALOAD PUSH3 0x403 DUP5 DUP3 PUSH1 0x20 DUP7 ADD PUSH3 0x38E JUMP JUMPDEST SWAP2 POP POP SWAP3 SWAP2 POP POP JUMP JUMPDEST PUSH1 0x0 PUSH3 0x423 PUSH3 0x41D DUP5 PUSH3 0x310 JUMP JUMPDEST PUSH3 0x2F1 JUMP JUMPDEST SWAP1 POP DUP1 DUP4 DUP3 MSTORE PUSH1 0x20 DUP3 ADD SWAP1 POP PUSH1 0x20 DUP5 MUL DUP4 ADD DUP6 DUP2 GT ISZERO PUSH3 0x449 JUMPI PUSH3 0x448 PUSH3 0x33F JUMP JUMPDEST JUMPDEST DUP4 JUMPDEST DUP2 DUP2 LT ISZERO PUSH3 0x497 JUMPI DUP1 CALLDATALOAD PUSH8 0xFFFFFFFFFFFFFFFF DUP2 GT ISZERO PUSH3 0x472 JUMPI PUSH3 0x471 PUSH3 0x276 JUMP JUMPDEST JUMPDEST DUP1 DUP7 ADD PUSH3 0x481 DUP10 DUP3 PUSH3 0x3D9 JUMP JUMPDEST DUP6 MSTORE PUSH1 0x20 DUP6 ADD SWAP5 POP POP POP PUSH1 0x20 DUP2 ADD SWAP1 POP PUSH3 0x44B JUMP JUMPDEST POP POP POP SWAP4 SWAP3 POP POP POP JUMP JUMPDEST PUSH1 0x0 DUP3 PUSH1 0x1F DUP4 ADD SLT PUSH3 0x4B9 JUMPI PUSH3 0x4B8 PUSH3 0x276 JUMP JUMPDEST JUMPDEST DUP2 CALLDATALOAD PUSH3 0x4CB DUP5 DUP3 PUSH1 0x20 DUP7 ADD PUSH3 0x40C JUMP JUMPDEST SWAP2 POP POP SWAP3 SWAP2 POP POP JUMP JUMPDEST PUSH1 0x0 DUP2 SWAP1 POP SWAP2 SWAP1 POP JUMP JUMPDEST PUSH3 0x4E9 DUP2 PUSH3 0x4D4 JUMP JUMPDEST DUP2 EQ PUSH3 0x4F5 JUMPI PUSH1 0x0 DUP1 REVERT JUMPDEST POP JUMP JUMPDEST PUSH1 0x0 DUP2 CALLDATALOAD SWAP1 POP PUSH3 0x509 DUP2 PUSH3 0x4DE JUMP JUMPDEST SWAP3 SWAP2 POP POP JUMP JUMPDEST PUSH1 0x0 PUSH20 0xFFFFFFFFFFFFFFFFFFFFFFFFFFFFFFFFFFFFFFFF DUP3 AND SWAP1 POP SWAP2 SWAP1 POP JUMP JUMPDEST PUSH1 0x0 PUSH3 0x53C DUP3 PUSH3 0x50F JUMP JUMPDEST SWAP1 POP SWAP2 SWAP1 POP JUMP JUMPDEST PUSH3 0x54E DUP2 PUSH3 0x52F JUMP JUMPDEST DUP2 EQ PUSH3 0x55A JUMPI PUSH1 0x0 DUP1 REVERT JUMPDEST POP JUMP JUMPDEST PUSH1 0x0 DUP2 CALLDATALOAD SWAP1 POP PUSH3 0x56E DUP2 PUSH3 0x543 JUMP JUMPDEST SWAP3 SWAP2 POP POP JUMP JUMPDEST PUSH1 0x0 DUP1 REVERT JUMPDEST PUSH1 0x0 PUSH1 0x60 DUP3 DUP5 SUB SLT ISZERO PUSH3 0x592 JUMPI PUSH3 0x591 PUSH3 0x574 JUMP JUMPDEST JUMPDEST PUSH3 0x59E PUSH1 0x60 PUSH3 0x2F1 JUMP JUMPDEST SWAP1 POP PUSH1 0x0 PUSH3 0x5B0 DUP5 DUP3 DUP6 ADD PUSH3 0x4F8 JUMP JUMPDEST PUSH1 0x0 DUP4 ADD MSTORE POP PUSH1 0x20 PUSH3 0x5C6 DUP5 DUP3 DUP6 ADD PUSH3 0x4F8 JUMP JUMPDEST PUSH1 0x20 DUP4 ADD MSTORE POP PUSH1 0x40 PUSH3 0x5DC DUP5 DUP3 DUP6 ADD PUSH3 0x4F8 JUMP JUMPDEST PUSH1 0x40 DUP4 ADD MSTORE POP SWAP3 SWAP2 POP POP JUMP JUMPDEST PUSH1 0x0 DUP1 PUSH1 0x0 DUP1 PUSH1 0x0 DUP1 PUSH1 0x0 DUP1 PUSH1 0x0 DUP1 PUSH2 0x1C0 DUP12 DUP14 SUB SLT ISZERO PUSH3 0x60F JUMPI PUSH3 0x60E PUSH3 0x26C JUMP JUMPDEST JUMPDEST PUSH1 0x0 DUP12 ADD CALLDATALOAD PUSH8 0xFFFFFFFFFFFFFFFF DUP2 GT ISZERO PUSH3 0x630 JUMPI PUSH3 0x62F PUSH3 0x271 JUMP JUMPDEST JUMPDEST PUSH3 0x63E DUP14 DUP3 DUP15 ADD PUSH3 0x4A1 JUMP JUMPDEST SWAP11 POP POP PUSH1 0x20 PUSH3 0x651 DUP14 DUP3 DUP15 ADD PUSH3 0x4F8 JUMP JUMPDEST SWAP10 POP POP PUSH1 0x40 PUSH3 0x664 DUP14 DUP3 DUP15 ADD PUSH3 0x55D JUMP JUMPDEST SWAP9 POP POP PUSH1 0x60 DUP12 ADD CALLDATALOAD PUSH8 0xFFFFFFFFFFFFFFFF DUP2 GT ISZERO PUSH3 0x688 JUMPI PUSH3 0x687 PUSH3 0x271 JUMP JUMPDEST JUMPDEST PUSH3 0x696 DUP14 DUP3 DUP15 ADD PUSH3 0x3D9 JUMP JUMPDEST SWAP8 POP POP PUSH1 0x80 PUSH3 0x6A9 DUP14 DUP3 DUP15 ADD PUSH3 0x579 JUMP JUMPDEST SWAP7 POP POP PUSH1 0xE0 PUSH3 0x6BC DUP14 DUP3 DUP15 ADD PUSH3 0x579 JUMP JUMPDEST SWAP6 POP POP PUSH2 0x140 DUP12 ADD CALLDATALOAD PUSH8 0xFFFFFFFFFFFFFFFF DUP2 GT ISZERO PUSH3 0x6E1 JUMPI PUSH3 0x6E0 PUSH3 0x271 JUMP JUMPDEST JUMPDEST PUSH3 0x6EF DUP14 DUP3 DUP15 ADD PUSH3 0x3D9 JUMP JUMPDEST SWAP5 POP POP PUSH2 0x160 DUP12 ADD CALLDATALOAD PUSH8 0xFFFFFFFFFFFFFFFF DUP2 GT ISZERO PUSH3 0x714 JUMPI PUSH3 0x713 PUSH3 0x271 JUMP JUMPDEST JUMPDEST PUSH3 0x722 DUP14 DUP3 DUP15 ADD PUSH3 0x3D9 JUMP JUMPDEST SWAP4 POP POP PUSH2 0x180 DUP12 ADD CALLDATALOAD PUSH8 0xFFFFFFFFFFFFFFFF DUP2 GT ISZERO PUSH3 0x747 JUMPI PUSH3 0x746 PUSH3 0x271 JUMP JUMPDEST JUMPDEST PUSH3 0x755 DUP14 DUP3 DUP15 ADD PUSH3 0x3D9 JUMP JUMPDEST SWAP3 POP POP PUSH2 0x1A0 DUP12 ADD CALLDATALOAD PUSH8 0xFFFFFFFFFFFFFFFF DUP2 GT ISZERO PUSH3 0x77A JUMPI PUSH3 0x779 PUSH3 0x271 JUMP JUMPDEST JUMPDEST PUSH3 0x788 DUP14 DUP3 DUP15 ADD PUSH3 0x3D9 JUMP JUMPDEST SWAP2 POP POP SWAP3 SWAP6 SWAP9 SWAP12 SWAP2 SWAP5 SWAP8 SWAP11 POP SWAP3 SWAP6 SWAP9 POP JUMP JUMPDEST PUSH1 0x0 PUSH1 0x20 DUP3 DUP5 SUB SLT ISZERO PUSH3 0x7B3 JUMPI PUSH3 0x7B2 PUSH3 0x26C JUMP JUMPDEST JUMPDEST PUSH1 0x0 PUSH3 0x7C3 DUP5 DUP3 DUP6 ADD PUSH3 0x4F8 JUMP JUMPDEST SWAP2 POP POP SWAP3 SWAP2 POP POP JUMP JUMPDEST PUSH1 0x0 DUP2 SWAP1 POP SWAP2 SWAP1 POP JUMP JUMPDEST PUSH1 0x0 PUSH3 0x7F7 PUSH3 0x7F1 PUSH3 0x7EB DUP5 PUSH3 0x50F JUMP JUMPDEST PUSH3 0x7CC JUMP JUMPDEST PUSH3 0x50F JUMP JUMPDEST SWAP1 POP SWAP2 SWAP1 POP JUMP JUMPDEST PUSH1 0x0 PUSH3 0x80B DUP3 PUSH3 0x7D6 JUMP JUMPDEST SWAP1 POP SWAP2 SWAP1 POP JUMP JUMPDEST PUSH1 0x0 PUSH3 0x81F DUP3 PUSH3 0x7FE JUMP JUMPDEST SWAP1 POP SWAP2 SWAP1 POP JUMP JUMPDEST PUSH3 0x831 DUP2 PUSH3 0x812 JUMP JUMPDEST DUP3 MSTORE POP POP JUMP JUMPDEST PUSH1 0x0 PUSH1 0x20 DUP3 ADD SWAP1 POP PUSH3 0x84E PUSH1 0x0 DUP4 ADD DUP5 PUSH3 0x826 JUMP JUMPDEST SWAP3 SWAP2 POP POP JUMP JUMPDEST PUSH1 0x0 DUP2 MLOAD SWAP1 POP SWAP2 SWAP1 POP JUMP JUMPDEST PUSH1 0x0 DUP3 DUP3 MSTORE PUSH1 0x20 DUP3 ADD SWAP1 POP SWAP3 SWAP2 POP POP JUMP JUMPDEST PUSH1 0x0 DUP2 SWAP1 POP PUSH1 0x20 DUP3 ADD SWAP1 POP SWAP2 SWAP1 POP JUMP JUMPDEST PUSH3 0x88B DUP2 PUSH3 0x812 JUMP JUMPDEST DUP3 MSTORE POP POP JUMP JUMPDEST PUSH1 0x0 PUSH3 0x89F DUP4 DUP4 PUSH3 0x880 JUMP JUMPDEST PUSH1 0x20 DUP4 ADD SWAP1 POP SWAP3 SWAP2 POP POP JUMP JUMPDEST PUSH1 0x0 PUSH1 0x20 DUP3 ADD SWAP1 POP SWAP2 SWAP1 POP JUMP JUMPDEST PUSH1 0x0 PUSH3 0x8C5 DUP3 PUSH3 0x854 JUMP JUMPDEST PUSH3 0x8D1 DUP2 DUP6 PUSH3 0x85F JUMP JUMPDEST SWAP4 POP PUSH3 0x8DE DUP4 PUSH3 0x870 JUMP JUMPDEST DUP1 PUSH1 0x0 JUMPDEST DUP4 DUP2 LT ISZERO PUSH3 0x915 JUMPI DUP2 MLOAD PUSH3 0x8F9 DUP9 DUP3 PUSH3 0x891 JUMP JUMPDEST SWAP8 POP PUSH3 0x906 DUP4 PUSH3 0x8AB JUMP JUMPDEST SWAP3 POP POP PUSH1 0x1 DUP2 ADD SWAP1 POP PUSH3 0x8E2 JUMP JUMPDEST POP DUP6 SWAP4 POP POP POP POP SWAP3 SWAP2 POP POP JUMP JUMPDEST PUSH1 0x0 PUSH1 0x20 DUP3 ADD SWAP1 POP DUP2 DUP2 SUB PUSH1 0x0 DUP4 ADD MSTORE PUSH3 0x93E DUP2 DUP5 PUSH3 0x8B8 JUMP JUMPDEST SWAP1 POP SWAP3 SWAP2 POP POP JUMP JUMPDEST PUSH1 0x0 DUP2 MLOAD SWAP1 POP SWAP2 SWAP1 POP JUMP JUMPDEST PUSH1 0x0 DUP3 DUP3 MSTORE PUSH1 0x20 DUP3 ADD SWAP1 POP SWAP3 SWAP2 POP POP JUMP JUMPDEST PUSH1 0x0 DUP2 SWAP1 POP PUSH1 0x20 DUP3 ADD SWAP1 POP SWAP2 SWAP1 POP JUMP JUMPDEST PUSH1 0x0 DUP2 MLOAD SWAP1 POP SWAP2 SWAP1 POP JUMP JUMPDEST PUSH1 0x0 DUP3 DUP3 MSTORE PUSH1 0x20 DUP3 ADD SWAP1 POP SWAP3 SWAP2 POP POP JUMP JUMPDEST PUSH1 0x0 JUMPDEST DUP4 DUP2 LT ISZERO PUSH3 0x9AE JUMPI DUP1 DUP3 ADD MLOAD DUP2 DUP5 ADD MSTORE PUSH1 0x20 DUP2 ADD SWAP1 POP PUSH3 0x991 JUMP JUMPDEST DUP4 DUP2 GT ISZERO PUSH3 0x9BE JUMPI PUSH1 0x0 DUP5 DUP5 ADD MSTORE JUMPDEST POP POP POP POP JUMP JUMPDEST PUSH1 0x0 PUSH3 0x9D1 DUP3 PUSH3 0x972 JUMP JUMPDEST PUSH3 0x9DD DUP2 DUP6 PUSH3 0x97D JUMP JUMPDEST SWAP4 POP PUSH3 0x9EF DUP2 DUP6 PUSH1 0x20 DUP7 ADD PUSH3 0x98E JUMP JUMPDEST PUSH3 0x9FA DUP2 PUSH3 0x27B JUMP JUMPDEST DUP5 ADD SWAP2 POP POP SWAP3 SWAP2 POP POP JUMP JUMPDEST PUSH1 0x0 PUSH3 0xA13 DUP4 DUP4 PUSH3 0x9C4 JUMP JUMPDEST SWAP1 POP SWAP3 SWAP2 POP POP JUMP JUMPDEST PUSH1 0x0 PUSH1 0x20 DUP3 ADD SWAP1 POP SWAP2 SWAP1 POP JUMP JUMPDEST PUSH1 0x0 PUSH3 0xA35 DUP3 PUSH3 0x946 JUMP JUMPDEST PUSH3 0xA41 DUP2 DUP6 PUSH3 0x951 JUMP JUMPDEST SWAP4 POP DUP4 PUSH1 0x20 DUP3 MUL DUP6 ADD PUSH3 0xA55 DUP6 PUSH3 0x962 JUMP JUMPDEST DUP1 PUSH1 0x0 JUMPDEST DUP6 DUP2 LT ISZERO PUSH3 0xA97 JUMPI DUP5 DUP5 SUB DUP10 MSTORE DUP2 MLOAD PUSH3 0xA75 DUP6 DUP3 PUSH3 0xA05 JUMP JUMPDEST SWAP5 POP PUSH3 0xA82 DUP4 PUSH3 0xA1B JUMP JUMPDEST SWAP3 POP PUSH1 0x20 DUP11 ADD SWAP10 POP POP PUSH1 0x1 DUP2 ADD SWAP1 POP PUSH3 0xA59 JUMP JUMPDEST POP DUP3 SWAP8 POP DUP8 SWAP6 POP POP POP POP POP POP SWAP3 SWAP2 POP POP JUMP JUMPDEST PUSH3 0xAB4 DUP2 PUSH3 0x4D4 JUMP JUMPDEST DUP3 MSTORE POP POP JUMP JUMPDEST PUSH3 0xAC5 DUP2 PUSH3 0x52F JUMP JUMPDEST DUP3 MSTORE POP POP JUMP JUMPDEST PUSH1 0x0 DUP3 DUP3 MSTORE PUSH1 0x20 DUP3 ADD SWAP1 POP SWAP3 SWAP2 POP POP JUMP JUMPDEST PUSH1 0x0 PUSH3 0xAE9 DUP3 PUSH3 0x972 JUMP JUMPDEST PUSH3 0xAF5 DUP2 DUP6 PUSH3 0xACB JUMP JUMPDEST SWAP4 POP PUSH3 0xB07 DUP2 DUP6 PUSH1 0x20 DUP7 ADD PUSH3 0x98E JUMP JUMPDEST PUSH3 0xB12 DUP2 PUSH3 0x27B JUMP JUMPDEST DUP5 ADD SWAP2 POP POP SWAP3 SWAP2 POP POP JUMP JUMPDEST PUSH3 0xB28 DUP2 PUSH3 0x4D4 JUMP JUMPDEST DUP3 MSTORE POP POP JUMP JUMPDEST PUSH1 0x60 DUP3 ADD PUSH1 0x0 DUP3 ADD MLOAD PUSH3 0xB46 PUSH1 0x0 DUP6 ADD DUP3 PUSH3 0xB1D JUMP JUMPDEST POP PUSH1 0x20 DUP3 ADD MLOAD PUSH3 0xB5B PUSH1 0x20 DUP6 ADD DUP3 PUSH3 0xB1D JUMP JUMPDEST POP PUSH1 0x40 DUP3 ADD MLOAD PUSH3 0xB70 PUSH1 0x40 DUP6 ADD DUP3 PUSH3 0xB1D JUMP JUMPDEST POP POP POP POP JUMP JUMPDEST PUSH1 0x0 PUSH2 0x1E0 DUP3 ADD SWAP1 POP DUP2 DUP2 SUB PUSH1 0x0 DUP4 ADD MSTORE PUSH3 0xB93 DUP2 DUP15 PUSH3 0xA28 JUMP JUMPDEST SWAP1 POP PUSH3 0xBA4 PUSH1 0x20 DUP4 ADD DUP14 PUSH3 0xAA9 JUMP JUMPDEST PUSH3 0xBB3 PUSH1 0x40 DUP4 ADD DUP13 PUSH3 0xABA JUMP JUMPDEST DUP2 DUP2 SUB PUSH1 0x60 DUP4 ADD MSTORE PUSH3 0xBC7 DUP2 DUP12 PUSH3 0xADC JUMP JUMPDEST SWAP1 POP PUSH3 0xBD8 PUSH1 0x80 DUP4 ADD DUP11 PUSH3 0xABA JUMP JUMPDEST PUSH3 0xBE7 PUSH1 0xA0 DUP4 ADD DUP10 PUSH3 0xB2E JUMP JUMPDEST PUSH3 0xBF7 PUSH2 0x100 DUP4 ADD DUP9 PUSH3 0xB2E JUMP JUMPDEST DUP2 DUP2 SUB PUSH2 0x160 DUP4 ADD MSTORE PUSH3 0xC0C DUP2 DUP8 PUSH3 0xADC JUMP JUMPDEST SWAP1 POP DUP2 DUP2 SUB PUSH2 0x180 DUP4 ADD MSTORE PUSH3 0xC23 DUP2 DUP7 PUSH3 0xADC JUMP JUMPDEST SWAP1 POP DUP2 DUP2 SUB PUSH2 0x1A0 DUP4 ADD MSTORE PUSH3 0xC3A DUP2 DUP6 PUSH3 0xADC JUMP JUMPDEST SWAP1 POP DUP2 DUP2 SUB PUSH2 0x1C0 DUP4 ADD MSTORE PUSH3 0xC51 DUP2 DUP5 PUSH3 0xADC JUMP JUMPDEST SWAP1 POP SWAP13 SWAP12 POP POP POP POP POP POP POP POP POP POP POP POP JUMP INVALID PUSH1 0x80 PUSH1 0x40 MSTORE PUSH1 0x0 PUSH1 0x2 SSTORE PUSH1 0x0 PUSH1 0x3 SSTORE PUSH1 0x0 PUSH1 0x8 PUSH1 0x14 PUSH2 0x100 EXP DUP2 SLOAD DUP2 PUSH1 0xFF MUL NOT AND SWAP1 DUP4 ISZERO ISZERO MUL OR SWAP1 SSTORE POP PUSH1 0x0 PUSH1 0x8 PUSH1 0x15 PUSH2 0x100 EXP DUP2 SLOAD DUP2 PUSH1 0xFF MUL NOT AND SWAP1 DUP4 ISZERO ISZERO MUL OR SWAP1 SSTORE POP PUSH1 0x0 PUSH1 0x8 PUSH1 0x16 PUSH2 0x100 EXP DUP2 SLOAD DUP2 PUSH1 0xFF MUL NOT AND SWAP1 DUP4 ISZERO ISZERO MUL OR SWAP1 SSTORE POP PUSH1 0x0 PUSH1 0x14 SSTORE CALLVALUE DUP1 ISZERO PUSH3 0x71 JUMPI PUSH1 0x0 DUP1 REVERT JUMPDEST POP PUSH1 0x40 MLOAD PUSH3 0x2F48 CODESIZE SUB DUP1 PUSH3 0x2F48 DUP4 CODECOPY DUP2 DUP2 ADD PUSH1 0x40 MSTORE DUP2 ADD SWAP1 PUSH3 0x97 SWAP2 SWAP1 PUSH3 0x803 JUMP JUMPDEST DUP7 PUSH1 0x8 PUSH1 0x0 PUSH2 0x100 EXP DUP2 SLOAD DUP2 PUSH20 0xFFFFFFFFFFFFFFFFFFFFFFFFFFFFFFFFFFFFFFFF MUL NOT AND SWAP1 DUP4 PUSH20 0xFFFFFFFFFFFFFFFFFFFFFFFFFFFFFFFFFFFFFFFF AND MUL OR SWAP1 SSTORE POP PUSH1 0x0 PUSH1 0x12 SWAP1 POP DUP3 DUP2 PUSH1 0x0 ADD SWAP1 DUP1 MLOAD SWAP1 PUSH1 0x20 ADD SWAP1 PUSH3 0xF8 SWAP3 SWAP2 SWAP1 PUSH3 0x3A6 JUMP JUMPDEST POP PUSH1 0x0 PUSH1 0x9 SWAP1 POP DUP12 PUSH1 0x0 DUP2 SWAP1 SSTORE POP DUP6 PUSH1 0x4 SWAP1 DUP1 MLOAD SWAP1 PUSH1 0x20 ADD SWAP1 PUSH3 0x11E SWAP3 SWAP2 SWAP1 PUSH3 0x3A6 JUMP JUMPDEST POP DUP5 PUSH1 0x5 SWAP1 DUP1 MLOAD SWAP1 PUSH1 0x20 ADD SWAP1 PUSH3 0x137 SWAP3 SWAP2 SWAP1 PUSH3 0x3A6 JUMP JUMPDEST POP PUSH1 0x0 JUMPDEST DUP14 MLOAD DUP2 LT ISZERO PUSH3 0x1B8 JUMPI DUP2 PUSH1 0x0 ADD DUP15 DUP3 DUP2 MLOAD DUP2 LT PUSH3 0x15F JUMPI PUSH3 0x15E PUSH3 0x9CC JUMP JUMPDEST JUMPDEST PUSH1 0x20 MUL PUSH1 0x20 ADD ADD MLOAD SWAP1 DUP1 PUSH1 0x1 DUP2 SLOAD ADD DUP1 DUP3 SSTORE DUP1 SWAP2 POP POP PUSH1 0x1 SWAP1 SUB SWAP1 PUSH1 0x0 MSTORE PUSH1 0x20 PUSH1 0x0 KECCAK256 ADD PUSH1 0x0 SWAP1 SWAP2 SWAP1 SWAP2 SWAP1 SWAP2 POP SWAP1 DUP1 MLOAD SWAP1 PUSH1 0x20 ADD SWAP1 PUSH3 0x1A1 SWAP3 SWAP2 SWAP1 PUSH3 0x3A6 JUMP JUMPDEST POP DUP1 DUP1 PUSH3 0x1AF SWAP1 PUSH3 0xA2A JUMP JUMPDEST SWAP2 POP POP PUSH3 0x13B JUMP JUMPDEST POP PUSH1 0x0 DUP2 PUSH1 0x1 ADD PUSH1 0x0 PUSH2 0x100 EXP DUP2 SLOAD DUP2 PUSH1 0xFF MUL NOT AND SWAP1 DUP4 ISZERO ISZERO MUL OR SWAP1 SSTORE POP DUP8 DUP2 PUSH1 0x2 ADD PUSH1 0x0 DUP3 ADD MLOAD DUP2 PUSH1 0x0 ADD SSTORE PUSH1 0x20 DUP3 ADD MLOAD DUP2 PUSH1 0x1 ADD SSTORE PUSH1 0x40 DUP3 ADD MLOAD DUP2 PUSH1 0x2 ADD SSTORE SWAP1 POP POP DUP7 DUP2 PUSH1 0x5 ADD PUSH1 0x0 DUP3 ADD MLOAD DUP2 PUSH1 0x0 ADD SSTORE PUSH1 0x20 DUP3 ADD MLOAD DUP2 PUSH1 0x1 ADD SSTORE PUSH1 0x40 DUP3 ADD MLOAD DUP2 PUSH1 0x2 ADD SSTORE SWAP1 POP POP PUSH1 0x0 DUP2 PUSH1 0x8 ADD PUSH1 0x0 PUSH2 0x100 EXP DUP2 SLOAD DUP2 PUSH1 0xFF MUL NOT AND SWAP1 DUP4 ISZERO ISZERO MUL OR SWAP1 SSTORE POP DUP12 PUSH1 0x1 DUP2 SWAP1 SSTORE POP DUP10 PUSH1 0x6 SWAP1 DUP1 MLOAD SWAP1 PUSH1 0x20 ADD SWAP1 PUSH3 0x25E SWAP3 SWAP2 SWAP1 PUSH3 0x3A6 JUMP JUMPDEST POP DUP11 PUSH1 0x7 PUSH1 0x0 PUSH2 0x100 EXP DUP2 SLOAD DUP2 PUSH20 0xFFFFFFFFFFFFFFFFFFFFFFFFFFFFFFFFFFFFFFFF MUL NOT AND SWAP1 DUP4 PUSH20 0xFFFFFFFFFFFFFFFFFFFFFFFFFFFFFFFFFFFFFFFF AND MUL OR SWAP1 SSTORE POP PUSH1 0x0 PUSH1 0x13 PUSH1 0x0 PUSH1 0x14 SLOAD DUP2 MSTORE PUSH1 0x20 ADD SWAP1 DUP2 MSTORE PUSH1 0x20 ADD PUSH1 0x0 KECCAK256 SWAP1 POP DUP13 DUP2 PUSH1 0x0 ADD DUP2 SWAP1 SSTORE POP PUSH1 0x0 DUP2 PUSH1 0x1 ADD DUP2 SWAP1 SSTORE POP PUSH1 0x1 DUP2 PUSH1 0x2 ADD PUSH1 0x0 PUSH2 0x100 EXP DUP2 SLOAD DUP2 PUSH1 0xFF MUL NOT AND SWAP1 DUP4 ISZERO ISZERO MUL OR SWAP1 SSTORE POP PUSH1 0x0 DUP2 PUSH1 0x2 ADD PUSH1 0x1 PUSH2 0x100 EXP DUP2 SLOAD DUP2 PUSH1 0xFF MUL NOT AND SWAP1 DUP4 ISZERO ISZERO MUL OR SWAP1 SSTORE POP PUSH1 0x0 DUP2 PUSH1 0x2 ADD PUSH1 0x2 PUSH2 0x100 EXP DUP2 SLOAD DUP2 PUSH1 0xFF MUL NOT AND SWAP1 DUP4 ISZERO ISZERO MUL OR SWAP1 SSTORE POP PUSH1 0x0 DUP2 PUSH1 0x2 ADD PUSH1 0x3 PUSH2 0x100 EXP DUP2 SLOAD DUP2 PUSH1 0xFF MUL NOT AND SWAP1 DUP4 ISZERO ISZERO MUL OR SWAP1 SSTORE POP PUSH1 0x0 DUP2 PUSH1 0x2 ADD PUSH1 0x4 PUSH2 0x100 EXP DUP2 SLOAD DUP2 PUSH1 0xFF MUL NOT AND SWAP1 DUP4 ISZERO ISZERO MUL OR SWAP1 SSTORE POP DUP4 DUP2 PUSH1 0x3 ADD SWAP1 DUP1 MLOAD SWAP1 PUSH1 0x20 ADD SWAP1 PUSH3 0x377 SWAP3 SWAP2 SWAP1 PUSH3 0x3A6 JUMP JUMPDEST POP PUSH1 0x14 PUSH1 0x0 DUP2 SLOAD DUP1 SWAP3 SWAP2 SWAP1 PUSH3 0x38D SWAP1 PUSH3 0xA2A JUMP JUMPDEST SWAP2 SWAP1 POP SSTORE POP POP POP POP POP POP POP POP POP POP POP POP POP POP POP PUSH3 0xADD JUMP JUMPDEST DUP3 DUP1 SLOAD PUSH3 0x3B4 SWAP1 PUSH3 0xAA7 JUMP JUMPDEST SWAP1 PUSH1 0x0 MSTORE PUSH1 0x20 PUSH1 0x0 KECCAK256 SWAP1 PUSH1 0x1F ADD PUSH1 0x20 SWAP1 DIV DUP2 ADD SWAP3 DUP3 PUSH3 0x3D8 JUMPI PUSH1 0x0 DUP6 SSTORE PUSH3 0x424 JUMP JUMPDEST DUP3 PUSH1 0x1F LT PUSH3 0x3F3 JUMPI DUP1 MLOAD PUSH1 0xFF NOT AND DUP4 DUP1 ADD OR DUP6 SSTORE PUSH3 0x424 JUMP JUMPDEST DUP3 DUP1 ADD PUSH1 0x1 ADD DUP6 SSTORE DUP3 ISZERO PUSH3 0x424 JUMPI SWAP2 DUP3 ADD JUMPDEST DUP3 DUP2 GT ISZERO PUSH3 0x423 JUMPI DUP3 MLOAD DUP3 SSTORE SWAP2 PUSH1 0x20 ADD SWAP2 SWAP1 PUSH1 0x1 ADD SWAP1 PUSH3 0x406 JUMP JUMPDEST JUMPDEST POP SWAP1 POP PUSH3 0x433 SWAP2 SWAP1 PUSH3 0x437 JUMP JUMPDEST POP SWAP1 JUMP JUMPDEST JUMPDEST DUP1 DUP3 GT ISZERO PUSH3 0x452 JUMPI PUSH1 0x0 DUP2 PUSH1 0x0 SWAP1 SSTORE POP PUSH1 0x1 ADD PUSH3 0x438 JUMP JUMPDEST POP SWAP1 JUMP JUMPDEST PUSH1 0x0 PUSH1 0x40 MLOAD SWAP1 POP SWAP1 JUMP JUMPDEST PUSH1 0x0 DUP1 REVERT JUMPDEST PUSH1 0x0 DUP1 REVERT JUMPDEST PUSH1 0x0 DUP1 REVERT JUMPDEST PUSH1 0x0 PUSH1 0x1F NOT PUSH1 0x1F DUP4 ADD AND SWAP1 POP SWAP2 SWAP1 POP JUMP JUMPDEST PUSH32 0x4E487B7100000000000000000000000000000000000000000000000000000000 PUSH1 0x0 MSTORE PUSH1 0x41 PUSH1 0x4 MSTORE PUSH1 0x24 PUSH1 0x0 REVERT JUMPDEST PUSH3 0x4BA DUP3 PUSH3 0x46F JUMP JUMPDEST DUP2 ADD DUP2 DUP2 LT PUSH8 0xFFFFFFFFFFFFFFFF DUP3 GT OR ISZERO PUSH3 0x4DC JUMPI PUSH3 0x4DB PUSH3 0x480 JUMP JUMPDEST JUMPDEST DUP1 PUSH1 0x40 MSTORE POP POP POP JUMP JUMPDEST PUSH1 0x0 PUSH3 0x4F1 PUSH3 0x456 JUMP JUMPDEST SWAP1 POP PUSH3 0x4FF DUP3 DUP3 PUSH3 0x4AF JUMP JUMPDEST SWAP2 SWAP1 POP JUMP JUMPDEST PUSH1 0x0 PUSH8 0xFFFFFFFFFFFFFFFF DUP3 GT ISZERO PUSH3 0x522 JUMPI PUSH3 0x521 PUSH3 0x480 JUMP JUMPDEST JUMPDEST PUSH1 0x20 DUP3 MUL SWAP1 POP PUSH1 0x20 DUP2 ADD SWAP1 POP SWAP2 SWAP1 POP JUMP JUMPDEST PUSH1 0x0 DUP1 REVERT JUMPDEST PUSH1 0x0 DUP1 REVERT JUMPDEST PUSH1 0x0 PUSH8 0xFFFFFFFFFFFFFFFF DUP3 GT ISZERO PUSH3 0x55B JUMPI PUSH3 0x55A PUSH3 0x480 JUMP JUMPDEST JUMPDEST PUSH3 0x566 DUP3 PUSH3 0x46F JUMP JUMPDEST SWAP1 POP PUSH1 0x20 DUP2 ADD SWAP1 POP SWAP2 SWAP1 POP JUMP JUMPDEST PUSH1 0x0 JUMPDEST DUP4 DUP2 LT ISZERO PUSH3 0x593 JUMPI DUP1 DUP3 ADD MLOAD DUP2 DUP5 ADD MSTORE PUSH1 0x20 DUP2 ADD SWAP1 POP PUSH3 0x576 JUMP JUMPDEST DUP4 DUP2 GT ISZERO PUSH3 0x5A3 JUMPI PUSH1 0x0 DUP5 DUP5 ADD MSTORE JUMPDEST POP POP POP POP JUMP JUMPDEST PUSH1 0x0 PUSH3 0x5C0 PUSH3 0x5BA DUP5 PUSH3 0x53D JUMP JUMPDEST PUSH3 0x4E5 JUMP JUMPDEST SWAP1 POP DUP3 DUP2 MSTORE PUSH1 0x20 DUP2 ADD DUP5 DUP5 DUP5 ADD GT ISZERO PUSH3 0x5DF JUMPI PUSH3 0x5DE PUSH3 0x538 JUMP JUMPDEST JUMPDEST PUSH3 0x5EC DUP5 DUP3 DUP6 PUSH3 0x573 JUMP JUMPDEST POP SWAP4 SWAP3 POP POP POP JUMP JUMPDEST PUSH1 0x0 DUP3 PUSH1 0x1F DUP4 ADD SLT PUSH3 0x60C JUMPI PUSH3 0x60B PUSH3 0x46A JUMP JUMPDEST JUMPDEST DUP2 MLOAD PUSH3 0x61E DUP5 DUP3 PUSH1 0x20 DUP7 ADD PUSH3 0x5A9 JUMP JUMPDEST SWAP2 POP POP SWAP3 SWAP2 POP POP JUMP JUMPDEST PUSH1 0x0 PUSH3 0x63E PUSH3 0x638 DUP5 PUSH3 0x504 JUMP JUMPDEST PUSH3 0x4E5 JUMP JUMPDEST SWAP1 POP DUP1 DUP4 DUP3 MSTORE PUSH1 0x20 DUP3 ADD SWAP1 POP PUSH1 0x20 DUP5 MUL DUP4 ADD DUP6 DUP2 GT ISZERO PUSH3 0x664 JUMPI PUSH3 0x663 PUSH3 0x533 JUMP JUMPDEST JUMPDEST DUP4 JUMPDEST DUP2 DUP2 LT ISZERO PUSH3 0x6B2 JUMPI DUP1 MLOAD PUSH8 0xFFFFFFFFFFFFFFFF DUP2 GT ISZERO PUSH3 0x68D JUMPI PUSH3 0x68C PUSH3 0x46A JUMP JUMPDEST JUMPDEST DUP1 DUP7 ADD PUSH3 0x69C DUP10 DUP3 PUSH3 0x5F4 JUMP JUMPDEST DUP6 MSTORE PUSH1 0x20 DUP6 ADD SWAP5 POP POP POP PUSH1 0x20 DUP2 ADD SWAP1 POP PUSH3 0x666 JUMP JUMPDEST POP POP POP SWAP4 SWAP3 POP POP POP JUMP JUMPDEST PUSH1 0x0 DUP3 PUSH1 0x1F DUP4 ADD SLT PUSH3 0x6D4 JUMPI PUSH3 0x6D3 PUSH3 0x46A JUMP JUMPDEST JUMPDEST DUP2 MLOAD PUSH3 0x6E6 DUP5 DUP3 PUSH1 0x20 DUP7 ADD PUSH3 0x627 JUMP JUMPDEST SWAP2 POP POP SWAP3 SWAP2 POP POP JUMP JUMPDEST PUSH1 0x0 DUP2 SWAP1 POP SWAP2 SWAP1 POP JUMP JUMPDEST PUSH3 0x704 DUP2 PUSH3 0x6EF JUMP JUMPDEST DUP2 EQ PUSH3 0x710 JUMPI PUSH1 0x0 DUP1 REVERT JUMPDEST POP JUMP JUMPDEST PUSH1 0x0 DUP2 MLOAD SWAP1 POP PUSH3 0x724 DUP2 PUSH3 0x6F9 JUMP JUMPDEST SWAP3 SWAP2 POP POP JUMP JUMPDEST PUSH1 0x0 PUSH20 0xFFFFFFFFFFFFFFFFFFFFFFFFFFFFFFFFFFFFFFFF DUP3 AND SWAP1 POP SWAP2 SWAP1 POP JUMP JUMPDEST PUSH1 0x0 PUSH3 0x757 DUP3 PUSH3 0x72A JUMP JUMPDEST SWAP1 POP SWAP2 SWAP1 POP JUMP JUMPDEST PUSH3 0x769 DUP2 PUSH3 0x74A JUMP JUMPDEST DUP2 EQ PUSH3 0x775 JUMPI PUSH1 0x0 DUP1 REVERT JUMPDEST POP JUMP JUMPDEST PUSH1 0x0 DUP2 MLOAD SWAP1 POP PUSH3 0x789 DUP2 PUSH3 0x75E JUMP JUMPDEST SWAP3 SWAP2 POP POP JUMP JUMPDEST PUSH1 0x0 DUP1 REVERT JUMPDEST PUSH1 0x0 PUSH1 0x60 DUP3 DUP5 SUB SLT ISZERO PUSH3 0x7AD JUMPI PUSH3 0x7AC PUSH3 0x78F JUMP JUMPDEST JUMPDEST PUSH3 0x7B9 PUSH1 0x60 PUSH3 0x4E5 JUMP JUMPDEST SWAP1 POP PUSH1 0x0 PUSH3 0x7CB DUP5 DUP3 DUP6 ADD PUSH3 0x713 JUMP JUMPDEST PUSH1 0x0 DUP4 ADD MSTORE POP PUSH1 0x20 PUSH3 0x7E1 DUP5 DUP3 DUP6 ADD PUSH3 0x713 JUMP JUMPDEST PUSH1 0x20 DUP4 ADD MSTORE POP PUSH1 0x40 PUSH3 0x7F7 DUP5 DUP3 DUP6 ADD PUSH3 0x713 JUMP JUMPDEST PUSH1 0x40 DUP4 ADD MSTORE POP SWAP3 SWAP2 POP POP JUMP JUMPDEST PUSH1 0x0 DUP1 PUSH1 0x0 DUP1 PUSH1 0x0 DUP1 PUSH1 0x0 DUP1 PUSH1 0x0 DUP1 PUSH1 0x0 PUSH2 0x1E0 DUP13 DUP15 SUB SLT ISZERO PUSH3 0x82C JUMPI PUSH3 0x82B PUSH3 0x460 JUMP JUMPDEST JUMPDEST PUSH1 0x0 DUP13 ADD MLOAD PUSH8 0xFFFFFFFFFFFFFFFF DUP2 GT ISZERO PUSH3 0x84D JUMPI PUSH3 0x84C PUSH3 0x465 JUMP JUMPDEST JUMPDEST PUSH3 0x85B DUP15 DUP3 DUP16 ADD PUSH3 0x6BC JUMP JUMPDEST SWAP12 POP POP PUSH1 0x20 PUSH3 0x86E DUP15 DUP3 DUP16 ADD PUSH3 0x713 JUMP JUMPDEST SWAP11 POP POP PUSH1 0x40 PUSH3 0x881 DUP15 DUP3 DUP16 ADD PUSH3 0x778 JUMP JUMPDEST SWAP10 POP POP PUSH1 0x60 DUP13 ADD MLOAD PUSH8 0xFFFFFFFFFFFFFFFF DUP2 GT ISZERO PUSH3 0x8A5 JUMPI PUSH3 0x8A4 PUSH3 0x465 JUMP JUMPDEST JUMPDEST PUSH3 0x8B3 DUP15 DUP3 DUP16 ADD PUSH3 0x5F4 JUMP JUMPDEST SWAP9 POP POP PUSH1 0x80 PUSH3 0x8C6 DUP15 DUP3 DUP16 ADD PUSH3 0x778 JUMP JUMPDEST SWAP8 POP POP PUSH1 0xA0 PUSH3 0x8D9 DUP15 DUP3 DUP16 ADD PUSH3 0x794 JUMP JUMPDEST SWAP7 POP POP PUSH2 0x100 PUSH3 0x8ED DUP15 DUP3 DUP16 ADD PUSH3 0x794 JUMP JUMPDEST SWAP6 POP POP PUSH2 0x160 DUP13 ADD MLOAD PUSH8 0xFFFFFFFFFFFFFFFF DUP2 GT ISZERO PUSH3 0x912 JUMPI PUSH3 0x911 PUSH3 0x465 JUMP JUMPDEST JUMPDEST PUSH3 0x920 DUP15 DUP3 DUP16 ADD PUSH3 0x5F4 JUMP JUMPDEST SWAP5 POP POP PUSH2 0x180 DUP13 ADD MLOAD PUSH8 0xFFFFFFFFFFFFFFFF DUP2 GT ISZERO PUSH3 0x945 JUMPI PUSH3 0x944 PUSH3 0x465 JUMP JUMPDEST JUMPDEST PUSH3 0x953 DUP15 DUP3 DUP16 ADD PUSH3 0x5F4 JUMP JUMPDEST SWAP4 POP POP PUSH2 0x1A0 DUP13 ADD MLOAD PUSH8 0xFFFFFFFFFFFFFFFF DUP2 GT ISZERO PUSH3 0x978 JUMPI PUSH3 0x977 PUSH3 0x465 JUMP JUMPDEST JUMPDEST PUSH3 0x986 DUP15 DUP3 DUP16 ADD PUSH3 0x5F4 JUMP JUMPDEST SWAP3 POP POP PUSH2 0x1C0 DUP13 ADD MLOAD PUSH8 0xFFFFFFFFFFFFFFFF DUP2 GT ISZERO PUSH3 0x9AB JUMPI PUSH3 0x9AA PUSH3 0x465 JUMP JUMPDEST JUMPDEST PUSH3 0x9B9 DUP15 DUP3 DUP16 ADD PUSH3 0x5F4 JUMP JUMPDEST SWAP2 POP POP SWAP3 SWAP6 SWAP9 SWAP12 POP SWAP3 SWAP6 SWAP9 SWAP12 SWAP1 SWAP4 SWAP7 SWAP10 POP JUMP JUMPDEST PUSH32 0x4E487B7100000000000000000000000000000000000000000000000000000000 PUSH1 0x0 MSTORE PUSH1 0x32 PUSH1 0x4 MSTORE PUSH1 0x24 PUSH1 0x0 REVERT JUMPDEST PUSH32 0x4E487B7100000000000000000000000000000000000000000000000000000000 PUSH1 0x0 MSTORE PUSH1 0x11 PUSH1 0x4 MSTORE PUSH1 0x24 PUSH1 0x0 REVERT JUMPDEST PUSH1 0x0 PUSH3 0xA37 DUP3 PUSH3 0x6EF JUMP JUMPDEST SWAP2 POP PUSH32 0xFFFFFFFFFFFFFFFFFFFFFFFFFFFFFFFFFFFFFFFFFFFFFFFFFFFFFFFFFFFFFFFF DUP3 EQ ISZERO PUSH3 0xA6D JUMPI PUSH3 0xA6C PUSH3 0x9FB JUMP JUMPDEST JUMPDEST PUSH1 0x1 DUP3 ADD SWAP1 POP SWAP2 SWAP1 POP JUMP JUMPDEST PUSH32 0x4E487B7100000000000000000000000000000000000000000000000000000000 PUSH1 0x0 MSTORE PUSH1 0x22 PUSH1 0x4 MSTORE PUSH1 0x24 PUSH1 0x0 REVERT JUMPDEST PUSH1 0x0 PUSH1 0x2 DUP3 DIV SWAP1 POP PUSH1 0x1 DUP3 AND DUP1 PUSH3 0xAC0 JUMPI PUSH1 0x7F DUP3 AND SWAP2 POP JUMPDEST PUSH1 0x20 DUP3 LT DUP2 EQ ISZERO PUSH3 0xAD7 JUMPI PUSH3 0xAD6 PUSH3 0xA78 JUMP JUMPDEST JUMPDEST POP SWAP2 SWAP1 POP JUMP JUMPDEST PUSH2 0x245B DUP1 PUSH3 0xAED PUSH1 0x0 CODECOPY PUSH1 0x0 RETURN INVALID PUSH1 0x80 PUSH1 0x40 MSTORE PUSH1 0x4 CALLDATASIZE LT PUSH2 0x140 JUMPI PUSH1 0x0 CALLDATALOAD PUSH1 0xE0 SHR DUP1 PUSH4 0x60A7F29F GT PUSH2 0xB6 JUMPI DUP1 PUSH4 0xA5CE3EB0 GT PUSH2 0x6F JUMPI DUP1 PUSH4 0xA5CE3EB0 EQ PUSH2 0x40E JUMPI DUP1 PUSH4 0xC35905C6 EQ PUSH2 0x439 JUMPI DUP1 PUSH4 0xCEFCEAF9 EQ PUSH2 0x464 JUMPI DUP1 PUSH4 0xE8919B1A EQ PUSH2 0x48F JUMPI DUP1 PUSH4 0xEF197DE9 EQ PUSH2 0x4BA JUMPI DUP1 PUSH4 0xFAD03404 EQ PUSH2 0x4D1 JUMPI PUSH2 0x140 JUMP JUMPDEST DUP1 PUSH4 0x60A7F29F EQ PUSH2 0x345 JUMPI DUP1 PUSH4 0x7284E416 EQ PUSH2 0x35C JUMPI DUP1 PUSH4 0x815AF908 EQ PUSH2 0x387 JUMPI DUP1 PUSH4 0x82B9F262 EQ PUSH2 0x39E JUMPI DUP1 PUSH4 0x901C5953 EQ PUSH2 0x3C7 JUMPI DUP1 PUSH4 0xA18861A3 EQ PUSH2 0x3E3 JUMPI PUSH2 0x140 JUMP JUMPDEST DUP1 PUSH4 0x185750B0 GT PUSH2 0x108 JUMPI DUP1 PUSH4 0x185750B0 EQ PUSH2 0x21F JUMPI DUP1 PUSH4 0x2804B2C0 EQ PUSH2 0x24A JUMPI DUP1 PUSH4 0x295B4E17 EQ PUSH2 0x275 JUMPI DUP1 PUSH4 0x308F5566 EQ PUSH2 0x2A0 JUMPI DUP1 PUSH4 0x36DA4468 EQ PUSH2 0x2E4 JUMPI DUP1 PUSH4 0x4051DDAC EQ PUSH2 0x30F JUMPI PUSH2 0x140 JUMP JUMPDEST DUP1 PUSH4 0x5116BB0 EQ PUSH2 0x145 JUMPI DUP1 PUSH4 0x8135879 EQ PUSH2 0x170 JUMPI DUP1 PUSH4 0xAD2A074 EQ PUSH2 0x19E JUMPI DUP1 PUSH4 0xBAFF053 EQ PUSH2 0x1C9 JUMPI DUP1 PUSH4 0x12FA769F EQ PUSH2 0x1F4 JUMPI JUMPDEST PUSH1 0x0 DUP1 REVERT JUMPDEST CALLVALUE DUP1 ISZERO PUSH2 0x151 JUMPI PUSH1 0x0 DUP1 REVERT JUMPDEST POP PUSH2 0x15A PUSH2 0x4FF JUMP JUMPDEST PUSH1 0x40 MLOAD PUSH2 0x167 SWAP2 SWAP1 PUSH2 0x18A3 JUMP JUMPDEST PUSH1 0x40 MLOAD DUP1 SWAP2 SUB SWAP1 RETURN JUMPDEST CALLVALUE DUP1 ISZERO PUSH2 0x17C JUMPI PUSH1 0x0 DUP1 REVERT JUMPDEST POP PUSH2 0x185 PUSH2 0x58D JUMP JUMPDEST PUSH1 0x40 MLOAD PUSH2 0x195 SWAP5 SWAP4 SWAP3 SWAP2 SWAP1 PUSH2 0x193B JUMP JUMPDEST PUSH1 0x40 MLOAD DUP1 SWAP2 SUB SWAP1 RETURN JUMPDEST CALLVALUE DUP1 ISZERO PUSH2 0x1AA JUMPI PUSH1 0x0 DUP1 REVERT JUMPDEST POP PUSH2 0x1B3 PUSH2 0x615 JUMP JUMPDEST PUSH1 0x40 MLOAD PUSH2 0x1C0 SWAP2 SWAP1 PUSH2 0x1990 JUMP JUMPDEST PUSH1 0x40 MLOAD DUP1 SWAP2 SUB SWAP1 RETURN JUMPDEST CALLVALUE DUP1 ISZERO PUSH2 0x1D5 JUMPI PUSH1 0x0 DUP1 REVERT JUMPDEST POP PUSH2 0x1DE PUSH2 0x61B JUMP JUMPDEST PUSH1 0x40 MLOAD PUSH2 0x1EB SWAP2 SWAP1 PUSH2 0x19AB JUMP JUMPDEST PUSH1 0x40 MLOAD DUP1 SWAP2 SUB SWAP1 RETURN JUMPDEST CALLVALUE DUP1 ISZERO PUSH2 0x200 JUMPI PUSH1 0x0 DUP1 REVERT JUMPDEST POP PUSH2 0x209 PUSH2 0x62E JUMP JUMPDEST PUSH1 0x40 MLOAD PUSH2 0x216 SWAP2 SWAP1 PUSH2 0x1990 JUMP JUMPDEST PUSH1 0x40 MLOAD DUP1 SWAP2 SUB SWAP1 RETURN JUMPDEST CALLVALUE DUP1 ISZERO PUSH2 0x22B JUMPI PUSH1 0x0 DUP1 REVERT JUMPDEST POP PUSH2 0x234 PUSH2 0x634 JUMP JUMPDEST PUSH1 0x40 MLOAD PUSH2 0x241 SWAP2 SWAP1 PUSH2 0x18A3 JUMP JUMPDEST PUSH1 0x40 MLOAD DUP1 SWAP2 SUB SWAP1 RETURN JUMPDEST CALLVALUE DUP1 ISZERO PUSH2 0x256 JUMPI PUSH1 0x0 DUP1 REVERT JUMPDEST POP PUSH2 0x25F PUSH2 0x6C8 JUMP JUMPDEST PUSH1 0x40 MLOAD PUSH2 0x26C SWAP2 SWAP1 PUSH2 0x1A07 JUMP JUMPDEST PUSH1 0x40 MLOAD DUP1 SWAP2 SUB SWAP1 RETURN JUMPDEST CALLVALUE DUP1 ISZERO PUSH2 0x281 JUMPI PUSH1 0x0 DUP1 REVERT JUMPDEST POP PUSH2 0x28A PUSH2 0x6EE JUMP JUMPDEST PUSH1 0x40 MLOAD PUSH2 0x297 SWAP2 SWAP1 PUSH2 0x19AB JUMP JUMPDEST PUSH1 0x40 MLOAD DUP1 SWAP2 SUB SWAP1 RETURN JUMPDEST CALLVALUE DUP1 ISZERO PUSH2 0x2AC JUMPI PUSH1 0x0 DUP1 REVERT JUMPDEST POP PUSH2 0x2C7 PUSH1 0x4 DUP1 CALLDATASIZE SUB DUP2 ADD SWAP1 PUSH2 0x2C2 SWAP2 SWAP1 PUSH2 0x1A62 JUMP JUMPDEST PUSH2 0x701 JUMP JUMPDEST PUSH1 0x40 MLOAD PUSH2 0x2DB SWAP9 SWAP8 SWAP7 SWAP6 SWAP5 SWAP4 SWAP3 SWAP2 SWAP1 PUSH2 0x1A8F JUMP JUMPDEST PUSH1 0x40 MLOAD DUP1 SWAP2 SUB SWAP1 RETURN JUMPDEST CALLVALUE DUP1 ISZERO PUSH2 0x2F0 JUMPI PUSH1 0x0 DUP1 REVERT JUMPDEST POP PUSH2 0x2F9 PUSH2 0x812 JUMP JUMPDEST PUSH1 0x40 MLOAD PUSH2 0x306 SWAP2 SWAP1 PUSH2 0x1A07 JUMP JUMPDEST PUSH1 0x40 MLOAD DUP1 SWAP2 SUB SWAP1 RETURN JUMPDEST CALLVALUE DUP1 ISZERO PUSH2 0x31B JUMPI PUSH1 0x0 DUP1 REVERT JUMPDEST POP PUSH2 0x324 PUSH2 0x838 JUMP JUMPDEST PUSH1 0x40 MLOAD PUSH2 0x33C SWAP13 SWAP12 SWAP11 SWAP10 SWAP9 SWAP8 SWAP7 SWAP6 SWAP5 SWAP4 SWAP3 SWAP2 SWAP1 PUSH2 0x1B14 JUMP JUMPDEST PUSH1 0x40 MLOAD DUP1 SWAP2 SUB SWAP1 RETURN JUMPDEST CALLVALUE DUP1 ISZERO PUSH2 0x351 JUMPI PUSH1 0x0 DUP1 REVERT JUMPDEST POP PUSH2 0x35A PUSH2 0xAA0 JUMP JUMPDEST STOP JUMPDEST CALLVALUE DUP1 ISZERO PUSH2 0x368 JUMPI PUSH1 0x0 DUP1 REVERT JUMPDEST POP PUSH2 0x371 PUSH2 0xB3B JUMP JUMPDEST PUSH1 0x40 MLOAD PUSH2 0x37E SWAP2 SWAP1 PUSH2 0x18A3 JUMP JUMPDEST PUSH1 0x40 MLOAD DUP1 SWAP2 SUB SWAP1 RETURN JUMPDEST CALLVALUE DUP1 ISZERO PUSH2 0x393 JUMPI PUSH1 0x0 DUP1 REVERT JUMPDEST POP PUSH2 0x39C PUSH2 0xBC9 JUMP JUMPDEST STOP JUMPDEST CALLVALUE DUP1 ISZERO PUSH2 0x3AA JUMPI PUSH1 0x0 DUP1 REVERT JUMPDEST POP PUSH2 0x3C5 PUSH1 0x4 DUP1 CALLDATASIZE SUB DUP2 ADD SWAP1 PUSH2 0x3C0 SWAP2 SWAP1 PUSH2 0x1D18 JUMP JUMPDEST PUSH2 0xCD2 JUMP JUMPDEST STOP JUMPDEST PUSH2 0x3E1 PUSH1 0x4 DUP1 CALLDATASIZE SUB DUP2 ADD SWAP1 PUSH2 0x3DC SWAP2 SWAP1 PUSH2 0x1D61 JUMP JUMPDEST PUSH2 0xF45 JUMP JUMPDEST STOP JUMPDEST CALLVALUE DUP1 ISZERO PUSH2 0x3EF JUMPI PUSH1 0x0 DUP1 REVERT JUMPDEST POP PUSH2 0x3F8 PUSH2 0x1387 JUMP JUMPDEST PUSH1 0x40 MLOAD PUSH2 0x405 SWAP2 SWAP1 PUSH2 0x1990 JUMP JUMPDEST PUSH1 0x40 MLOAD DUP1 SWAP2 SUB SWAP1 RETURN JUMPDEST CALLVALUE DUP1 ISZERO PUSH2 0x41A JUMPI PUSH1 0x0 DUP1 REVERT JUMPDEST POP PUSH2 0x423 PUSH2 0x1391 JUMP JUMPDEST PUSH1 0x40 MLOAD PUSH2 0x430 SWAP2 SWAP1 PUSH2 0x1990 JUMP JUMPDEST PUSH1 0x40 MLOAD DUP1 SWAP2 SUB SWAP1 RETURN JUMPDEST CALLVALUE DUP1 ISZERO PUSH2 0x445 JUMPI PUSH1 0x0 DUP1 REVERT JUMPDEST POP PUSH2 0x44E PUSH2 0x1397 JUMP JUMPDEST PUSH1 0x40 MLOAD PUSH2 0x45B SWAP2 SWAP1 PUSH2 0x1990 JUMP JUMPDEST PUSH1 0x40 MLOAD DUP1 SWAP2 SUB SWAP1 RETURN JUMPDEST CALLVALUE DUP1 ISZERO PUSH2 0x470 JUMPI PUSH1 0x0 DUP1 REVERT JUMPDEST POP PUSH2 0x479 PUSH2 0x139D JUMP JUMPDEST PUSH1 0x40 MLOAD PUSH2 0x486 SWAP2 SWAP1 PUSH2 0x18A3 JUMP JUMPDEST PUSH1 0x40 MLOAD DUP1 SWAP2 SUB SWAP1 RETURN JUMPDEST CALLVALUE DUP1 ISZERO PUSH2 0x49B JUMPI PUSH1 0x0 DUP1 REVERT JUMPDEST POP PUSH2 0x4A4 PUSH2 0x142B JUMP JUMPDEST PUSH1 0x40 MLOAD PUSH2 0x4B1 SWAP2 SWAP1 PUSH2 0x19AB JUMP JUMPDEST PUSH1 0x40 MLOAD DUP1 SWAP2 SUB SWAP1 RETURN JUMPDEST CALLVALUE DUP1 ISZERO PUSH2 0x4C6 JUMPI PUSH1 0x0 DUP1 REVERT JUMPDEST POP PUSH2 0x4CF PUSH2 0x143E JUMP JUMPDEST STOP JUMPDEST CALLVALUE DUP1 ISZERO PUSH2 0x4DD JUMPI PUSH1 0x0 DUP1 REVERT JUMPDEST POP PUSH2 0x4E6 PUSH2 0x15D7 JUMP JUMPDEST PUSH1 0x40 MLOAD PUSH2 0x4F6 SWAP5 SWAP4 SWAP3 SWAP2 SWAP1 PUSH2 0x1EC9 JUMP JUMPDEST PUSH1 0x40 MLOAD DUP1 SWAP2 SUB SWAP1 RETURN JUMPDEST PUSH1 0x4 DUP1 SLOAD PUSH2 0x50C SWAP1 PUSH2 0x1F45 JUMP JUMPDEST DUP1 PUSH1 0x1F ADD PUSH1 0x20 DUP1 SWAP2 DIV MUL PUSH1 0x20 ADD PUSH1 0x40 MLOAD SWAP1 DUP2 ADD PUSH1 0x40 MSTORE DUP1 SWAP3 SWAP2 SWAP1 DUP2 DUP2 MSTORE PUSH1 0x20 ADD DUP3 DUP1 SLOAD PUSH2 0x538 SWAP1 PUSH2 0x1F45 JUMP JUMPDEST DUP1 ISZERO PUSH2 0x585 JUMPI DUP1 PUSH1 0x1F LT PUSH2 0x55A JUMPI PUSH2 0x100 DUP1 DUP4 SLOAD DIV MUL DUP4 MSTORE SWAP2 PUSH1 0x20 ADD SWAP2 PUSH2 0x585 JUMP JUMPDEST DUP3 ADD SWAP2 SWAP1 PUSH1 0x0 MSTORE PUSH1 0x20 PUSH1 0x0 KECCAK256 SWAP1 JUMPDEST DUP2 SLOAD DUP2 MSTORE SWAP1 PUSH1 0x1 ADD SWAP1 PUSH1 0x20 ADD DUP1 DUP4 GT PUSH2 0x568 JUMPI DUP3 SWAP1 SUB PUSH1 0x1F AND DUP3 ADD SWAP2 JUMPDEST POP POP POP POP POP DUP2 JUMP JUMPDEST PUSH1 0x9 DUP1 PUSH1 0x1 ADD PUSH1 0x0 SWAP1 SLOAD SWAP1 PUSH2 0x100 EXP SWAP1 DIV PUSH1 0xFF AND SWAP1 DUP1 PUSH1 0x2 ADD PUSH1 0x40 MLOAD DUP1 PUSH1 0x60 ADD PUSH1 0x40 MSTORE SWAP1 DUP2 PUSH1 0x0 DUP3 ADD SLOAD DUP2 MSTORE PUSH1 0x20 ADD PUSH1 0x1 DUP3 ADD SLOAD DUP2 MSTORE PUSH1 0x20 ADD PUSH1 0x2 DUP3 ADD SLOAD DUP2 MSTORE POP POP SWAP1 DUP1 PUSH1 0x5 ADD PUSH1 0x40 MLOAD DUP1 PUSH1 0x60 ADD PUSH1 0x40 MSTORE SWAP1 DUP2 PUSH1 0x0 DUP3 ADD SLOAD DUP2 MSTORE PUSH1 0x20 ADD PUSH1 0x1 DUP3 ADD SLOAD DUP2 MSTORE PUSH1 0x20 ADD PUSH1 0x2 DUP3 ADD SLOAD DUP2 MSTORE POP POP SWAP1 DUP1 PUSH1 0x8 ADD PUSH1 0x0 SWAP1 SLOAD SWAP1 PUSH2 0x100 EXP SWAP1 DIV PUSH1 0xFF AND SWAP1 POP DUP5 JUMP JUMPDEST PUSH1 0x0 SLOAD DUP2 JUMP JUMPDEST PUSH1 0x8 PUSH1 0x15 SWAP1 SLOAD SWAP1 PUSH2 0x100 EXP SWAP1 DIV PUSH1 0xFF AND DUP2 JUMP JUMPDEST PUSH1 0x2 SLOAD DUP2 JUMP JUMPDEST PUSH1 0x12 DUP1 PUSH1 0x0 ADD DUP1 SLOAD PUSH2 0x645 SWAP1 PUSH2 0x1F45 JUMP JUMPDEST DUP1 PUSH1 0x1F ADD PUSH1 0x20 DUP1 SWAP2 DIV MUL PUSH1 0x20 ADD PUSH1 0x40 MLOAD SWAP1 DUP2 ADD PUSH1 0x40 MSTORE DUP1 SWAP3 SWAP2 SWAP1 DUP2 DUP2 MSTORE PUSH1 0x20 ADD DUP3 DUP1 SLOAD PUSH2 0x671 SWAP1 PUSH2 0x1F45 JUMP JUMPDEST DUP1 ISZERO PUSH2 0x6BE JUMPI DUP1 PUSH1 0x1F LT PUSH2 0x693 JUMPI PUSH2 0x100 DUP1 DUP4 SLOAD DIV MUL DUP4 MSTORE SWAP2 PUSH1 0x20 ADD SWAP2 PUSH2 0x6BE JUMP JUMPDEST DUP3 ADD SWAP2 SWAP1 PUSH1 0x0 MSTORE PUSH1 0x20 PUSH1 0x0 KECCAK256 SWAP1 JUMPDEST DUP2 SLOAD DUP2 MSTORE SWAP1 PUSH1 0x1 ADD SWAP1 PUSH1 0x20 ADD DUP1 DUP4 GT PUSH2 0x6A1 JUMPI DUP3 SWAP1 SUB PUSH1 0x1F AND DUP3 ADD SWAP2 JUMPDEST POP POP POP POP POP SWAP1 POP DUP2 JUMP JUMPDEST PUSH1 0x7 PUSH1 0x0 SWAP1 SLOAD SWAP1 PUSH2 0x100 EXP SWAP1 DIV PUSH20 0xFFFFFFFFFFFFFFFFFFFFFFFFFFFFFFFFFFFFFFFF AND DUP2 JUMP JUMPDEST PUSH1 0x8 PUSH1 0x14 SWAP1 SLOAD SWAP1 PUSH2 0x100 EXP SWAP1 DIV PUSH1 0xFF AND DUP2 JUMP JUMPDEST PUSH1 0x13 PUSH1 0x20 MSTORE DUP1 PUSH1 0x0 MSTORE PUSH1 0x40 PUSH1 0x0 KECCAK256 PUSH1 0x0 SWAP2 POP SWAP1 POP DUP1 PUSH1 0x0 ADD SLOAD SWAP1 DUP1 PUSH1 0x1 ADD SLOAD SWAP1 DUP1 PUSH1 0x2 ADD PUSH1 0x0 SWAP1 SLOAD SWAP1 PUSH2 0x100 EXP SWAP1 DIV PUSH1 0xFF AND SWAP1 DUP1 PUSH1 0x2 ADD PUSH1 0x1 SWAP1 SLOAD SWAP1 PUSH2 0x100 EXP SWAP1 DIV PUSH1 0xFF AND SWAP1 DUP1 PUSH1 0x2 ADD PUSH1 0x2 SWAP1 SLOAD SWAP1 PUSH2 0x100 EXP SWAP1 DIV PUSH1 0xFF AND SWAP1 DUP1 PUSH1 0x2 ADD PUSH1 0x3 SWAP1 SLOAD SWAP1 PUSH2 0x100 EXP SWAP1 DIV PUSH1 0xFF AND SWAP1 DUP1 PUSH1 0x2 ADD PUSH1 0x4 SWAP1 SLOAD SWAP1 PUSH2 0x100 EXP SWAP1 DIV PUSH1 0xFF AND SWAP1 DUP1 PUSH1 0x3 ADD DUP1 SLOAD PUSH2 0x78F SWAP1 PUSH2 0x1F45 JUMP JUMPDEST DUP1 PUSH1 0x1F ADD PUSH1 0x20 DUP1 SWAP2 DIV MUL PUSH1 0x20 ADD PUSH1 0x40 MLOAD SWAP1 DUP2 ADD PUSH1 0x40 MSTORE DUP1 SWAP3 SWAP2 SWAP1 DUP2 DUP2 MSTORE PUSH1 0x20 ADD DUP3 DUP1 SLOAD PUSH2 0x7BB SWAP1 PUSH2 0x1F45 JUMP JUMPDEST DUP1 ISZERO PUSH2 0x808 JUMPI DUP1 PUSH1 0x1F LT PUSH2 0x7DD JUMPI PUSH2 0x100 DUP1 DUP4 SLOAD DIV MUL DUP4 MSTORE SWAP2 PUSH1 0x20 ADD SWAP2 PUSH2 0x808 JUMP JUMPDEST DUP3 ADD SWAP2 SWAP1 PUSH1 0x0 MSTORE PUSH1 0x20 PUSH1 0x0 KECCAK256 SWAP1 JUMPDEST DUP2 SLOAD DUP2 MSTORE SWAP1 PUSH1 0x1 ADD SWAP1 PUSH1 0x20 ADD DUP1 DUP4 GT PUSH2 0x7EB JUMPI DUP3 SWAP1 SUB PUSH1 0x1F AND DUP3 ADD SWAP2 JUMPDEST POP POP POP POP POP SWAP1 POP DUP9 JUMP JUMPDEST PUSH1 0x8 PUSH1 0x0 SWAP1 SLOAD SWAP1 PUSH2 0x100 EXP SWAP1 DIV PUSH20 0xFFFFFFFFFFFFFFFFFFFFFFFFFFFFFFFFFFFFFFFF AND DUP2 JUMP JUMPDEST PUSH1 0x60 DUP1 PUSH1 0x60 PUSH1 0x0 DUP1 PUSH1 0x0 DUP1 PUSH1 0x0 DUP1 PUSH1 0x0 DUP1 PUSH1 0x0 PUSH1 0x6 PUSH1 0x5 PUSH1 0x4 PUSH1 0x3 SLOAD PUSH1 0x1 SLOAD PUSH1 0x2 SLOAD PUSH1 0x0 SLOAD PUSH1 0x7 PUSH1 0x0 SWAP1 SLOAD SWAP1 PUSH2 0x100 EXP SWAP1 DIV PUSH20 0xFFFFFFFFFFFFFFFFFFFFFFFFFFFFFFFFFFFFFFFF AND PUSH1 0x8 PUSH1 0x0 SWAP1 SLOAD SWAP1 PUSH2 0x100 EXP SWAP1 DIV PUSH20 0xFFFFFFFFFFFFFFFFFFFFFFFFFFFFFFFFFFFFFFFF AND PUSH1 0x9 PUSH1 0x1 ADD PUSH1 0x0 SWAP1 SLOAD SWAP1 PUSH2 0x100 EXP SWAP1 DIV PUSH1 0xFF AND PUSH1 0x8 PUSH1 0x14 SWAP1 SLOAD SWAP1 PUSH2 0x100 EXP SWAP1 DIV PUSH1 0xFF AND PUSH1 0x8 PUSH1 0x15 SWAP1 SLOAD SWAP1 PUSH2 0x100 EXP SWAP1 DIV PUSH1 0xFF AND DUP12 DUP1 SLOAD PUSH2 0x8E2 SWAP1 PUSH2 0x1F45 JUMP JUMPDEST DUP1 PUSH1 0x1F ADD PUSH1 0x20 DUP1 SWAP2 DIV MUL PUSH1 0x20 ADD PUSH1 0x40 MLOAD SWAP1 DUP2 ADD PUSH1 0x40 MSTORE DUP1 SWAP3 SWAP2 SWAP1 DUP2 DUP2 MSTORE PUSH1 0x20 ADD DUP3 DUP1 SLOAD PUSH2 0x90E SWAP1 PUSH2 0x1F45 JUMP JUMPDEST DUP1 ISZERO PUSH2 0x95B JUMPI DUP1 PUSH1 0x1F LT PUSH2 0x930 JUMPI PUSH2 0x100 DUP1 DUP4 SLOAD DIV MUL DUP4 MSTORE SWAP2 PUSH1 0x20 ADD SWAP2 PUSH2 0x95B JUMP JUMPDEST DUP3 ADD SWAP2 SWAP1 PUSH1 0x0 MSTORE PUSH1 0x20 PUSH1 0x0 KECCAK256 SWAP1 JUMPDEST DUP2 SLOAD DUP2 MSTORE SWAP1 PUSH1 0x1 ADD SWAP1 PUSH1 0x20 ADD DUP1 DUP4 GT PUSH2 0x93E JUMPI DUP3 SWAP1 SUB PUSH1 0x1F AND DUP3 ADD SWAP2 JUMPDEST POP POP POP POP POP SWAP12 POP DUP11 DUP1 SLOAD PUSH2 0x96E SWAP1 PUSH2 0x1F45 JUMP JUMPDEST DUP1 PUSH1 0x1F ADD PUSH1 0x20 DUP1 SWAP2 DIV MUL PUSH1 0x20 ADD PUSH1 0x40 MLOAD SWAP1 DUP2 ADD PUSH1 0x40 MSTORE DUP1 SWAP3 SWAP2 SWAP1 DUP2 DUP2 MSTORE PUSH1 0x20 ADD DUP3 DUP1 SLOAD PUSH2 0x99A SWAP1 PUSH2 0x1F45 JUMP JUMPDEST DUP1 ISZERO PUSH2 0x9E7 JUMPI DUP1 PUSH1 0x1F LT PUSH2 0x9BC JUMPI PUSH2 0x100 DUP1 DUP4 SLOAD DIV MUL DUP4 MSTORE SWAP2 PUSH1 0x20 ADD SWAP2 PUSH2 0x9E7 JUMP JUMPDEST DUP3 ADD SWAP2 SWAP1 PUSH1 0x0 MSTORE PUSH1 0x20 PUSH1 0x0 KECCAK256 SWAP1 JUMPDEST DUP2 SLOAD DUP2 MSTORE SWAP1 PUSH1 0x1 ADD SWAP1 PUSH1 0x20 ADD DUP1 DUP4 GT PUSH2 0x9CA JUMPI DUP3 SWAP1 SUB PUSH1 0x1F AND DUP3 ADD SWAP2 JUMPDEST POP POP POP POP POP SWAP11 POP DUP10 DUP1 SLOAD PUSH2 0x9FA SWAP1 PUSH2 0x1F45 JUMP JUMPDEST DUP1 PUSH1 0x1F ADD PUSH1 0x20 DUP1 SWAP2 DIV MUL PUSH1 0x20 ADD PUSH1 0x40 MLOAD SWAP1 DUP2 ADD PUSH1 0x40 MSTORE DUP1 SWAP3 SWAP2 SWAP1 DUP2 DUP2 MSTORE PUSH1 0x20 ADD DUP3 DUP1 SLOAD PUSH2 0xA26 SWAP1 PUSH2 0x1F45 JUMP JUMPDEST DUP1 ISZERO PUSH2 0xA73 JUMPI DUP1 PUSH1 0x1F LT PUSH2 0xA48 JUMPI PUSH2 0x100 DUP1 DUP4 SLOAD DIV MUL DUP4 MSTORE SWAP2 PUSH1 0x20 ADD SWAP2 PUSH2 0xA73 JUMP JUMPDEST DUP3 ADD SWAP2 SWAP1 PUSH1 0x0 MSTORE PUSH1 0x20 PUSH1 0x0 KECCAK256 SWAP1 JUMPDEST DUP2 SLOAD DUP2 MSTORE SWAP1 PUSH1 0x1 ADD SWAP1 PUSH1 0x20 ADD DUP1 DUP4 GT PUSH2 0xA56 JUMPI DUP3 SWAP1 SUB PUSH1 0x1F AND DUP3 ADD SWAP2 JUMPDEST POP POP POP POP POP SWAP10 POP SWAP12 POP SWAP12 POP SWAP12 POP SWAP12 POP SWAP12 POP SWAP12 POP SWAP12 POP SWAP12 POP SWAP12 POP SWAP12 POP SWAP12 POP SWAP12 POP SWAP1 SWAP2 SWAP3 SWAP4 SWAP5 SWAP6 SWAP7 SWAP8 SWAP9 SWAP10 SWAP11 SWAP12 JUMP JUMPDEST PUSH1 0x8 PUSH1 0x0 SWAP1 SLOAD SWAP1 PUSH2 0x100 EXP SWAP1 DIV PUSH20 0xFFFFFFFFFFFFFFFFFFFFFFFFFFFFFFFFFFFFFFFF AND PUSH20 0xFFFFFFFFFFFFFFFFFFFFFFFFFFFFFFFFFFFFFFFF AND CALLER PUSH20 0xFFFFFFFFFFFFFFFFFFFFFFFFFFFFFFFFFFFFFFFF AND EQ PUSH2 0xB30 JUMPI PUSH1 0x40 MLOAD PUSH32 0x8C379A000000000000000000000000000000000000000000000000000000000 DUP2 MSTORE PUSH1 0x4 ADD PUSH2 0xB27 SWAP1 PUSH2 0x1FC3 JUMP JUMPDEST PUSH1 0x40 MLOAD DUP1 SWAP2 SUB SWAP1 REVERT JUMPDEST PUSH1 0x0 SLOAD PUSH1 0x1 DUP2 SWAP1 SSTORE POP JUMP JUMPDEST PUSH1 0x6 DUP1 SLOAD PUSH2 0xB48 SWAP1 PUSH2 0x1F45 JUMP JUMPDEST DUP1 PUSH1 0x1F ADD PUSH1 0x20 DUP1 SWAP2 DIV MUL PUSH1 0x20 ADD PUSH1 0x40 MLOAD SWAP1 DUP2 ADD PUSH1 0x40 MSTORE DUP1 SWAP3 SWAP2 SWAP1 DUP2 DUP2 MSTORE PUSH1 0x20 ADD DUP3 DUP1 SLOAD PUSH2 0xB74 SWAP1 PUSH2 0x1F45 JUMP JUMPDEST DUP1 ISZERO PUSH2 0xBC1 JUMPI DUP1 PUSH1 0x1F LT PUSH2 0xB96 JUMPI PUSH2 0x100 DUP1 DUP4 SLOAD DIV MUL DUP4 MSTORE SWAP2 PUSH1 0x20 ADD SWAP2 PUSH2 0xBC1 JUMP JUMPDEST DUP3 ADD SWAP2 SWAP1 PUSH1 0x0 MSTORE PUSH1 0x20 PUSH1 0x0 KECCAK256 SWAP1 JUMPDEST DUP2 SLOAD DUP2 MSTORE SWAP1 PUSH1 0x1 ADD SWAP1 PUSH1 0x20 ADD DUP1 DUP4 GT PUSH2 0xBA4 JUMPI DUP3 SWAP1 SUB PUSH1 0x1F AND DUP3 ADD SWAP2 JUMPDEST POP POP POP POP POP DUP2 JUMP JUMPDEST PUSH1 0x7 PUSH1 0x0 SWAP1 SLOAD SWAP1 PUSH2 0x100 EXP SWAP1 DIV PUSH20 0xFFFFFFFFFFFFFFFFFFFFFFFFFFFFFFFFFFFFFFFF AND PUSH20 0xFFFFFFFFFFFFFFFFFFFFFFFFFFFFFFFFFFFFFFFF AND CALLER PUSH20 0xFFFFFFFFFFFFFFFFFFFFFFFFFFFFFFFFFFFFFFFF AND EQ PUSH2 0xC59 JUMPI PUSH1 0x40 MLOAD PUSH32 0x8C379A000000000000000000000000000000000000000000000000000000000 DUP2 MSTORE PUSH1 0x4 ADD PUSH2 0xC50 SWAP1 PUSH2 0x202F JUMP JUMPDEST PUSH1 0x40 MLOAD DUP1 SWAP2 SUB SWAP1 REVERT JUMPDEST PUSH1 0x0 ISZERO ISZERO PUSH1 0x9 PUSH1 0x1 ADD PUSH1 0x0 SWAP1 SLOAD SWAP1 PUSH2 0x100 EXP SWAP1 DIV PUSH1 0xFF AND ISZERO ISZERO EQ PUSH2 0xCB2 JUMPI PUSH1 0x40 MLOAD PUSH32 0x8C379A000000000000000000000000000000000000000000000000000000000 DUP2 MSTORE PUSH1 0x4 ADD PUSH2 0xCA9 SWAP1 PUSH2 0x209B JUMP JUMPDEST PUSH1 0x40 MLOAD DUP1 SWAP2 SUB SWAP1 REVERT JUMPDEST PUSH1 0x1 PUSH1 0x9 PUSH1 0x1 ADD PUSH1 0x0 PUSH2 0x100 EXP DUP2 SLOAD DUP2 PUSH1 0xFF MUL NOT AND SWAP1 DUP4 ISZERO ISZERO MUL OR SWAP1 SSTORE POP JUMP JUMPDEST PUSH1 0x8 PUSH1 0x0 SWAP1 SLOAD SWAP1 PUSH2 0x100 EXP SWAP1 DIV PUSH20 0xFFFFFFFFFFFFFFFFFFFFFFFFFFFFFFFFFFFFFFFF AND PUSH20 0xFFFFFFFFFFFFFFFFFFFFFFFFFFFFFFFFFFFFFFFF AND CALLER PUSH20 0xFFFFFFFFFFFFFFFFFFFFFFFFFFFFFFFFFFFFFFFF AND EQ PUSH2 0xD62 JUMPI PUSH1 0x40 MLOAD PUSH32 0x8C379A000000000000000000000000000000000000000000000000000000000 DUP2 MSTORE PUSH1 0x4 ADD PUSH2 0xD59 SWAP1 PUSH2 0x1FC3 JUMP JUMPDEST PUSH1 0x40 MLOAD DUP1 SWAP2 SUB SWAP1 REVERT JUMPDEST PUSH1 0x1 ISZERO ISZERO PUSH1 0x9 PUSH1 0x1 ADD PUSH1 0x0 SWAP1 SLOAD SWAP1 PUSH2 0x100 EXP SWAP1 DIV PUSH1 0xFF AND ISZERO ISZERO EQ PUSH2 0xDBB JUMPI PUSH1 0x40 MLOAD PUSH32 0x8C379A000000000000000000000000000000000000000000000000000000000 DUP2 MSTORE PUSH1 0x4 ADD PUSH2 0xDB2 SWAP1 PUSH2 0x2107 JUMP JUMPDEST PUSH1 0x40 MLOAD DUP1 SWAP2 SUB SWAP1 REVERT JUMPDEST PUSH1 0x1 ISZERO ISZERO PUSH1 0x8 PUSH1 0x14 SWAP1 SLOAD SWAP1 PUSH2 0x100 EXP SWAP1 DIV PUSH1 0xFF AND ISZERO ISZERO EQ PUSH2 0xE11 JUMPI PUSH1 0x40 MLOAD PUSH32 0x8C379A000000000000000000000000000000000000000000000000000000000 DUP2 MSTORE PUSH1 0x4 ADD PUSH2 0xE08 SWAP1 PUSH2 0x2173 JUMP JUMPDEST PUSH1 0x40 MLOAD DUP1 SWAP2 SUB SWAP1 REVERT JUMPDEST PUSH1 0x1 PUSH1 0x8 PUSH1 0x15 PUSH2 0x100 EXP DUP2 SLOAD DUP2 PUSH1 0xFF MUL NOT AND SWAP1 DUP4 ISZERO ISZERO MUL OR SWAP1 SSTORE POP PUSH1 0x0 PUSH1 0x8 PUSH1 0x14 PUSH2 0x100 EXP DUP2 SLOAD DUP2 PUSH1 0xFF MUL NOT AND SWAP1 DUP4 ISZERO ISZERO MUL OR SWAP1 SSTORE POP PUSH1 0x0 SLOAD PUSH1 0x1 DUP2 SWAP1 SSTORE POP PUSH1 0x0 PUSH1 0x13 PUSH1 0x0 PUSH1 0x14 SLOAD DUP2 MSTORE PUSH1 0x20 ADD SWAP1 DUP2 MSTORE PUSH1 0x20 ADD PUSH1 0x0 KECCAK256 SWAP1 POP PUSH1 0x1 SLOAD DUP2 PUSH1 0x0 ADD DUP2 SWAP1 SSTORE POP PUSH1 0x2 SLOAD DUP2 PUSH1 0x1 ADD DUP2 SWAP1 SSTORE POP PUSH1 0x0 DUP2 PUSH1 0x2 ADD PUSH1 0x0 PUSH2 0x100 EXP DUP2 SLOAD DUP2 PUSH1 0xFF MUL NOT AND SWAP1 DUP4 ISZERO ISZERO MUL OR SWAP1 SSTORE POP PUSH1 0x1 DUP2 PUSH1 0x2 ADD PUSH1 0x1 PUSH2 0x100 EXP DUP2 SLOAD DUP2 PUSH1 0xFF MUL NOT AND SWAP1 DUP4 ISZERO ISZERO MUL OR SWAP1 SSTORE POP PUSH1 0x0 DUP2 PUSH1 0x2 ADD PUSH1 0x2 PUSH2 0x100 EXP DUP2 SLOAD DUP2 PUSH1 0xFF MUL NOT AND SWAP1 DUP4 ISZERO ISZERO MUL OR SWAP1 SSTORE POP PUSH1 0x0 DUP2 PUSH1 0x2 ADD PUSH1 0x3 PUSH2 0x100 EXP DUP2 SLOAD DUP2 PUSH1 0xFF MUL NOT AND SWAP1 DUP4 ISZERO ISZERO MUL OR SWAP1 SSTORE POP PUSH1 0x0 DUP2 PUSH1 0x2 ADD PUSH1 0x4 PUSH2 0x100 EXP DUP2 SLOAD DUP2 PUSH1 0xFF MUL NOT AND SWAP1 DUP4 ISZERO ISZERO MUL OR SWAP1 SSTORE POP DUP2 DUP2 PUSH1 0x3 ADD SWAP1 DUP1 MLOAD SWAP1 PUSH1 0x20 ADD SWAP1 PUSH2 0xF28 SWAP3 SWAP2 SWAP1 PUSH2 0x1746 JUMP JUMPDEST POP PUSH1 0x14 PUSH1 0x0 DUP2 SLOAD DUP1 SWAP3 SWAP2 SWAP1 PUSH2 0xF3C SWAP1 PUSH2 0x21C2 JUMP JUMPDEST SWAP2 SWAP1 POP SSTORE POP POP POP JUMP JUMPDEST PUSH1 0x7 PUSH1 0x0 SWAP1 SLOAD SWAP1 PUSH2 0x100 EXP SWAP1 DIV PUSH20 0xFFFFFFFFFFFFFFFFFFFFFFFFFFFFFFFFFFFFFFFF AND PUSH20 0xFFFFFFFFFFFFFFFFFFFFFFFFFFFFFFFFFFFFFFFF AND CALLER PUSH20 0xFFFFFFFFFFFFFFFFFFFFFFFFFFFFFFFFFFFFFFFF AND EQ PUSH2 0xFD5 JUMPI PUSH1 0x40 MLOAD PUSH32 0x8C379A000000000000000000000000000000000000000000000000000000000 DUP2 MSTORE PUSH1 0x4 ADD PUSH2 0xFCC SWAP1 PUSH2 0x202F JUMP JUMPDEST PUSH1 0x40 MLOAD DUP1 SWAP2 SUB SWAP1 REVERT JUMPDEST PUSH1 0x1 ISZERO ISZERO PUSH1 0x9 PUSH1 0x1 ADD PUSH1 0x0 SWAP1 SLOAD SWAP1 PUSH2 0x100 EXP SWAP1 DIV PUSH1 0xFF AND ISZERO ISZERO EQ PUSH2 0x102E JUMPI PUSH1 0x40 MLOAD PUSH32 0x8C379A000000000000000000000000000000000000000000000000000000000 DUP2 MSTORE PUSH1 0x4 ADD PUSH2 0x1025 SWAP1 PUSH2 0x2257 JUMP JUMPDEST PUSH1 0x40 MLOAD DUP1 SWAP2 SUB SWAP1 REVERT JUMPDEST PUSH1 0x0 CALLVALUE SWAP1 POP PUSH1 0x1 SLOAD DUP2 GT ISZERO PUSH2 0x1078 JUMPI PUSH1 0x40 MLOAD PUSH32 0x8C379A000000000000000000000000000000000000000000000000000000000 DUP2 MSTORE PUSH1 0x4 ADD PUSH2 0x106F SWAP1 PUSH2 0x22E9 JUMP JUMPDEST PUSH1 0x40 MLOAD DUP1 SWAP2 SUB SWAP1 REVERT JUMPDEST DUP1 PUSH1 0x2 PUSH1 0x0 DUP3 DUP3 SLOAD PUSH2 0x108A SWAP2 SWAP1 PUSH2 0x2309 JUMP JUMPDEST SWAP3 POP POP DUP2 SWAP1 SSTORE POP DUP1 PUSH1 0x1 PUSH1 0x0 DUP3 DUP3 SLOAD PUSH2 0x10A3 SWAP2 SWAP1 PUSH2 0x235F JUMP JUMPDEST SWAP3 POP POP DUP2 SWAP1 SSTORE POP DUP1 PUSH1 0x3 PUSH1 0x0 DUP3 DUP3 SLOAD PUSH2 0x10BC SWAP2 SWAP1 PUSH2 0x2309 JUMP JUMPDEST SWAP3 POP POP DUP2 SWAP1 SSTORE POP PUSH1 0x8 PUSH1 0x0 SWAP1 SLOAD SWAP1 PUSH2 0x100 EXP SWAP1 DIV PUSH20 0xFFFFFFFFFFFFFFFFFFFFFFFFFFFFFFFFFFFFFFFF AND PUSH20 0xFFFFFFFFFFFFFFFFFFFFFFFFFFFFFFFFFFFFFFFF AND PUSH2 0x8FC DUP3 SWAP1 DUP2 ISZERO MUL SWAP1 PUSH1 0x40 MLOAD PUSH1 0x0 PUSH1 0x40 MLOAD DUP1 DUP4 SUB DUP2 DUP6 DUP9 DUP9 CALL SWAP4 POP POP POP POP ISZERO DUP1 ISZERO PUSH2 0x112B JUMPI RETURNDATASIZE PUSH1 0x0 DUP1 RETURNDATACOPY RETURNDATASIZE PUSH1 0x0 REVERT JUMPDEST POP PUSH1 0x0 PUSH1 0x13 PUSH1 0x0 PUSH1 0x14 SLOAD DUP2 MSTORE PUSH1 0x20 ADD SWAP1 DUP2 MSTORE PUSH1 0x20 ADD PUSH1 0x0 KECCAK256 SWAP1 POP PUSH1 0x1 SLOAD DUP2 PUSH1 0x0 ADD DUP2 SWAP1 SSTORE POP DUP2 DUP2 PUSH1 0x1 ADD DUP2 SWAP1 SSTORE POP PUSH1 0x0 DUP2 PUSH1 0x2 ADD PUSH1 0x1 PUSH2 0x100 EXP DUP2 SLOAD DUP2 PUSH1 0xFF MUL NOT AND SWAP1 DUP4 ISZERO ISZERO MUL OR SWAP1 SSTORE POP PUSH1 0x0 DUP2 PUSH1 0x2 ADD PUSH1 0x0 PUSH2 0x100 EXP DUP2 SLOAD DUP2 PUSH1 0xFF MUL NOT AND SWAP1 DUP4 ISZERO ISZERO MUL OR SWAP1 SSTORE POP PUSH1 0x1 DUP2 PUSH1 0x2 ADD PUSH1 0x3 PUSH2 0x100 EXP DUP2 SLOAD DUP2 PUSH1 0xFF MUL NOT AND SWAP1 DUP4 ISZERO ISZERO MUL OR SWAP1 SSTORE POP PUSH1 0x0 DUP2 PUSH1 0x2 ADD PUSH1 0x4 PUSH2 0x100 EXP DUP2 SLOAD DUP2 PUSH1 0xFF MUL NOT AND SWAP1 DUP4 ISZERO ISZERO MUL OR SWAP1 SSTORE POP DUP4 DUP2 PUSH1 0x3 ADD SWAP1 DUP1 MLOAD SWAP1 PUSH1 0x20 ADD SWAP1 PUSH2 0x11E5 SWAP3 SWAP2 SWAP1 PUSH2 0x1746 JUMP JUMPDEST POP PUSH1 0x14 PUSH1 0x0 DUP2 SLOAD DUP1 SWAP3 SWAP2 SWAP1 PUSH2 0x11F9 SWAP1 PUSH2 0x21C2 JUMP JUMPDEST SWAP2 SWAP1 POP SSTORE POP PUSH1 0x0 PUSH1 0x1 SLOAD EQ ISZERO PUSH2 0x12E6 JUMPI PUSH1 0x0 PUSH1 0x13 PUSH1 0x0 PUSH1 0x14 SLOAD DUP2 MSTORE PUSH1 0x20 ADD SWAP1 DUP2 MSTORE PUSH1 0x20 ADD PUSH1 0x0 KECCAK256 SWAP1 POP PUSH1 0x0 SLOAD PUSH1 0x1 DUP2 SWAP1 SSTORE POP PUSH1 0x1 SLOAD DUP2 PUSH1 0x0 ADD DUP2 SWAP1 SSTORE POP DUP3 DUP2 PUSH1 0x1 ADD DUP2 SWAP1 SSTORE POP PUSH1 0x0 DUP2 PUSH1 0x2 ADD PUSH1 0x1 PUSH2 0x100 EXP DUP2 SLOAD DUP2 PUSH1 0xFF MUL NOT AND SWAP1 DUP4 ISZERO ISZERO MUL OR SWAP1 SSTORE POP PUSH1 0x0 DUP2 PUSH1 0x2 ADD PUSH1 0x0 PUSH2 0x100 EXP DUP2 SLOAD DUP2 PUSH1 0xFF MUL NOT AND SWAP1 DUP4 ISZERO ISZERO MUL OR SWAP1 SSTORE POP PUSH1 0x0 DUP2 PUSH1 0x2 ADD PUSH1 0x3 PUSH2 0x100 EXP DUP2 SLOAD DUP2 PUSH1 0xFF MUL NOT AND SWAP1 DUP4 ISZERO ISZERO MUL OR SWAP1 SSTORE POP PUSH1 0x1 DUP2 PUSH1 0x2 ADD PUSH1 0x4 PUSH2 0x100 EXP DUP2 SLOAD DUP2 PUSH1 0xFF MUL NOT AND SWAP1 DUP4 ISZERO ISZERO MUL OR SWAP1 SSTORE POP DUP5 DUP2 PUSH1 0x3 ADD SWAP1 DUP1 MLOAD SWAP1 PUSH1 0x20 ADD SWAP1 PUSH2 0x12CB SWAP3 SWAP2 SWAP1 PUSH2 0x1746 JUMP JUMPDEST POP PUSH1 0x14 PUSH1 0x0 DUP2 SLOAD DUP1 SWAP3 SWAP2 SWAP1 PUSH2 0x12DF SWAP1 PUSH2 0x21C2 JUMP JUMPDEST SWAP2 SWAP1 POP SSTORE POP POP JUMPDEST DUP3 PUSH1 0x3 SLOAD EQ ISZERO PUSH2 0x1348 JUMPI PUSH1 0x1 PUSH1 0x8 PUSH1 0x14 PUSH2 0x100 EXP DUP2 SLOAD DUP2 PUSH1 0xFF MUL NOT AND SWAP1 DUP4 ISZERO ISZERO MUL OR SWAP1 SSTORE POP PUSH1 0x0 PUSH1 0x8 PUSH1 0x15 PUSH2 0x100 EXP DUP2 SLOAD DUP2 PUSH1 0xFF MUL NOT AND SWAP1 DUP4 ISZERO ISZERO MUL OR SWAP1 SSTORE POP PUSH1 0x1 DUP2 PUSH1 0x2 ADD PUSH1 0x2 PUSH2 0x100 EXP DUP2 SLOAD DUP2 PUSH1 0xFF MUL NOT AND SWAP1 DUP4 ISZERO ISZERO MUL OR SWAP1 SSTORE POP PUSH2 0x1366 JUMP JUMPDEST PUSH1 0x0 DUP2 PUSH1 0x2 ADD PUSH1 0x2 PUSH2 0x100 EXP DUP2 SLOAD DUP2 PUSH1 0xFF MUL NOT AND SWAP1 DUP4 ISZERO ISZERO MUL OR SWAP1 SSTORE POP JUMPDEST PUSH1 0x0 PUSH1 0x8 PUSH1 0x15 PUSH2 0x100 EXP DUP2 SLOAD DUP2 PUSH1 0xFF MUL NOT AND SWAP1 DUP4 ISZERO ISZERO MUL OR SWAP1 SSTORE POP POP POP POP POP JUMP JUMPDEST PUSH1 0x0 PUSH1 0x14 SLOAD SWAP1 POP SWAP1 JUMP JUMPDEST PUSH1 0x3 SLOAD DUP2 JUMP JUMPDEST PUSH1 0x1 SLOAD DUP2 JUMP JUMPDEST PUSH1 0x5 DUP1 SLOAD PUSH2 0x13AA SWAP1 PUSH2 0x1F45 JUMP JUMPDEST DUP1 PUSH1 0x1F ADD PUSH1 0x20 DUP1 SWAP2 DIV MUL PUSH1 0x20 ADD PUSH1 0x40 MLOAD SWAP1 DUP2 ADD PUSH1 0x40 MSTORE DUP1 SWAP3 SWAP2 SWAP1 DUP2 DUP2 MSTORE PUSH1 0x20 ADD DUP3 DUP1 SLOAD PUSH2 0x13D6 SWAP1 PUSH2 0x1F45 JUMP JUMPDEST DUP1 ISZERO PUSH2 0x1423 JUMPI DUP1 PUSH1 0x1F LT PUSH2 0x13F8 JUMPI PUSH2 0x100 DUP1 DUP4 SLOAD DIV MUL DUP4 MSTORE SWAP2 PUSH1 0x20 ADD SWAP2 PUSH2 0x1423 JUMP JUMPDEST DUP3 ADD SWAP2 SWAP1 PUSH1 0x0 MSTORE PUSH1 0x20 PUSH1 0x0 KECCAK256 SWAP1 JUMPDEST DUP2 SLOAD DUP2 MSTORE SWAP1 PUSH1 0x1 ADD SWAP1 PUSH1 0x20 ADD DUP1 DUP4 GT PUSH2 0x1406 JUMPI DUP3 SWAP1 SUB PUSH1 0x1F AND DUP3 ADD SWAP2 JUMPDEST POP POP POP POP POP DUP2 JUMP JUMPDEST PUSH1 0x8 PUSH1 0x16 SWAP1 SLOAD SWAP1 PUSH2 0x100 EXP SWAP1 DIV PUSH1 0xFF AND DUP2 JUMP JUMPDEST PUSH1 0x7 PUSH1 0x0 SWAP1 SLOAD SWAP1 PUSH2 0x100 EXP SWAP1 DIV PUSH20 0xFFFFFFFFFFFFFFFFFFFFFFFFFFFFFFFFFFFFFFFF AND PUSH20 0xFFFFFFFFFFFFFFFFFFFFFFFFFFFFFFFFFFFFFFFF AND CALLER PUSH20 0xFFFFFFFFFFFFFFFFFFFFFFFFFFFFFFFFFFFFFFFF AND EQ PUSH2 0x14CE JUMPI PUSH1 0x40 MLOAD PUSH32 0x8C379A000000000000000000000000000000000000000000000000000000000 DUP2 MSTORE PUSH1 0x4 ADD PUSH2 0x14C5 SWAP1 PUSH2 0x202F JUMP JUMPDEST PUSH1 0x40 MLOAD DUP1 SWAP2 SUB SWAP1 REVERT JUMPDEST PUSH1 0x8 PUSH1 0x0 SWAP1 SLOAD SWAP1 PUSH2 0x100 EXP SWAP1 DIV PUSH20 0xFFFFFFFFFFFFFFFFFFFFFFFFFFFFFFFFFFFFFFFF AND PUSH20 0xFFFFFFFFFFFFFFFFFFFFFFFFFFFFFFFFFFFFFFFF AND CALLER PUSH20 0xFFFFFFFFFFFFFFFFFFFFFFFFFFFFFFFFFFFFFFFF AND EQ PUSH2 0x155E JUMPI PUSH1 0x40 MLOAD PUSH32 0x8C379A000000000000000000000000000000000000000000000000000000000 DUP2 MSTORE PUSH1 0x4 ADD PUSH2 0x1555 SWAP1 PUSH2 0x1FC3 JUMP JUMPDEST PUSH1 0x40 MLOAD DUP1 SWAP2 SUB SWAP1 REVERT JUMPDEST PUSH1 0x1 ISZERO ISZERO PUSH1 0x9 PUSH1 0x1 ADD PUSH1 0x0 SWAP1 SLOAD SWAP1 PUSH2 0x100 EXP SWAP1 DIV PUSH1 0xFF AND ISZERO ISZERO EQ PUSH2 0x15B7 JUMPI PUSH1 0x40 MLOAD PUSH32 0x8C379A000000000000000000000000000000000000000000000000000000000 DUP2 MSTORE PUSH1 0x4 ADD PUSH2 0x15AE SWAP1 PUSH2 0x2405 JUMP JUMPDEST PUSH1 0x40 MLOAD DUP1 SWAP2 SUB SWAP1 REVERT JUMPDEST PUSH1 0x0 PUSH1 0x9 PUSH1 0x1 ADD PUSH1 0x0 PUSH2 0x100 EXP DUP2 SLOAD DUP2 PUSH1 0xFF MUL NOT AND SWAP1 DUP4 ISZERO ISZERO MUL OR SWAP1 SSTORE POP JUMP JUMPDEST PUSH1 0x60 PUSH1 0x0 PUSH2 0x15E3 PUSH2 0x17CC JUMP JUMPDEST PUSH2 0x15EB PUSH2 0x17CC JUMP JUMPDEST PUSH1 0x9 PUSH1 0x0 ADD PUSH1 0x9 PUSH1 0x1 ADD PUSH1 0x0 SWAP1 SLOAD SWAP1 PUSH2 0x100 EXP SWAP1 DIV PUSH1 0xFF AND PUSH1 0x9 PUSH1 0x2 ADD PUSH1 0x9 PUSH1 0x5 ADD DUP4 DUP1 SLOAD DUP1 PUSH1 0x20 MUL PUSH1 0x20 ADD PUSH1 0x40 MLOAD SWAP1 DUP2 ADD PUSH1 0x40 MSTORE DUP1 SWAP3 SWAP2 SWAP1 DUP2 DUP2 MSTORE PUSH1 0x20 ADD PUSH1 0x0 SWAP1 JUMPDEST DUP3 DUP3 LT ISZERO PUSH2 0x16DA JUMPI DUP4 DUP3 SWAP1 PUSH1 0x0 MSTORE PUSH1 0x20 PUSH1 0x0 KECCAK256 ADD DUP1 SLOAD PUSH2 0x164D SWAP1 PUSH2 0x1F45 JUMP JUMPDEST DUP1 PUSH1 0x1F ADD PUSH1 0x20 DUP1 SWAP2 DIV MUL PUSH1 0x20 ADD PUSH1 0x40 MLOAD SWAP1 DUP2 ADD PUSH1 0x40 MSTORE DUP1 SWAP3 SWAP2 SWAP1 DUP2 DUP2 MSTORE PUSH1 0x20 ADD DUP3 DUP1 SLOAD PUSH2 0x1679 SWAP1 PUSH2 0x1F45 JUMP JUMPDEST DUP1 ISZERO PUSH2 0x16C6 JUMPI DUP1 PUSH1 0x1F LT PUSH2 0x169B JUMPI PUSH2 0x100 DUP1 DUP4 SLOAD DIV MUL DUP4 MSTORE SWAP2 PUSH1 0x20 ADD SWAP2 PUSH2 0x16C6 JUMP JUMPDEST DUP3 ADD SWAP2 SWAP1 PUSH1 0x0 MSTORE PUSH1 0x20 PUSH1 0x0 KECCAK256 SWAP1 JUMPDEST DUP2 SLOAD DUP2 MSTORE SWAP1 PUSH1 0x1 ADD SWAP1 PUSH1 0x20 ADD DUP1 DUP4 GT PUSH2 0x16A9 JUMPI DUP3 SWAP1 SUB PUSH1 0x1F AND DUP3 ADD SWAP2 JUMPDEST POP POP POP POP POP DUP2 MSTORE PUSH1 0x20 ADD SWAP1 PUSH1 0x1 ADD SWAP1 PUSH2 0x162E JUMP JUMPDEST POP POP POP POP SWAP4 POP DUP2 PUSH1 0x40 MLOAD DUP1 PUSH1 0x60 ADD PUSH1 0x40 MSTORE SWAP1 DUP2 PUSH1 0x0 DUP3 ADD SLOAD DUP2 MSTORE PUSH1 0x20 ADD PUSH1 0x1 DUP3 ADD SLOAD DUP2 MSTORE PUSH1 0x20 ADD PUSH1 0x2 DUP3 ADD SLOAD DUP2 MSTORE POP POP SWAP2 POP DUP1 PUSH1 0x40 MLOAD DUP1 PUSH1 0x60 ADD PUSH1 0x40 MSTORE SWAP1 DUP2 PUSH1 0x0 DUP3 ADD SLOAD DUP2 MSTORE PUSH1 0x20 ADD PUSH1 0x1 DUP3 ADD SLOAD DUP2 MSTORE PUSH1 0x20 ADD PUSH1 0x2 DUP3 ADD SLOAD DUP2 MSTORE POP POP SWAP1 POP SWAP4 POP SWAP4 POP SWAP4 POP SWAP4 POP SWAP1 SWAP2 SWAP3 SWAP4 JUMP JUMPDEST DUP3 DUP1 SLOAD PUSH2 0x1752 SWAP1 PUSH2 0x1F45 JUMP JUMPDEST SWAP1 PUSH1 0x0 MSTORE PUSH1 0x20 PUSH1 0x0 KECCAK256 SWAP1 PUSH1 0x1F ADD PUSH1 0x20 SWAP1 DIV DUP2 ADD SWAP3 DUP3 PUSH2 0x1774 JUMPI PUSH1 0x0 DUP6 SSTORE PUSH2 0x17BB JUMP JUMPDEST DUP3 PUSH1 0x1F LT PUSH2 0x178D JUMPI DUP1 MLOAD PUSH1 0xFF NOT AND DUP4 DUP1 ADD OR DUP6 SSTORE PUSH2 0x17BB JUMP JUMPDEST DUP3 DUP1 ADD PUSH1 0x1 ADD DUP6 SSTORE DUP3 ISZERO PUSH2 0x17BB JUMPI SWAP2 DUP3 ADD JUMPDEST DUP3 DUP2 GT ISZERO PUSH2 0x17BA JUMPI DUP3 MLOAD DUP3 SSTORE SWAP2 PUSH1 0x20 ADD SWAP2 SWAP1 PUSH1 0x1 ADD SWAP1 PUSH2 0x179F JUMP JUMPDEST JUMPDEST POP SWAP1 POP PUSH2 0x17C8 SWAP2 SWAP1 PUSH2 0x17ED JUMP JUMPDEST POP SWAP1 JUMP JUMPDEST PUSH1 0x40 MLOAD DUP1 PUSH1 0x60 ADD PUSH1 0x40 MSTORE DUP1 PUSH1 0x0 DUP2 MSTORE PUSH1 0x20 ADD PUSH1 0x0 DUP2 MSTORE PUSH1 0x20 ADD PUSH1 0x0 DUP2 MSTORE POP SWAP1 JUMP JUMPDEST JUMPDEST DUP1 DUP3 GT ISZERO PUSH2 0x1806 JUMPI PUSH1 0x0 DUP2 PUSH1 0x0 SWAP1 SSTORE POP PUSH1 0x1 ADD PUSH2 0x17EE JUMP JUMPDEST POP SWAP1 JUMP JUMPDEST PUSH1 0x0 DUP2 MLOAD SWAP1 POP SWAP2 SWAP1 POP JUMP JUMPDEST PUSH1 0x0 DUP3 DUP3 MSTORE PUSH1 0x20 DUP3 ADD SWAP1 POP SWAP3 SWAP2 POP POP JUMP JUMPDEST PUSH1 0x0 JUMPDEST DUP4 DUP2 LT ISZERO PUSH2 0x1844 JUMPI DUP1 DUP3 ADD MLOAD DUP2 DUP5 ADD MSTORE PUSH1 0x20 DUP2 ADD SWAP1 POP PUSH2 0x1829 JUMP JUMPDEST DUP4 DUP2 GT ISZERO PUSH2 0x1853 JUMPI PUSH1 0x0 DUP5 DUP5 ADD MSTORE JUMPDEST POP POP POP POP JUMP JUMPDEST PUSH1 0x0 PUSH1 0x1F NOT PUSH1 0x1F DUP4 ADD AND SWAP1 POP SWAP2 SWAP1 POP JUMP JUMPDEST PUSH1 0x0 PUSH2 0x1875 DUP3 PUSH2 0x180A JUMP JUMPDEST PUSH2 0x187F DUP2 DUP6 PUSH2 0x1815 JUMP JUMPDEST SWAP4 POP PUSH2 0x188F DUP2 DUP6 PUSH1 0x20 DUP7 ADD PUSH2 0x1826 JUMP JUMPDEST PUSH2 0x1898 DUP2 PUSH2 0x1859 JUMP JUMPDEST DUP5 ADD SWAP2 POP POP SWAP3 SWAP2 POP POP JUMP JUMPDEST PUSH1 0x0 PUSH1 0x20 DUP3 ADD SWAP1 POP DUP2 DUP2 SUB PUSH1 0x0 DUP4 ADD MSTORE PUSH2 0x18BD DUP2 DUP5 PUSH2 0x186A JUMP JUMPDEST SWAP1 POP SWAP3 SWAP2 POP POP JUMP JUMPDEST PUSH1 0x0 DUP2 ISZERO ISZERO SWAP1 POP SWAP2 SWAP1 POP JUMP JUMPDEST PUSH2 0x18DA DUP2 PUSH2 0x18C5 JUMP JUMPDEST DUP3 MSTORE POP POP JUMP JUMPDEST PUSH1 0x0 DUP2 SWAP1 POP SWAP2 SWAP1 POP JUMP JUMPDEST PUSH2 0x18F3 DUP2 PUSH2 0x18E0 JUMP JUMPDEST DUP3 MSTORE POP POP JUMP JUMPDEST PUSH1 0x60 DUP3 ADD PUSH1 0x0 DUP3 ADD MLOAD PUSH2 0x190F PUSH1 0x0 DUP6 ADD DUP3 PUSH2 0x18EA JUMP JUMPDEST POP PUSH1 0x20 DUP3 ADD MLOAD PUSH2 0x1922 PUSH1 0x20 DUP6 ADD DUP3 PUSH2 0x18EA JUMP JUMPDEST POP PUSH1 0x40 DUP3 ADD MLOAD PUSH2 0x1935 PUSH1 0x40 DUP6 ADD DUP3 PUSH2 0x18EA JUMP JUMPDEST POP POP POP POP JUMP JUMPDEST PUSH1 0x0 PUSH2 0x100 DUP3 ADD SWAP1 POP PUSH2 0x1951 PUSH1 0x0 DUP4 ADD DUP8 PUSH2 0x18D1 JUMP JUMPDEST PUSH2 0x195E PUSH1 0x20 DUP4 ADD DUP7 PUSH2 0x18F9 JUMP JUMPDEST PUSH2 0x196B PUSH1 0x80 DUP4 ADD DUP6 PUSH2 0x18F9 JUMP JUMPDEST PUSH2 0x1978 PUSH1 0xE0 DUP4 ADD DUP5 PUSH2 0x18D1 JUMP JUMPDEST SWAP6 SWAP5 POP POP POP POP POP JUMP JUMPDEST PUSH2 0x198A DUP2 PUSH2 0x18E0 JUMP JUMPDEST DUP3 MSTORE POP POP JUMP JUMPDEST PUSH1 0x0 PUSH1 0x20 DUP3 ADD SWAP1 POP PUSH2 0x19A5 PUSH1 0x0 DUP4 ADD DUP5 PUSH2 0x1981 JUMP JUMPDEST SWAP3 SWAP2 POP POP JUMP JUMPDEST PUSH1 0x0 PUSH1 0x20 DUP3 ADD SWAP1 POP PUSH2 0x19C0 PUSH1 0x0 DUP4 ADD DUP5 PUSH2 0x18D1 JUMP JUMPDEST SWAP3 SWAP2 POP POP JUMP JUMPDEST PUSH1 0x0 PUSH20 0xFFFFFFFFFFFFFFFFFFFFFFFFFFFFFFFFFFFFFFFF DUP3 AND SWAP1 POP SWAP2 SWAP1 POP JUMP JUMPDEST PUSH1 0x0 PUSH2 0x19F1 DUP3 PUSH2 0x19C6 JUMP JUMPDEST SWAP1 POP SWAP2 SWAP1 POP JUMP JUMPDEST PUSH2 0x1A01 DUP2 PUSH2 0x19E6 JUMP JUMPDEST DUP3 MSTORE POP POP JUMP JUMPDEST PUSH1 0x0 PUSH1 0x20 DUP3 ADD SWAP1 POP PUSH2 0x1A1C PUSH1 0x0 DUP4 ADD DUP5 PUSH2 0x19F8 JUMP JUMPDEST SWAP3 SWAP2 POP POP JUMP JUMPDEST PUSH1 0x0 PUSH1 0x40 MLOAD SWAP1 POP SWAP1 JUMP JUMPDEST PUSH1 0x0 DUP1 REVERT JUMPDEST PUSH1 0x0 DUP1 REVERT JUMPDEST PUSH2 0x1A3F DUP2 PUSH2 0x18E0 JUMP JUMPDEST DUP2 EQ PUSH2 0x1A4A JUMPI PUSH1 0x0 DUP1 REVERT JUMPDEST POP JUMP JUMPDEST PUSH1 0x0 DUP2 CALLDATALOAD SWAP1 POP PUSH2 0x1A5C DUP2 PUSH2 0x1A36 JUMP JUMPDEST SWAP3 SWAP2 POP POP JUMP JUMPDEST PUSH1 0x0 PUSH1 0x20 DUP3 DUP5 SUB SLT ISZERO PUSH2 0x1A78 JUMPI PUSH2 0x1A77 PUSH2 0x1A2C JUMP JUMPDEST JUMPDEST PUSH1 0x0 PUSH2 0x1A86 DUP5 DUP3 DUP6 ADD PUSH2 0x1A4D JUMP JUMPDEST SWAP2 POP POP SWAP3 SWAP2 POP POP JUMP JUMPDEST PUSH1 0x0 PUSH2 0x100 DUP3 ADD SWAP1 POP PUSH2 0x1AA5 PUSH1 0x0 DUP4 ADD DUP12 PUSH2 0x1981 JUMP JUMPDEST PUSH2 0x1AB2 PUSH1 0x20 DUP4 ADD DUP11 PUSH2 0x1981 JUMP JUMPDEST PUSH2 0x1ABF PUSH1 0x40 DUP4 ADD DUP10 PUSH2 0x18D1 JUMP JUMPDEST PUSH2 0x1ACC PUSH1 0x60 DUP4 ADD DUP9 PUSH2 0x18D1 JUMP JUMPDEST PUSH2 0x1AD9 PUSH1 0x80 DUP4 ADD DUP8 PUSH2 0x18D1 JUMP JUMPDEST PUSH2 0x1AE6 PUSH1 0xA0 DUP4 ADD DUP7 PUSH2 0x18D1 JUMP JUMPDEST PUSH2 0x1AF3 PUSH1 0xC0 DUP4 ADD DUP6 PUSH2 0x18D1 JUMP JUMPDEST DUP2 DUP2 SUB PUSH1 0xE0 DUP4 ADD MSTORE PUSH2 0x1B05 DUP2 DUP5 PUSH2 0x186A JUMP JUMPDEST SWAP1 POP SWAP10 SWAP9 POP POP POP POP POP POP POP POP POP JUMP JUMPDEST PUSH1 0x0 PUSH2 0x180 DUP3 ADD SWAP1 POP DUP2 DUP2 SUB PUSH1 0x0 DUP4 ADD MSTORE PUSH2 0x1B2F DUP2 DUP16 PUSH2 0x186A JUMP JUMPDEST SWAP1 POP DUP2 DUP2 SUB PUSH1 0x20 DUP4 ADD MSTORE PUSH2 0x1B43 DUP2 DUP15 PUSH2 0x186A JUMP JUMPDEST SWAP1 POP DUP2 DUP2 SUB PUSH1 0x40 DUP4 ADD MSTORE PUSH2 0x1B57 DUP2 DUP14 PUSH2 0x186A JUMP JUMPDEST SWAP1 POP PUSH2 0x1B66 PUSH1 0x60 DUP4 ADD DUP13 PUSH2 0x1981 JUMP JUMPDEST PUSH2 0x1B73 PUSH1 0x80 DUP4 ADD DUP12 PUSH2 0x1981 JUMP JUMPDEST PUSH2 0x1B80 PUSH1 0xA0 DUP4 ADD DUP11 PUSH2 0x1981 JUMP JUMPDEST PUSH2 0x1B8D PUSH1 0xC0 DUP4 ADD DUP10 PUSH2 0x1981 JUMP JUMPDEST PUSH2 0x1B9A PUSH1 0xE0 DUP4 ADD DUP9 PUSH2 0x19F8 JUMP JUMPDEST PUSH2 0x1BA8 PUSH2 0x100 DUP4 ADD DUP8 PUSH2 0x19F8 JUMP JUMPDEST PUSH2 0x1BB6 PUSH2 0x120 DUP4 ADD DUP7 PUSH2 0x18D1 JUMP JUMPDEST PUSH2 0x1BC4 PUSH2 0x140 DUP4 ADD DUP6 PUSH2 0x18D1 JUMP JUMPDEST PUSH2 0x1BD2 PUSH2 0x160 DUP4 ADD DUP5 PUSH2 0x18D1 JUMP JUMPDEST SWAP14 SWAP13 POP POP POP POP POP POP POP POP POP POP POP POP POP JUMP JUMPDEST PUSH1 0x0 DUP1 REVERT JUMPDEST PUSH1 0x0 DUP1 REVERT JUMPDEST PUSH32 0x4E487B7100000000000000000000000000000000000000000000000000000000 PUSH1 0x0 MSTORE PUSH1 0x41 PUSH1 0x4 MSTORE PUSH1 0x24 PUSH1 0x0 REVERT JUMPDEST PUSH2 0x1C25 DUP3 PUSH2 0x1859 JUMP JUMPDEST DUP2 ADD DUP2 DUP2 LT PUSH8 0xFFFFFFFFFFFFFFFF DUP3 GT OR ISZERO PUSH2 0x1C44 JUMPI PUSH2 0x1C43 PUSH2 0x1BED JUMP JUMPDEST JUMPDEST DUP1 PUSH1 0x40 MSTORE POP POP POP JUMP JUMPDEST PUSH1 0x0 PUSH2 0x1C57 PUSH2 0x1A22 JUMP JUMPDEST SWAP1 POP PUSH2 0x1C63 DUP3 DUP3 PUSH2 0x1C1C JUMP JUMPDEST SWAP2 SWAP1 POP JUMP JUMPDEST PUSH1 0x0 PUSH8 0xFFFFFFFFFFFFFFFF DUP3 GT ISZERO PUSH2 0x1C83 JUMPI PUSH2 0x1C82 PUSH2 0x1BED JUMP JUMPDEST JUMPDEST PUSH2 0x1C8C DUP3 PUSH2 0x1859 JUMP JUMPDEST SWAP1 POP PUSH1 0x20 DUP2 ADD SWAP1 POP SWAP2 SWAP1 POP JUMP JUMPDEST DUP3 DUP2 DUP4 CALLDATACOPY PUSH1 0x0 DUP4 DUP4 ADD MSTORE POP POP POP JUMP JUMPDEST PUSH1 0x0 PUSH2 0x1CBB PUSH2 0x1CB6 DUP5 PUSH2 0x1C68 JUMP JUMPDEST PUSH2 0x1C4D JUMP JUMPDEST SWAP1 POP DUP3 DUP2 MSTORE PUSH1 0x20 DUP2 ADD DUP5 DUP5 DUP5 ADD GT ISZERO PUSH2 0x1CD7 JUMPI PUSH2 0x1CD6 PUSH2 0x1BE8 JUMP JUMPDEST JUMPDEST PUSH2 0x1CE2 DUP5 DUP3 DUP6 PUSH2 0x1C99 JUMP JUMPDEST POP SWAP4 SWAP3 POP POP POP JUMP JUMPDEST PUSH1 0x0 DUP3 PUSH1 0x1F DUP4 ADD SLT PUSH2 0x1CFF JUMPI PUSH2 0x1CFE PUSH2 0x1BE3 JUMP JUMPDEST JUMPDEST DUP2 CALLDATALOAD PUSH2 0x1D0F DUP5 DUP3 PUSH1 0x20 DUP7 ADD PUSH2 0x1CA8 JUMP JUMPDEST SWAP2 POP POP SWAP3 SWAP2 POP POP JUMP JUMPDEST PUSH1 0x0 PUSH1 0x20 DUP3 DUP5 SUB SLT ISZERO PUSH2 0x1D2E JUMPI PUSH2 0x1D2D PUSH2 0x1A2C JUMP JUMPDEST JUMPDEST PUSH1 0x0 DUP3 ADD CALLDATALOAD PUSH8 0xFFFFFFFFFFFFFFFF DUP2 GT ISZERO PUSH2 0x1D4C JUMPI PUSH2 0x1D4B PUSH2 0x1A31 JUMP JUMPDEST JUMPDEST PUSH2 0x1D58 DUP5 DUP3 DUP6 ADD PUSH2 0x1CEA JUMP JUMPDEST SWAP2 POP POP SWAP3 SWAP2 POP POP JUMP JUMPDEST PUSH1 0x0 DUP1 PUSH1 0x40 DUP4 DUP6 SUB SLT ISZERO PUSH2 0x1D78 JUMPI PUSH2 0x1D77 PUSH2 0x1A2C JUMP JUMPDEST JUMPDEST PUSH1 0x0 DUP4 ADD CALLDATALOAD PUSH8 0xFFFFFFFFFFFFFFFF DUP2 GT ISZERO PUSH2 0x1D96 JUMPI PUSH2 0x1D95 PUSH2 0x1A31 JUMP JUMPDEST JUMPDEST PUSH2 0x1DA2 DUP6 DUP3 DUP7 ADD PUSH2 0x1CEA JUMP JUMPDEST SWAP3 POP POP PUSH1 0x20 PUSH2 0x1DB3 DUP6 DUP3 DUP7 ADD PUSH2 0x1A4D JUMP JUMPDEST SWAP2 POP POP SWAP3 POP SWAP3 SWAP1 POP JUMP JUMPDEST PUSH1 0x0 DUP2 MLOAD SWAP1 POP SWAP2 SWAP1 POP JUMP JUMPDEST PUSH1 0x0 DUP3 DUP3 MSTORE PUSH1 0x20 DUP3 ADD SWAP1 POP SWAP3 SWAP2 POP POP JUMP JUMPDEST PUSH1 0x0 DUP2 SWAP1 POP PUSH1 0x20 DUP3 ADD SWAP1 POP SWAP2 SWAP1 POP JUMP JUMPDEST PUSH1 0x0 DUP3 DUP3 MSTORE PUSH1 0x20 DUP3 ADD SWAP1 POP SWAP3 SWAP2 POP POP JUMP JUMPDEST PUSH1 0x0 PUSH2 0x1E05 DUP3 PUSH2 0x180A JUMP JUMPDEST PUSH2 0x1E0F DUP2 DUP6 PUSH2 0x1DE9 JUMP JUMPDEST SWAP4 POP PUSH2 0x1E1F DUP2 DUP6 PUSH1 0x20 DUP7 ADD PUSH2 0x1826 JUMP JUMPDEST PUSH2 0x1E28 DUP2 PUSH2 0x1859 JUMP JUMPDEST DUP5 ADD SWAP2 POP POP SWAP3 SWAP2 POP POP JUMP JUMPDEST PUSH1 0x0 PUSH2 0x1E3F DUP4 DUP4 PUSH2 0x1DFA JUMP JUMPDEST SWAP1 POP SWAP3 SWAP2 POP POP JUMP JUMPDEST PUSH1 0x0 PUSH1 0x20 DUP3 ADD SWAP1 POP SWAP2 SWAP1 POP JUMP JUMPDEST PUSH1 0x0 PUSH2 0x1E5F DUP3 PUSH2 0x1DBD JUMP JUMPDEST PUSH2 0x1E69 DUP2 DUP6 PUSH2 0x1DC8 JUMP JUMPDEST SWAP4 POP DUP4 PUSH1 0x20 DUP3 MUL DUP6 ADD PUSH2 0x1E7B DUP6 PUSH2 0x1DD9 JUMP JUMPDEST DUP1 PUSH1 0x0 JUMPDEST DUP6 DUP2 LT ISZERO PUSH2 0x1EB7 JUMPI DUP5 DUP5 SUB DUP10 MSTORE DUP2 MLOAD PUSH2 0x1E98 DUP6 DUP3 PUSH2 0x1E33 JUMP JUMPDEST SWAP5 POP PUSH2 0x1EA3 DUP4 PUSH2 0x1E47 JUMP JUMPDEST SWAP3 POP PUSH1 0x20 DUP11 ADD SWAP10 POP POP PUSH1 0x1 DUP2 ADD SWAP1 POP PUSH2 0x1E7F JUMP JUMPDEST POP DUP3 SWAP8 POP DUP8 SWAP6 POP POP POP POP POP POP SWAP3 SWAP2 POP POP JUMP JUMPDEST PUSH1 0x0 PUSH2 0x100 DUP3 ADD SWAP1 POP DUP2 DUP2 SUB PUSH1 0x0 DUP4 ADD MSTORE PUSH2 0x1EE4 DUP2 DUP8 PUSH2 0x1E54 JUMP JUMPDEST SWAP1 POP PUSH2 0x1EF3 PUSH1 0x20 DUP4 ADD DUP7 PUSH2 0x18D1 JUMP JUMPDEST PUSH2 0x1F00 PUSH1 0x40 DUP4 ADD DUP6 PUSH2 0x18F9 JUMP JUMPDEST PUSH2 0x1F0D PUSH1 0xA0 DUP4 ADD DUP5 PUSH2 0x18F9 JUMP JUMPDEST SWAP6 SWAP5 POP POP POP POP POP JUMP JUMPDEST PUSH32 0x4E487B7100000000000000000000000000000000000000000000000000000000 PUSH1 0x0 MSTORE PUSH1 0x22 PUSH1 0x4 MSTORE PUSH1 0x24 PUSH1 0x0 REVERT JUMPDEST PUSH1 0x0 PUSH1 0x2 DUP3 DIV SWAP1 POP PUSH1 0x1 DUP3 AND DUP1 PUSH2 0x1F5D JUMPI PUSH1 0x7F DUP3 AND SWAP2 POP JUMPDEST PUSH1 0x20 DUP3 LT DUP2 EQ ISZERO PUSH2 0x1F71 JUMPI PUSH2 0x1F70 PUSH2 0x1F16 JUMP JUMPDEST JUMPDEST POP SWAP2 SWAP1 POP JUMP JUMPDEST PUSH32 0x596F7520617265206E6F742074686520737570706C6965720000000000000000 PUSH1 0x0 DUP3 ADD MSTORE POP JUMP JUMPDEST PUSH1 0x0 PUSH2 0x1FAD PUSH1 0x18 DUP4 PUSH2 0x1815 JUMP JUMPDEST SWAP2 POP PUSH2 0x1FB8 DUP3 PUSH2 0x1F77 JUMP JUMPDEST PUSH1 0x20 DUP3 ADD SWAP1 POP SWAP2 SWAP1 POP JUMP JUMPDEST PUSH1 0x0 PUSH1 0x20 DUP3 ADD SWAP1 POP DUP2 DUP2 SUB PUSH1 0x0 DUP4 ADD MSTORE PUSH2 0x1FDC DUP2 PUSH2 0x1FA0 JUMP JUMPDEST SWAP1 POP SWAP2 SWAP1 POP JUMP JUMPDEST PUSH32 0x596F7520617265206E6F742074686520637573746F6D65720000000000000000 PUSH1 0x0 DUP3 ADD MSTORE POP JUMP JUMPDEST PUSH1 0x0 PUSH2 0x2019 PUSH1 0x18 DUP4 PUSH2 0x1815 JUMP JUMPDEST SWAP2 POP PUSH2 0x2024 DUP3 PUSH2 0x1FE3 JUMP JUMPDEST PUSH1 0x20 DUP3 ADD SWAP1 POP SWAP2 SWAP1 POP JUMP JUMPDEST PUSH1 0x0 PUSH1 0x20 DUP3 ADD SWAP1 POP DUP2 DUP2 SUB PUSH1 0x0 DUP4 ADD MSTORE PUSH2 0x2048 DUP2 PUSH2 0x200C JUMP JUMPDEST SWAP1 POP SWAP2 SWAP1 POP JUMP JUMPDEST PUSH32 0x546865207465726D732061726520616C72656164792061636365707465640000 PUSH1 0x0 DUP3 ADD MSTORE POP JUMP JUMPDEST PUSH1 0x0 PUSH2 0x2085 PUSH1 0x1E DUP4 PUSH2 0x1815 JUMP JUMPDEST SWAP2 POP PUSH2 0x2090 DUP3 PUSH2 0x204F JUMP JUMPDEST PUSH1 0x20 DUP3 ADD SWAP1 POP SWAP2 SWAP1 POP JUMP JUMPDEST PUSH1 0x0 PUSH1 0x20 DUP3 ADD SWAP1 POP DUP2 DUP2 SUB PUSH1 0x0 DUP4 ADD MSTORE PUSH2 0x20B4 DUP2 PUSH2 0x2078 JUMP JUMPDEST SWAP1 POP SWAP2 SWAP1 POP JUMP JUMPDEST PUSH32 0x5465726D7320617265206E6F7420616363657074656400000000000000000000 PUSH1 0x0 DUP3 ADD MSTORE POP JUMP JUMPDEST PUSH1 0x0 PUSH2 0x20F1 PUSH1 0x16 DUP4 PUSH2 0x1815 JUMP JUMPDEST SWAP2 POP PUSH2 0x20FC DUP3 PUSH2 0x20BB JUMP JUMPDEST PUSH1 0x20 DUP3 ADD SWAP1 POP SWAP2 SWAP1 POP JUMP JUMPDEST PUSH1 0x0 PUSH1 0x20 DUP3 ADD SWAP1 POP DUP2 DUP2 SUB PUSH1 0x0 DUP4 ADD MSTORE PUSH2 0x2120 DUP2 PUSH2 0x20E4 JUMP JUMPDEST SWAP1 POP SWAP2 SWAP1 POP JUMP JUMPDEST PUSH32 0x5061796D656E74206973206E6F7420646F6E6500000000000000000000000000 PUSH1 0x0 DUP3 ADD MSTORE POP JUMP JUMPDEST PUSH1 0x0 PUSH2 0x215D PUSH1 0x13 DUP4 PUSH2 0x1815 JUMP JUMPDEST SWAP2 POP PUSH2 0x2168 DUP3 PUSH2 0x2127 JUMP JUMPDEST PUSH1 0x20 DUP3 ADD SWAP1 POP SWAP2 SWAP1 POP JUMP JUMPDEST PUSH1 0x0 PUSH1 0x20 DUP3 ADD SWAP1 POP DUP2 DUP2 SUB PUSH1 0x0 DUP4 ADD MSTORE PUSH2 0x218C DUP2 PUSH2 0x2150 JUMP JUMPDEST SWAP1 POP SWAP2 SWAP1 POP JUMP JUMPDEST PUSH32 0x4E487B7100000000000000000000000000000000000000000000000000000000 PUSH1 0x0 MSTORE PUSH1 0x11 PUSH1 0x4 MSTORE PUSH1 0x24 PUSH1 0x0 REVERT JUMPDEST PUSH1 0x0 PUSH2 0x21CD DUP3 PUSH2 0x18E0 JUMP JUMPDEST SWAP2 POP PUSH32 0xFFFFFFFFFFFFFFFFFFFFFFFFFFFFFFFFFFFFFFFFFFFFFFFFFFFFFFFFFFFFFFFF DUP3 EQ ISZERO PUSH2 0x2200 JUMPI PUSH2 0x21FF PUSH2 0x2193 JUMP JUMPDEST JUMPDEST PUSH1 0x1 DUP3 ADD SWAP1 POP SWAP2 SWAP1 POP JUMP JUMPDEST PUSH32 0x546865207465726D7320617265206E6F74206163636570746564000000000000 PUSH1 0x0 DUP3 ADD MSTORE POP JUMP JUMPDEST PUSH1 0x0 PUSH2 0x2241 PUSH1 0x1A DUP4 PUSH2 0x1815 JUMP JUMPDEST SWAP2 POP PUSH2 0x224C DUP3 PUSH2 0x220B JUMP JUMPDEST PUSH1 0x20 DUP3 ADD SWAP1 POP SWAP2 SWAP1 POP JUMP JUMPDEST PUSH1 0x0 PUSH1 0x20 DUP3 ADD SWAP1 POP DUP2 DUP2 SUB PUSH1 0x0 DUP4 ADD MSTORE PUSH2 0x2270 DUP2 PUSH2 0x2234 JUMP JUMPDEST SWAP1 POP SWAP2 SWAP1 POP JUMP JUMPDEST PUSH32 0x54686520616D6F756E7420656E7465726564206973206D6F7265207468616E20 PUSH1 0x0 DUP3 ADD MSTORE PUSH32 0x77686174206E6565647320746F20626520706169640000000000000000000000 PUSH1 0x20 DUP3 ADD MSTORE POP JUMP JUMPDEST PUSH1 0x0 PUSH2 0x22D3 PUSH1 0x35 DUP4 PUSH2 0x1815 JUMP JUMPDEST SWAP2 POP PUSH2 0x22DE DUP3 PUSH2 0x2277 JUMP JUMPDEST PUSH1 0x40 DUP3 ADD SWAP1 POP SWAP2 SWAP1 POP JUMP JUMPDEST PUSH1 0x0 PUSH1 0x20 DUP3 ADD SWAP1 POP DUP2 DUP2 SUB PUSH1 0x0 DUP4 ADD MSTORE PUSH2 0x2302 DUP2 PUSH2 0x22C6 JUMP JUMPDEST SWAP1 POP SWAP2 SWAP1 POP JUMP JUMPDEST PUSH1 0x0 PUSH2 0x2314 DUP3 PUSH2 0x18E0 JUMP JUMPDEST SWAP2 POP PUSH2 0x231F DUP4 PUSH2 0x18E0 JUMP JUMPDEST SWAP3 POP DUP3 PUSH32 0xFFFFFFFFFFFFFFFFFFFFFFFFFFFFFFFFFFFFFFFFFFFFFFFFFFFFFFFFFFFFFFFF SUB DUP3 GT ISZERO PUSH2 0x2354 JUMPI PUSH2 0x2353 PUSH2 0x2193 JUMP JUMPDEST JUMPDEST DUP3 DUP3 ADD SWAP1 POP SWAP3 SWAP2 POP POP JUMP JUMPDEST PUSH1 0x0 PUSH2 0x236A DUP3 PUSH2 0x18E0 JUMP JUMPDEST SWAP2 POP PUSH2 0x2375 DUP4 PUSH2 0x18E0 JUMP JUMPDEST SWAP3 POP DUP3 DUP3 LT ISZERO PUSH2 0x2388 JUMPI PUSH2 0x2387 PUSH2 0x2193 JUMP JUMPDEST JUMPDEST DUP3 DUP3 SUB SWAP1 POP SWAP3 SWAP2 POP POP JUMP JUMPDEST PUSH32 0x596F752063616E277420666F7266656974206E6F6E2061636365707465642074 PUSH1 0x0 DUP3 ADD MSTORE PUSH32 0x65726D7300000000000000000000000000000000000000000000000000000000 PUSH1 0x20 DUP3 ADD MSTORE POP JUMP JUMPDEST PUSH1 0x0 PUSH2 0x23EF PUSH1 0x24 DUP4 PUSH2 0x1815 JUMP JUMPDEST SWAP2 POP PUSH2 0x23FA DUP3 PUSH2 0x2393 JUMP JUMPDEST PUSH1 0x40 DUP3 ADD SWAP1 POP SWAP2 SWAP1 POP JUMP JUMPDEST PUSH1 0x0 PUSH1 0x20 DUP3 ADD SWAP1 POP DUP2 DUP2 SUB PUSH1 0x0 DUP4 ADD MSTORE PUSH2 0x241E DUP2 PUSH2 0x23E2 JUMP JUMPDEST SWAP1 POP SWAP2 SWAP1 POP JUMP INVALID LOG2 PUSH5 0x6970667358 0x22 SLT KECCAK256 SELFBALANCE CHAINID 0xEE PUSH14 0xD589E3A1120C611FF9C5E30364BB REVERT DELEGATECALL 0xA7 DUP2 0x5D TIMESTAMP 0x49 0xE7 PUSH1 0xB9 SWAP10 DELEGATECALL PUSH28 0x5264736F6C634300080A0033A26469706673582212202F06F35A98DE PUSH20 0x3DD821FBDA6AEE948CA7F86FB76D12C3F04ACE50 SHR 0xDE 0xCA CALLDATACOPY 0xBC PUSH5 0x736F6C6343 STOP ADDMOD EXP STOP CALLER "},"gasEstimates":{"creation":{"codeDepositCost":"3065800","executionCost":"3381","totalCost":"3069181"},"external":{"createTransaction(string[],uint256,address,string,(uint256,uint256,uint256),(uint256,uint256,uint256),string,string,string,string)":"infinite","deployedTransactions(uint256)":"infinite","getDeployedTransactions()":"infinite"}},"methodIdentifiers":{"createTransaction(string[],uint256,address,string,(uint256,uint256,uint256),(uint256,uint256,uint256),string,string,string,string)":"4102a008","deployedTransactions(uint256)":"e17036f4","getDeployedTransactions()":"f4d79e6c"}},"storageLayout":{"storage":[{"astId":13,"contract":"Transaction.sol:TransactionFactory","label":"deployedTransactions","offset":0,"slot":"0","type":"t_array(t_contract(RecurrentTransaction)771)dyn_storage"}],"types":{"t_array(t_contract(RecurrentTransaction)771)dyn_storage":{"base":"t_contract(RecurrentTransaction)771","encoding":"dynamic_array","label":"contract RecurrentTransaction[]","numberOfBytes":"32"},"t_contract(RecurrentTransaction)771":{"encoding":"inplace","label":"contract RecurrentTransaction","numberOfBytes":"20"}}},"userdoc":{"kind":"user","methods":{},"version":1}}